:100000000C943E000C945B000C945B000C945B0021
:100010000C945B000C945B000C945B000C945B00F4
:100020000C945B000C945B000C945B000C945B00E4
:100030000C945B000C945B000C945B000C945B00D4
:100040000C945B000C945B000C945B000C945B00C4
:100050000C945B000C945B000C945B000C945B00B4
:100060000C945B000C945B000C945B000C945B00A4
:100070000C945B000C945B000C945B0011241FBE7D
:10008000CFEFCDBFDFE3DEBF18E3A0E0B8E3E5E9E3
:10009000FFE002C005900D92A230B107D9F72AE324
:1000A000A2E0B8E301C01D92AB3CB207E1F70E94A9
:1000B00002030C94AA060C940000209A05B038E7BD
:1000C0002CE32A95F1F7289801F02BE12A95F1F716
:1000D00080FB00F887953041000087F905B8A8F744
:1000E0002DE12A95F1F730FB00F805B82EE12A95AD
:1000F000F1F7289A2098089520982898A0E0BAE06F
:1001000088E015968C9315978DE08C93EBE0FAE0E0
:1001100080E82081207279F43099FBCF21E12A9583
:10012000F1F72CE12150F1F7309908948795C8F741
:100130002CE32A95F1F7289A9CE09C93089585E595
:100140000E945D008BE80E945D000C947C0085E5B8
:100150000E945D0084E00E945D0082E00E945D00DC
:1001600080E10E945D000C947C008627E82FF0E07F
:10017000EE0FFF1FE05AF247808187279181089593
:10018000CF93C82F85E50E945D0084E60E945D0044
:100190008C2F0E945D00CF910C947C00CF9385E55D
:1001A0000E945D0089E20E945D000E947C00C82FD1
:1001B0000E947C00982F8C2FCF9108951F93CF938E
:1001C000DF93162FD72FC82F85E50E945D008AE6A2
:1001D0000E945D00812F0E945D008D2F0E945D00B6
:1001E0008C2F0E945D00DF91CF911F910C947C00B9
:1001F000CF93DF93D82FC92F85E50E945D0089E654
:100200000E945D008D2F0E945D008C2F0E945D007A
:10021000DF91CF910C947C000F931F93CF93DF93CA
:100220008B01D82FC42F85E50E945D0088E40E94D1
:100230005D00802F0E945D00812F0E945D008D2F48
:100240000E945D000E947C008C2F0E945D00DF9167
:10025000CF911F910F910C947C001F93CF93DF934C
:10026000182FD92FC62F85E50E945D0084E40E94D7
:100270005D00812F0E945D008D2F0E945D000E9415
:100280007C008C2F0E945D00DF91CF911F910C9418
:100290007C00CF93C82F85E50E945D0080EA0E9414
:1002A0005D008C2FCF910C945D00CF93DF93D82FFE
:1002B000C62F85E50E945D0080EC8D0F0E945D00D9
:1002C0008C2FDF91CF910C945D00CF93DF9369E584
:1002D00088E090E00E94550160E088E090E00E9494
:1002E0005501C0E0D0E30E949F008E7051F4C230EF
:1002F00041F080910B0A85FFF6CFD0930B0ACF5FB8
:10030000F2CF81E0C23008F080E0DF91CF91089514
:10031000EF92FF921F93CF93DF93D82FC62F1FEF3B
:10032000180F0E94CE007C010E94A7008370E1F7A5
:10033000C7010E94F8006EE082E090E00E94550143
:10034000812F0E944901EC2FF0E0EA5FF74C168103
:1003500085E50E945D0084E60E945D00812F0E9479
:100360005D00DC0FCF5FCD1741F0EC2FF0E0EA5FCE
:10037000F74C86810E945D00F5CF66E082E090E058
:100380000E9455018C2FDF91CF911F91FF90EF902C
:1003900008950E94A7008370E1F70895482F60E058
:1003A00070E180E090E00C940C0185E50E945D0016
:1003B00088E00E945D0082E00E945D0080E10E9472
:1003C0005D0080E00E945D000E947C00837069F700
:1003D00008950F931F93CF938C0185E50E945D00D4
:1003E00080EE0E945D00C8E0F80181918F010E94BB
:1003F0005D00C150C9F7CF911F910F910895E6E0BC
:10040000F8E321E030E0228333838683089564E0BB
:1004100083E090E00E9455018091CA3A8E7F8093DC
:10042000CA3A80E80C94FF010E949F008F7E8830BA
:1004300029F08238A1F40F988BEA0CC08091003823
:10044000823051F40E94D5010E9465010F988823E3
:1004500099F380E80C94FF010E94C901F5CF22E0D6
:1004600030E0209308383093093895EA90930C389F
:1004700080930D380895CF930E949F00C82FCF7EA0
:10048000C13271F048F4C830F9F085EA80930C3835
:10049000C0930D38CF910895C23811F0C23AA9F730
:1004A0000E946501811104C08BEACF910C94FF0179
:1004B0000E949F0080FDE9CF88E59DE80E94E90148
:1004C0000E946501882381F380910038813041F4D6
:1004D00064E080E090E10E942D010F9A80E8E5CF72
:1004E0000E94D50140E062E070E180E090E00E946F
:1004F0000C0181E00E94CE01F0CF88E08093050AD4
:100500008DE08093000A8091040886FD04C08091EC
:100510000B0A84FFF8CF8CE08093000A089588E0EE
:100520008093050A8DE08093000A8091040887FD7E
:1005300004C080910B0A84FFF8CF8CE08093000AFE
:100540008091000808959091040895FFFCCF90E4F5
:10055000909304088093020808950F931F93CF93FC
:10056000DF938BE10E94A3026FEF7FEF0E94B50043
:10057000EC0106E018E3F80181918F010E94A302CB
:10058000BE010E94B500EC01F8E30C301F0799F79B
:100590008EE00E94A302BE010E94B5008C01C6E05D
:1005A000D8E3CE01865098432196209108383091A7
:1005B00009388217930740F48D810E94A302B80185
:1005C0000E94B5008C01EDCF802F0E94A302812FE5
:1005D000DF91CF911F910F910C94A302209A28983C
:1005E0002FEF8FE591E0215080409040E1F700C06F
:1005F0000000289A8FEF97E20197F1F700C0000002
:100600002098089588ED90E084BF90936100079A48
:10061000069A8BE49CE48093280A9093290A84E844
:100620009EE180932A0A90932B0A2A9A229A87E4C1
:1006300090E1809308089093090880EC8093060865
:10064000B12C04E010E073E0E72EF12CEDE12E2E4A
:10065000312CFCE08F2EF8E39F2E0E948F028B310D
:1006600019F180910B0A84FFF8CF80910B0A84FF67
:10067000F4CF80910B0A84FD38C320E320930B0A4A
:1006800080910C38883009F45EC108F06EC0823069
:1006900009F42CC108F04FC0882309F43FC1813010
:1006A00009F49EC080EADFC06FEF7FEF8BE10E940C
:1006B000B500EC0166E0C62E68E3D62E0E948F02DC
:1006C000F60181936F01BE010E94B500EC018C140C
:1006D0009D04A1F780910838909109388D3B924094
:1006E00020F60E948F028E3009F0BFCFBE010E941B
:1006F000B5006C01C6E0D8E3CE0186509843219640
:1007000020910838309109388217930740F40E94ED
:100710008F028D83B6010E94B5006C01EDCF0E945F
:100720008F02C82F0E948F02982F8C2FC816D906CF
:1007300009F09BCF9ECF843009F458C108F489C0DA
:10074000853009F0AFCF0E949F00883009F400C1C6
:1007500082E090E08093083890930938F5EAF093AE
:100760000C3881E080930D3855C08F3009F4D4C027
:1007700058F58B3009F4D0C08C3009F093CF8091BC
:100780000039909101398093043890930538809115
:100790000239809303380E94EE020E94EE0266E066
:1007A00082E090E00E9455018091043890910538D4
:1007B0008F3F910509F008F4C9C082E080930038AA
:1007C0008091CA3A8160B9C0853109F4B9C08433D7
:1007D00009F440C2843109F065CF0E943B021AC07F
:1007E00082E0809302380093C83A1093C93A20926D
:1007F000083830920938E0E6FFE8ACE0B8E38191D0
:100800008D933FE8ED37F307D1F78091CA3A8260C4
:100810008093CA3A80910B0A85FF03C08BEA0E943D
:10082000FF010E94AD020E947D02E091C83AF09162
:10083000C93AEE0FFF1FED57F047808191818093F9
:10084000080890930908C0E0F0E3F0930B0ABC2E6F
:1008500004CF80910D388330A9F140F48130A9F0A4
:10086000823001F181EA0E94FF01D4CF8530A9F1E5
:100870008630C1F7E0920838F092093888E8809312
:100880000D3893E190930E3809C0E0920838F09249
:10089000093881E080930D3880930E38E1E8E093C9
:1008A0000C38B8CF85E090E08093083890930938F1
:1008B00010920D3886E080930E3810920F38809396
:1008C0001038ECCF82E090E080930838909309389C
:1008D0008091023880930D38E1CF8091C83A22E0B0
:1008E00030E02093083830930938F4CF80910E38E7
:1008F00090910D38933071F0953009F0B3CF9FEFA0
:10090000980F983008F0AECF90E08093C83A90935B
:10091000C93A02C08093023880E8A5CF0093C83A54
:100920001093C93A8091CA3A80FF04C00E94140211
:100930000E9407028091CA3A8D7F8093CA3AECCF19
:100940000E94140267CF0E94070264CF81E036CF75
:10095000C0910E38D0910F388091003852E0D52EDA
:10096000813011F043E0D42E85E50E945D0087E6DA
:100970008D0D0E945D00809112380E945D00809173
:1009800013380E945D0023E0D21204C08091143815
:100990000E945D000E947C008C2F81500E944901C2
:1009A00085E50E945D0084E20E945D000E947C005B
:1009B00080930D382EE0A22E28E3B22E32E0C32E13
:1009C000D12CCC15DD0548F00E947C00F501819307
:1009D0005F01FFEFCF1ADF0AF4CF2196C0930838EA
:1009E000D093093882E880930C3814CF0E949F007E
:1009F000883009F0ADCE80910D38C0910E38D0917D
:100A00000F386090003821E062127AC0D09012381E
:100A1000C090133890E4980F50900438923068F0EA
:100A200050900338843B08F046C0823B08F049C030
:100A3000823209F044C093E0692E8D2D9C2D0E94D6
:100A4000F800D1948FEF850DD822DC161D0611F029
:100A500008F0DC2E8AE0782EDD2091F06AE08D2D02
:100A60000E948801782ECD19D1090E94CE006C0118
:100A7000662D80E090E10E942D01C6010E94F800E1
:100A8000C52CD12C209709F447CF672DCC15DD0557
:100A900080F1852D0E948801782ECC19DD090E94F5
:100AA000CE005C01662D80E090E10E942D01C50121
:100AB0000E94F800E7CF845C823008F4BCCF82EA61
:100AC000D2CEC091163886E090E10E94F8008C2FBB
:100AD0000E94C00080E00E94C0008D2D0E94C000D6
:100AE0008C2D0E94C00067E080E090E10E942D0103
:100AF00013CF8C2F0E948801782ED0E0C0E0CFCF9A
:100B0000823C08F051C0803C08F054C0823221F091
:100B1000B0F2825B823098F6B3E1DB2E409014385D
:100B2000512C712C612C32015524442480911238AF
:100B3000482A8091133890E0982F8827B0E0A0E0F1
:100B4000482A592A6A2A7B2A0E94D50181E00E94FC
:100B5000CE018D2D0E94CE0140911638C130D105B5
:100B600009F4BEC0C430D10518F032E0D31629F123
:100B70008D2D0E94CE01C301B2010E94DE008C2F98
:100B800081500E944901809116380E94C000DC2EDD
:100B9000C7E1D8E3DA94DD2009F4BECE89910E9442
:100BA0005D000E947C00F6CF843C09F4B5CF853C03
:100BB00009F085CFA2E0DA2EB1CF5E01B694A794FA
:100BC000BA2CAA94C301B2010E94DE006EE082E05A
:100BD00090E00E9455018A2D0E944901D09017385B
:100BE000C090163885E50E945D0085E60E945D0094
:100BF0008C2D0E945D008D2D0E945D0076E0C72E39
:100C000078E3D72EBA9482E0C80ED11CBB2049F0FD
:100C1000F60180890E945D00F60181890E945D00D5
:100C2000F1CFEA2DF0E03696EE0FFF1FC0FF0CC0AB
:100C3000EA5FF74CC68185E50E945D0084E60E946C
:100C40005D008C2F0E945D0066E082E090E00E94D3
:100C5000550162CE20910D38263070F4243090F486
:100C6000211120CD8DE79FE80E94E9010E946501D6
:100C70008111B3CD8BEAF7CD263009F44DCE273064
:100C800009F010CD40901038512C712C612C32019C
:100C90005524442480910E38482A80910F3890E0E2
:100CA000982F8827B0E0A0E0482A592A6A2A7B2A90
:100CB00080910038813059F4273009F42DCE0E94FC
:100CC000C9016FEFC2010E942D0162E00DCF0E94A9
:100CD000D50181E00E94CE0188E00E94CE014FEF55
:100CE000C301B2010E940C0117CE8091CA3ACB2DEC
:100CF00081FFAACDC1E0CB0D33E03B15A8F40093F2
:100D0000C83A1093C93AE7E4F0E1E0930808F09399
:100D10000908982F9D7F9093CA3A80FF95CD0E9435
:100D200014020E94070290CD80EA0E94FF010E94F7
:100D3000AD020E947D02E091C83AF091C93AEE0FEF
:100D4000FF1FED57F04780819181809308089093B1
:080D500009087ACDF894FFCFE9
:100D580020676F72504D564E0000891112239B3246
:100D68002446AD573665BF74488CC19D5AAFD3BE73
:100D78006CCAE5DB7EE9F7F88110080193331A2283
:100D8800A5562C47B7753E64C99C408DDBBF52AE53
:100D9800EDDA64CBFFF976E802218B301002991363
:100DA8002667AF763444BD554AADC3BC588ED19F33
:100DB8006EEBE7FA7CC8F5D983310A209112180343
:100DC800A7772E66B5543C45CBBD42ACD99E508F13
:100DD800EFFB66EAFDD874C904428D5316619F7013
:100DE8002004A9153227BB364CCEC5DF5EEDD7FCF3
:100DF8006888E1997AABF3BA85520C4397711E6003
:100E0800A1142805B3373A26CDDE44CFDFFD56ECD2
:100E1800E9986089FBBB72AA06638F7214409D51E2
:100E28002225AB343006B9174EEFC7FE5CCCD5DDB2
:100E38006AA9E3B8788AF19B87730E6295501C41C2
:100E4800A3352A24B1163807CFFF46EEDDDC54CD92
:100E5800EBB962A8F99A708B088481951AA793B6A2
:100E68002CC2A5D33EE1B7F04008C919522BDB3A92
:100E7800644EED5F766DFF7C899400859BB712A662
:100E8800ADD224C3BFF136E0C1184809D33B5A2A72
:100E9800E55E6C4FF77D7E6C0AA583B41886919742
:100EA8002EE3A7F23CC0B5D14229CB38500AD91B52
:100EB800666FEF7E744CFD5D8BB502A49996108722
:100EC800AFF326E2BDD034C1C3394A28D11A580B32
:100ED800E77F6E6EF55C7C4D0CC685D71EE597F4F2
:100EE8002880A1913AA3B3B2444ACD5B5669DF7812
:100EF800600CE91D722FFB3E8DD604C79FF516E4E2
:100F0800A9902081BBB332A2C55A4C4BD7795E68F1
:100F1800E11C680DF33F7A2E0EE787F61CC495D5C1
:100F28002AA1A3B03882B193466BCF7A5448DD59D1
:100F3800622DEB3C700EF91F8FF706E69DD414C5A1
:100F4800ABB122A0B9923083C77B4E6AD5585C49B1
:100F5800E33D6A2CF11E780F8601010006010100AD
:100F680006010000000000004A544147494345205B
:100F78006D6B49490065736172454D564E35821B4C
:0D0F8800418D20471023086D05B602B415F9
:020F9500010059
:00000001FF
