:020000041000EA
:10000000002008205D0100101301001015010010F0
:100010001101001011010010110100101101001058
:100020001101001011010010110100101701001042
:100030001101001011010010190100101B01001026
:100040001D0100101D0100101D0100101D010010F8
:100050001D0100101D0100101D0100101D010010E8
:100060001D0100101D0100101D0100101D010010D8
:100070001D0100101D0100101D0100101D010010C8
:100080001D0100101D0100101D0100101D010010B8
:100090001D0100101D0100101D0100101D010010A8
:1000A0001D0100101D0100101D0100101D01001098
:1000B0001D0100101D0100101D0100101D01001088
:1000C0001D0100101D0100101D0100101D01001078
:1000D0001D0100101D0100101D0100101D01001068
:1000E0001D0100101D0100101D0100101D01001058
:1000F0001D0100101D0100101D0100101D01001048
:100100001D0100101D0100101D0100101D01001037
:1001100000BE00BE00BE00BE00BE00BEEFF3058004
:10012000103800BEF2EB887150E9021074E9021039
:10013000A801001090A31AE7D3DEFFFF42012110AF
:10014000FF01000090060300793512AB4FF000006C
:100150002049086006C881F3088810474FF05040D6
:10016000006810B14FF00000F2E70FA40ECC002998
:1001700002D000F015F8F9E71749184A002000E00E
:1001800001C19142FCD1002080F30A8814498847BC
:10019000144988471449884700BEFDE701C901C2D8
:1001A0009A42FBD3704700BF74E90210100100208F
:1001B000641F0020C807031000000820000008206A
:1001C000C8070310001008200010082000000000DD
:1001D0007047000008ED00E0641F0020502F002051
:1001E00085BC0010055F001049BC0010F8B500BFC9
:1001F000064B0749C91A891048BF0131491003D07D
:10020000044B0BB101481847704700BF641F002022
:10021000641F00200000000008B5054B1BB1054914
:100220000548AFF30080BDE80840FFF7E1BF00BF1D
:1002300000000000CC2E0020BCC40110002070473C
:1002400000487047C0C401100420704703299ABFBA
:10025000024B53F821000248704700BF38D3011009
:1002600060CA011005EE101A4168002900F0AE8046
:1002700070B4056990ED097A06EE905AD0ED0C7ACB
:10028000F8EE666AD0ED065A9FED526A36EEC74A1E
:1002900075EEE74AA4EE067AE4EE867A90F82C3002
:1002A00080ED097AC0ED0C7A8468DBB177EE666A7E
:1002B000B6EE006AF0EEE66AF4EEC66AF1EE10FA07
:1002C00010D5D0ED0A6AFCEEE66A16EE905A012DC2
:1002D00038BF0125A5424FF0000328BF254680F80E
:1002E0002C30056190F83830002B5AD1BCEEC77A1B
:1002F00017EE106AC36990ED186A1A19921BB2FBC7
:10030000F4FCD0ED147A04FB1C2201EB820292ED86
:10031000007A90ED132A66EE277A90ED193AD0ED27
:10032000152AE7EE027AD0ED1A6AD0ED163AE2EE1F
:10033000837AD0ED1B4A90ED174AE3EEE67AD0EDD2
:10034000055A80ED187AE4EE647AB0EE457A01EB56
:1003500083010133B3FBF4F2A7EEA57A04FB123359
:1003600080ED196AC0ED1B6AC0ED1A7A81ED007A42
:10037000C3613DB370BC90ED0C6AF7EE006A9FED6F
:10038000167A76EEC66AF4EEC76AF1EE10FA67EEF8
:10039000867A58BFB0EE667AE5EE077A17EE900AD5
:1003A000704777EEE57ADFED0D6AF0EEE77AF4EE6E
:1003B000E67AF1EE10FA99D50022436B80F83820E6
:1003C000836193E715EE100A70BC704715EE100AB2
:1003D000704700BF0AD7A33B6666663F0AD7233C37
:1003E000704700BF00487047C8C401100020704724
:1003F0000048704760CA0110704700BF0846704748
:10040000704700BF704700BF00207047704700BFB3
:1004100000487047D0C401100420704703299ABFD8
:10042000024B53F821000248704700BF28D3011047
:1004300060CA0110704700BF704700BF70B5054625
:10044000D0F884008CB2036821461B6AA5F890405E
:100450009847D5F88800214603681B6A9847D5F865
:100460008C002146BDE8704003681B6A184700BF36
:10047000704700BF4368B3FBF1F38381704700BF4F
:100480004B6B4360704700BF00230381704700BF80
:100490000389428923B98189914200D041810A466A
:1004A00007EE903A07EE102AF8EEE77AB8EEC76A40
:1004B00077EEA77AB7EE007AC7EE866A0133B3FB10
:1004C000F2F176EEC77A02FB1133038117EE900A40
:1004D000704700BF4368B3FBF1F38381704700BFEF
:1004E0004B6B4360704700BF00230381704700BF20
:1004F00003890246418923B98089884200D050810E
:10050000014651B306EE901A07EE903AFAEEEF6A02
:10051000F8EEE77AF4EEE67AF1EE10FA12D477EE1E
:10052000E67A77EEA77AB7EE007A87EEA66A77EEDC
:10053000467A17EE900A0133B3FBF1FC01FB1C3342
:100540001381704777EEA77AB7EE006A87EEA67A36
:1005500077EE467A17EE900AEDE70020704700BF6D
:100560004368B3FBF1F38381704700BF4B6B43607B
:10057000704700BF00230381704700BF10B4048997
:10058000418924B983898B4200D043811946621C7A
:10059000B2FBF1FCBFEE007AF7EE007A01FB1C2201
:1005A000837B028101FB03F3064AA2FB0323B4EB26
:1005B000531F34BF17EE900A17EE100A5DF8044B74
:1005C000704700BF1F85EB514B6B90ED066A07EE3D
:1005D000903AF8EEE77A90ED057ADFED0E5A27EEC5
:1005E000866A67EE876A86EE257AC6EEA57ABDEE44
:1005F000C77AFDEEE77A17EE102AC36117EE903A3C
:10060000012AB8BF0122012BB8BF0123C0E908327B
:10061000704700BF00007A4451B3012923D190ED07
:10062000057A06EE902A8261D0ED077AF8EEE77A35
:100630009FED126A27EE877A67EEA67AC7EE066A02
:1006400087EE867AFDEEE67A17EE902AFDEEC77AFF
:1006500017EE903A012AB8BF0122012BB8BF01233F
:10066000C0E90823704790ED057AD0ED066ADBE714
:10067000D0ED066A07EE102A4261D5E700007A4401
:1006800080F82D1059B190F92E30013303D0012399
:1006900080F82C3070470023836280F82E3070473A
:1006A00008B590F82C302DED028B08EE101A43B1EE
:1006B000B0F93030002B04DBB5EEC08AF1EE10FA51
:1006C0002DD4FDEEC87A17EE902A836A90F92E1089
:1006D000013301298362028614D0022909D059B35B
:1006E000DFED317A68EE277ABDEC028B17EE900AC7
:1006F00008BD90F82D30002B4FD018EE100ABDEC3D
:10070000028B08BD426A9A4232DAFF22C36880F83F
:100710002E20002BE4D0036904309847E0E7002244
:10072000FDEEC87A012180F82C2080F82E2017EEEB
:10073000902A0B4602868162026A9A4210DB07EE1B
:10074000903A07EE102AF8EEE77AB8EEC77AC7EECD
:10075000876A66EE887ABDEC028B17EE900A08BDB8
:100760000222002380F82E20836218EE100AC6E7CA
:1007700007EE903A07EE102AF8EEE77AB8EEC77A5D
:10078000F7EE006A87EE876A76EEC67A67EE887AB9
:10079000BDEC028B17EE900A08BD0122836280F83F
:1007A0002E2018EE100AAAE70000000090F92E0093
:1007B000013018BF0120704700487047DCC40110A9
:1007C0000420704703299ABF024B53F821000248C6
:1007D000704700BF18D3011060CA0110D1ED0D7A27
:1007E000F8EE677AC0ED017AC0ED107A704700BF6D
:1007F000704700BF19B14FF07E5343637047002329
:100800004363704707EE902A032915D8DFE801F00B
:10081000251E1502B7EE007A77EE677ADFED146ACF
:1008200027EEA77A9FED136A27EE277AF0EE667A15
:10083000E7EE067AC0ED0B7A7047DFED0F6A9FEDA9
:100840000F7AA7EEA67A80ED037A70479FED0C7AB7
:1008500067EE877AC0ED117A7047DFED086A9FED89
:10086000097AA7EEA67A80ED0E7A80ED0F7A7047AE
:1008700000005C4300B065469A993940CDCCCC3D30
:1008800000401C460AD7A33B00207047704700BFBA
:1008900007EE903A9FED167AF8EEE77A143AC7EE33
:1008A000876A032A23D8DFE802F01A120A02D0F876
:1008B000C40116EE902A036803215B6A1847D0F83A
:1008C000C40116EE902A036802215B6A1847D0F82B
:1008D000C40116EE902A036801215B6A1847D0F81C
:1008E000C40116EE902A036800215B6A184770471E
:1008F0000000FE42704700BF704700BF704700BF56
:10090000704700BF704700BF704700BF704700BF0F
:10091000704700BF704700BF704700BF704700BFFF
:10092000704700BF00207047024B186803689B683F
:10093000184700BF10290020024B014618680368C1
:10094000DB681847102900208C4610B586461346F0
:10095000044A71461068026854696246A446BDE8BC
:1009600010406047102900208C4610B5864613467B
:10097000044A71461068026894696246A446BDE85C
:1009800010406047102900208C4610B5864613465B
:10099000044A714610680268D4696246A446BDE8FC
:1009A0001040604710290020024B01461868036878
:1009B000DB6A184710290020024B014618680368BB
:1009C0005B6A184710290020024B0146186803682B
:1009D0009B6A184710290020024B014618680368DB
:1009E0001B6A184710290020012A02D022B10020DA
:1009F000704701600020704702600020704700BF10
:100A00000068C3694BB100B583B0036A019001A9C6
:100A10001430984703B05DF804FB7047036808681A
:100A2000184700BF03680888184700BF10B404685F
:100A3000087811781A7823465DF8044B184700BFF0
:100A4000704700BF704700BF704700BF054AC368CA
:100A500010B5044602601BB1011D032208469847E9
:100A6000204610BD70D40110704700BF704700BF12
:100A7000704700BF704700BFC269034602FB01F127
:100A800010B501F50010EFF3108472B6D9691BF0B0
:100A9000DBFC84F31088002010BD00BF944608B52D
:100AA000C0690CF1815C00FB01C1029A184616F086
:100AB000D3FD002008BD00BF2DE9F047C76980467F
:100AC00038460C4691461E4601FB07FA09F080FCA9
:100AD00038B305463A460AF1815116F0BDFD31465C
:100AE000089A05EB090016F0B7FDEFF3108672B611
:100AF000D8F81C1004FB01F000F500101BF0A4FC5A
:100B0000D8F81C20294604FB02F000F500101BF069
:100B100073FC86F31088284609F094FC0020BDE899
:100B2000F0876FF00B00FAE701480BF05DBA00BFE9
:100B3000ECC4011010B50446482109F099FC204688
:100B400010BD00BF10B50446902109F091FC20466D
:100B500010BD00BF10B50446042109F089FC2046F1
:100B600010BD00BF10B50446902109F081FC20465D
:100B700010BD00BF10B50446042109F079FC2046E1
:100B800010BD00BF10B504464FF4D07109F070FCE1
:100B9000204610BD10B504464FF4F87109F068FC0A
:100BA000204610BD074AC36810B5044602601BB159
:100BB000011D0322084698472046342109F058FCBD
:100BC000204610BD70D4011010B51F21044605F059
:100BD00043FF00222046114605F05CFF2046BDE899
:100BE0001040002105F06ABF012A06D0022A0AD06F
:100BF000032A00D022B10020704701600020704716
:100C00000260002070470B6803600020704700BF3F
:100C1000012A06D0022A0AD0032A00D022B10020DD
:100C200070470160002070470260002070470B6829
:100C300003600020704700BF012A06D0022A0AD0B4
:100C4000032A00D022B100207047016000207047C5
:100C50000260002070470B6803600020704700BFEF
:100C6000012A06D0022A0AD0032A00D022B100208D
:100C700070470160002070470260002070470B68D9
:100C800003600020704700BF012A06D0022A0AD064
:100C9000032A00D022B10020704701600020704775
:100CA0000260002070470B6803600020704700BF9F
:100CB00007EE101ADFEDD86AB8EEC77A9FEDD76A53
:100CC000C7EE267A70B567EE867A2DED028BB2EE0E
:100CD000048AF4EEC87AF1EE10FAD0F8C83104466E
:100CE0009868CF4D036858BFB0EE678ADB68AB42A7
:100CF00040F0B681D0ED077AD0ED056AF8EEE77ADC
:100D000067EEA66A67EE887A86EE867AC7EE866A0E
:100D1000FDEEC77A17EE903AFDEEE67A012B17EE5C
:100D2000902AB8BF0123002AC0E90832D8BF0123A6
:100D300080ED068AD8BF4362D4F8CC319868036846
:100D4000DB68AB4240F08781D0ED077AD0ED056AD1
:100D5000F8EEE77A9FEDB16A67EEA66A68EE277A49
:100D600086EE867AC7EE866AFDEEC77A17EE903A6F
:100D7000FDEEE67A012B17EE902AB8BF0123002A78
:100D8000C0E90832D8BF012380ED068AD8BF43628C
:100D9000D4F8D03198680368DB68AB4240F05681E4
:100DA000D0ED077AD0ED056AF8EEE77A9FED9B6A01
:100DB00067EEA66A68EE277A86EE867AC7EE866ABE
:100DC000FDEEC77A17EE903AFDEEE67A012B17EEAC
:100DD000902AB8BF0123002AC0E90832D8BF0123F6
:100DE00080ED068AD8BF4362D4F8D431986803688E
:100DF000DB68AB4240F02581D0ED077AD0ED056A83
:100E0000F8EEE77A9FED856A67EEA66A68EE277AC4
:100E100086EE867AC7EE866AFDEEC77A17EE903ABE
:100E2000FDEEE67A012B17EE902AB8BF0123002AC7
:100E3000C0E90832D8BF012380ED068AD8BF4362DB
:100E4000D4F8D83198680368DB68AB4240F0F4808E
:100E5000D0ED077AD0ED056AF8EEE77A9FED6F6A7C
:100E600067EEA66A68EE277A86EE867AC7EE866A0D
:100E7000FDEEC77A17EE903AFDEEE67A012B17EEFB
:100E8000902AB8BF0123002AC0E90832D8BF012345
:100E900080ED068AD8BF4362D4F8DC3198680368D5
:100EA000DB68AB4240F0C380D0ED077AD0ED056A35
:100EB000F8EEE77A9FED596A67EEA66A68EE277A40
:100EC00086EE867AC7EE866AFDEEC77A17EE903A0E
:100ED000FDEEE67A012B17EE902AB8BF0123002A17
:100EE000C0E90832D8BF012380ED068AD8BF43622B
:100EF000D4F8E03198680368DB68AB4240F0928038
:100F0000D0ED077AD0ED056AF8EEE77A9FED436AF7
:100F100067EEA66A68EE277A86EE867AC7EE866A5C
:100F2000FDEEC77A17EE903AFDEEE67A012B17EE4A
:100F3000902AB8BF0123002AC0E90832D8BF012394
:100F400080ED068AD8BF4362D4F8E431986803681C
:100F5000DB68AB425BD1D0ED077AD0ED056AF8EEE5
:100F6000E77A9FED2E6A67EEA66A68EE277A86EE2C
:100F7000867AC7EE866AFDEEC77A17EE903AFDEEE6
:100F8000E67A012B17EE902AB8BF0123002AC0E9A8
:100F90000832D8BF012380ED068AD8BF4362D4F857
:100FA000E83198680368DB68AB4228D1D0ED077A56
:100FB000D0ED056AF8EEE77A9FED186A67EEA66A4B
:100FC00068EE277A86EE867AC7EE866AFDEEC77AE5
:100FD00017EE903AFDEEE67A012B17EE902AB8BF95
:100FE0000123002A80ED068AC0E9083202DDBDEC4B
:100FF000028B70BD0123BDEC028B436270BD18EE05
:10100000102ABDEC028BBDE870400121184718EE94
:10101000102A01219847C2E700F07F4500007A447A
:101020001906001018EE102A012198478CE718EED7
:10103000102A012198475BE718EE102A01219847F2
:101040002AE718EE102A01219847F9E618EE102A2F
:1010500001219847C8E618EE102A0121984797E623
:1010600018EE102A0121984766E600BF07EE101A15
:101070009FEDD96AB8EEC77ADFEDD86AC7EE067A77
:1010800070B567EEA67A2DED028BB7EE008AF4EE0E
:10109000C87AF1EE10FAD0F8C83104469868D04DFD
:1010A000036858BFB0EE678ADB68AB4240F0BA8194
:1010B000D0ED077AF8EEE77A9FEDCA6A68EE276A04
:1010C00090ED067A67EE877A86EE867AC7EE866AB4
:1010D000FDEEC77A17EE903AFDEEE67A012B17EE99
:1010E000902AB8BF0123002AC0E90832D8BF0123E3
:1010F00080ED058AD8BF4362D4F8CC319868036884
:10110000DB68AB4240F08981D0ED077AF8EEE77AF0
:101110009FEDB46A68EE276A90ED067A67EE877AEB
:1011200086EE867AC7EE866AFDEEC77A17EE903AAB
:10113000FDEEE67A012B17EE902AB8BF0123002AB4
:10114000C0E90832D8BF012380ED058AD8BF4362C9
:10115000D4F8D03198680368DB68AB4240F058811E
:10116000D0ED077AF8EEE77A9FED9E6A68EE276A7F
:1011700090ED067A67EE877A86EE867AC7EE866A03
:10118000FDEEC77A17EE903AFDEEE67A012B17EEE8
:10119000902AB8BF0123002AC0E90832D8BF012332
:1011A00080ED058AD8BF4362D4F8D43198680368CB
:1011B000DB68AB4240F02781D0ED077AF8EEE77AA2
:1011C0009FED886A68EE276A90ED067A67EE877A67
:1011D00086EE867AC7EE866AFDEEC77A17EE903AFB
:1011E000FDEEE67A012B17EE902AB8BF0123002A04
:1011F000C0E90832D8BF012380ED058AD8BF436219
:10120000D4F8D83198680368DB68AB4240F0F680C8
:10121000D0ED077AF8EEE77A9FED726A68EE276AFA
:1012200090ED067A67EE877A86EE867AC7EE866A52
:10123000FDEEC77A17EE903AFDEEE67A012B17EE37
:10124000902AB8BF0123002AC0E90832D8BF012381
:1012500080ED058AD8BF4362D4F8DC319868036812
:10126000DB68AB4240F0C580D0ED077AF8EEE77A54
:101270009FED5C6A68EE276A90ED067A67EE877AE2
:1012800086EE867AC7EE866AFDEEC77A17EE903A4A
:10129000FDEEE67A012B17EE902AB8BF0123002A53
:1012A000C0E90832D8BF012380ED058AD8BF436268
:1012B000D4F8E03198680368DB68AB4240F0948072
:1012C000D0ED077AF8EEE77A9FED466A68EE276A76
:1012D00090ED067A67EE877A86EE867AC7EE866AA2
:1012E000FDEEC77A17EE903AFDEEE67A012B17EE87
:1012F000902AB8BF0123002AC0E90832D8BF0123D1
:1013000080ED058AD8BF4362D4F8E4319868036859
:10131000DB68AB425BD1D0ED077AF8EEE77A9FED60
:10132000316A68EE276A90ED067A67EE877A86EE74
:10133000867AC7EE866AFDEEC77A17EE903AFDEE22
:10134000E67A012B17EE902AB8BF0123002AC0E9E4
:101350000832D8BF012380ED058AD8BF4362D4F894
:10136000E83198680368DB68AB4228D1D0ED077A92
:10137000F8EEE77A9FED1B6A90ED067A80ED058A1C
:1013800028EE278A67EE877A88EE067AC7EE866AA5
:10139000FDEEC77A17EE903AFDEEE67A012B17EED6
:1013A000902AB8BF0123002AC0E9083202DDBDEC53
:1013B000028B70BD0123BDEC028B436270BD18EE41
:1013C000102ABDEC028BBDE870400021184718EED2
:1013D000102A00219847C2E700F07F450000FA4339
:1013E0001906001000007A4418EE102A00219847D0
:1013F0008AE718EE102A0021984759E718EE102ABC
:101400000021984728E718EE102A00219847F7E6B0
:1014100018EE102A00219847C6E618EE102A00217F
:10142000984795E618EE102A0021984764E600BF19
:10143000002370B586B002AD02930593C5E9013370
:101440008B680446F3B10E46022228469847D6E937
:101450000231A668A3600496E368E16095E80300A2
:10146000CDE9000194E80300059385E80300DDE978
:10147000000184E803001EB1032229462846B04734
:1014800006B070BD1946E4E738B50368084ADB6862
:10149000044693420D4608D10420A8428ABF04EBBB
:1014A00085040020D4F8800038BD9847F5E700BFD8
:1014B0001904001038B50368084ADB6804469342F3
:1014C0000D4608D10420A8428ABF04EB8504002001
:1014D000D4F8800038BD9847F5E700BF49020010F6
:1014E0002DE9F04190F8EC110446013949B2154656
:1014F00080F8EC1139B9142241EC4020D0F8C40135
:101500000368DB699847D4F8C8713B7CAB422DD0A7
:10151000D4F8CC713B7CAB4240D0D4F8D0713B7C4A
:10152000AB4253D0D4F8D4713B7CAB4266D0D4F8F4
:10153000D8713B7CAB4279D0D4F8DC713B7CAB42B8
:1015400000F08C80D4F8E0713B7CAB4200F09D80D1
:10155000D4F8E4713B7CAB4200F0AE80D4F8E841B3
:10156000237CAB4200F0BF80BDE8F081B868834EB9
:1015700003681B69B34240F0D880002380F82D3007
:10158000F86803681B69B34240F0DB800023D4F89D
:10159000CC7180F82D303B7CAB42BED1B868774E21
:1015A00003681B69B34240F0B180002380F82D30FE
:1015B000F86803681B69B34240F0DC800023D4F86C
:1015C000D07180F82D303B7CAB42ABD1B8686B4E0C
:1015D00003681B69B34240F0A580002380F82D30DA
:1015E000F86803681B69B34240F0C1800023D4F857
:1015F000D47180F82D303B7CAB4298D1B8685F4EF7
:1016000003681B69B34240F08A80002380F82D30C4
:10161000F86803681B69B34240F0A6800023D4F841
:10162000D87180F82D303B7CAB4285D1B868534EE1
:1016300003681B69B3426FD1002380F82D30F8682E
:1016400003681B69B34240F08C800023D4F8DC713E
:1016500080F82D303B7CAB427FF474AFB868474EC6
:1016600003681B69B34254D1002380F82D30F86819
:1016700003681B69B34271D10023D4F8E07180F88C
:101680002D303B7CAB427FF463AFB8683B4E0368C0
:101690001B69B34252D1002380F82D30F8680368EB
:1016A0001B69B34257D10023D4F8E47180F82D3080
:1016B0003B7CAB427FF452AFB868304E03681B6985
:1016C000B34238D1002380F82D30F86803681B69D5
:1016D000B3423DD10023D4F8E84180F82D30237C7B
:1016E000AB427FF441AFA068244E03681B69B3424C
:1016F0001ED1002380F82D30E06803681B69B342D7
:1017000022D1002380F82D30BDE8F08100219847D8
:101710004EE700219847AAE7002198478FE700216C
:10172000984775E7002198475AE70021984727E72F
:1017300000219847E0E700219847C6E70021984735
:10174000ACE700219847E3E60021BDE8F0411847E7
:101750000021984702E700219847F9E600219847C1
:10176000F0E600219847E7E600219847DFE60021F0
:101770009847D7E600219847CFE600BF81060010C2
:101780002DE9F04F85B0019390F8EC310446013318
:101790005BB2002B164680F8EC310ADDD0F8C401AC
:1017A00001210368DB69984714234FF0010242ECE2
:1017B0004030D4F8C8B1944DDBF8080003689B6949
:1017C000AB426ED190F92E30013374D0D4F8CCB145
:1017D000DBF8080003689B69AB4240F0D88090F9C1
:1017E0002E30013367D0D4F8D0B1DBF8080003689D
:1017F0009B69AB4240F0D18090F92E3001335AD032
:10180000D4F8D4B1DBF8080003689B69AB4240F020
:10181000CA8090F92E3001334DD0D4F8D8B1DBF81E
:10182000080003689B69AB4240F0C38090F92E30FA
:10183000013340D0D4F8DCB1DBF8080003689B69C1
:10184000AB4240F0BC8090F92E30013333D0D4F855
:10185000E0B1DBF8080003689B69AB4240F0B5805B
:1018600090F92E30013326D0D4F8E4B1DBF808002B
:1018700003689B69AB4240F0BB8090F92E30013386
:1018800019D0D4F8E8B1DBF8080003689B69AB42D3
:1018900040F0B48090F92E3001330CD005B0BDE893
:1018A000F08F98470346002890D1723354F823B044
:1018B000BBF1000FF2D0DDED017ADFED546AB8EE36
:1018C000E77AC7EE267A67EEA77A9BF80430CBED6D
:1018D000097A8DF80C608BF8106073B300244FF018
:1018E000000800264FF08047DFF82C910DF10C0A1C
:1018F0001AF8010B453807F06BFA42464B4607F0E1
:101900000BFA02460B463046394607F027F8DBF85B
:101910000030002253F824503D4B07F0D7F907F070
:101920008DFA01462B6828465B6889B298470134D6
:101930009BF80420E3B29A42DAD8DBF80800354C71
:1019400003681B69A34246D1012390F92E2080F839
:101950002D30013205BF002380F82E3080F82C3066
:101960008362DBF80C0003681B69A3423BD10123AF
:1019700090F92E2080F82D30013209BF002380F825
:101980002C30836280F82E3005B0BDE8F08F984788
:10199000012300287FF427AF87E798470223002818
:1019A0007FF42EAF81E79847032300287FF435AFFB
:1019B0007BE79847042300287FF43CAF75E79847FE
:1019C000052300287FF443AF6FE7984706230028DC
:1019D0007FF44AAF69E701219847DBF80C00036800
:1019E0001B69A342C3D0012105B0BDE8F04F1847E1
:1019F0009847072300287FF444AF56E7984700280C
:101A00007FF44CAF082350E7AD0700100000FE4202
:101A100000807B40810600100000284010B52DEDAD
:101A2000048B90ED0C8A90ED0D9AB4EEC89AF1EE0D
:101A300010FA90ED107ACCBF90ED0E6A90ED0F6A1F
:101A4000DFEDF17AFFEE006AE6EE077AC6EEA77ADE
:101A5000044617EE900A08EE901A08F045FAB7EE21
:101A6000004A07EE900A79EE484A34EE674AF0EEF3
:101A7000486A94ED015AE4EE846AD4ED111AD4ED6B
:101A80000B5ADFEDE27AE6EEA15A65EE277AF4EE24
:101A9000E75AF1EE10FAB2EE042A77FEA57AF4EED8
:101AA000C27AD4ED032A9FEDDA7AF1EE10FA94EDC2
:101AB000096AF4EEC72A77FE827A77EEC67A9FED3E
:101AC000D53AB6EE001AC4ED0C6AF0EE466AF1EEB5
:101AD00010FADFEDD73AE7EE836A25EE015A77FE7A
:101AE000227AF4EEE37A86EE857A9FEDCB8AF1EEE8
:101AF00010FAB4EEC87A77FEA37AF1EE10FA94EDFC
:101B00000A9A38FE078AB4EEE38ADFEDC44A77EE1C
:101B1000C97AF1EE10FAA7EE839ADFEDC11AF0EE62
:101B2000647A38FE238AE8EE617AF7EE009A28EEAE
:101B3000278A9FEDBC4A79EEC87A67EE847AC4EDB5
:101B4000096A17EE900AC4ED025A84ED0A9A08F069
:101B5000CBF906EE900A9FEDB47A69EE266AF4EEB0
:101B6000C76AF1EE10FAD4ED087A37FE267AF0EE65
:101B7000686AB8EE086AE7EE676AF4EEC66AF1EEE4
:101B800010FA00F16C81B0EE087AF4EEC76AF1EE5B
:101B900010FA0DDC66EEA65AB3EE0B7AB2EE025ADC
:101BA00035EE876AA5EE857A66EE266AC6EE879AD6
:101BB00094ED057AF8EE086AB4EEE67AF1EE10FAE2
:101BC00000F15081F0EE086AB4EEE67AF1EE10FA18
:101BD00000F3428127EE076AF3EE0B6AB2EE025A77
:101BE00076EE265AE6EE056A65EE875A85EEA66A17
:101BF00079EEC69AF8EE085AA8EE297AB4EEE57A9C
:101C0000F1EE10FA94ED076AD4ED066A84ED057AD8
:101C100000F12E81F0EE085AB4EEE57AF1EE10FAFA
:101C200000F3388167EE074AF3EE0B5AB2EE024A30
:101C300034EEA55AE4EE845A25EE075A85EE257A4D
:101C4000F8EE085AF4EEE56AF1EE10FA00F12C8194
:101C5000F0EE085AF4EEE56AF1EE10FA00F359815D
:101C600066EEA64AF3EE0B5AB2EE024A34EEA55ADD
:101C7000E4EE845A25EE265AC5EE254A37EE647AFC
:101C8000F8EE085AE8EE076AF4EEE56AF1EE10FAAB
:101C9000C4ED066A00F10B81B0EE087AF4EEC76A73
:101CA000F1EE10FA00F3188166EEA64AB3EE0B7A55
:101CB000B2EE024A34EE875AA4EE847A65EE266AC2
:101CC000F0EE475A86EEA57AF8EE086AB4EEE66AB8
:101CD000F1EE10FA00F1FD80F0EE086AB4EEE66A6B
:101CE000F1EE10FA00F3128126EE065AF3EE0B6ABB
:101CF000F2EE024A75EE265AE5EE246A65EE865A41
:101D000085EEA65A37EE457AF8EE086AA8EE076A1D
:101D1000B4EEE66AF1EE10FA84ED076A00F1EC80A9
:101D2000B0EE087AB4EEC76AF1EE10FA00F3CE8096
:101D300066EE065AB3EE0B7AB2EE025A75EE876A79
:101D4000A5EE857A26EE866AC6EE076AB8EE087AB0
:101D5000F4EEC77AF1EE10FA00F18780B0EE087A5F
:101D6000F4EEC77AF1EE10FA00F3918027EEA76A3D
:101D7000B3EE0B7AB2EE025A76EE075AA6EE057A69
:101D800065EEA75A85EE876A94ED057A76EEC66A07
:101D9000B0EEC77A9FED256AB4EEC67A94ED067A66
:101DA000E8EE267AF1EE10FADFED206AB0EEC77A9F
:101DB00048BF0023B4EEE67A94ED077A48BF63612A
:101DC000DFED1A6AF1EE10FAB0EEC77A48BF0023D1
:101DD000B4EEE67A48BFA361C4ED087AF1EE10FADA
:101DE000F0EEE77A9FED117A48BF0023F4EEC77A50
:101DF00048BFE361F1EE10FA48BF0023F6EE006A37
:101E0000F7EE007A16E000BFBD3786356666E63E1F
:101E10009A99993F0AD7233CA4707D3F6666E63FB6
:101E2000CDCC4C3F9B70B13F295C7F407D1D9026FF
:101E30000000000048BF2362E9EE267A94ED087A9C
:101E400067EE877A237C012B08BF78EEE77ABDEC3A
:101E5000048B17EE900A10BDB7EE006AC8E6FFEEDD
:101E6000009AA5E6BFEE006AC2E6BFEE006A8BE705
:101E7000F4EEE56AF1EE10FA4ED4B0EE087AF4EE24
:101E8000C76AF1EE10FA3ADCBFEE007AE8E6B7EE88
:101E9000006A79E7F8EE085AF4EEE56AF1EE10FA16
:101EA000B7EE007A7FF5D4AEFFEE004AE6E6B4EE78
:101EB000E56AF1EE10FA19D4B0EE087AB4EEC76A0A
:101EC000F1EE10FA0BDCBFEE007A0DE7F7EE006AD8
:101ED0003CE7BFEE005A15E7B7EE007AF4E6B8EE3D
:101EE000007AA8EE076A84ED076A19E71FED307AD9
:101EF00036EE077A84ED077AFFEE006A26E7B8EE41
:101F0000007AE8EE076AC4ED066AC5E6B7EE005A45
:101F1000F8E6F7EE004AB1E61FED3B7AB4EEE56A6B
:101F200076EE876AF1EE10FAC4ED066AC4D5DFE7F3
:101F30002DE9F04F0C46814683B00C2220466849BB
:101F400015F02EFA18B1002003B0BDE8F08F637BC6
:101F500004F10D00732B42D0742B7ED14378722B89
:101F60007BD18378692B78D109F1A40A574609F50A
:101F7000E27B09F5F4795BF8045F0197287C45382A
:101F800006F026FF0022574B06F0C6FE02460B461F
:101F900000204FF0804106F0E1FC534B002206F098
:101FA00095FE06F04BFF2B791FFA80F87BB10024D9
:101FB00001AE56F8040B2B68414643F82400036831
:101FC00001345B6898472A79E3B29A42F1D8D9453F
:101FD00007F11007CFD1012003B0BDE8F08F4278A0
:101FE000612AB9D18278772AB6D109F1140A574605
:101FF00009F5E27B09F5F4795BF8045F0197287C29
:10200000453806F0E5FE0022364B06F085FE024616
:102010000B4600204FF0804106F0A0FC324B00221E
:1020200006F054FE06F00AFF2B791FFA80F87BB108
:10203000002401AE56F8040B2B68414643F82400F7
:10204000036801345B6898472A79E3B29A42F1D871
:10205000D94507F11007CFD1BDE70622234915F076
:102060009FF9002837D109F59A7A574609F5E27B9E
:1020700009F5F4795BF8045F0197287C453806F090
:10208000A7FE0022174B06F047FE02460B46002033
:102090004FF0804106F062FC134B002206F016FE62
:1020A00006F0CCFE2B791FFA80F87BB1002401AE3C
:1020B00056F8040B2B68414643F8240003680134AA
:1020C0005B6898472A79E3B29A42F1D8D94507F17B
:1020D0001007CFD17FE7064809F086FF33E700BF3E
:1020E000FCC401100000284000807B4028C501107E
:1020F0000CC50110A0F87410002940D090ED1E7A94
:10210000B5EEC07AF1EE10FA39DDDFED1D6A07EEAB
:10211000901A90ED086AF8EEE77A67EE266AF8EE14
:10212000465A86EEA77A67EE257AFCEEE77A17EE36
:10213000903A826890ED096A934228BF134607EEF1
:10214000903AB8EE677A76EE477AB6EE005AF0EE3D
:10215000E77AF4EEC57AF1EE10FA05DD012380EDA1
:102160000A7A80F82C307047012B38BF0123934244
:102170004FF0000128BF134680F82C100361704710
:1021800000007042A0F87410002940D090ED1E7A33
:10219000B5EEC07AF1EE10FA39DDDFED1D6A07EE1B
:1021A000901A90ED086AF8EEE77A67EE266AF8EE84
:1021B000465A86EEA77A67EE257AFCEEE77A17EEA6
:1021C000903A826890ED096A934228BF134607EE61
:1021D000903AB8EE677A76EE477AB6EE005AF0EEAD
:1021E000E77AF4EEC57AF1EE10FA05DD012380ED11
:1021F0000A7A80F82C307047012B38BF01239342B4
:102200004FF0000128BF134680F82C10036170477F
:10221000000070422DE9F04780462DED048B8A4680
:102220009FED789ADFF8EC9100F5E27600F5F4770F
:1022300056F8045F002D3FD02B79002B00F0C680AC
:1022400000249FED708A2B6853F824000134036842
:10225000DB68984707EE900A2B79E2B2934238EE9A
:10226000278AF0D807EE903AF8EEE77AC8EE278A88
:10227000A86803685B69C5ED0A8A4B456DD190F883
:102280002C30002B5BD1836A90F92E100133FDEEC8
:10229000E87A17EE902A01298362028600F088808E
:1022A00002297CD000296AD0DFED567A68EEA78A31
:1022B000D5ED097AA8EEA79AB742B9D1F5EE007A22
:1022C00029EE279AD8F8C40119EE101A03689B6901
:1022D00098479FED4D6ADFED4D7A29EE069A06EE9E
:1022E000900AB4EEE79A66EE866AF1EE10FAF4EE22
:1022F000E76A48BFB0EE679AF1EE10FA9FED447AB4
:1023000058BFF0EE667AF4EEC77AF1EE10FAB4EE4A
:10231000C79A77FE277AF1EE10FAFDEEE77A37FEDC
:10232000097A17EE903ABDEC048BBDEEC77AAAF895
:10233000003017EE103AAAF80230BDE8F087B0F985
:102340003030002B04DBF5EEC08AF1EE10FA0AD42F
:10235000836A90F92E10013399E718EE901A984786
:1023600008EE900AA4E7FDEEE87A0022012317EEBA
:10237000901A80F82C20018680F82E208362026A51
:10238000934239DC07EE903A07EE102AF8EEE77A2E
:10239000B8EEC77AC7EE876A68EEA68A88E790F833
:1023A0002D30002B84D18362012380F82E307FE70B
:1023B000426A9A420FDAFF2380F82E30C368002B5E
:1023C0003FF472AF0369043098476DE7DFED0D7A93
:1023D000B0EE678A4AE707EE903A07EE102AF8EE69
:1023E000E77AB8EEC77AF7EE006A87EE876A76EE8C
:1023F000C67A68EEA78A5BE7022380F82E300023B6
:10240000836255E70000000000000047000000C79D
:1024100000FEFF46A106001007EE103ADFED296A24
:10242000B8EEC77AC7EE267A274B30B4A3FB025327
:10243000DB0803EB4303254CA2EB830212F0FF02FF
:1024400067EEA77A21681BD1EFF3108372B6D1E84B
:10245000CFCF0125BCF1000FF9D1C1E84C5FBCF131
:10246000000FF4D1BFF35F8FC0ED287A216863605D
:10247000C0F89C20C1E88F2F83F3108830BC7047D0
:10248000EFF3108372B6D1E8CFCF0125BCF1000F76
:10249000F9D1C1E84C5FBCF1000FF4D1BFF35F8FFD
:1024A000162502EB820200EB8200C0ED307A00229A
:1024B00021686360C0F8B450C1E88F2F83F310889F
:1024C00030BC70470000FE42ABAAAAAA1429002023
:1024D00070B5CA4A2DED028B04460D461668EFF31F
:1024E000108372B6D6E8CF0F01210028FAD1C6E8D2
:1024F000401F0028F6D1BFF35F8FD4F89C10D4F8AA
:1025000098005360814280F04781D4F89400D4ED64
:10251000286A30F91100DFEDBA7A07EE100ABAEE38
:10252000E87AE7EE267A0131C4F89C10D4F8B800B6
:1025300030B1D4F8B410D4F8BC60B142C0F03782E6
:102540009FEDAF7AD4F8CC0077EE877A30B1D4F82B
:10255000C810D4F8D060B142C0F012829FEDA87AC2
:10256000D4F8E00077EE877A30B1D4F8DC10D4F8F4
:10257000E460B142C0F0ED819FEDA17AD4F8F4009F
:1025800077EE877A30B1D4F8F010D4F8F860B14221
:10259000C0F0C8819FED9A7AD4F8080177EE877A67
:1025A00030B1D4F80411D4F80C61B142C0F0A38169
:1025B000DFED936AD4F81C0176EEA76A30B1D4F847
:1025C0001811D4F82061B142C0F07E81DFED8C7A21
:1025D0009FED8B7AD4F8300177EE877A30B1D4F85A
:1025E0002C11D4F83461B142C0F05781D4F84401C1
:1025F00077EE877A30B1D4F84011D4F84861B1420F
:10260000C0F034819FED7E7AD4F8580177EE877A56
:1026100030B1D4F85411D4F85C61B142C0F00F81EC
:102620009FED777AD4F86C0177EE877A30B1D4F8E1
:102630006811D4F87061B142C0F0EA809FED707A01
:10264000D4F8800177EE877A30B1D4F87C11D4F8D1
:102650008461B142C0F0BA809FED697AD4F89401E8
:1026600077EE877A30B1D4F89011D4F89861B142FE
:10267000C0F095809FED628A38EE278A00261268A6
:10268000C2E88F6F83F31088D4ED107A94ED0C6A52
:10269000D4F88400D4ED110A0368D4ED0B8A9B6949
:1026A000C4ED117A67EE867A94ED0D0AE6EEA87A0B
:1026B000D4ED125A94ED0E1AE0EE207A94ED132A1E
:1026C00094ED1D7AD4ED0F1AE1EE657A94ED195A66
:1026D000E1EEC27AD4ED1E3AD4ED182A84ED1E7ACA
:1026E00027EE057AA2EEA77A94ED1A3AC4ED127A93
:1026F000C4ED1D7AF0EE477A94ED1F6A94ED1B4A03
:10270000E3EE237A94ED205AE4EE467AD4ED1C4AA7
:10271000E4EEC57AC4ED106A17EE901A84ED206AD3
:10272000C4ED1F7AC4ED135A98470146D4F88800C7
:102730000268936998470346D4F88C0018EE101A83
:10274000026808EE103A9269904707EE100A9FED72
:102750002D6A38EE077ABDEC028BDFED2B6A27EE8F
:10276000067AB4EEE67AF1EE10FADFED287A48BF89
:10277000B0EE667AB4EEE77AF1EE10FA77FE877A79
:10278000FDEEE77A17EE903A32461BB263F30F0282
:1027900063F31F422A6070BDDFED197AC6E630F997
:1027A000110094ED677A08EE100AB8EEC88A28EE98
:1027B000078ABDEEC88A0131C4F8901118EE101ACC
:1027C00009B208EE101ABAEEE88A55E730F911009E
:1027D00094ED626A07EE100AB8EEC77A27EE067A21
:1027E000BDEEC77A0131C4F87C1117EE101A09B298
:1027F00007EE101ABAEEE87A30E700BF142900207D
:102800000000000000000047000000C700FEFF4677
:1028100030F9110094ED5D6A07EE100AB8EEC77A40
:1028200027EE067ABDEEC77A0131C4F8681117EEBB
:10283000101A09B207EE101ABAEEE87A00E730F97A
:10284000110094ED586A07EE100AB8EEC77A27EE29
:10285000067ABDEEC77A0131C4F8541117EE101A8A
:1028600009B207EE101ABAEEE87ADBE630F9110089
:1028700094ED536A07EE100AB8EEC77A27EE067A8F
:10288000BDEEC77A0131C4F8401117EE101A09B233
:1028900007EE101ABAEEE87AB6E630F9110094EDB8
:1028A0004E6A07EE100AB8EEC77A27EE067ABDEE3A
:1028B000C77A0131C4F82C1117EE101A09B207EECD
:1028C000101ABAEEE87A91E630F9110094ED497ADF
:1028D00007EE900AF8EEE77A67EE877AFDEEE77A80
:1028E0000131C4F8181117EE901A09B207EE901AC8
:1028F000FAEEE87A6CE630F9110094ED447A06EECF
:10290000900AF8EEE66A66EE876AFDEEE66A013145
:10291000C4F8041116EE901A09B206EE901AFAEEF7
:10292000E86A47E630F91100D4ED3F6A07EE100A75
:10293000B8EEC77A27EE267ABDEEC77A0131C4F821
:10294000F01017EE101A09B207EE101ABAEEE87A74
:1029500022E630F91100D4ED3A6A07EE100AB8EE1B
:10296000C77A27EE267ABDEEC77A0131C4F8DC10AB
:1029700017EE101A09B207EE101ABAEEE87AFDE562
:1029800030F91100D4ED356A07EE100AB8EEC77AB7
:1029900027EE267ABDEEC77A0131C4F8C81017EECB
:1029A000101A09B207EE101ABAEEE87AD8E530F933
:1029B0001100D4ED306A07EE100AB8EEC77A27EEA0
:1029C000267ABDEEC77A0131C4F8B41017EE101A9A
:1029D00009B207EE101ABAEEE87AB3E52DE9F04F26
:1029E0002DED048B9FED839ADFED838ADFED839AD3
:1029F0008FB000F5F473CDE902030DF1280800F55E
:102A0000E27A00F114092C205AF8047F07F02AFD1D
:102A10000546342007F026FD002403464AF64441CB
:102A20004FF0FF0BB2EE048A754AD9611A6083F841
:102A30002EB083ED058AC3ED068AC3E90144DC604C
:102A40001C619C629C851C863420019307F00AFD62
:102A5000019B4AF64441AB6001232B714FF07E533A
:102A6000674A80F82EB0026080ED058AC0ED068AC4
:102A7000C0E902444460E860C16104618462848505
:102A800004866B62C5ED0A9A0420C5E906446C61B0
:102A90002C6207F0E9FC30235A4A2B741378CAF8E9
:102AA00000506B7401331370029A2B79D2F80CB07A
:102AB0002860C0F80090A3B1484602E02A6852F8A6
:102AC0002300036859461B6898472B68822153F8F6
:102AD0002400013403685B6898472A79E3B29A427C
:102AE000ECD8A868484A03689B6893427ED1DBF81B
:102AF000343090ED056A07EE903AF8EEE77A90ED03
:102B0000067A27EE866A27EE877AC6EE096AC7EE4E
:102B1000097ABDEEE67AFDEEE77AC36117EE103A68
:102B200017EE902A012BB8BF0123002AC0E9083212
:102B300001DC012343620021344A354B0C920B9196
:102B400004AC0A950D93CDE908230791AB6898E88A
:102B5000030084E803001A1D92E8030088E80300DC
:102B6000D4E9000182E803000C9ADC680D99DA6070
:102B70001A6906950C9419610D921CB10322414605
:102B80004046A047089B1BB106A903220846984768
:102B9000C7B1B86810B103685B689847F86810B1AE
:102BA00003685B689847386808B107F05FFCFB6909
:102BB00023B107F1140103220846984738462C2117
:102BC00007F056FC039B09F1100953457FF41BAF36
:102BD000DDF808C0DCF8C401DCF80C1003685B69A0
:102BE0000FB0BDEC048BBDE8F04F1847594698472D
:102BF000A1E700BF00007A440000FA430000000093
:102C000094D40110442F0020C9050010110C0010AD
:102C1000010A001005EE101A4168002900F0AE808C
:102C200070B4056990ED097A06EE905AD0ED0C7AF1
:102C3000F8EE666AD0ED065A9FED526A36EEC74A44
:102C400075EEE74AA4EE067AE4EE867A90F82C3028
:102C500080ED097AC0ED0C7A8468DBB177EE666AA4
:102C6000B6EE006AF0EEE66AF4EEC66AF1EE10FA2D
:102C700010D5D0ED0A6AFCEEE66A16EE905A012DE8
:102C800038BF0125A5424FF0000328BF254680F834
:102C90002C30056190F83830002B5AD1BCEEC77A41
:102CA00017EE106AC36990ED186A1A19921BB2FBED
:102CB000F4FCD0ED147A04FB1C2201EB820292EDAD
:102CC000007A90ED132A66EE277A90ED193AD0ED4E
:102CD000152AE7EE027AD0ED1A6AD0ED163AE2EE46
:102CE000837AD0ED1B4A90ED174AE3EEE67AD0EDF9
:102CF000055A80ED187AE4EE647AB0EE457A01EB7D
:102D000083010133B3FBF4F2A7EEA57A04FB12337F
:102D100080ED196AC0ED1B6AC0ED1A7A81ED007A68
:102D2000C3613DB370BC90ED0C6AF7EE006A9FED95
:102D3000167A76EEC66AF4EEC76AF1EE10FA67EE1E
:102D4000867A58BFB0EE667AE5EE077A17EE900AFB
:102D5000704777EEE57ADFED0D6AF0EEE77AF4EE94
:102D6000E67AF1EE10FA99D50022436B80F838200C
:102D7000836193E715EE100A70BC704715EE100AD8
:102D8000704700BF0AD7A33B6666663F0AD7233C5D
:102D9000F0B5274D83B02C685CB32368012501A8EA
:102DA0009847E06A019F00F11002A16A05FA02F259
:102DB0004B681342FCD194F83D60043041F8207018
:102DC0000EB12368EBE7E3688BB1251D2369284624
:102DD0009847E3682BB10322294628469847C4E95F
:102DE0000366E3691BB1236A04F11400984703B03A
:102DF000F0BD402007F036FB002201464BF680373D
:102E00000126DFF830C041F8042B04464260134627
:102E1000C1E901222860C0E90422C0E90622C0E914
:102E20000822C0E90D76C0F828C0C2628287B5E7E3
:102E3000942A00200000205030B504468BB00029B1
:102E400037D00D224FF00101036941EC40200022F0
:102E50002F49CDE90622099105912E4906AC08912A
:102E6000049194E80300CDE90001029283F83D202B
:102E7000039203F1040C9CE8030084E80300DDE9FD
:102E800000018CE80300089ADD680999DA601A6984
:102E9000EE460895196109921DB10322214620468C
:102EA000A847049B1BB102A90322084698470BB010
:102EB00030BD05696B6A03B19847012385F83D3041
:102EC0000BF01AFE14480BF08DFE00230D2243EC8C
:102ED0004020124A1068EFF3108172B6D0E8CFCFCD
:102EE0000125BCF1000FF9D1C0E84C5FBCF1000F27
:102EF000F4D1BFF35F8F0A485160C4F89C30126868
:102F0000C4F8A000C2E88F3F81F310880BB030BD39
:102F1000290B0010E9090010912D00101429002040
:102F2000CDCC4C3F0000000007EE901A9FED427A96
:102F3000F8EEE77AC7EE877AF8B517EE901A2DED1E
:102F4000028B04463D4806F0EBFDB3EE047A07EE33
:102F5000900A67EE877AC4ED157A17EE900A19F099
:102F600063FA33A3D3E9002305F0B0FE0646206DD3
:102F70000F4619F059FA0B4602463946304605F01D
:102F8000CBFE05F017FF054607F002F9D4ED167ADF
:102F900007EE100A77EEA77A284687EE278A07F011
:102FA000FAF894F85C3007EE900A33BBF7EE005A5B
:102FB000B8EE006A75EEE76A38EE255AB6EE007A8A
:102FC00067EE867A26EE877A85EE856A35EEC88AC0
:102FD00027EE067A66EE266A67EE867A28EE068A7D
:102FE00084ED187AC4ED196A84ED1A7AC4ED1B7A5F
:102FF00084ED1C8ABDEC028BF8BD012BFAD1F7EEF3
:10300000005AB8EE006A77EEA56A38EE255AB6EE99
:10301000007A67EE867A26EE877A85EE856A35EE47
:10302000C88A27EE067A66EEC66AD5E7AFF3008057
:10303000182D4454FB21194000F07F4500007A44CC
:1030400007EE101ADFED426AB8EEC77AF8B5C7EEA0
:10305000267A2DED028BF7EE008A78EEE77A67EE9E
:10306000A77A044617EE901A3A4806F059FD9FEDEC
:103070003A7A07EE900A67EE877AC4ED087A17EE7F
:10308000900A19F0D1F930A3D3E9002305F01EFE10
:103090000646E0690F4619F0C7F90B460246394665
:1030A000304605F039FE05F085FE054607F070F85C
:1030B000D4ED097A07EE100A77EEA77A284687EE54
:1030C000278A07F068F894F8283007EE900A23BBA7
:1030D00038EE285A78EEE76AB6EE007AF8EE005A33
:1030E00088EE856A26EE877A38EEC88A67EEA57A7A
:1030F00066EE266A27EE067A67EE867A28EE068A5C
:10310000C4ED0C6A84ED0B7A84ED0D7AC4ED0E7A71
:1031100084ED0F8ABDEC028BF8BD012BFAD138EE9D
:10312000285A77EEA86AB6EE007AF8EE005A88EED2
:10313000856A26EE877A38EEC88A67EEA57A66EE4B
:10314000C66AD7E7AFF30080182D4454FB2119401D
:1031500000F07F450000C843000048420000000026
:103160000A46526BF8B507EE902A2DED028B90EDD2
:10317000037AB8EE678ADFED566A28EE077AC7EE63
:10318000267AFCEEE77A026217EE902A012A38BF0F
:1031900001220446C66F4F4B826035681B680021D0
:1031A000581905EB820535609200606014F024F830
:1031B000D4ED047A0023F8EE677A84ED0F8A18EED6
:1031C000100AC4ED097AE36119F02EF9D4ED117AF1
:1031D000064694F84830206F0F4637EEA78A2064E1
:1031E000002B3FD119F020F937A3D3E9002305F0D4
:1031F0006DFD32463B4605F08FFD05F0DBFD0546D3
:1032000006F0C6FF07EE900A2846C7EE888A06F049
:10321000C2FFF7EE005A07EE900A78EEA54A75EE67
:10322000E76AB6EE007AB8EE005A85EEA46A26EE9A
:10323000877A75EEE88A67EE857A66EE266A27EE6B
:10324000067A67EE867A68EE868AC4ED146AC4ED63
:10325000167AC4ED178A84ED137A84ED157ABDECE5
:10326000028BF8BD012BFAD119F0DEF816A3D3E9D1
:10327000002305F02BFD32463B4605F04DFD05F0E1
:1032800099FD054606F084FF07EE900A2846C7EE32
:10329000888A06F080FFF7EE005A07EE900A78EE73
:1032A000A54A77EEA56AB6EE007AB8EE005A85EE2A
:1032B000A46A26EE877A75EEE88A67EE857A66EE6E
:1032C000C66ABCE7AFF30080182D4454FB211940B7
:1032D00000007A44EC1700200A46526BF8B507EE5E
:1032E000902A2DED028B90ED037AB8EE678ADFED20
:1032F000566A28EE077AC7EE267AFCEEE77A026273
:1033000017EE902A012A38BF01220446C66F4F4BA0
:10331000826035681B680021581905EB820535600D
:103320009200606013F068FFD4ED047A0023F8EE99
:10333000677A84ED0F8A18EE100AC4ED097AE3610A
:1033400019F072F8D4ED117A064694F84830206FDF
:103350000F4637EEA78A2064002B3FD119F064F89E
:1033600037A3D3E9002305F0B1FC32463B4605F014
:10337000D3FC05F01FFD054606F00AFF07EE900A94
:103380002846C7EE888A06F006FFF7EE005A07EED9
:10339000900A78EEA54A75EEE76AB6EE007AB8EEC6
:1033A000005A85EEA46A26EE877A75EEE88A67EE03
:1033B000857A66EE266A27EE067A67EE867A68EEEA
:1033C000868AC4ED146AC4ED167AC4ED178A84EDBA
:1033D000137A84ED157ABDEC028BF8BD012BFAD17E
:1033E00019F022F816A3D3E9002305F06FFC32464A
:1033F0003B4605F091FC05F0DDFC054606F0C8FEF5
:1034000007EE900A2846C7EE888A06F0C4FEF7EE5B
:10341000005A07EE900A78EEA54A77EEA56AB6EE56
:10342000007AB8EE005A85EEA46A26EE877A75EE29
:10343000E88A67EE857A66EEC66ABCE7AFF300807D
:10344000182D4454FB21194000007A44EC17002049
:1034500070B5134604468C469EB020211D4A1E6856
:1034600001A82378DCF8005008F070FB40F202530A
:10347000194801AA09A911F0A5FE98B909A933466E
:1034800015482A1D11F0D0FF011E16DB124809A9AC
:1034900011F0A4FEC8B9216810481EB0BDE8704004
:1034A00008F022BE01460E4808F01EFE21680D48B5
:1034B0001EB0BDE8704008F017BE0B4808F014FEBF
:1034C00009A9054811F08AFEF0E70146074808F00F
:1034D0000BFEEBE730C5011048210020B0C50110FC
:1034E00044C50110C4C5011070C5011090C501107C
:1034F000F8B503688E4EDB682DED028BB3420446AF
:103500000D4608EE102A1FD10420A84219D904EB59
:10351000850383ED208A032D13D8DFE805F07A02B6
:10352000B617B5EEC08AF1EE10FA00F1EB80DFEDD0
:10353000817AB4EEE78AF1EE10FA77FE887AC4ED6C
:10354000057ABDEC028BF8BD9847DEE7F7EE008AFE
:1035500038EEC88A68EE087A774817EE901A06F0B7
:10356000DFFA9FED767A07EE900A67EE877AC4ED70
:103570001C7AC4ED107A17EE900A18F055FF6AA372
:10358000D3E9002305F0A2FB0646E06B0F4618F0D6
:103590004BFF0B4602463946304605F0BDFB05F0B1
:1035A00009FC054606F0F4FDD4ED117A07EE100A89
:1035B00077EEA77A284687EE278A06F0ECFD94F886
:1035C000483007EE900A002B40F0868038EE285AEB
:1035D00078EEE76AB6EE007AF8EE005A88EE856A71
:1035E00026EE877A38EEC88A67EEA57A66EE266AF6
:1035F00027EE067A67EE867A28EE068AC4ED146A0C
:1036000084ED137A84ED157AC4ED167A84ED178A69
:1036100097E7F6EE006A28EE268AB4F8743084ED57
:103620001E8A002B8DD0B5EEC08AF1EE10FA88DD2F
:10363000DFED437A07EE103A94ED086AB8EEC77AE8
:1036400028EE278AF8EE465AC8EE077A67EEA57A82
:10365000FCEEE77A17EE903AA26894ED096A93427D
:1036600028BF134607EE903AB8EE677A76EE477AAF
:10367000F0EEE77AF4EEE67AF1EE10FA48DD012397
:1036800084ED0A7A84F82C305BE7B5EEC08AF1EE5F
:1036900010FA3AD4B7EE007AB4EEC78AF1EE10FA17
:1036A00037FE087A94ED066ABDEC028BD4ED0C7AF5
:1036B00077EEC67ADFED236AF0EEE77AF4EEE67A8B
:1036C000F1EE10FACBBF0123002384ED0D7A84EDD7
:1036D000067A84F83830F8BD012B7FF432AF38EE2B
:1036E000285A77EEA86AB6EE007AF8EE005A88EE0D
:1036F000856A26EE877A38EEC88A67EEA57A66EE86
:10370000C66A75E7DFED107A19E79FED0F7AC9E712
:10371000012B38BF012393424FF0000128BF13460D
:1037200084F82C1023610CE7182D4454FB21194018
:1037300049020010A4707D3F000048430000C842C9
:10374000000070420AD7233C000000000000000087
:10375000F8B50368924EDB682DED028BB342044648
:103760000D4608EE102A23D10420A8421DD904EBEF
:10377000850383ED208A032D17D8DFE805F07E024C
:10378000BC1BF6EE007AE8EE277AF5EEC07AF1EE91
:1037900010FA00F1ED809FED837AF4EEC77AF1EE36
:1037A00010FA77FE277AC4ED057ABDEC028BF8BDDE
:1037B0009847DAE7F7EE008A38EEC88A68EE087AAA
:1037C000794817EE901A06F0ABF99FED787A07EE7C
:1037D000900A67EE877AC4ED1C7AC4ED107A17EE72
:1037E000900A18F021FE6CA3D3E9002305F06EFACD
:1037F0000646E06B0F4618F017FE0B4602463946A8
:10380000304605F089FA05F0D5FA054606F0C0FC09
:10381000D4ED117A07EE100A77EEA77A284687EEE4
:10382000278A06F0B8FC94F8483007EE900A002B7F
:1038300040F0888038EE285A78EEE76AB6EE007AD3
:10384000F8EE005A88EE856A26EE877A38EEC88A46
:1038500067EEA57A66EE266A27EE067A67EE867A26
:1038600028EE068AC4ED146A84ED137A84ED157A85
:10387000C4ED167A84ED178A97E7F4EE007A28EE05
:10388000278AB4F8743084ED1E8A002B8DD0B5EEF3
:10389000C08AF1EE10FA88DDDFED457A07EE103AC6
:1038A000D4ED086AB8EEC77A28EE278AB8EE666AC1
:1038B000C8EE077A67EE867AFCEEE77A17EE903A62
:1038C000A268D4ED096A934228BF134607EE903AE6
:1038D000B8EE677A76EEC77AF6EE005AF0EEE77A3F
:1038E000F4EEE57AF1EE10FA48DD012384ED0A7A70
:1038F00084F82C3059E7B5EEC08AF1EE10FA3AD4CC
:10390000B7EE007AB4EEC78AF1EE10FA37FE087A05
:1039100094ED066ABDEC028BD4ED0C7A77EEC67A94
:10392000DFED246AF0EEE77AF4EEE67AF1EE10FAD3
:10393000CBBF0123002384ED0D7A84ED067A84F851
:103940003830F8BD012B7FF430AF38EE285A77EECF
:10395000A86AB6EE007AF8EE005A88EE856A26EE7E
:10396000877A38EEC88A67EEA57A66EEC66A73E78C
:10397000DFED117A17E79FED107AC9E7012B38BF09
:10398000012393424FF0000128BF134684F82C1006
:1039900023610AE7AFF30080182D4454FB2119403E
:1039A00019040010A4707D3F000048430000C84285
:1039B000000070420AD7233C000000000000000015
:1039C0002DE9F041472A2DED028B044600F0AD8031
:1039D0004A2A114612D007EE903A9FEDBB7AF8EED4
:1039E000E77AC7EE877AA2F1140317EE902A032B29
:1039F00000F23D81DFE803F08F857B710268B34DF3
:103A0000926A5901AA4240F0138107EE901A9FED85
:103A1000B07AF8EEE77AC7EE877AAE4817EE901ADA
:103A200006F07EF8B3EE047A07EE900A67EE877A26
:103A3000C4ED157A17EE900A18F0F6FCA0A3D3E9AE
:103A4000002305F043F90646206D0F4618F0ECFC04
:103A50000B4602463946304605F05EF905F0AAF9F4
:103A6000054606F095FBD4ED167A07EE100A77EEC0
:103A7000A77A284687EE278A06F08DFB94F85C30FB
:103A800007EE900A002B40F0D880F7EE005AB8EE0F
:103A9000006A75EEE76A38EE255AB6EE007A67EEF0
:103AA000867A26EE877A85EE856A35EEC88A27EE15
:103AB000067A66EE266A67EE867A28EE068A84ED36
:103AC000187AC4ED196A84ED1A7AC4ED1B7A84ED74
:103AD0001C8ABDEC028BBDE8F081D4F88400036839
:103AE000BDEC028B0321BDE8F0415B6A1847D4F8B6
:103AF00084000368BDEC028B0221BDE8F0415B6AE3
:103B00001847D4F884000368BDEC028B0121BDE89E
:103B1000F0415B6A1847D4F884000368BDEC028B5F
:103B20000021BDE8F0415B6A184702686A4D526A9D
:103B30005901AA427CD107EE901ADFED656AF8EED2
:103B4000E77AF7EE008A87EEA67A78EEC77A67EE14
:103B5000A77A624817EE901A05F0E2FF9FED607AAF
:103B600007EE900A67EE877AC4ED087A17EE900A9E
:103B700018F05AFC52A3D3E9002305F0A7F8064633
:103B8000E0690F4618F050FC0B46024639463046B5
:103B900005F0C2F805F00EF9054606F0F9FAD4ED85
:103BA000097A07EE100A77EEA77A284687EE278A69
:103BB00006F0F1FA94F8283007EE900A13BB38EEBD
:103BC000285A78EEE76AB6EE007AF8EE005A88EEE8
:103BD000856A26EE877A38EEC88A67EEA57A66EEA1
:103BE000266A27EE067A67EE867A28EE068AC4ED04
:103BF0000C6A84ED0B7A84ED0D7AC4ED0E7A84EDB7
:103C00000F8A66E7012B7FF464AF38EE285A77EE0F
:103C1000A86AB6EE007AF8EE005A88EE856A26EEBB
:103C2000877A38EEC88A67EEA57A66EEC66AD8E764
:103C3000BDEC028BBDE8F0411047012B7FF449AF8A
:103C4000F7EE005AB8EE006A77EEA56A38EE255A0C
:103C5000B6EE007A67EE867A26EE877A85EE856A7A
:103C600035EEC88A27EE067A66EEC66A23E7A1F12A
:103C70001B03032B03D8DFE803F013100D0A55399B
:103C800003293FF626AFDFE801F01714110ED4F830
:103C9000880024E7D4F888002BE7D4F8880032E7BE
:103CA000D4F8880039E7D4F88C0018E7D4F88C00F1
:103CB0001FE7D4F88C0026E7D4F88C002DE700BF6E
:103CC000182D4454FB2119400000FE42292F0010FA
:103CD00000F07F4500007A44413000100000C843E6
:103CE0000000484270B5194E34680CB1204670BDD2
:103CF000B02006F0B7FB00250446C0E90055C0E936
:103D00000255C0E90455C0E90655C0E90855C0E9A7
:103D10000A55C0E90C55C0E90E55C0E910554022BE
:103D20002946483013F068FA0023C4E92255C4E953
:103D30002755C4F8985020463460C4F89050C4F811
:103D40009430C4F8A45084F8A85070BDC42E00204C
:103D500038B554220021204813F04EFA4FF48073F6
:103D60004FF460621C4D4FF4FA746B61AB611B4BF6
:103D70004FF480502B612A624FF480734FF48072AD
:103D800017496C6269601749174CA960E8612946B8
:103D90001648C5E90A23EC6010F03AFC60B11448FB
:103DA00008F022F92946114810F08EFB48B90A495B
:103DB0000E4810F02DFC50B90E4808F015F90120FE
:103DC00038BD01460C4808F08FF9002038BD014687
:103DD0000A4808F089F9F8E7681F00203D02001042
:103DE0009D0A0010B90A0010790A0010482100202D
:103DF000E0C501106CC601100CC6011034C60110DC
:103E000030B504468C4697B0154640F20253224620
:103E1000144801A9644611F0D5F978B901A92B46D7
:103E20002246104811F000FB011E0EDB0D4801A9CF
:103E300011F0D4F988B9012017B030BD01460A4805
:103E400008F052F9002017B030BD084808F04CF9CE
:103E500001A9044811F0C2F9F4E70146044808F04A
:103E600043F9EFE74821002044C5011070C5011057
:103E700090C501102DE9F04F0C46054695B00B2278
:103E80002046754913F08CFA002800F09180062234
:103E90002046724913F084FA00286AD1A679313E8F
:103EA000F6B2022E00F2C8800834042220466C4983
:103EB00013F076FA002800F09A810522204669491D
:103EC00013F06EFA002800F0B080092220466649FF
:103ED00013F066FA002840F09081022700232A6937
:103EE0000DF130080C93C8E901330F9382F83D308F
:103EF000CDE91233CDE9103310AC0DF1200E94E86A
:103F000003008EE8030002F1040C9CE8030084E83F
:103F100003009EE803008CE803001299D36810693F
:103F20001293D1601399139011611BB103222146A2
:103F3000204698470E9B1BB10322414640469847B6
:103F4000D5F8AC309F5595F9A420D5E92A01FFF7A3
:103F500057FF2C69636A03B19847012384F83D3009
:103F60000AF0CAFD41480AF03DFE012015B0BDE847
:103F7000F08F062220463E4913F012FA002844D161
:103F8000A379313BDBB2022B00F22D81D5F8AC20B6
:103F9000D3565A1C4BD013F0FF0348D0012B00F02E
:103FA0003181022BE1D13049324808F09DF8DCE73D
:103FB0004FF0FF33304910AA04F10B00109313F0B7
:103FC00041F800282DD0109B0B2B2AD82B4A1368C0
:103FD000EFF3108172B6D3E8CF4F0120002CFAD155
:103FE000C3E8440F002CF6D1BFF35F8F109B5160E4
:103FF00033BB2348C5F89C30C5F8A00000231268E5
:10400000C2E88F3F81F31088AFE7142220461D4994
:1040100013F0C6F9064600283AD0002015B0BDE8D6
:10402000F08F194807F0E0FF9FE7012756E70C499A
:10403000104808F059F898E7144807F0D5FF94E7BE
:1040400016200F4C03EB830305EB8303C3F8C0403A
:10405000C3F8B400D2E700BF8CC60110C0C601107F
:1040600050C90110E8C60110F0C60110912D0010D2
:1040700014C7011034C7011098C60110142900207C
:10408000CDCC4C3F48C701109CC60110C8C60110DA
:104090004FF0FF3705AB0093644904AB04F1140003
:1040A00003AACDE90377059712F0CCFF002800F0B2
:1040B000A080039B0B2B00F29C80DDF81090B9F1DF
:1040C000000F40F39680059F002F40F39280DFF8A9
:1040D00080A1DFF880B1B7F5001FCDE90836AC69E3
:1040E000CDF82CA0CDF828B000F3918010AD0222BD
:1040F00008A90DF130082846CDE9116610961396EF
:10410000FCF772FD95E8030088E8030004F1100352
:1041100093E8030085E8030098E8030083E80300C0
:10412000A369E2691293C4F818B01392C4F81CA0F2
:104130001BB1032229462846984700230122C4F8D0
:104140003874E76AC4F83C34C4F83034C4F84834EE
:10415000C4F8289084F83424354A3968106801F589
:104160000016D4F84C240644084401F58001C4F834
:104170004404396026620C93C8E901330F9382F836
:104180003D301093C5E9013306AC139395E8030065
:1041900084E80300131D93E8030085E8030094E816
:1041A000030083E803001299D36810691293D16069
:1041B0001399139011611BB1032229462846984791
:1041C0000E9B1BB103224146404698470A9B1BB1F8
:1041D00008A9032208469847DDE9032305991548F5
:1041E00007F082FFC1E6144807F0FEFEBDE6074671
:1041F00074E6124807F0F8FE0FE72146104807F072
:1042000073FFB2E60F49104807F06EFFADE64FF4BA
:10421000001239460D4807F067FF0A9B002B3FF458
:10422000FCAE08A9032208469847F6E660C70110CD
:10423000EC170020E0C701101CC701106CC701106B
:10424000FCC60110E8C6011034C70110B8C7011040
:1042500051340010E90B001000B5C3B001466A46A6
:10426000054810F0C1FE18B9019843B05DF804FB91
:10427000002043B05DF804FB4821002030B58FB02A
:104280000546FFF765FDB8B101230446124A1348FD
:1042900001A92B7011F070FB38B10F490F4811F0D4
:1042A00077FA80B920460FB030BD01A90B4811F054
:1042B000B1FB20460FB030BD094807F095FE002441
:1042C00020460FB030BD0146064807F00DFF0648F6
:1042D00007F08AFEF3E700BFD0C801104821002094
:1042E000B4C8011068C80110DCC8011070B50B46D5
:1042F00004468CB058490068E3600AF0D1FA4FF4E4
:1043000080320346206907928602821C02F01F0C4D
:1043100006F4F84646EA0C06504946F080460991F4
:1043200046F4801621680A96A360DE1DDB0101F1C8
:104330002F4143EA063323F0C04301F5600112091F
:104340000893474D0309090D22F4F84242EA8322FB
:1043500006312A43C9B20B9202F07EFB2168206924
:1043600001F12F4101F56001090D0631C9B201309B
:1043700002F072FB2168206901F12F4101F5600113
:10438000090D0631C9B2023002F066FB0120226934
:1043900061680090032320680AF0CCFA314BE26890
:1043A000314902FB03F3B1EBB31F13D22F49304B5A
:1043B00001FB02F29A420BD92E4D284606AB05AA04
:1043C00004A903F0C7FC38B929462B4802F0AAFB20
:1043D0002A4DF2E72A4DF0E70498DDE9051203F0D3
:1043E000F7FB052003F0EEFBE3689FED267A9B01C7
:1043F000B0FBF3F307EE903AF8EEE77A77EE877AC0
:10440000BCEEE77A17EE103A9BB213B307EE103A00
:10441000B8EE477ADFED1C6A77EEC77A67EEA67AC8
:10442000FCEEE77ACDED037A9DF80C502D02D4E92D
:10443000011245EA0345206807AB07950AF0C0FA68
:10444000D4E900200123116883400B4313600CB0B2
:1044500070BD1D46EBE700BF487702100000064024
:10446000E083FFFFD578E92626310800F125BED389
:10447000BEF10500F049020000C90110B0110200B0
:10448000803202000000003B00008043F8B50F4C72
:10449000206800B1F8BD402005F0E4FF002302468B
:1044A0004BF68036012542F8043B4360C2E90133F4
:1044B000C0E90433C0E90633054FC0E90833C0E959
:1044C0000A73C0E90D6520608387F8BD942A002037
:1044D000000020502DE9F0412F4E346814B12046E1
:1044E000BDE8F0814FF48A6005F0BCFF00254FF075
:1044F000FF312A4F04463B68C0E90055C0E9025528
:10450000C0E90455C0E90755C0E909558561C0F8FF
:104510004014C0F8305480F83454C0F83854C0F80F
:104520003C54C0F84454C0F848546BB11C4DC4F816
:104530004C34286840B30023E06234602046C4F85D
:1045400044342362BDE8F081402005F08BFF024631
:104550004BF6803E4FF0010CDFF8488042F8045BD8
:10456000034645603860C2E90155C0E90455C0E919
:104570000655C0E90855C0F82880C0F834E0C56287
:10458000C0F838C08587D1E7042005F06BFF002311
:1045900028600360CFE700BFD4210020942A0020C8
:1045A000102F00200000205070B5044696B04068DF
:1045B000FFF752FE80B1064605F056FF012305467F
:1045C0006268244801A910F0FDFD70B1284616B0BC
:1045D000BDE8704005F04ABF94F90020D4E901011C
:1045E00016B0BDE87040FFF70BBC33462A461948A9
:1045F00001A910F003FF061E22DB01A9154810F0E7
:10460000EDFD0146C0B9002EE0D06B1E06E0A268A9
:1046100013F8010FB14202F80E00D7D094F900C090
:104620004FFA81FE8C4501F10101F0D8284616B001
:10463000BDE8704005F01ABF074807F055FDC5E713
:104640003146064807F050FD01A9024810F0C6FDAA
:10465000BCE700BF4821002090C5011028C8011008
:10466000F0B52A4E04463568CBB0002D37D0202156
:10467000274A6846237807F069FA6946254808AA58
:1046800010F0B2FCB0B9099F7B08643BE360636043
:10469000214B6A461E682B681E481E443B442B6013
:1046A00008A90123A66010F08DFD38B10023E36056
:1046B0004BB0F0BD6FF063030027E7E73B4632469F
:1046C000144808A910F09AFE051E15DB114808A928
:1046D00010F084FD58B9AF42E8D14BB0F0BD0420D2
:1046E00005F0C0FE0023054603603060BFE70146C9
:1046F0000A4807F0F9FCD9E72946094807F0F4FC15
:1047000008A9044810F06AFDD0E700BF102F002070
:1047100030C5011048210020EC17002090C5011081
:1047200028C80110000000002DE9F041D0E903384D
:104730002DED028B98ED0D8A0022B8EE488A96B0D6
:1047400005461A6080ED078A18EE100A17F06CFE15
:1047500006460F46286A17F067FE0FF29843D3E922
:10476000002304F0B3FA3B46324604F0D5FA04F0D5
:1047700021FB044605F00CFDD5ED097A07EE100A81
:1047800077EEA77A2046C7EE278A05F004FD95F854
:10479000283007EE900A002B40F01981F7EE005AFE
:1047A000B8EE006A75EEE76A38EEA55AB6EE007A02
:1047B00067EE867A26EE877A85EE856A75EEE88A58
:1047C00027EE067A66EE266A67EE867A68EE868AB5
:1047D00085ED0B7AC5ED0C6A85ED0D7AC5ED0E7A87
:1047E000C5ED0F8A85ED148A686D17F01DFE0FF276
:1047F0000443D3E9002304F069FA3B46324604F04F
:104800008BFA04F0D7FA044605F0C2FCD5ED167A0F
:1048100007EE100A77EEA77A204687EE278A05F082
:10482000BAFC95F85C3007EE900A002B40F0A780A8
:10483000F7EE005AB8EE006A75EEE76A38EE255AD0
:10484000B6EE007A67EE867A26EE877A85EE856A7E
:1048500035EEC88A27EE067A66EE266A67EE867A15
:1048600028EE068A85ED187AC5ED196A85ED1A7A63
:10487000C5ED1B7A85ED1C8AD5F884004146036896
:1048800005F1B0045B699847D5F888002969036889
:1048900005F5D0765B699847D5F88C0029690368DF
:1048A0005B69984720461434FFF7DAFEA642F9D137
:1048B000D5F8A800FFF7D0FC0646002858D005F030
:1048C000D3FD01230446D5F8A820BD4801A910F066
:1048D00079FC002800F09681204605F0C7FDD5F848
:1048E000AC2092F9003092F9026092F901705A1CE2
:1048F00000F0FC817A1C08BF0227711C08BF00264B
:10490000012B00F0F981022B00F0A281002B00F0B6
:10491000EF80012F00F00981022F00F08182002F2B
:1049200000F08280012E00F09C80022E00F0318287
:10493000002E74D1042005F095FD0446A14AA24B37
:104940000260204629699847236820461B6AB5F80B
:1049500090109847D5F88C00C5F88C4000285ED0A0
:1049600003685B6816B0BDEC028BBDE8F0411847E8
:1049700095F9A420D5E92A01FFF742FAAFE7012B08
:104980007FF47AAFB7EE005AB8EE007A37EE856A58
:10499000F6EE006A78EE054A67EE877AC5EE245A8D
:1049A00066EE266A35EE487A66EEA56A26EE656AF8
:1049B00067EEA57A27EE257AC5ED186A85ED196AA6
:1049C000C5ED1A6AC5ED1B7A85ED1C7A54E7012BFB
:1049D0007FF408AFB7EE005AB8EE007A37EE856A7A
:1049E000F6EE006A78EE854A67EE877AC5EE245ABD
:1049F00066EE266A35EE687A66EEA56A26EE656A88
:104A000067EEA57A27EE257AC5ED0B6A85ED0C6A6F
:104A1000C5ED0D6AC5ED0E7A85ED0F7AE2E616B0AA
:104A2000BDEC028BBDE8F081042005F01BFD0446BF
:104A3000644A654B026020462969984723682046EE
:104A4000B5F890101B6A9847D5F88800C5F88840DB
:104A500000283FF467AF03685B689847012E7FF436
:104A600064AF902005F0FEFC4AF64447044600235C
:104A700000264FF47A7CDFED556A9FED557ADFED25
:104A8000557A55482762554F5549564ADFF86C818B
:104A9000DFF86CE120606361A361A3622363636359
:104AA00023666366A366E366A36738684E4BC4ED6E
:104AB0000F6A84ED117AC4ED147AC4E90166C4F872
:104AC0005880C4F85CE0C4F810C0E1602164E2647E
:104AD0006265E66184F82C6084F8386084F8486088
:104AE000A4F874602367002800F0F6813F4B95E13D
:104AF000042005F0B7FC0446324A334B02602046DE
:104B000029699847236820461B6AB5F89010984792
:104B1000D5F88400C5F8844000283FF4FAAE036855
:104B20005B689847012F7FF4F7AE902005F09AFC60
:104B30000446002300274FF47A7E4AF6444C9FED4A
:104B4000236ADFED236A9FED237ADFED297ADFF810
:104B5000B0802148C4F85C80DFF880802049214A79
:104B600020606361A361A36223636363236663665A
:104B7000A366E366A367D8F800001B4B84ED0F6AB9
:104B8000C4ED116A84ED147AC4ED167AC4E9017794
:104B9000C4F810E0C4F820C0E1602164E2646265FA
:104BA000E76184F82C7084F8387084F84870A4F8B1
:104BB00074702367002800F086810C4B77E100BFFA
:104BC0004821002084D30110F903001000803B47E6
:104BD000F4FD343F5652003C50D30110102F0020FA
:104BE00000007A445652803B00409C4661310010E0
:104BF000565CE8BF182D4454FB211940565CE8BFB1
:104C00003FBB543F33462246B74801A910F0F6FB9C
:104C1000061EC0F2948101A9B34810F0DFFA0146E4
:104C2000002840F08881002E3FF456AE631E07E056
:104C3000D5F8AC2013F8017FB14217543FF44CAEC5
:104C400095F9A42048B2914201F10101F0D343E665
:104C5000902005F007FC4FF47A78044600230022E8
:104C60004AF6444EDFEDA15A9FEDA16ADFEDA16A3D
:104C70009FEDA17ADFEDA17AA148C4F81080DFF89A
:104C80009882DFF898C29F49C4E900026361A3617A
:104C9000A3622363636323666366A366E366A36715
:104CA000D8F80000984BC4ED0F5A84ED116AC4ED9A
:104CB000146A84ED167AC4ED177AC4F820E0C4F8BB
:104CC0000CC0C4F840C0E1646165A260E26184F890
:104CD0002C2084F8382084F84820A4F87420236716
:104CE000002800F0E680894BE06708E77B1C00F0B5
:104CF0001B81741C08BF0026902005F0B3FB4FF405
:104D00007A780446002300224AF6444EDFED775AB3
:104D10009FED776ADFED776A9FED777ADFED777A3F
:104D20007B48C4F81080DFF8F081DFF8F0C17549E6
:104D3000C4E900026361A361A36223636363236622
:104D40006366A366E366A367D8F800006E4BC4ED04
:104D50000F5A84ED116AC4ED146A84ED167AC4ED1D
:104D6000177AC4F820E0C4F80CC0C4F840C0E1646D
:104D70006165A260E26184F82C2084F8382084F810
:104D80004820A4F874202367002800F09280614B2B
:104D9000AAE7902005F066FB4AF644470446002344
:104DA00000264FF47A7CDFED516A9FED517ADFEDFA
:104DB000517A53482762584F5849524ADFF8608168
:104DC000DFF860E120606361A361A3622363636332
:104DD00023666366A366E366A36738684A4BC4ED3F
:104DE0000F6A84ED117AC4ED147AC4E90166C4F83F
:104DF0005880C4F85CE0C4F810C0E1602164E2644B
:104E00006265E66184F82C6084F8386084F8486054
:104E1000A4F87460236700285ED03C4BE06790E5FF
:104E2000902005F01FFB0446002300274FF47A7EF4
:104E30004AF6444C9FED2D6ADFED2D6A9FED2D7AE9
:104E4000DFED2D7ADFF8DC802D48C4F85C80DFF8D8
:104E5000C88032492B4A20606361A361A362236347
:104E6000636323666366A366E366A367D8F80000FE
:104E7000254B84ED0F6AC4ED116A84ED147AC4EDFC
:104E8000167AC4E90177C4F810E0C4F820C0E160E4
:104E90002164E2646265E76184F82C7084F83870FC
:104EA00084F84870A4F87470236760B1174BE0670A
:104EB000C1E5042005F0D6FA0022236802605B6990
:104EC000C8F8000010E7042005F0CCFA236807605A
:104ED0005B69C8F80000EAE7042005F0C3FA23681C
:104EE0005B690660386099E74821002000803B47F5
:104EF000F4FD343F5652003C565CE8BF3FBB543F84
:104F0000B8D301105652803B00409C46D932001065
:104F100050D3011061310010102F002000007A449E
:104F2000565CE8BF3FBB543F701C4FF002077FF454
:104F3000E3AE0026E0E6064807F0D6F8CCE43146BA
:104F4000044807F0D1F801A9034810F047F9C3E479
:104F500090C5011028C80110482100202DE9F04714
:104F6000CF4E346814B12046BDE8F0874FF4F87096
:104F700005F078FA0446CB4D4FF4F872002112F098
:104F80003BF9C94B28682360002800F0F480DFF863
:104F90003C936060D9F80050002D00F01F81DFF8CD
:104FA0003083D8F80030A560002B00F0F880002591
:104FB000E3604BF680333222BC49C4E91A35C4E9B8
:104FC0001E35A361A362A363A364A36561616162EB
:104FD00061636164616561666167C4F8841025740A
:104FE000E5612584E5622586E563A4F84050E56423
:104FF000A4F85050E565A4F86050A4F87050A4F8E7
:105000008050C4E92235C4E92513A949C4E92A35E9
:10501000C4E92E35C4E93235C4E93635C4E93A3538
:10502000C4E93E35C4E94235C4F8A410C4F8B4104C
:10503000C4F8C410C4F8D410C4F8E410C4F8F410D0
:10504000C4F80411A4F89050C4F89C50A4F8A050DF
:10505000A4F8B050A4F8C050A4F8D050A4F8E05080
:10506000A4F8F050A4F80051A4F81051C4F8141199
:10507000C4F824118F49C4E94635C4E94A35C4E966
:105080004E35C4E95235C4E95635C4E95A35C4E948
:105090005E3584F8422184F8522184F8622184F834
:1050A0007221C4F83411C4F84411C4F85411C4F87E
:1050B0006411C4F87411A4F82051A4F83051A4F874
:1050C0004051A4F85051A4F86051A4F87051A4F8CC
:1050D0008051482084F88221C4E96113C4E9651332
:1050E000C4E96A3584F8922184F8A221C4F8A41195
:1050F000C4F8B41184F8B221C4F8B83184F8C221DC
:10510000C4F88C51A4F89051C4F89C51A4F8A05153
:10511000A4F8B051C4F8BC51A4F8C05105F0A2F9EC
:105120000022654B6549DFF8AC81DFF8ACE1DFF8C0
:10513000ACC1634FDFF8A8913460624E84F8EC5143
:10514000C0E90555C0E90755C0F8009005744360F3
:105150008660C16046628162C0F82C80C0F838E089
:10516000C0F83CC00263426303644764C4F8C401EE
:105170002046BDE8F087282005F074F900234FF0A1
:1051800032114FF48072C0E90033C0E90233C0E944
:10519000053301610262C36143622860F7E6402083
:1051A00005F060F9002201464BF680370125DFF853
:1051B00018C141F8042B03464260C8F80000C1E959
:1051C0000122C0E90422C0E90622C0E90822C0F891
:1051D00028C04763C26285638287E8E64FF48A602D
:1051E00005F040F900274FF0FF32DFF8E480054674
:1051F000D8F80030C0E90077C0E90277C0E9047749
:10520000C0E90777C0E909778761C0F84024C0F892
:10521000307480F83474C0F83874C0F83C74C0F846
:105220004474C0F848747BB1DFF8B8A0C5F84C34BA
:10523000DAF800702FB30022EF62C9F80050A560C1
:10524000C5F844242A62B2E6402005F00BF9034673
:105250001A464BF6803E4FF0010C1B4842F8047B87
:10526000C8F800305F60C2E90177C3E90477C3E999
:105270000677C3E90DECC3E908779862DF629F8780
:10528000D2E7042005F0EEF8D8F80030C9F8005055
:10529000C5F844742F620760CAF80000E86282E62D
:1052A000CC210020A42E0020ECD4011028D4011021
:1052B00040D4011058D4011000803B47F4FD343F26
:1052C00000401C4600007A4400002050D4210020F9
:1052D000942A002000409C460AD7233CCDCCCC3DEC
:1052E000B8D40110102F00202DE9F04F2DED068BC2
:1052F000012805468BB000F08181022849D00028A2
:1053000040F04E81A94D2C68002C00F0078300234B
:10531000CDE90633A64E089306AD326895E8030042
:10532000CDE900010493099303930593029382F856
:105330003D3002F1040C9CE8030085E80300DDE940
:1053400000018CE803000899D3680998D1601169BD
:105350000893106109911BB10322294628469847FA
:10536000049B1BB102A90322084698473568914A5D
:105370006B6A146003B19847012385F83D3009F04A
:10538000BBFB8D480BB0BDEC068BBDE8F04F09F0C0
:1053900029BC8A4E3468002CB9D14FF4F87005F05E
:1053A00061F80446864D4FF4F872002111F024FF95
:1053B000844B28682360002800F04983DFF824A28A
:1053C0006060DAF80050002D00F00783DFF81882E3
:1053D000D8F80030A560002B00F0E0820025E360E3
:1053E0004BF6803332227849C4E91A35C4E91E35B8
:1053F000A361A362A363A364A36561616162616346
:105400006164616561666167C4F884102574E56153
:105410002584E5622586E563A4F84050E564A4F898
:105420005050E565A4F86050A4F87050A4F880507E
:10543000C4E92235C4E925136449C4E92A35C4E91D
:105440002E35C4E93235C4E93635C4E93A35C4E904
:105450003E35C4E94235C4F8A410C4F8B410C4F809
:10546000C410C4F8D410C4F8E410C4F8F410C4F89C
:105470000411A4F89050C4F89C50A4F8A050A4F8CB
:10548000B050A4F8C050A4F8D050A4F8E050A4F84C
:10549000F050A4F80051A4F81051C4F81411C4F845
:1054A00024114B49C4E94635C4E94A35C4E94E35AF
:1054B000C4E95235C4E95635C4E95A35C4E95E3504
:1054C00084F8422184F8522184F8622184F8722100
:1054D000C4F83411C4F84411C4F85411C4F8641168
:1054E000C4F874114820A4F82051A4F83051A4F84D
:1054F0004051A4F85051A4F86051A4F87051A4F898
:10550000805184F88221C4E96113C4E96513C4E9B8
:105510006A3584F8922184F8A221C4F8A411C4F851
:10552000B41184F8B221C4F8B83184F8C221C4F8A7
:105530008C51A4F89051C4F89C51A4F8A051A4F83F
:10554000B051C4F8BC51A4F8C05104F08BFF002244
:10555000204B2149DFF89480DFF894E0DFF894C015
:105560001E4FDFF8949034601D4EC0E90555C0E928
:10557000075584F8EC51C0F80090057443608660CC
:10558000C16046628162C0F82C80C0F838E0C0F883
:105590003CC00263426303644764C4F8C401B6E6D6
:1055A0000BB0BDEC068BBDE8F08F00BFD021002012
:1055B0001C29002010290020912D0010CC21002052
:1055C000A42E0020ECD4011028D4011040D40110E6
:1055D00058D4011000803B47F4FD343F00401C4686
:1055E00000007A44D4210020942A002000409C46E8
:1055F0000AD7233CCDCCCC3DB8D40110CB4F3C686E
:10560000002C7FF484AE4FF4D07004F02BFFC84E12
:10561000C84A336804460260002B00F0D882C64DA9
:1056200063602868002800F0BE82DFF85493A06011
:10563000D9F80000002800F0AE82DFF84883E0606F
:10564000D8F80000002800F08882DFF83CA3206131
:10565000DAF80050002D00F05282DFF830A36561C7
:10566000DAF80050002D00F0168200264FF00008F6
:10567000DFEDB29A9FEDB29ADFEDB28A9FEDB28A6A
:1056800001229FEDB2AAB24BDFF8D4B2DFF8D4A268
:105690002366A366AF4BA56184F85C206366C4ED06
:1056A000079A84ED099A84ED0CAAC4ED0E8A84ED64
:1056B0000F8AC4ED149A84ED169AC4ED1B8A84ED0A
:1056C0001C8A9020C4F820B026646664A664E66450
:1056D000C4F82CA0C4F834A0C4F854B06667A66718
:1056E000E667C4F8806084F8288004F0BBFE4FF4BD
:1056F0007A724AF64443DFF864C297490546C0ED22
:105700000F9A80ED119A80ED14AAC0ED168A80EDF3
:10571000178AC0E90188C0F870C0016002610362A5
:10572000C0F80CB0C0F840B046618661866206637E
:105730004663066646668666C6668667C0F84CA0FF
:10574000C0F854A0C0F81C8080F82C8080F8388005
:1057500080F84880A0F87480D9F80000002800F094
:105760009281E867C4F88450902004F07BFE002307
:10577000054600264FF47A7E4AF6444C9FED6F7A38
:10578000DFED6F7A6B61AB61AB622B636B632B6692
:105790006B66AB66EB66AB67704B7149714A7248DA
:1057A000DFF8ECB1DFF8ECA1DFF8EC812B67D9F87A
:1057B000003085ED0F7AC5ED117AC5E90006C5F810
:1057C00050B0C5F858A0C5F85C80C5F810E0C5F821
:1057D00020C0E9602964EA646A65AE60EE6185F81C
:1057E0002C6085F8386085F84860A5F87460002B57
:1057F00000F041815D4EEB67C4F88850042004F04E
:1058000031FE4FF07E557821C4F894600426584B41
:10581000584A1B6802605B08C4E92633564BA4F85B
:105820009010C4F88C00C4F8A8303046C4F8A050DA
:1058300084F8A46004F018FE4FF0FF3101600121EC
:10584000052284F8C4100221002384F8142184F86E
:10585000D81006220321C4E92D33C4E93233C4E948
:105860003733C4E93C33C4E94133C4E94633C4F8AF
:10587000AC0084F8B030C4F8BC30C4F8D030C4F800
:10588000E430C4F8F830C4F80C31C4F8203184F89E
:10589000EC1084F80061C4F8C050C4F8D450C4F8C7
:1058A000E850C4F8FC50C4F81051C4F8245184F8EE
:1058B0002821072208200921C4E94B33C4E95033C9
:1058C000C4E95533C4E95A33C4E95F33C4E96433E6
:1058D000C4F83431C4F84831C4F85C31C4F87031CC
:1058E000C4F88431C4F8983184F83C210B230A228F
:1058F000C4F83851C4F84C51C4F86051C4F874511C
:10590000C4F88851C4F89C513C6084F8500184F874
:10591000641184F8782184F88C31F8E4042004F0D0
:10592000A1FD164B044603602860F0E4C821002066
:10593000982A0020ECD30110A42E002000803B47C1
:10594000F4FD343F565CE8BF3FBB543F5652003C29
:10595000FA5C693FFA5CE9BF50D3011000409C46F5
:1059600000007A445652803BB8D301105CD5011038
:10597000E817002084D3011034C9011028D5011084
:10598000102F0020942A0020C42E0020D4210020B3
:105990005652003C565CE8BF3FBB543F402004F0E9
:1059A00061FD002201464BF680370125DFF8D0C2A9
:1059B00041F8042B03464260C8F80000C1E9012207
:1059C000C0E90422C0E90622C0E90822C0F828C0C4
:1059D0004763C2628563828700E54FF48A6004F002
:1059E00041FD00274FF0FF32DFF898820546D8F8D6
:1059F0000030C0E90077C0E90277C0E90477C0E968
:105A00000777C0E909778761C0F84024C0F830748F
:105A100080F83474C0F83874C0F83C74C0F844742A
:105A2000C0F84874002B00F00D81DFF85C92C5F8D7
:105A30004C34D9F80070002F00F0F4800022EF629F
:105A4000CAF80050A560C5F844242A62C6E428209C
:105A500004F008FD00234FF032114FF48072C0E9CA
:105A60000033C0E90233C0E9053301610262C3615A
:105A700043622860A2E4042004F0F4FC03460660BC
:105A8000C9F80000B6E6042004F0ECFCC0F8008081
:105A9000C9F8000065E64FF48A6004F0E3FC0026D4
:105AA00005464FF0FF32D8F80000C5E90066C5E9A9
:105AB0000266C5E90466C5E90766C5E90966AE611F
:105AC000C5F84024C5F8306485F83464C5F83864F6
:105AD000C5F83C64C5F84464C5F84864002800F083
