:020000041000EA
:10000000002008205D0100101301001015010010F0
:100010001101001011010010110100101101001058
:100020001101001011010010110100101701001042
:100030001101001011010010190100101B01001026
:100040001D0100101D0100101D0100101D010010F8
:100050001D0100101D0100101D0100101D010010E8
:100060001D0100101D0100101D0100101D010010D8
:100070001D0100101D0100101D0100101D010010C8
:100080001D0100101D0100101D0100101D010010B8
:100090001D0100101D0100101D0100101D010010A8
:1000A0001D0100101D0100101D0100101D01001098
:1000B0001D0100101D0100101D0100101D01001088
:1000C0001D0100101D0100101D0100101D01001078
:1000D0001D0100101D0100101D0100101D01001068
:1000E0001D0100101D0100101D0100101D01001058
:1000F0001D0100101D0100101D0100101D01001048
:100100001D0100101D0100101D0100101D01001037
:1001100000BE00BE00BE00BE00BE00BEEFF3058004
:10012000103800BEF2EB8871C8AD0210ECAD0210C1
:10013000A801001090A31AE7D3DEFFFF42012110AF
:10014000FF01000008CB0200793512AB4FF0000030
:100150002049086006C881F3088810474FF05040D6
:10016000006810B14FF00000F2E70FA40ECC002998
:1001700002D000F015F8F9E71749184A002000E00E
:1001800001C19142FCD1002080F30A8814498847BC
:10019000144988471449884700BEFDE701C901C2D8
:1001A0009A42FBD3704700BFECAD02101001002053
:1001B000641F002040CC021000000820000008202E
:1001C00040CC0210001008200010082000000000A1
:1001D0007047000008ED00E0641F00203C2F002065
:1001E0000D8300109D300010D1820010F8B500BFC3
:1001F000064B0749C91A891048BF0131491003D07D
:10020000044B0BB101481847704700BF641F002022
:10021000641F00200000000008B5054B1BB1054914
:100220000548AFF30080BDE80840FFF7E1BF00BF1D
:1002300000000000B82E0020448B01100020704701
:1002400000487047488B01100420704703299ABF6B
:10025000024B53F821000248704700BFB8980110C4
:100260002890011005EE101A4168002900F0AE80B8
:1002700070B4056990ED097A06EE905AD0ED0C7ACB
:10028000F8EE666AD0ED065A9FED526A36EEC74A1E
:1002900075EEE74AA4EE067AE4EE867A90F82C3002
:1002A00080ED097AC0ED0C7A8468DBB177EE666A7E
:1002B000B6EE006AF0EEE66AF4EEC66AF1EE10FA07
:1002C00010D5D0ED0A6AFCEEE66A16EE905A012DC2
:1002D00038BF0125A5424FF0000328BF254680F80E
:1002E0002C30056190F83830002B5AD1BCEEC77A1B
:1002F00017EE106AC36990ED186A1A19921BB2FBC7
:10030000F4FCD0ED147A04FB1C2201EB820292ED86
:10031000007A90ED132A66EE277A90ED193AD0ED27
:10032000152AE7EE027AD0ED1A6AD0ED163AE2EE1F
:10033000837AD0ED1B4A90ED174AE3EEE67AD0EDD2
:10034000055A80ED187AE4EE647AB0EE457A01EB56
:1003500083010133B3FBF4F2A7EEA57A04FB123359
:1003600080ED196AC0ED1B6AC0ED1A7A81ED007A42
:10037000C3613DB370BC90ED0C6AF7EE006A9FED6F
:10038000167A76EEC66AF4EEC76AF1EE10FA67EEF8
:10039000867A58BFB0EE667AE5EE077A17EE900AD5
:1003A000704777EEE57ADFED0D6AF0EEE77AF4EE6E
:1003B000E67AF1EE10FA99D50022436B80F83820E6
:1003C000836193E715EE100A70BC704715EE100AB2
:1003D000704700BF0AD7A33B6666663F0AD7233C37
:1003E00000487047508B011000207047004870474C
:1003F00028900110704700BF08467047704700BF43
:10040000704700BF0020704700487047588B0110AC
:100410000420704703299ABF024B53F82100024879
:10042000704700BFA898011028900110704700BFC6
:10043000704700BF704700BF704700BF70B50546EA
:10044000D0F8A8018CB203682146DB699847D5F83B
:10045000AC0121460368DB699847D5F8B001214615
:10046000BDE870400368DB69184700BF704700BFF4
:10047000704700BF704700BF704700BF704700BFA4
:10048000704700BF704700BF704700BF704700BF94
:10049000704700BF704700BF00207047024B1868CC
:1004A00003689B68184700BF08290020024B0146DB
:1004B00018680368DB681847082900208C4610B5C7
:1004C00086461346044A71461068026854696246BB
:1004D000A446BDE810406047082900208C4610B5AE
:1004E00086461346044A714610680268946962465B
:1004F000A446BDE810406047082900208C4610B58E
:1005000086461346044A714610680268D4696246FA
:10051000A446BDE81040604708290020024B014670
:1005200018680368DB6A184708290020024B014657
:10053000186803685B6A184708290020024B0146C7
:10054000186803689B6A184708290020024B014677
:10055000186803681B6A184708290020012A02D07E
:1005600022B1002070470160002070470260002027
:10057000704700BF03680868184700BF0368088811
:10058000184700BF10B40468087811781A78234619
:100590005DF8044B184700BF704700BF704700BFAD
:1005A000C269034602FB01F110B501F50010EFF33B
:1005B000108472B6D96918F08BFA84F31088002081
:1005C00010BD00BF944608B5C0690CF1815C00FB0A
:1005D00001C1029A184613F083FB002008BD00BF3A
:1005E0002DE9F047C769804638460C4691461E46BD
:1005F00001FB07FA06F034FA38B305463A460AF129
:10060000815113F06DFB3146089A05EB090013F098
:1006100067FBEFF3108672B6D8F81C1004FB01F0EC
:1006200000F5001018F054FAD8F81C20294604FBF5
:1006300002F000F5001018F023FA86F3108828461F
:1006400006F048FA0020BDE8F0876FF00B00FAE7EB
:10065000014808F00DB800BF648B011010B50446C6
:10066000902106F049FA204610BD00BF10B504469F
:10067000042106F041FA204610BD00BF10B5044623
:10068000902106F039FA204610BD00BF10B504468F
:10069000042106F031FA204610BD00BF10B5044613
:1006A0004FF42D7106F028FA204610BD10B51F2119
:1006B000044603F067FA00222046114603F080FA50
:1006C0002046BDE81040002103F08EBA012A06D072
:1006D000022A0AD0032A00D022B10020704701600C
:1006E000002070470260002070470B680360002004
:1006F000704700BF012A06D0022A0AD0032A00D080
:1007000022B1002070470160002070470260002085
:1007100070470B6803600020704700BF012A06D0B5
:10072000022A0AD0032A00D022B1002070470160BB
:10073000002070470260002070470B6803600020B3
:10074000704700BF012A06D0022A0AD0032A00D02F
:1007500022B1002070470160002070470260002035
:1007600070470B6803600020704700BF2DE9F04719
:100770000C46064694B00B2220468E4913F054F9DD
:10078000002838D0062220468B4913F04DF958B185
:1007900014222046894913F047F90546002838D02D
:1007A000002014B0BDE8F087A379312B2ED0322B76
:1007B00029D0332B40F0E58006F5D87508340422A3
:1007C00020467F4913F030F9002800F0D38005223D
:1007D00020467C4913F028F9002800F0CF80092238
:1007E0002046794913F020F9002840F0CE8006F524
:1007F0008C762E6003E07549754807F0B9FF01203B
:1008000014B0BDE8F08706F5D675D7E706F5D475C0
:10081000D4E74FF0FF3705AB00936E4904AB04F10A
:10082000140003AACDE90377059712F04FFF0028C3
:1008300000F09C80039B0B2B00F29880DDF8108069
:10084000B8F1000F40F39280059F002F40F38E8097
:10085000DFF89C91DFF89CA1B7F5001FCDE90835C2
:10086000B469CDF82C90CDF828A000F39380CDE9A1
:1008700011551095139510AD022208A90CAE28460B
:10088000FFF724FF95E8030086E8030004F1100356
:1008900093E8030085E8030096E8030083E803007B
:1008A000A369E2691293C4F818A01392C4F81C90CB
:1008B0001BB1032229462846984700230122D4F879
:1008C0002CC0C4F83874C4F83C34C4F83034C4F8CC
:1008D0004834C4F8288084F834243F4ADCF80010F7
:1008E000106801F50017D4F84C240744084401F5BA
:1008F0008001C4F84404CCF8001027620C93C6E9C8
:1009000001330F9382F83D301093C5E9013306ACF3
:10091000139395E8030084E80300131D93E8030094
:1009200085E8030094E8030083E803001299D36884
:1009300010691293D1601399139011611BB10322B6
:100940002946284698470E9B1BB103223146304664
:1009500098470A9B1BB108A9032208469847DDE97E
:10096000032305991D4807F003FF48E71C4807F0DB
:100970007FFE15E706F58A762E6040E784362E6006
:100980003DE7184807F074FE39E72146164807F09E
:10099000EFFE34E74FF400123946144807F0E8FE42
:1009A0000A9B002B3FF4FCAE08A903220846984797
:1009B000F6E600BF748B0110948B0110EC8B0110D4
:1009C0003C8F0110BC8B0110C48B01104C8F0110A7
:1009D000808B0110048C0110EC170020848C011016
:1009E000108C01109C8B0110D08B01105C8C0110BD
:1009F00085110010CD060010002370B586B002AD41
:100A000002930593C5E901338B680446F3B10E46A2
:100A1000022228469847D6E90231A668A3600496C8
:100A2000E368E16095E80300CDE9000194E8030084
:100A3000059385E80300DDE9000184E803001EB1A9
:100A4000032229462846B04706B070BD1946E4E7A0
:100A500070B5C84A2DED028B04460D461668EFF3BB
:100A6000108372B6D6E8CF0F01210028FAD1C6E86C
:100A7000401F0028F6D1BFF35F8FD4F8BC11D4F823
:100A8000B8015360814280F04381D4F8B401D4EDC1
:100A9000706A30F91100DFEDB87A07EE100ABAEE8D
:100AA000E87AE7EE267A0131C4F8BC11D4F8CC011B
:100AB00030B1D4F8C811D4F8D061B142C0F033825B
:100AC0009FEDAD7AD4F8E00177EE877A30B1D4F8B3
:100AD000DC11D4F8E461B142C0F00E829FEDA67A39
:100AE000D4F8F40177EE877A30B1D4F8F011D4F865
:100AF000F861B142C0F0E9819FED9F7AD4F8080215
:100B000077EE877A30B1D4F80412D4F80C62B1428F
:100B1000C0F0C4819FED987AD4F81C0277EE877AF2
:100B200030B1D4F81812D4F82062B142C0F09F81DD
:100B30009FED917AD4F8300277EE877A30B1D4F80D
:100B40002C12D4F83462B142C0F07A81DFED8A6AA7
:100B5000D4F8440276EEA76A30B1D4F84012D4F843
:100B60004862B142C0F05581DFED837A9FED827A11
:100B7000D4F8580277EE877A30B1D4F85412D4F80A
:100B80005C62B142C0F02E81D4F86C0277EE877AB5
:100B900030B1D4F86812D4F87062B142C0F00B8161
:100BA0009FED757AD4F8800277EE877A30B1D4F869
:100BB0007C12D4F88462B142C0F0E6809FED6E7A78
:100BC000D4F8940277EE877A30B1D4F89012D4F842
:100BD0009862B142C0F0B6809FED677AD4F8A8025F
:100BE00077EE877A30B1D4F8A412D4F8AC62B1426F
:100BF000C0F091809FED608A38EE278A0026126847
:100C0000C2E88F6F83F31088D4ED107A94ED0C6AEC
:100C1000D4F8A801D4ED110A0368D4ED0B8A9B69BE
:100C2000C4ED117A67EE867A94ED0D0AE6EEA87AA5
:100C3000D4ED125A94ED0E1AE0EE207A94ED132AB8
:100C400094ED1D7AD4ED0F1AE1EE657A94ED195A00
:100C5000E1EEC27AD4ED1E3AD4ED182A84ED1E7A64
:100C600027EE057AA2EEA77A94ED1A3AC4ED127A2D
:100C7000C4ED1D7AF0EE477A94ED1F6A94ED1B4A9D
:100C8000E3EE237A94ED205AE4EE467AD4ED1C4A42
:100C9000E4EEC57AC4ED106A17EE901A84ED206A6E
:100CA000C4ED1F7AC4ED135A98470146D4F8AC013D
:100CB0000268936998470146D4F8B00102689369C5
:100CC000984707EE100A9FED2D6A37EE087ABDECC3
:100CD000028BDFED2B6A27EE067AB4EEE67AF1EEB0
:100CE00010FADFED287A48BFB0EE667AB4EEE77A04
:100CF000F1EE10FA77FE877AFDEEE77A17EE903A7A
:100D000032461BB263F30F0263F31F422A6070BDC9
:100D1000DFED197ACAE630F9110094EDAC7A08EEED
:100D2000100AB8EEC88A28EE078ABDEEC88A0131DB
:100D3000C4F8A41218EE101A09B208EE101ABAEE8E
:100D4000E88A59E730F9110094EDA76A07EE100A16
:100D5000B8EEC77A27EE067ABDEEC77A0131C4F83D
:100D6000901217EE101A09B207EE101ABAEEE87ACE
:100D700034E700BF0C2900200000000000000047FD
:100D8000000000C700FEFF4630F9110094EDA26A92
:100D900007EE100AB8EEC77A27EE067ABDEEC77ADC
:100DA0000131C4F87C1217EE101A09B207EE101ABE
:100DB000BAEEE87A04E730F9110094ED9D6A07EE87
:100DC000100AB8EEC77A27EE067ABDEEC77A01316F
:100DD000C4F8681217EE101A09B207EE101ABAEE2C
:100DE000E87ADFE630F9110094ED986A07EE100A10
:100DF000B8EEC77A27EE067ABDEEC77A0131C4F89D
:100E0000541217EE101A09B207EE101ABAEEE87A69
:100E1000BAE630F9110094ED937A07EE900AF8EEF5
:100E2000E77A67EE877AFDEEE77A0131C4F840127F
:100E300017EE901A09B207EE901AFAEEE87A95E6E4
:100E400030F9110094ED8E7A06EE900AF8EEE66A1B
:100E500066EE876AFDEEE66A0131C4F82C1216EEE2
:100E6000901A09B206EE901AFAEEE86A70E630F9C6
:100E70001100D4ED896A07EE100AB8EEC77A27EEA2
:100E8000267ABDEEC77A0131C4F8181217EE101A8F
:100E900009B207EE101ABAEEE87A4BE630F9110003
:100EA000D4ED846A07EE100AB8EEC77A27EE267AE8
:100EB000BDEEC77A0131C4F8041217EE101A09B258
:100EC00007EE101ABAEEE87A26E630F91100D4EDF2
:100ED0007F6A07EE100AB8EEC77A27EE267ABDEED3
:100EE000C77A0131C4F8F01117EE101A09B207EEF3
:100EF000101ABAEEE87A01E630F91100D4ED7A6AF8
:100F000007EE100AB8EEC77A27EE267ABDEEC77A4A
:100F10000131C4F8DC1117EE101A09B207EE101AED
:100F2000BAEEE87ADCE530F91100D4ED756A07EE27
:100F3000100AB8EEC77A27EE267ABDEEC77A0131DD
:100F4000C4F8C81117EE101A09B207EE101ABAEE5B
:100F5000E87AB7E538B50368084ADB680446934287
:100F60000D4608D10420A8428ABF04EB8504002066
:100F7000D4F8800038BD9847F5E700BF1104001091
:100F800038B50368084ADB68044693420D4608D129
:100F90000420A8428ABF04EB85040020D4F8800016
:100FA00038BD9847F5E700BF49020010A0F874105B
:100FB000002940D090ED1E7AB5EEC07AF1EE10FA1D
:100FC00039DDDFED1D6A07EE901A90ED086AF8EE44
:100FD000E77A67EE266AF8EE465A86EEA77A67EE5B
:100FE000257AFCEEE77A17EE903A826890ED096A6E
:100FF000934228BF134607EE903AB8EE677A76EE32
:10100000477AB6EE005AF0EEE77AF4EEC57AF1EEE2
:1010100010FA05DD012380ED0A7A80F82C30704744
:10102000012B38BF012393424FF0000128BF134624
:1010300080F82C100361704700007042A0F8741013
:10104000002940D090ED1E7AB5EEC07AF1EE10FA8C
:1010500039DDDFED1D6A07EE901A90ED086AF8EEB3
:10106000E77A67EE266AF8EE465A86EEA77A67EECA
:10107000257AFCEEE77A17EE903A826890ED096ADD
:10108000934228BF134607EE903AB8EE677A76EEA1
:10109000477AB6EE005AF0EEE77AF4EEC57AF1EE52
:1010A00010FA05DD012380ED0A7A80F82C307047B4
:1010B000012B38BF012393424FF0000128BF134694
:1010C00080F82C10036170470000704207EE103A60
:1010D000DFED296AB8EEC77AC7EE267A274B30B41F
:1010E000A3FB0253DB0803EB4303254CA2EB830273
:1010F00012F0FF0267EEA77A21681BD1EFF310838D
:1011000072B6D1E8CFCF0125BCF1000FF9D1C1E80B
:101110004C5FBCF1000FF4D1BFF35F8FC0ED707A6C
:1011200021686360C0F8BC21C1E88F2F83F3108869
:1011300030BC7047EFF3108372B6D1E8CFCF0125F2
:10114000BCF1000FF9D1C1E84C5FBCF1000FF4D144
:10115000BFF35F8F162502EB820200EB8200C0ED29
:10116000757A002221686360C0F8C851C1E88F2FEA
:1011700083F3108830BC70470000FE42ABAAAAAAD5
:101180000C29002070B5134604468C469EB02021E1
:101190001D4A1E6801A82378DCF8005007F01AF8F1
:1011A00040F20253194801AA09A910F04FFB98B95F
:1011B00009A9334615482A1D10F07AFC011E16DBDA
:1011C000124809A910F04EFBC8B9216810481EB09A
:1011D000BDE8704007F0CCBA01460E4807F0C8FAE7
:1011E00021680D481EB0BDE8704007F0C1BA0B4839
:1011F00007F0BEFA09A9054810F034FBF0E70146F4
:10120000074807F0B5FAEBE7CC8C01104821002025
:101210004C8D0110E08C0110608D01100C8D0110BF
:101220002C8D0110F0B5274D83B02C685CB323687A
:10123000012501A89847E06A019F00F11002A16A08
:1012400005FA02F24B681342FCD194F83D60043079
:1012500041F820700EB12368EBE7E3688BB1251DE0
:10126000236928469847E3682BB10322294628467C
:101270009847C4E90366E3691BB1236A04F11400CB
:10128000984703B0F0BD402005F034FC0022014631
:101290004BF680370126DFF830C041F8042B0446B6
:1012A00042601346C1E901222860C0E90422C0E976
:1012B0000622C0E90822C0E90D76C0F828C0C26243
:1012C0008287B5E78C2A00200000205005EE101A16
:1012D0004168002900F0AE8070B4056990ED097A8C
:1012E00006EE905AD0ED0C7AF8EE666AD0ED065A0A
:1012F0009FED526A36EEC74A75EEE74AA4EE067ACB
:10130000E4EE867A90F82C3080ED097AC0ED0C7A04
:101310008468DBB177EE666AB6EE006AF0EEE66AE4
:10132000F4EEC66AF1EE10FA10D5D0ED0A6AFCEEC2
:10133000E66A16EE905A012D38BF0125A5424FF0FE
:10134000000328BF254680F82C30056190F838301E
:10135000002B5AD1BCEEC77A17EE106AC36990ED24
:10136000186A1A19921BB2FBF4FCD0ED147A04FB34
:101370001C2201EB820292ED007A90ED132A66EEB8
:10138000277A90ED193AD0ED152AE7EE027AD0EDE2
:101390001A6AD0ED163AE2EE837AD0ED1B4A90ED50
:1013A000174AE3EEE67AD0ED055A80ED187AE4EEBE
:1013B000647AB0EE457A01EB83010133B3FBF4F2BA
:1013C000A7EEA57A04FB123380ED196AC0ED1B6A03
:1013D000C0ED1A7A81ED007AC3613DB370BC90ED27
:1013E0000C6AF7EE006A9FED167A76EEC66AF4EEA6
:1013F000C76AF1EE10FA67EE867A58BFB0EE667AE9
:10140000E5EE077A17EE900A704777EEE57ADFEDA2
:101410000D6AF0EEE77AF4EEE67AF1EE10FA99D57D
:101420000022436B80F83820836193E715EE100AA1
:1014300070BC704715EE100A704700BF0AD7A33B77
:101440006666663F0AD7233C30B504468BB0002958
:1014500037D00D224FF00101036941EC40200022FA
:101460002F49CDE90622099105912E4906AC089134
:10147000049194E80300CDE90001029283F83D2035
:10148000039203F1040C9CE8030084E80300DDE907
:1014900000018CE80300089ADD680999DA601A698E
:1014A000EE460895196109921DB103222146204696
:1014B000A847049B1BB102A90322084698470BB01A
:1014C00030BD05696B6A03B19847012385F83D304B
:1014D00009F056FE144809F0C9FE00230D2243EC22
:1014E0004020124A1068EFF3108172B6D0E8CFCFD7
:1014F0000125BCF1000FF9D1C0E84C5FBCF1000F31
:10150000F4D1BFF35F8F0A485160C4F8BC31126850
:10151000C4F8C001C2E88F3F81F310880BB030BD22
:10152000510600105D050010251200100C29002046
:10153000CDCC4C3F0000000007EE901A9FED427AA0
:10154000F8EEE77AC7EE877AF8B517EE901A2DED28
:10155000028B04463D4804F0DBFEB3EE047A07EE4E
:10156000900A67EE877AC4ED157A17EE900A17F0A5
:101570009FFA33A3D3E9002303F0A0FF0646206DB2
:101580000F4617F095FA0B4602463946304603F0EF
:10159000BBFF04F007F8054605F042F9D4ED167AD2
:1015A00007EE100A77EEA77A284687EE278A05F01D
:1015B0003AF994F85C3007EE900A33BBF7EE005A24
:1015C000B8EE006A75EEE76A38EE255AB6EE007A94
:1015D00067EE867A26EE877A85EE856A35EEC88ACA
:1015E00027EE067A66EE266A67EE867A28EE068A87
:1015F00084ED187AC4ED196A84ED1A7AC4ED1B7A69
:1016000084ED1C8ABDEC028BF8BD012BFAD1F7EEFC
:10161000005AB8EE006A77EEA56A38EE255AB6EEA3
:10162000007A67EE867A26EE877A85EE856A35EE51
:10163000C88A27EE067A66EEC66AD5E7AFF3008061
:10164000182D4454FB21194000F07F4500007A44D6
:1016500007EE101ADFED426AB8EEC77AF8B5C7EEAA
:10166000267A2DED028BF7EE008A78EEE77A67EEA8
:10167000A77A044617EE901A3A4804F049FE9FED07
:101680003A7A07EE900A67EE877AC4ED087A17EE89
:10169000900A17F00DFA30A3D3E9002303F00EFFF0
:1016A0000646E0690F4617F003FA0B460246394634
:1016B000304603F029FF03F075FF054605F0B0F84A
:1016C000D4ED097A07EE100A77EEA77A284687EE5E
:1016D000278A05F0A8F894F8283007EE900A23BB73
:1016E00038EE285A78EEE76AB6EE007AF8EE005A3D
:1016F00088EE856A26EE877A38EEC88A67EEA57A84
:1017000066EE266A27EE067A67EE867A28EE068A65
:10171000C4ED0C6A84ED0B7A84ED0D7AC4ED0E7A7B
:1017200084ED0F8ABDEC028BF8BD012BFAD138EEA7
:10173000285A77EEA86AB6EE007AF8EE005A88EEDC
:10174000856A26EE877A38EEC88A67EEA57A66EE55
:10175000C66AD7E7AFF30080182D4454FB21194027
:1017600000F07F450000C843000048420000000030
:101770000A46526BF8B507EE902A2DED028B90EDDC
:10178000037AB8EE678ADFED566A28EE077AC7EE6D
:10179000267AFCEEE77A026217EE902A012A38BF19
:1017A00001220446C66F4F4B826035681B680021DA
:1017B000581905EB820535609200606012F060F800
:1017C000D4ED047A0023F8EE677A84ED0F8A18EEE0
:1017D000100AC4ED097AE36117F06AF9D4ED117AC1
:1017E000064694F84830206F0F4637EEA78A2064EB
:1017F000002B3FD117F05CF937A3D3E9002303F0A6
:101800005DFE32463B4603F07FFE03F0CBFE05460D
:1018100005F006F807EE900A2846C7EE888A05F01C
:1018200002F8F7EE005A07EE900A78EEA54A75EE38
:10183000E76AB6EE007AB8EE005A85EEA46A26EEA4
:10184000877A75EEE88A67EE857A66EE266A27EE75
:10185000067A67EE867A68EE868AC4ED146AC4ED6D
:10186000167AC4ED178A84ED137A84ED157ABDECEF
:10187000028BF8BD012BFAD117F01AF916A3D3E9A0
:10188000002303F01BFE32463B4603F03DFE03F00F
:1018900089FE054604F0C4FF07EE900A2846C7EE0D
:1018A000888A04F0C0FFF7EE005A07EE900A78EE3F
:1018B000A54A77EEA56AB6EE007AB8EE005A85EE34
:1018C000A46A26EE877A75EEE88A67EE857A66EE78
:1018D000C66ABCE7AFF30080182D4454FB211940C1
:1018E00000007A44EC1700200A46526BF8B507EE68
:1018F000902A2DED028B90ED037AB8EE678ADFED2A
:10190000566A28EE077AC7EE267AFCEEE77A02627C
:1019100017EE902A012A38BF01220446C66F4F4BAA
:10192000826035681B680021581905EB8205356017
:101930009200606011F0A4FFD4ED047A0023F8EE69
:10194000677A84ED0F8A18EE100AC4ED097AE36114
:1019500017F0AEF8D4ED117A064694F84830206FAF
:101960000F4637EEA78A2064002B3FD117F0A0F86E
:1019700037A3D3E9002303F0A1FD32463B4603F031
:10198000C3FD03F00FFE054604F04AFF07EE900A80
:101990002846C7EE888A04F046FFF7EE005A07EEA5
:1019A000900A78EEA54A75EEE76AB6EE007AB8EED0
:1019B000005A85EEA46A26EE877A75EEE88A67EE0D
:1019C000857A66EE266A27EE067A67EE867A68EEF4
:1019D000868AC4ED146AC4ED167AC4ED178A84EDC4
:1019E000137A84ED157ABDEC028BF8BD012BFAD188
:1019F00017F05EF816A3D3E9002303F05FFD32462B
:101A00003B4603F081FD03F0CDFD054604F008FFE1
:101A100007EE900A2846C7EE888A04F004FFF7EE26
:101A2000005A07EE900A78EEA54A77EEA56AB6EE60
:101A3000007AB8EE005A85EEA46A26EE877A75EE33
:101A4000E88A67EE857A66EEC66ABCE7AFF3008087
:101A5000182D4454FB21194000007A44EC17002053
:101A6000F8B503688E4EDB682DED028BB342044659
:101A70000D4608EE102A1FD10420A84219D904EB04
:101A8000850383ED208A032D13D8DFE805F07A0261
:101A9000B617B5EEC08AF1EE10FA00F1EB80DFED7B
:101AA000817AB4EEE78AF1EE10FA77FE887AC4ED17
:101AB000057ABDEC028BF8BD9847DEE7F7EE008AA9
:101AC00038EEC88A68EE087A774817EE901A04F064
:101AD0001FFC9FED767A07EE900A67EE877AC4EDD9
:101AE0001C7AC4ED107A17EE900A16F0E1FF6AA393
:101AF000D3E9002303F0E2FC0646E06B0F4616F044
:101B0000D7FF0B4602463946304603F0FDFC03F092
:101B100049FD054604F084FED4ED117A07EE100A63
:101B200077EEA77A284687EE278A04F07CFE94F8A1
:101B3000483007EE900A002B40F0868038EE285A95
:101B400078EEE76AB6EE007AF8EE005A88EE856A1B
:101B500026EE877A38EEC88A67EEA57A66EE266AA0
:101B600027EE067A67EE867A28EE068AC4ED146AB6
:101B700084ED137A84ED157AC4ED167A84ED178A14
:101B800097E7F6EE006A28EE268AB4F8743084ED02
:101B90001E8A002B8DD0B5EEC08AF1EE10FA88DDDA
:101BA000DFED437A07EE103A94ED086AB8EEC77A93
:101BB00028EE278AF8EE465AC8EE077A67EEA57A2D
:101BC000FCEEE77A17EE903AA26894ED096A934228
:101BD00028BF134607EE903AB8EE677A76EE477A5A
:101BE000F0EEE77AF4EEE67AF1EE10FA48DD012342
:101BF00084ED0A7A84F82C305BE7B5EEC08AF1EE0A
:101C000010FA3AD4B7EE007AB4EEC78AF1EE10FAC1
:101C100037FE087A94ED066ABDEC028BD4ED0C7A9F
:101C200077EEC67ADFED236AF0EEE77AF4EEE67A35
:101C3000F1EE10FACBBF0123002384ED0D7A84ED81
:101C4000067A84F83830F8BD012B7FF432AF38EED5
:101C5000285A77EEA86AB6EE007AF8EE005A88EEB7
:101C6000856A26EE877A38EEC88A67EEA57A66EE30
:101C7000C66A75E7DFED107A19E79FED0F7AC9E7BD
:101C8000012B38BF012393424FF0000128BF1346B8
:101C900084F82C1023610CE7182D4454FB211940C3
:101CA00049020010A4707D3F000048430000C84274
:101CB000000070420AD7233C000000000000000032
:101CC000F8B50368924EDB682DED028BB3420446F3
:101CD0000D4608EE102A23D10420A8421DD904EB9A
:101CE000850383ED208A032D17D8DFE805F07E02F7
:101CF000BC1BF6EE007AE8EE277AF5EEC07AF1EE3C
:101D000010FA00F1ED809FED837AF4EEC77AF1EEE0
:101D100010FA77FE277AC4ED057ABDEC028BF8BD88
:101D20009847DAE7F7EE008A38EEC88A68EE087A54
:101D3000794817EE901A04F0EBFA9FED787A07EEE7
:101D4000900A67EE877AC4ED1C7AC4ED107A17EE1C
:101D5000900A16F0ADFE6CA3D3E9002303F0AEFBAE
:101D60000646E06B0F4616F0A3FE0B4602463946C8
:101D7000304603F0C9FB03F015FC054604F050FDA6
:101D8000D4ED117A07EE100A77EEA77A284687EE8F
:101D9000278A04F048FD94F8483007EE900A002B9B
:101DA00040F0888038EE285A78EEE76AB6EE007A7E
:101DB000F8EE005A88EE856A26EE877A38EEC88AF1
:101DC00067EEA57A66EE266A27EE067A67EE867AD1
:101DD00028EE068AC4ED146A84ED137A84ED157A30
:101DE000C4ED167A84ED178A97E7F4EE007A28EEB0
:101DF000278AB4F8743084ED1E8A002B8DD0B5EE9E
:101E0000C08AF1EE10FA88DDDFED457A07EE103A70
:101E1000D4ED086AB8EEC77A28EE278AB8EE666A6B
:101E2000C8EE077A67EE867AFCEEE77A17EE903A0C
:101E3000A268D4ED096A934228BF134607EE903A90
:101E4000B8EE677A76EEC77AF6EE005AF0EEE77AE9
:101E5000F4EEE57AF1EE10FA48DD012384ED0A7A1A
:101E600084F82C3059E7B5EEC08AF1EE10FA3AD476
:101E7000B7EE007AB4EEC78AF1EE10FA37FE087AB0
:101E800094ED066ABDEC028BD4ED0C7A77EEC67A3F
:101E9000DFED246AF0EEE77AF4EEE67AF1EE10FA7E
:101EA000CBBF0123002384ED0D7A84ED067A84F8FC
:101EB0003830F8BD012B7FF430AF38EE285A77EE7A
:101EC000A86AB6EE007AF8EE005A88EE856A26EE29
:101ED000877A38EEC88A67EEA57A66EEC66A73E737
:101EE000DFED117A17E79FED107AC9E7012B38BFB4
:101EF000012393424FF0000128BF134684F82C10B1
:101F000023610AE7AFF30080182D4454FB211940E8
:101F100011040010A4707D3F000048430000C84237
:101F2000000070420AD7233C0000000000000000BF
:101F30002DE9F041472A2DED028B044600F0AD80DB
:101F40004A2A114612D007EE903A9FEDBB7AF8EE7E
:101F5000E77AC7EE877AA2F1140317EE902A032BD3
:101F600000F23D81DFE803F08F857B710268B34D9D
:101F7000926A5901AA4240F0138107EE901A9FED30
:101F8000B07AF8EEE77AC7EE877AAE4817EE901A85
:101F900004F0BEF9B3EE047A07EE900A67EE877A92
:101FA000C4ED157A17EE900A16F082FDA0A3D3E9CE
:101FB000002303F083FA0646206D0F4616F078FDE5
:101FC0000B4602463946304603F09EFA03F0EAFA21
:101FD000054604F025FCD4ED167A07EE100A77EEDC
:101FE000A77A284687EE278A04F01DFC94F85C3017
:101FF00007EE900A002B40F0D880F7EE005AB8EEBA
:10200000006A75EEE76A38EE255AB6EE007A67EE9A
:10201000867A26EE877A85EE856A35EEC88A27EEBF
:10202000067A66EE266A67EE867A28EE068A84EDE0
:10203000187AC4ED196A84ED1A7AC4ED1B7A84ED1E
:102040001C8ABDEC028BBDE8F081D4F8A8010368BE
:10205000BDEC028B0321BDE8F0411B6A1847D4F8A0
:10206000A8010368BDEC028B0221BDE8F0411B6AA8
:102070001847D4F8A8010368BDEC028B0121BDE824
:10208000F0411B6A1847D4F8A8010368BDEC028B25
:102090000021BDE8F0411B6A184702686A4D526A88
:1020A0005901AA427CD107EE901ADFED656AF8EE7D
:1020B000E77AF7EE008A87EEA67A78EEC77A67EEBF
:1020C000A77A624817EE901A04F022F99FED607A21
:1020D00007EE900A67EE877AC4ED087A17EE900A49
:1020E00016F0E6FC52A3D3E9002303F0E7F9064615
:1020F000E0690F4616F0DCFC0B46024639463046D6
:1021000003F002FA03F04EFA054604F089FBD4ED21
:10211000097A07EE100A77EEA77A284687EE278A13
:1021200004F081FB94F8283007EE900A13BB38EED8
:10213000285A78EEE76AB6EE007AF8EE005A88EE92
:10214000856A26EE877A38EEC88A67EEA57A66EE4B
:10215000266A27EE067A67EE867A28EE068AC4EDAE
:102160000C6A84ED0B7A84ED0D7AC4ED0E7A84ED61
:102170000F8A66E7012B7FF464AF38EE285A77EEBA
:10218000A86AB6EE007AF8EE005A88EE856A26EE66
:10219000877A38EEC88A67EEA57A66EEC66AD8E70F
:1021A000BDEC028BBDE8F0411047012B7FF449AF35
:1021B000F7EE005AB8EE006A77EEA56A38EE255AB7
:1021C000B6EE007A67EE867A26EE877A85EE856A25
:1021D00035EEC88A27EE067A66EEC66A23E7A1F1D5
:1021E0001B03032B03D8DFE803F013100D0A553946
:1021F00003293FF626AFDFE801F01714110ED4F8DB
:10220000AC0124E7D4F8AC012BE7D4F8AC0132E7F9
:10221000D4F8AC0139E7D4F8B00118E7D4F8B0012C
:102220001FE7D4F8B00126E7D4F8B0012DE700BFCE
:10223000182D4454FB2119400000FE4239150010AE
:1022400000F07F4500007A44511600100000C8439A
:102250000000484270B5194E34680CB1204670BD7C
:10226000B02004F047FC00250446C0E90055C0E951
:102270000255C0E90455C0E90655C0E90855C0E952
:102280000A55C0E90C55C0E90E55C0E91055402269
:102290002946483011F0F4FA0023C4E92255C4E974
:1022A0002755C4F8985020463460C4F89050C4F8BC
:1022B0009430C4F8A45084F8A85070BDB02E00200B
:1022C00038B554220021204811F0DAFA4FF4807317
:1022D0004FF460621C4D4FF4FA746B61AB611B4BA1
:1022E0004FF480502B612A624FF480734FF4807258
:1022F00017496C6269601749174CA960E861294663
:102300001648C5E90A23EC600EF0C6FC60B114481B
:1023100006F0AEF9294611480EF01AFC48B90A49F0
:102320000E480EF0B9FC50B90E4806F0A1F9012094
:1023300038BD01460C4806F01BFA002038BD0146A6
:102340000A4806F015FAF8E7681F00203D02001061
:10235000C5050010E1050010A1050010482100206E
:102360007C8D0110088E0110A88D0110D08D0110F8
:1023700030B58FB00546FFF7A3FFB8B1012304467F
:10238000124A134801A92B700FF03AFE38B10F49D9
:102390000F480FF041FD80B920460FB030BD01A9B4
:1023A0000B480FF07BFE20460FB030BD094806F009
:1023B0005FF9002420460FB030BD0146064806F004
:1023C000D7F9064806F054F9F3E700BFD08E0110A4
:1023D00048210020B48E0110688E0110DC8E01109F
:1023E00070B50B4604468CB058490068E36008F0AD
:1023F0009BFD4FF480320346206907928602821CBF
:1024000002F01F0C06F4F84646EA0C06504946F066
:102410008046099146F4801621680A96A360DE1D65
:10242000DB0101F12F4143EA063323F0C04301F5FC
:10243000600112090893474D0309090D22F4F8427F
:1024400042EA832206312A43C9B20B9201F09AFB79
:102450002168206901F12F4101F56001090D063164
:10246000C9B2013001F08EFB2168206901F12F41D2
:1024700001F56001090D0631C9B2023001F082FB9D
:1024800001202269616800900323206808F096FD0E
:10249000314BE268314902FB03F3B1EBB31F13D2B6
:1024A0002F49304B01FB02F29A420BD92E4D2846A0
:1024B00006AB05AA04A902F0E5FC38B929462B4869
:1024C00001F0C6FB2A4DF2E72A4DF0E70498DDE95A
:1024D000051202F015FC052002F00CFCE3689FEDEC
:1024E000267A9B01B0FBF3F307EE903AF8EEE77A19
:1024F00077EE877ABCEEE77A17EE103A9BB213B309
:1025000007EE103AB8EE477ADFED1C6A77EEC77A2D
:1025100067EEA67AFCEEE77ACDED037A9DF80C50D3
:102520002D02D4E9011245EA0345206807AB07955F
:1025300008F08AFDD4E900200123116883400B4391
:1025400013600CB070BD1D46EBE700BFBC3B021032
:1025500000000640E083FFFFD578E9262631080019
:10256000F125BED3BEF10500F0490200008F011035
:10257000B0110200803202000000003B00008043E6
:10258000F8B50F4C206800B1F8BD402004F0B2FA55
:10259000002302464BF68036012542F8043B436097
:1025A000C2E90133C0E90433C0E90633054FC0E98D
:1025B0000833C0E90A73C0E90D6520608387F8BD60
:1025C0008C2A0020000020502DE9F0412F4E346865
:1025D00014B12046BDE8F0814FF48A6004F08AFA15
:1025E00000254FF0FF312A4F04463B68C0E90055F3
:1025F000C0E90255C0E90455C0E90755C0E90955CD
:102600008561C0F84014C0F8305480F83454C0F8E4
:102610003854C0F83C54C0F84454C0F848546BB126
:102620001C4DC4F84C34286840B30023E062346089
:102630002046C4F844342362BDE8F081402004F011
:1026400059FA02464BF6803E4FF0010CDFF8488005
:1026500042F8045B034645603860C2E90155C0E9B1
:102660000455C0E90655C0E90855C0F82880C0F8EF
:1026700034E0C562C0F838C08587D1E7042004F093
:1026800039FA002328600360CFE700BFD021002083
:102690008C2A0020FC2E002000002050F0B52A4E8D
:1026A00004463568CBB0002D37D02021274A684634
:1026B000237805F08FFD6946254808AA0EF0D8FF5B
:1026C000B0B9099F7B08643BE3606360214B6A46B5
:1026D0001E682B681E481E443B442B6008A901233A
:1026E000A6600FF0B3F838B10023E3604BB0F0BD43
:1026F0006FF063030027E7E73B463246144808A91A
:102700000FF0C0F9051E15DB114808A90FF0AAF853
:1027100058B9AF42E8D14BB0F0BD042004F0EAF95B
:102720000023054603603060BFE701460A4806F013
:102730001FF8D9E72946094806F01AF808A90448FD
:102740000FF090F8D0E700BFFC2E0020CC8C0110D9
:1027500048210020EC1700202C8D0110288E01103C
:102760002DE9F041D0E903382DED028B98ED0D8A6B
:102770000022B8EE488A05461A6080ED078A18EEF6
:10278000100A16F095F906460F46286A16F090F9D9
:102790007DA3D3E9002302F091FE3B46324602F0CE
:1027A000B3FE02F0FFFE044604F03AF8D5ED097AD4
:1027B00007EE100A77EEA77A2046C7EE278A04F0C4
:1027C00032F895F8283007EE900A002B40F0B380DD
:1027D000F7EE005AB8EE006A75EEE76A38EEA55AD1
:1027E000B6EE007A67EE867A26EE877A85EE856AFF
:1027F00075EEE88A27EE067A66EE266A67EE867A36
:1028000068EE868A85ED0B7AC5ED0C6A85ED0D7A4A
:10281000C5ED0E7AC5ED0F8A85ED148A686D16F048
:1028200047F959A3D3E9002302F048FE3B4632465C
:1028300002F06AFE02F0B6FE044603F0F1FFD5EDA9
:10284000167A07EE100A77EEA77A204687EE278AD7
:1028500003F0E9FF95F85C3007EE900A002B43D1B6
:10286000F7EE005AB8EE006A75EEE76A38EE255AC0
:10287000B6EE007A67EE867A26EE877A85EE856A6E
:1028800035EEC88A27EE067A66EE266A67EE867A05
:1028900028EE068A85ED187AC5ED196A85ED1A7A53
:1028A000C5ED1B7A85ED1C8AD5F8A8014146036861
:1028B00005F5E2745B699847D5F8AC0129690368AE
:1028C0005B699847D5F8B0012969036805F52D754E
:1028D0005B69984720461434FFF7E0FEA542F9D122
:1028E000BDEC028BBDE8F081012BDDD1B7EE005AC3
:1028F000B8EE007A37EE856AF6EE006A78EE054AA1
:1029000067EE877AC5EE245A66EE266A35EE487A77
:1029100066EEA56A26EE656A67EEA57A27EE257A49
:10292000C5ED186A85ED196AC5ED1A6AC5ED1B7A01
:1029300085ED1C7AB8E7012B7FF46EAFB7EE005A35
:10294000B8EE007A37EE856AF6EE006A78EE854AD0
:1029500067EE877AC5EE245A66EE266A35EE687A07
:1029600066EEA56A26EE656A67EEA57A27EE257AF9
:10297000C5ED0B6A85ED0C6AC5ED0D6AC5ED0E7AE5
:1029800085ED0F7A48E700BF182D4454FB2119400C
:102990002DE9F84FD24D2C6814B12046BDE8F88FD0
:1029A0004FF42D7004F0A6F8CE4ECF4A336804469B
:1029B0000260002B00F08881CC4E636030680028F4
:1029C00000F04582CA4FA0603868002800F03882C5
:1029D000DFF85883E060D8F80000002800F0128289
:1029E000DFF84C932061D9F80060002E00F0DC8104
:1029F000DFF840936661D9F80060002E00F0A281F4
:102A000038684FF0010A84F85CA0DFF82CA300239B
:102A1000C4F864A04FF47A7ADFEDB67AA661C4F800
:102A200094A000264AF6444A9FEDB37ADFF80CB32F
:102A3000B249B34ADFF8D892DFF8E082DFF8C8E2A3
:102A4000DFF8C8C2C4F860B0C4F868B0DFF8F0B20C
:102A5000C4ED0C7AC4E92266C4F81C902162C4F863
:102A6000248023646364A364E364E2626263C4F861
:102A700038E0C4F83CC0C4F850906165C4F8588090
:102A80006367A367E367C4F88030C4F86CE0C4F8F8
:102A900070C0C4F8901084F82860C4F884B0C4F8FA
:102AA0009830C4ED357A84ED3D7AC4F8C090C4F80E
:102AB000C410C4F8C880C4F8DCE0C4F8E0C0C4F8AE
:102AC0009C30C4F8A4A0C4F8AC30C4F8B430C4F846
:102AD000B830C4F8E430C4F8E830C4F8EC30C4F8D6
:102AE000F030C4F8FC30C4F8D020C4F8D820C4F8C2
:102AF000A06084F8B06084F8BC6084F8CC60A4F86E
:102B0000F860002800F0E6807E4A7D49C4F8142170
:102B10000022C4F86411C4F86C114AF64441002341
:102B20004FF47A77C4F82C21C4F83021C4F840213E
:102B3000C4F84821C4F84C21C4F87821C4F87C2199
:102B4000C4F88021C4F88421C4F890216E4AC4F8E6
:102B50003811C4F870216D4A6D49C4F874216D4A6A
:102B6000664EC4F8882104F18402C4F8A8216A4A98
:102B7000C4F85411C4F868216849694AC4F80001CE
:102B8000C4F82871C4F82461C4F85861C4F85C1111
:102B9000C4E94733C4F8343184F8443184F85031FF
:102BA00084F86031A4F88C31C4F818215D4A4FF0E4
:102BB0000108C4F8B4214FF0040284F814225A4AE0
:102BC000F7EE007AC4F894010227106803264FF04C
:102BD000050A4FF0060B4FF007094FF0080E4FF0B3
:102BE000090C0A214FF00B0220FA08F0C4E96E002C
:102BF00004F58C70C4F8AC0104F58A70C4F8B00117
:102C0000C4ED707AC4ED757AC4ED7A7AC4ED7F7A3A
:102C1000C4ED847AC4E97233C4E97733C4E97C3300
:102C2000C4E98133C4E9863384F8D88184F8EC712F
:102C300084F8006284F8C431C4F8D031C4F8E431B7
:102C4000C4F8F831C4F80C32C4F820322046C4ED80
:102C5000897AC4ED8E7AC4ED937AC4ED987AC4ED86
:102C60009D7AC4EDA27AC4EDA77AC4E98B33C4E996
:102C70009033C4E99533C4E99A33C4E99F33C4E976
:102C8000A43384F828A284F83CB284F8509284F8E3
:102C900064E284F878C284F88C12C4F83432C4F840
:102CA0004832C4F85C32C4F87032C4F88432C4F8D4
:102CB000983284F8A022C4E9A933C4EDAC7AC4F8F0
:102CC000AC322C60BDE8F88F012003F013FF0346FF
:102CD000306071E6042003F00DFF0660386013E7F2
:102CE000C8210020902A0020609901109C2E00200D
:102CF000FC2E00205652003C00409C4600007A44C6
:102D00005652803B00990110565CE8BF3FBB543FD0
:102D100000803B4700409C465652003CF4FD343F47
:102D200030990110D0990110E81700208C2A00205A
:102D3000B02E0020D0210020FA5CE9BFFA5C693F88
:102D4000D09801104FF48A6003F0D4FE00230646A9
:102D50004FF0FF32D8F80000C6E90033C6E902336D
:102D6000C6E90433C6E90733C6E90933B361C6F8D7
:102D70004024C6F8303486F83434C6F83834C6F8FF
:102D80003C34C6F84434C6F8483400287AD0C6F833
:102D90004C04386800286ED00023C9F80060F06247
:102DA000C6F8443433622CE6B02003F0A3FE0021C1
:102DB0000646C0E90011C0E90211C0E90411C0E9EA
:102DC0000611C0E90811C0E90A11C0E90C11C0E9F7
:102DD0000E11C0E910114022483010F051FD0021C1
:102DE0000023C6E92211C6E92711C9F80060C6F818
:102DF0009010C6F89810C6F89430C6F8A41086F85B
:102E0000A810F5E5402003F075FE002302464BF6BE
:102E1000803C0126DFF8ACE042F8043BC8F8000033
:102E20004360C2E90133C0E90433C0E90633C0E9B5
:102E30000DC6C0E90833C0F828E0C3628387CFE538
:102E4000042003F057FE002338600360C0E528200B
:102E500003F050FE00234FF032114FF48072C0E9AE
:102E60000033C0E90233C0E9053301610262C36186
:102E700043623060A6E5042003F03CFE0023386086
:102E8000036089E7402003F035FE002302464BF63D
:102E9000803E4FF0010CDFF82CA042F8043BC8F84C
:102EA00000004360C2E90133C0E90433C0E90633DE
:102EB000C0E90DECC0E90833C0F828A0C3628387DD
:102EC00065E700BF0000205070B50C228AB064494D
:102ED000044610F0A9FDF0B10F222046614910F020
:102EE000A3FD002862D0042220465F4910F09CFD1B
:102EF000002800F09380062220465C4910F094FDE3
:102F000000284CD021465A4B186803681B6B0AB046
:102F1000BDE870401847574D02AC2A680290C4E9DA
:102F20000100059082F83D00CDE90800CDE90600DA
:102F300006AB93E80300CDE9000102F1040C9CE824
:102F4000030083E80300DDE900018CE80300089931
:102F5000D66810690896D1600999099011611EB16F
:102F6000032219461846B047049B1BB10322214691
:102F700020469847404C2068002869D02C683C4A7D
:102F8000636A106003B19847012384F83D3008F06C
:102F9000F7F83A4808F06AF901200AB070BD3849DC
:102FA000384805F0E5FB01200AB070BD314D02AC98
:102FB0002A680290C4E90100059082F83D00CDE93D
:102FC0000800CDE9060006AB93E80300CDE9000157
:102FD00002F1040C9CE8030083E80300DDE9000132
:102FE0008CE803000899D66810690896D1600999A1
:102FF000099011611EB1032219461846B047049B7F
:103000001BB10322214620469847FFF7C1FC184B0D
:103010002C681860636A002BB5D1B5E74FF4407691
:103020006425194805F024FB0121184A184B126841
:103030001848A2F8156095619B6A0D24A0FB030354
:103040009B091175D36141EC404001200AB070BD6D
:10305000042003F04FFD104B206003608EE700BF9B
:10306000348F0110448F0110548F0110648F0110B0
:103070000829002014290020CC210020251200104E
:103080006C8F0110808B01105C8F0110982E002036
:1030900000000B40D34D62109C9901102DE9F04FB8
:1030A0002DED028B8FB005F059FA0921002000F0B8
:1030B00069FD084A08491368086843F4006313600F
:1030C000FFF756F950B901200FB0BDEC028BBDE8F7
:1030D000F08F00BF00800C40882A00204FF0321291
:1030E000AD4BAE491B68AE489960AE495862C3E922
:1030F000031208F0DFF81C20FDF7D8FA1D20FDF7B9
:10310000D5FA0D2000F080FD4FF001050D2345ECB0
:1031100044300C2000F078FD00240C2044EC4400E6
:103120000121224600F04CFD142000F06DFD142317
:1031300045EC4430132000F067FD132345EC443088
:1031400099499A4ACDE90A140D920992984A0DF1CB
:1031500028090C920892974B04AA069199E803005B
:1031600082E803001B68079493E8030089E80300E2
:1031700092E8030083E80300D3E902450C9A0C941B
:103180009A600D9A0D95DA601CB1032249464846B3
:10319000A047089B0DF1180B1BB103225946584656
:1031A000984700224FF0FF31834B1C68814B1B680E
:1031B00083F83424C3F84014C3F83824C3F83C24FB
:1031C0009A62C3F83024C3F848247C4B63627C4B7A
:1031D000236094F83C30B3B97A4801F03BF84AF6E2
:1031E000444104F12800FFF7FBF8012384F83C3048
:1031F000636A03B19847012384F83D3007F0C0FFAC
:10320000714808F033F80023CDE90B3307936F4B77
:1032100004AE0A9306936E4B99E803001C6886E897
:1032200003006C4A6C4D0992089504F1980393E8E9
:10323000030089E80300D6E9000183E80300D4F81D
:10324000A030D4F8A4100C93C4F8A0500D91C4F889
:10325000A4201BB10322494648469847012384F81D
:10326000A830089B1BB103225946584698470023B3
:103270000B93574B594D1868594C5A4B49462830B7
:103280000A930D950C94FDF7B7FB0C9B1BB1032221
:1032900049464846984700230B934D4B49461868CA
:1032A000514B08300A93CDE90C45FDF7A5FB0C9B6B
:1032B0001BB1032249464846984700230B93444BD1
:1032C00049461868494B18300A93CDE90C45FDF77B
:1032D00093FB0C9B1BB10322494648469847444C3C
:1032E00047F61221204601F0B7FB002301220821F6
:1032F000204601F033FC236B3E4A03F44043136342
:103300000121204601F062FC0221052000F03AFC78
:103310000221042000F036FC00220121052000F0EB
:103320004FFC9FED358ADFF8E8A0344B344A9B6AA6
:10333000A2FB0323184A9B091468227DDAB1E269D3
:10334000A1699A1A8A4216D34FF050414968627DAA
:1033500011F4005F4FF00D0100F09D814FF000006F
:1033600040EC4010A17DE361914204D800220D2180
:10337000227542EC40106268934200F09280042172
:10338000204A63601368204883F4005303F47043B9
:1033900003601E4B19603DE0982E00202D050010A3
:1033A0001D0500103D050010C92E00107505001008
:1033B000F50600102C2F0020142900209D04001079
:1033C000AD0400100C290020251200104D0500103E
:1033D000AC2E00207D0500101D0700108505001093
:1033E00045070010FD040010BD040010DD040010AE
:1033F00000800740009007408845C84D00000B4002
:10340000D34D621000000A4000100A4000200A401C
:10341000130080001368DF05FCD5536894F8211071
:1034200098B239B92288131A002B228AB8BF5B429E
:10343000934205DDA368208013B1984794F82110CA
:1034400004209B4A9B4D136883F4405303F470435C
:103450002B60994B18601368DE05FCD5536898B251
:1034600039B96288131A002B628AB8BF5B42934253
:1034700003DDE368608003B198474FF050435A681A
:10348000D50400F1BA8094F82020002A40F00B8186
:10349000636A01209847012384F82030002384F8D0
:1034A0002130864C864BA6691D6816F010063AD16D
:1034B00005F13808A369D906FCD423682A79DFB25C
:1034C00012B1A269920668D5F72F54D81B0661D4B1
:1034D0002B782BB3E9784A1CD2B22944012AEA702E
:1034E0004F701DD903F0F00190296878AA78EE702A
:1034F00003F00F0300F0A380B02900F08E80802934
:103500000ED1296A61B18DF810308DF818008DF850
:1035100028204B465A466F6A04A905F11800B8479F
:10352000A369DF06C6D5674B1C6894F834040028ED
:103530003DD0002005F014F8851C16D00A2800F0B4
:10354000C9800D2800F0C680D4F84834B3F5001FB8
:1035500080F0F881D4F84424591CC4F84814D0549D
:10356000D4F83C340133C4F83C34574B1868036832
:103570001B699847D9E695F8A8300BB1F82F2BD0E6
:103580002B6C002BCCD08DF82870494640466B6CD4
:103590009847C5E72F70EE70C2E74C4AB2F9022097
:1035A000BA4223D0A2699206FCD427608CE704F0CB
:1035B000D7FF821CD9D00A28D4F8303452D00D2835
:1035C00050D040F2FE329342CFDC5A1C2344C4F860
:1035D000302483F83000C8E7D5F89030172B03F17A
:1035E000010200F0BF81C5F89020C9E733498A691C
:1035F0009006FCD40D220A60D4E75B68D8047FF5FE
:103600004DAF94F82030002B3FF448AF636A0020A0
:103610009847002384F8203040E7296B00293FF4C5
:103620007FAF8DF810308DF818008DF828204B46AC
:103630005A466F6B04A905F12800B84770E729695D
:10364000002900F01682002A40F005822A6A002A2A
:103650003FF466AF8DF8103000238DF818008DF818
:10366000283056E7002B80DD0022234483F83020E9
:10367000A368C4F8302404F130053BB14946204624
:10368000E3680A95984700287FF46FAF29461048F1
:1036900005F06EF869E74FF0010040EC4010013290
:1036A000D2B262755EE65B68DB04AFD4F6E600BFBB
:1036B00000000A4000100A4000200A400080074035
:1036C000AC2E00202C2F002008290020142F0020D1
:1036D00014900110D4F83C149C4805F049F8D4F833
:1036E0004404002800F0AA80236A0193002B00F014
:1036F000A580D4F84824032A40F2DD810023032169
:103700001D468E460294CDF80CB0934280F0A780FF
:103710005C1E044414F8011F0939C9B217292AFA9A
:1037200001F600F29C80F10740F1998001339A4242
:10373000F0D111460B1D9A42C0F096804418844F78
:103740006478465C3C5DBE5D00943C46009F01F1A0
:10375000030C3F0947EA86078E1C10F8068010F814
:103760000CB014F80880019C6755875D784C3D2F9C
:1037700014F80B6005F1010B00F0D280009C019F52
:10378000240144EA980407F80B4010F80C40023575
:103790003D2C03D046EA88167E55754608318A428C
:1037A000C0F0C38005F1030EBEF5001FADD99A42EB
:1037B000DDE9024B00F269816562A36A043D9D4226
:1037C00028BF1D46266A2F464FF0FF333168CDB122
:1037D0008E46F51C05EB070C15F8012F5D4982EAB2
:1037E000030000F00F0051F82000654580EA131037
:1037F00080EA121303F00F0351F8233083EA101309
:10380000EAD17146DA43914240F03B81A36943B16A
:1038100004364A465946E3690A97069604F11000B1
:103820009847D4F84C546B6A03B19847012385F844
:103830003D3007F0A5FC484807F018FD00234FF085
:10384000FF3284F83434C4F84024C4F83834C4F85F
:103850003C34A362C4F83034C4F8483485E61946D1
:103860000B1D9A42BFF46AAF9142DDE9024B61D26F
:103870000B46013BC1180023013A86180A9311F840
:10388000017F03F138020DEB020CA7F10902D2B25D
:10389000172A2AFA02FE03F1010000F202811EF04B
:1038A000010F00F0FE80B142E9D11846002841D056
:1038B000042805D0C0F104023D2148440FF0E0FF88
:1038C000234E9DF829309DF82820F35CB15C1A093D
:1038D00042EA810201999DF82A709DF82B004A5511
:1038E00032463D2FF65D125C05F1010100F0E680E5
:1038F000B1F5001F00F0E480019F1B0143EA96032D
:103900003D287B5405F1020300F0E180B3F5001F70
:1039100000F0D680019942EA8612CA54033509E0C4
:1039200008318A425D46BFF43DAF9A42DDE9024B61
:1039300000F2AB80032D65623FF63FAF074804F00D
:1039400097FE7BE7064804F093FE77E7748F01103B
:10395000D43B02107C3B021025120010A08F0110F6
:10396000FC8F01100023C5F89030D5F88830009303
:1039700001F03AF8009B95F88CC005EBC303C3E94E
:103980001201D5F888104B1C584203F007031A4661
:1039900000F0070058BF42429646BCF1000F4CD0E1
:1039A00001F1090C02F1090155F83C0055F83120EC
:1039B00005EBCC0C05EBC101DCF804C04968801AAA
:1039C0006CEB0101002968DB50EA010C35D0CDE930
:1039D00000E302F06DFD06EE100AF6EE007A95EDBA
:1039E000257AC8EE066A37EE277A76EEA77AFCEEDD
:1039F000E77ABDEEC77A17EE903A99B217EE103A11
:103A00008B42C5ED256ADDE900E316D0D5F8A000AC
:103A100098B1D5F8A430ADF8281005F198004946C2
:103A20009847D5F888300133594203F007031A4606
:103A300001F0070158BF4A429646C5F888E0002BBE
:103A40007FF49EAD95F88C30002B7FF499AD012367
:103A500085F88C3094E58DF810308DF818008DF8CD
:103A600028204B465A466F6904A905F10800B8475B
:103A700056E5296A00293FF453AD002A7FF450AD82
:103A8000E8E5144804F074FED8E6B5F5001F7FF4AD
:103A9000F0AE65624FF400158FE6404261EB4101E4
:103AA00095E7B1420CF8107C3FF400AF04283FF4D6
:103AB00007AF0346E3E63AB962623FE70D4639E7EE
:103AC0004FF400136362E5E700231D46D1E61D466F
:103AD00030E700BFC48F011038B5204C2068E0B13A
:103AE0001F4C204A23681060E3B11F4C1F4A206816
:103AF000136060B31E4B1860FEF742FD1D4B18604B
:103B0000FEF7A8FB1C4B1860FEF75EFD1B4B186010
:103B1000FEF73EFF1A4B186038BD012002F0EAFFA5
:103B20002060DDE7282002F0E5FF4FF0321500228B
:103B30004FF480710346C0E90022C0E90222C0E9C7
:103B40000452C0E90622C0E908122060CDE7042033
:103B500002F0D0FF002320600360CBE7902A002012
:103B60009C2E0020882A0020FC2E0020982E002069
:103B7000F82E002014290020AC2E00202C2F00202D
:103B80000829002010B44FF480740C4B53F8202007
:103B900003EB8003C00082F0400200F1804003F597
:103BA000805C02F0C00200F5203003F54053CCF8F1
:103BB000002041601C605DF8044B704704800340A6
:103BC00010B4084CC90041EA820154F8202004EBEB
:103BD0008003514003F5805301F00C015DF8044B64
:103BE0001960704704800340064B402203EB8003BA
:103BF00019B103F500531A60704703F540531A607A
:103C0000704700BF0480034030B44FF0000343EC22
:103C1000440043EC400005254FF480740B4BC20078
:103C200053F8201003EB800081F0400102F1804343
:103C300003F5203301F0C00200F5805100F540503B
:103C40000A605D60046030BC704700BF04800340C0
:103C50000FB400B583B0049C074804F009FD3CB1E3
:103C600005A92046019104F003FB044804F000FD7F
:103C7000012004F015FB00BF70900110C88C0110EA
:103C8000EFF3108072B6064BD3E8CF1F0122002954
:103C9000FAD1C3E8412F0029F6D1BFF35F8F7047F7
:103CA000F32400200023034AC2E88F3F80F31088EA
:103CB000704700BFF324002070B58646EFF31085EF
:103CC00072B6124CD4E8CF6F0120002EFAD1C4E8AE
:103CD000460F002EF6D1BFF35F8F4FF0010CC808DE
:103CE00001F007030CFA03F31EF800C01CEA0306F8
:103CF00008D14CEA030C0EF800C0C4E88F6F85F3BE
:103D0000108870BD1046FFF7A3FF00BFF32400200A
:103D1000F8B5EFF3108772B61C4ED6E8CF5F0124DA
:103D2000002DFAD1C6E8454F002DF6D1BFF35F8FC5
:103D30009A421BD8012502E00132934222D3D408D3
:103D400010F804E002F0070C05FA0CFC1EEA0C0F58
:103D5000F2D14EEA0C0E00F804E010460023C6E84B
:103D60008F3F87F31088984207DBF8BD0023C6E831
:103D70008F3F87F310884FF0FF300029F5D0069869
:103D8000FFF766FF4FF0FF30E8E700BFF3240020A5
:103D9000044A1078431CDBB2182B28BF1023137081
:103DA000704700BFF017002010B5054C82B00146E7
:103DB0001F23182200940348FFF7AAFF02B010BD8A
:103DC00080900110202A00204FF0E022936843F0F9
:103DD00000539360704700BF0021044B03F12002A1
:103DE000C3E88F1F01339342FAD17047E8240020C3
:103DF0004FF0E0234FF08032C3F80024C3F80424CE
:103E0000C3F80824C3F80C24C3F81024C3F81424FE
:103E1000C3F81824C3F81C24C3F82024C3F82424AE
:103E2000C3F82824C3F82C24C3F83024704700BFFB
:103E3000012300F01F029340400941B1800000F1CE
:103E4000604000F56140C0F8803103607047024A6D
:103E5000203042F82030704700E100E00123064A9C
:103E6000410952F8212000F01F0003FA00F0104031
:103E7000003818BF0120704700E100E0012243092B
:103E8000034900F01F008240403341F8232070476F
:103E900000E100E0054A10309268054B52F820001E
:103EA000C01A2F288CBF00200120704700ED00E0D1
:103EB000F4170020F8B50D46EFF3108772B6124ED6
:103EC000D6E8CF2F0123002AFAD1C6E8423F002AC4
:103ED000F6D1BFF35F8F0D4B00F110049B680C4AC5
:103EE00053F82430934203D0994201D001F09CF959
:103EF000064B9B6843F82450BFF35F8F0023C6E84E
:103F00008F3F87F31088F8BDF124002000ED00E01A
:103F10001D0100102DE9F04F81468B46164683B0F7
:103F2000EFF3108372B6DFF8D0A10093DAE8CF1F69
:103F300001230029FAD1CAE8413F0029F6D1BFF395
:103F40005F8F664B93F90040002CC0F2A080644D57
:103F500004EB440705EB870898F8061009F11009EF
:103F60001970604BBF009B6853F829006300411B28
:103F70002F292FD95C49884240F0A4801C445B4B18
:103F800002372F44043BDB1BC3F34A036FEAC343EE
:103F90004FF421416FEAD34325F8241005EB840444
:103FA00063804BF60153A380FF2348F00100E671C4
:103FB000C4F808B0A3714B4B9B6843F82900BFF3CA
:103FC0005F8F0023CAE88F3F009B83F3108803B004
:103FD000BDE8F08F20F0010E9EF80710B1422ED8F8
:103FE0004FF42143EB53414BB91C2944043B0437A4
:103FF0005B1A2F44AEF10401C91BC1F34A043C49CA
:10400000C3F34A030B432143A8F804103949A8F825
:1040100002304AF6AA2073465B1B5B415843000DF1
:1040200088F8076088F80600C8F808B048F0010072
:10403000CEF80010BFE7D179B1422ED996469EF94D
:1040400006C00CEB4C02BCF1000F05EB8202F2DA69
:104050004BF601510EF10402A8F10407BF1AC7F391
:104060004A076FEAC7476FEAD7478EF8064003EB67
:104070000408204C05EB8803AEF8047045F828408E
:10408000998083F806C0DE71C3F808B093E701F0A9
:10409000CBF8124B93F9004059E7724632F8041FEF
:1040A000490514D44915023102EB410101916FF029
:1040B0000701C91B019F491B3944C1F34A0141F45F
:1040C0006041C9E7019301F0AFF8019B56E701F5A4
:1040D000FF1101F5FF511F31E4E700BF342F00202D
:1040E000F417002000ED00E01D010010241800204E
:1040F00000E0FFFF01488047F1240020F0B5EFF316
:104100000585EDB2EFF3108C72B62649D1E8CF2FBA
:104110000123002AFAD1C1E8423F002AF6D1BFF3B9
:104120005F8F214E40F0010EB4684AF6AA2354F87E
:1041300025701E4A0446A41A644163431B0D77454B
:104140005BB21BD092F906409C421CD092F91240FF
:104150009C4223D092F91E409C4221D092F92A40E1
:104160009C4208BF03240FD0114A00241578137015
:104170008571C1E88F4F8CF31088F0BDB2680D4C8B
:1041800042F82540F0E7002404EB440402EB8402EB
:10419000FF2494714BF601549480E5E70124F3E782
:1041A0000224F1E7F124002000ED00E0F4170020E4
:1041B000342F00201D01001010B5074C82B00146BD
:1041C0000523002200940548FFF7A2FD0028A8BFA0
:1041D000C0F1330002B010BD9C900110382F0020B8
:1041E000014B0B4403607047E824002070B5104C6D
:1041F000104DAC420ED2FF26236863B1FFF7C8FD15
:1042000001462046FFF7ECFFA680BFF35F8F08341E
:10421000AC42F1D370BDFFF7BBFD01462046FFF76E
:10422000DFFF2671BFF35F8F0834AC42E4D370BD6B
:10423000541F0020641F002010B50446FFF7A8FD9E
:1042400001462046FFF7CCFFFF232371BFF35F8FAA
:1042500010BD00BF10B504460120FFF7A5FD034BBC
:1042600003442360BFF35F8F10BD00BFE82400202C
:10427000024B0B440360BFF35F8F7047E8240020BC
:104280000D4B1A68EFF3108172B6D2E8CFCF012040
:10429000BCF1000FF9D1C2E84C0FBCF1000FF4D112
:1042A000BFF35F8F00221B68C3E88F2F81F3108854
:1042B00040BF002000217047082F002000000000B0
:1042C0002DE9F04F2DED028B85B0EFF30583DBB2C6
:1042D000103B9A0818BF01224FF0010103F0030BB5
:1042E00018BFAF4DAF4B08BFAF4D0BEB820253F879
:1042F000226001FA0BF205F541539FEDA78B019265
:104300005A602FE0B3881C0440F19380B379002BEE
:1043100040F0DD80B6F90820002AC0F21E817369E2
:1043200002EB420203EBC203D3E90247B7F1FF3FBE
:1043300008BFB4F1FF3F0ED005EB8B01AB6A0A69F1
:10434000D21AE31A934205D301232A6A03FA0BF324
:10435000134200D10C61284600F03EFBA042B94157
:10436000C0F2FB80B6F90830019A002B0093EA6393
:10437000C8DBD6F8148003EB4309284608EBC907CD
:10438000D7E9024A00F028FBA04271EB0A01B9DB31
:10439000BAF1000FC0F2C380D7E90431834A9342D7
:1043A00000F0ED807A88B6F9080092B242EA004047
:1043B000984702460B4652EA030100F0B080002BFA
:1043C00080F2D180B4EB020E6AEB030A38F939307F
:1043D000C7E902EA002B95DB716903EB430201EBAD
:1043E000C202D2E90270BE457AEB000C4FEA4302EA
:1043F00088DBB4462CF8083F06E003EB430001EBF2
:10440000C0005A00D0E90270BE451A447AEB0000A1
:1044100001EBC20404DB31F93230A446002BECDAA4
:1044200028F83930009BACF80030B3881C043FF505
:104430006DAF3369EFF3108272B6D3E8CF0F01216D
:104440000028FAD1C3E8401F0028F6D1BFF35F8FE0
:104450004FF6FF74B0880023316900B2B480C1E820
:104460008F3F82F310889842FFF650AF0746A94667
:10447000746906F1080807EB470E04EBCE03D3E995
:104480000250B6F90830C446002B13DBB246009741
:1044900004E034F936309446002B09DB03EB430685
:1044A00004EBC602D2E90271BD4270EB0101F0DA01
:1044B0005646009FACF8007034F93E7024F83E3048
:1044C000002FD8DAB3794D46002B3FF423AF0023F9
:1044D000B371B6F9083006F10808581C3DD01A46E9
:1044E000776903E08046591C3FF416AF03EB4301A4
:1044F00007EBC100B0F802C01C461CF4004F9E46FA
:1045000037F93130EED0944280ED028B05D0A8F817
:104510000030328927F8312034817246E3E738F8D9
:10452000393033813369EFF3108272B6D3E8CF0F9D
:1045300001210028FAD1C3E8401F0028F6D1BFF3BB
:104540005F8F7388316928F83930009B73800023AE
:10455000C1E88F3F82F31088D4E640BF05B0BDECC0
:10456000028BBDE8F08F2846CDE9022300F034FA33
:10457000029A039B10EB020E43EB010A26E7084662
:104580000B69029198470028C9D00299D1E900230C
:1045900011E700BFAFF30080FFFFFFFFFFFFFFFF4A
:1045A00000800B40D82E002000000B40C1420010BC
:1045B0002DE9F84F364C25692DB1BDE8F84F0A2199
:1045C0003448FFF70DBEDFF8E4800321404600F0D9
:1045D000F1F90326C4F80C80FFF7DAFB4FF0504CDA
:1045E0002D4B267003442361DCF800300F216370EB
:1045F000636961801D834FF00405A3F878504FF084
:104600000505A3F890504FF00605A3F8A8504FF009
:1046100007050E214FF6FF7208274FF00A0EA3F888
:10462000C0504FF001094FF00C0C4FF0020B4FF04F
:10463000090A0D204FF00B05A3F868111749A28055
:10464000A3F808E1A160A3F848B0A3F8F0A0A3F88C
:104650002051A3F838C1A3F85001A3F83090A3F873
:104660006060A3F8D8701A800D4B3046C8F82070EF
:104670000C49DC60FFF71EFC49463046FFF7D8FBCB
:10468000094B0A211F640348BDE8F84FFFF7A8BD96
:104690003C180020082F0020E8240020FFFF100015
:1046A000D82E0020C142001000200B4000000B401B
:1046B000004870473C180020F8B59DF8205004468B
:1046C00017461E4635B900F08FF9874266EB0101A7
:1046D00000295CDB2169EFF3108372B6D1E8CF0FBC
:1046E00001220028FAD1C1E8402F0028F6D1BFF3FB
:1046F0005F8FB4F90220656902EB4201002A4FEA9C
:10470000C10C206905EBC10139DB35F80CE0A4F8D8
:1047100002E04FF0000EC0E88FEF83F31088488866
:10472000069B0130C0F30E00012838BF01200B6149
:10473000079B48804B61C1E9027640EA0240236949
:10474000EFF3108172B6D3E8CF7F0126002FFAD1A4
:10475000C3E8476F002FF6D1BFF35F8FA38825F81A
:104760000C30A2802369C3E88FEF81F31088012207
:10477000E368217803F501538A405A60F8BD0022AE
:10478000C0E88F2F83F310884FF0FF30F8BD284624
:10479000F8BD00BF0146F0B50069EFF3108772B6AF
:1047A000D0E8CF5F0124002DFAD1C0E8454F002D9D
:1047B000F6D1BFF35F8FB1F902E04C690EEB4E0CFE
:1047C000BEF1000F4FEACC05086904EBCC0C3CDBD2
:1047D000665B4E800026C0E88F6F87F31088BCF8B8
:1047E0000200CCE902230130C0F30E00012838BFDB
:1047F0000120059BACF80200CCF81030069B40EA83
:104800000E40CCF814300B69EFF3108272B6D3E887
:10481000CFCF0127BCF1000FF9D1C3E84C7FBCF129
:10482000000FF4D1BFF35F8F8B886353A1F804E0CE
:104830000B69C3E88F6F82F310880122CB68097877
:1048400003F501538A405A60F0BD0023C0E88F3F52
:1048500087F310884FF0FF30F0BD00BF034640895A
:10486000B0EB214F37DD58690A1402EB420210B554
:1048700000EBC2001C69EFF3108C72B6D4E8CFEFE6
:104880000122BEF1000FF9D1C4E84E2FBEF1000F96
:10489000F4D1BFF35F8F428889B292B28A4207D0C7
:1048A00000221B69C3E88F2F8CF31088002010BDF5
:1048B00042F4004242800121002218699971C0E847
:1048C0008F2F8CF310881C78DA68084602F50153A4
:1048D000A140596010BD0020704700BF407870476C
:1048E0002DE9F04306460D4683B0EFF30584E4B2AC
:1048F0003CB12D4B5A6AAA421CD2002003B0BDE83D
:10490000F0832A4FD7F80C9097F80080484600F0C3
:1049100063F808F1040859F828301B1A301A65EBBF
:104920000101984271F1000110DB20BF1E4B5A6A51
:10493000AA42E2D314BF012400249B6AB34234BFCD
:10494000204644F0010003B0BDE8F08300F04CF8CD
:10495000864265EB0101002914DB154B3846CDE991
:10496000003432462B46FFF715FF011E0ADD0E4BC1
:104970005A6AAA4216D39B6AB34211D30B48FFF777
:104980006DFFB6E7084B5C6AAC42B6D3641B18BF38
:1049900001249B6AB34234BF204644F00100ADE7D6
:1049A000AA42EBD120BFE9E700000B403C180020F1
:1049B0008142001010B4054B054C064AA04214BFBA
:1049C0001846581C5DF8044BFFF776B9242A0020DE
:1049D00000800B40B89001100346416A0A46986A6D
:1049E000596A8A42FAD17047034B596A0A46986A53
:1049F000596A9142FAD1704700000B4030B4154A11
:104A0000536A9C46946A536A6345FAD10219594124
:104A10004FF0000528BF01250E4B5B6AB5B15A1C4B
:104A200008BF1A4608D04FF0FF310A460948436ACA
:104A30008B42FCD38B4207D1064902E0486A984278
:104A400002D1886A9042F9D330BC70479942EDD8C0
:104A5000F0E700BF00000B40F8B5054606200E4603
:104A600000F048F9002842D0354A3648954214BF34
:104A70004FF080624FF00062334B344902601A609D
:104A80008C6832EA0404FBD12D4B4FF48071EB1A91
:104A9000B3FA83F32E4A5B09062022F8131000F0C4
:104AA00029F9C300B3FBF6F30133DA0920D140261C
:104AB00001216962AA622F6BFB0722D42B460022D8
:104AC00053F82C1F062003F5805422602F6300F05A
:104AD00011F940F2013103228000B0FBF6F0EB6ADD
:104AE00083F0700303F07E0323602963AA64F8BD9A
:104AF0004FF6FE718A421BD922464FF6FF71154EC2
:104B0000D7E740F2013205F540531A636B6AAC6A8D
:104B1000062004EB831400F0EDF80F4BA402A3FB76
:104B20000023DB0A0021B4FBF3F0FFF767FFC5E7C2
:104B3000C3F34503114603EB82161A46B9E700BFDB
:104B40000080074000200240003002400000024088
:104B5000142F0020C0FF3F00757B2B8F013A0539D1
:104B6000D200F8B5054642EA411443B1A3F101036E
:104B7000B3FA83F35B0944EA830343F002042E6B28
:104B8000F3070AD42B4653F82C2F624002F06E0232
:104B900003F580531A602E63F8BD40F2013205F52B
:104BA00040531A636B6AAF6A062007EB831700F065
:104BB000A1F8054BBF02A3FB0030C00A0021B7FBE0
:104BC000F0F0FFF71BFFDDE7757B2B8FF8B5066B69
:104BD0000546F3074FEA01140AD42B4653F82C2F4D
:104BE000544004F0100403F580531C602E63F8BD9C
:104BF00040F2013200F540531A636B6AAF6A062037
:104C000007EB831700F076F8054BBF02A3FB0030DB
:104C1000C00A0021B7FBF0F0FFF7F0FEDDE700BFB0
:104C2000757B2B8F00EB400C4FEA8C0C0CF1804C09
:104C30000CF5803CF0B51646DCF80420051FB2F5F3
:104C4000803F38BF4FF48032EDB238BFCCF804203B
:104C5000012D2AD94FF40067254C0CF540521760FE
:104C600054F82020B2B9DCF80020012D82EA461267
:104C700002F0E0020CF5805632602AD94FF4006150
:104C800044F820304FF480330CF500521160CCF81A
:104C90000430F0BD6769B7FBF2FE0EF1010E0EEBBA
:104CA0004E0EBEF1030EFCD2DDE70129D2D1032462
:104CB0000CF540521460DCF80820D207FBD5DCF874
:104CC00000200B4C82EA461202F0E0020CF58056FE
:104CD00032600122DCF800504D4005F003053560DC
:104CE00002FA01F1DCF808200A42FBD0C6E700BF57
:104CF000282A0020014B53F820007047282A002062
:104D0000584B2DE9F0431C6C1746B4F5803F38BF73
:104D10004FF4803283B038BF1A64032280460E46B7
:104D2000514B504DDA636C6CE307FCD5EB6B4F4A8B
:104D300083F0200303F0E003D363EB6B494D83F072
:104D4000010303F00303D3636C6CA407FCD54FF499
:104D500000624FF48039464B464CDA63464B42467C
:104D6000636101213346C5F840904448009700F044
:104D700057F94FF400616B6B07FB06F64B4538BFE4
:104D8000C5F83490384B2269B8FBF6F619633AB18E
:104D90006369B3FBF2F3013303EB4303033BFDD23F
:104DA0003049324A0B6B03F0E00313630B6B83F063
:104DB000020303F0030313638B6B5807FCD54FF416
:104DC00000654FF480332A4A15632D4A4B632261F4
:104DD0000A6C9A424FF0030238BF0B64224B214900
:104DE000DA634B6CDA07FCD5CB6B204A03F0E003A7
:104DF000D363CB6B1B4983F0010303F00303D3633D
:104E00004B6C9B07FCD54FF480334FF40065184A78
:104E10006661D5630B64CA6C9A4238BFCB644FF4A9
:104E20000061114BA26999643AB16369B3FBF2F373
:104E3000013303EB4303033BFDD24FF400604FF417
:104E40008031084A094D936C83F0400303F0E0037E
:104E5000AB64074B084DA5619864D16403B0BDE80D
:104E6000F08300BF0000014000300140001001400D
:104E700000200140282A0020006CDC0200000540D0
:104E8000001BB7002DE9F04F4FF4A078994685B08C
:104E9000CDE902125F4CDFF884A154450AD908F12C
:104EA000FF38A4F53B54B8F10F0FA4F12004F4D15E
:104EB000002069E0072304F53722019403FB03F483
:104EC00002F5D872B2FBF4FE70454FF0010C4FF0C2
:104ED00002074FF003064FF004054FF005013FD0E5
:104EE000B3F1010E00F094800EFB03F4B2FBF4FB6F
:104EF00058454CD019B301FB03F4B2FBF4FB584501
:104F00004FD0E5B105FB03F4B2FBF4FB584553D099
:104F1000AEB106FB03F4B2FBF4FB584557D077B1B2
:104F200007FB03F4B2FBF4FB58455BD0BCF1000F68
:104F300005D00CFB03F4B2FBF4FB83455DD0734654
:104F400003FB03F4B2FBF4FE704501F1FF3105F100
:104F5000FF3506F1FF3607F1FF370CF1FF3CBFD1FB
:104F600004FB1024002CBBD19E464A46DDF808B055
:104F7000DDF80C900120284901FB08F1CBF8001066
:104F8000C9F80030C2F800E005B0BDE8F08F04FBBE
:104F90001024002CAED14A46DDF808B0DDF80C90A4
:104FA000E8E704FB1024002CABD14A468E46DDF81E
:104FB00008B0DDF80C90DDE704FB1024002CA7D12D
:104FC0004A46AE46DDF808B0DDF80C90D2E704FBA7
:104FD0001024002CA3D14A46B646DDF808B0DDF80F
:104FE0000C90C7E704FB1024002C9FD14A46BE4614
:104FF000DDF808B0DDF80C90BCE704FB1024002CB1
:105000009DD14A46E646DDF808B0DDF80C90B1E7E0
:10501000019C44E750262F00001BB70050F80C00FD
:1050200070B4039D04682D0345EA03451B4B002C17
:10503000B3FBF1F3B2FBF3F61FDB194A194B9042B5
:1050400014BF4FF480424FF40042174C1A6003F52E
:1050500080531A60A36832EA0303FBD1212200F5D2
:1050600040530433016086601A600268002AFCDA4B
:105070000822C5601A6070BC7047036803F03F03E4
:105080008B42DAD18368C3F30B03B342D5D1C36833
:1050900003F4EE23AB42D0D1EDE700BF001BB70015
:1050A00000800540002002400000024030B44FF074
:1050B00080441C4B1C60E0B11B4CA3F54053DC61E9
:1050C0001A4C40F0010044401C62596298624FF053
:1050D00080454FF0E061134B1548164C1D6084600D
:1050E00019604AB930BC4FF00042A3F580531A60F2
:1050F0007047114BD861EAE74FF47A7303FB02F271
:10510000B2F1807F2ABF6FF07F4313461A464FF0FB
:1051100080410A4C08482360094B426030BC19604A
:10512000704700BF00B00D40D3C007B02D3FF84F0F
:1051300000A00140F3FFFF0100800D40A42E0020DD
:1051400000A00D40012300EB4000800000F18040F2
:1051500000F5841041600360704700BF002370B504
:10516000DB8A04460D46002242E800F2520254BF98
:105170001021042144F25220984786462B462246AD
:10518000F446BDE870400A214FF48170604700BFCB
:105190000023DB8A002242E800F2520201D41021EF
:1051A00018470421184700BF08B503460846191ED2
:1051B00002DB1AB140F03000FFF7D0FF40F02000D2
:1051C000FAE700BF034AD2F82838002BFBD0BFF320
:1051D0005F8F704700000E400021044B044ABFF36C
:1051E0005F8F43F8041B9342F9D170470C080E40BF
:1051F0002C080E4010B44FF48D704FF42A64064A08
:10520000064B07491460D06019605368002BFCDA24
:105210005DF8044B704700BF0080044000A00440CC
:1052200000B0FA00704700BF08B50148FEF710FD56
:10523000DC90011038B5054C054DAC4204D254F851
:10524000043B9847AC42FAD338BD00BFF88A01103E
:10525000388B011038B5054C054DAC4204D254F8DA
:10526000043B9847AC42FAD338BD00BF248B0110F1
:10527000388B011010B40748074C084B084A0949FD
:1052800004601A608B6832EA0303FBD15DF8044BBB
:10529000704700BF002002407F3BEFEF003002402C
:1052A000F6FFF30300000240044BDB6CB3F5004F44
:1052B00003D14FF48022024BDA6470470000115092
:1052C000002011504FF0E022044BD2F8881D0B4310
:1052D000C2F8883D10EE3004704700BF0303300071
:1052E0006FF06041044B054A19609368DB4333F06B
:1052F0006043FAD1704700BF003002400000024016
:1053000010B545F25320FFF743FFBDE810400346B8
:105310000420184710B545F25320FFF739FFBDE8C8
:105320001040034601201847FEF756BD10B5054B47
:10533000054C4FF488721846A1680EF0D1FCA060AD
:1053400010BD00BF0000002000ED00E0002370B59C
:105350002B4C82B0C4F88430FFF74CFF0122294B5C
:10536000DA63636C012BFCD10321264A244B1163C1
:105370009C6B012CFCD10226052521460523224ADF
:1053800022480096FFF74CFE21462B46204A214832
:105390000095FFF745FE0022042031461E4BFFF723
:1053A00041FC2146284600221C4BFFF73BFC002213
:1053B000082011461A4BFFF735FC00220920114640
:1053C000174BFFF72FFC002206201146134BFFF767
:1053D00029FC0022114B07201146FFF723FC042073
:1053E000FFF788FC00240F4BA3FB0035AD0CE0B2A7
:1053F00029460134FFF7A6FE062CF8D102B070BD95
:105400000000014000300140002F685900000540B5
:10541000008C864700800540001BB70080D1F00853
:10542000006CDC0283DE1B4386B003B451FC08042D
:10543000CDE9020151FC0904CDE9040151EC0A0453
:10544000CDE9060103BCF047BDE800504EEC00C4B6
:10545000BDE800504EEC01C4BDE800504EEC02C463
:1054600000BD000000B5FFF7DFFF02E010FE30F4E2
:10547000F8D441EC100443EC112400EE010410EECA
:10548000010480EE200451EC1004704700B5FFF7D2
:10549000CBFF02E010FE30F4F8D441EC100443ECF2
:1054A000112400EE010410EE210480EE200451ECE2
:1054B0003004704700B5FFF7B7FF02E010FE30F48C
:1054C000F8D410B541EC100443EC112451EC040461
:1054D00053EC0524A0FB024C5FF0000EE0FB03CE72
:1054E000E1FB02CE4CEC20440024E1FB03E444EC5D
:1054F00030E480EE200451EC5004BDE810407047C9
:1055000000B5FFF791FF02E010FE30F4F8D441EC53
:10551000100443EC112451EC2104A0FB01126FEAAA
:10552000820252FB100052FB12F252FB1000A0EB61
:10553000D07C53EC04245CFB13F153EC1524A1FB49
:10554000022001FB030053EC4424A2EB000050FBBB
:105550001CF24FEA111312EB017043EBE27140EAC7
:10556000515020EA915020F0070053EC7524A0FB25
:10557000023C53EC752400FB03CC01FB02CC53EC42
:105580000424ACEB824C40EA5C70A0F1010041ECD9
:10559000400480EE200451EC7004704700B5FFF722
:1055A00043FF02E010FE30F4F8D441EC100480EE2A
:1055B000220410EEB204704700B5FFF735FF02E099
:1055C00010FE30F4F8D440EC700400EE010410EE4C
:1055D000210480EE200451EC3004704700B5FFF741
:1055E00023FF02E010FE30F4F8D440EC600400EE3B
:1055F000010410EE210480EE200451EC30047047C9
:1056000000B5FFF711FF02E010FE30F4F8D441ECD2
:10561000800400EE010410EE010480EE400410EE60
:105620001304704700B5FFF7FFFE02E010FE30F4F0
:10563000F8D441EC800400EE010410EE010480EE89
:10564000400410EE3304704700B5FFF7EDFE02E0B2
:1056500010FE30F4F8D441EC100443EC112400EEB9
:10566000010410EE3004C0F30070704700B5FFF77E
:10567000DBFE02E010FE30F4F8D441EC100443EC01
:10568000112400EE010410EE3004C0F38070704766
:1056900000B5FFF7C9FE02E010FE30F4F8D443EC89
:1056A000102441EC110400EE010410EE30F48CBF24
:1056B00001200020704700BF00B5FFF7B5FE02E0F3
:1056C00010FE30F4F8D443EC102441EC110400EE49
:1056D000010410EE30F42CBF01200020704700BF01
:1056E00000B5FFF7A1FE02E010FE30F4F8D441EC63
:1056F000100443EC112400EE010410EE30F42CBF32
:1057000001200020704700BF00B5FFF78DFE02E0CA
:1057100010FE30F4F8D441EC100443EC112400EEF8
:10572000010410EE30F48CBF01200020704700BF50
:10573000404261EB410140F2F334B1FA81F20C2AAC
:105740000CD2153211FA02F3C2F12002D04021FA34
:1057500002F12244584141EB0251704769B1C2F154
:105760002B0230FA02F3C2F120029140904019431B
:10577000A4EB020201EB0251704701004FF0000060
:10578000A4F12004D9D17047012767F31F5117FAFC
:1057900003F817D0A0FB080701FB0871A1FB0678EE
:1057A0005FEAD8469219A6FB047806FB0588090330
:1057B00051EA1051D7EB003061EB0801A94238BF24
:1057C00070470BE00C33012717FA03F80FD0A0FB4A
:1057D000080701FB0871A94238BF704708BFA04203
:1057E00038BF7047001B61EB05010132704703F1C0
:1057F000200311FA03F6D3F12003D840D9403043F7
:105800007047000000000000000000000453B108D1
:105810006018850FC8E5F22A6E07271E0D12B22107
:105820000412572F12557CBCDA30723F17A717A508
:105830005531994E9D0DBF0AEEE0AB5FE3EF6D9CD5
:105840007636AD6F697BCCE33D62BD7EF08106822A
:10585000F3FA428F37D5B78A5313C89E7FABB32074
:10586000491570AF0000000000000000025E8815BE
:105870005580FF00907806B1A602FE01DC4E21F0B3
:10588000EB88FB027A7C801F1615F8033C5DA9D1DA
:1058900010A9F304AA466CF5C146EE05FF65E4EBDA
:1058A00009F0E70613C00C9EC3A6E007E1BFEC9128
:1058B000C46CD808D5AF5EFFDC43CF09466A72E4FA
:1058C000D72DC50A237E6E197B2CBA0BBFF57164E8
:1058D0008741AE0C61DFB88CB86EA10D09A9856D4A
:1058E000C5B5930E3153B1086018850F3071E49837
:1058F000359875105915550580FF0F0009C3EB8FBA
:1059000080FB2F00B1910E9A82F34F001FE7FD221A
:1059100087E76F00C3A09A298FD78F004F4366ACEB
:105920009BC3AF00412A83A9ADABCF004FB7B41ED4
:10593000C68FEF00B6815F09E66F0F016785896644
:105940000E4C2F011A52DA3240244F01483A9B6A1A
:105950007CF86E01FF81B709C4C88E019C8DBC0B19
:105960001895AE017010DA6B795DCE013A3BE224F6
:10597000E921EE0138739533427FECA03114FAF53A
:10598000BD8689916B02FAE6E0F29183E682120706
:1059900013A85177212621686AB2736A9D0DBF0A48
:1059A000EEE0AB5F19B4E0B71CB66A549596E53DDE
:1059B000EF07A548D1CBE555DC0E4E3CCE68ADE8EF
:1059C00039B5A432CB3CFA96D9569A28C9B21CA153
:1059D000F9FCAE21864B6BE58AD2F0160453B10870
:1059E0006018850F02C00C9EC3A6E00700000000EF
:1059F00000000000AC79CFD1F71772B1293BAAB8EB
:105A00004FEAC12040F00040490043F1200340F23A
:105A10000001C3F6F071C3F10B0320FA03F038BFA5
:105A20007047404261F1000170475FEAD17CC1F3E9
:105A30000A53A3F2FF330C2B62DA13F1200FDFDDE0
:105A40002DE9F0413C4C70CC4FF00002FFF79CFE7A
:105A50001CF0010F04D06FEA0202201A65EB01016D
:105A600002F2FE3C40F2FE739C455CD20A0F334BBF
:105A700003EBC2030CCB02F03F0545F04005801A52
:105A800099410A0E2E4B03EBC20318CB02F580722C
:105A90005543C01AA1414A0D2A4B03EBC20318CB50
:105AA000124402F5805205FB0255C01AA1418A0238
:105AB00052EA905242F1000282FB02345B0D53EA3B
:105AC000C423C01841EB545184FB02344FF05533CA
:105AD00083FB043454FB11F304EB930410EB4402F6
