:020000041000EA
:10000000002008205D0100101301001015010010F0
:100010001101001011010010110100101101001058
:100020001101001011010010110100101701001042
:100030001101001011010010190100101B01001026
:100040001D0100101D0100101D0100101D010010F8
:100050001D0100101D0100101D0100101D010010E8
:100060001D0100101D0100101D0100101D010010D8
:100070001D0100101D0100101D0100101D010010C8
:100080001D0100101D0100101D0100101D010010B8
:100090001D0100101D0100101D0100101D010010A8
:1000A0001D0100101D0100101D0100101D01001098
:1000B0001D0100101D0100101D0100101D01001088
:1000C0001D0100101D0100101D0100101D01001078
:1000D0001D0100101D0100101D0100101D01001068
:1000E0001D0100101D0100101D0100101D01001058
:1000F0001D0100101D0100101D0100101D01001048
:100100001D0100101D0100101D0100101D01001037
:1001100000BE00BE00BE00BE00BE00BEEFF3058004
:10012000103800BEF2EB8871C8590310EC59031067
:10013000A801001090A31AE7D3DEFFFF42012110AF
:10014000FF01000050870300793512AB4FF000002B
:100150002049086006C881F3088810474FF05040D6
:10016000006810B14FF00000F2E70FA40ECC002998
:1001700002D000F015F8F9E71749184A002000E00E
:1001800001C19142FCD1002080F30A8814498847BC
:10019000144988471449884700BEFDE701C901C2D8
:1001A0009A42FBD3704700BFEC59031010010020A6
:1001B000AC2F0020888803100000082000000820D1
:1001C000888803100010082000100820000000009C
:1001D0007047000008ED00E0AC2F0020144700201D
:1001E000B9710010291900107D710010F8B500BF19
:1001F000064B0749C91A891048BF0131491003D07D
:10020000044B0BB101481847704700BFAC2F0020CA
:10021000AC2F00200000000008B5054B1BB10549BC
:100220000548AFF30080BDE80840FFF7E1BF00BF1D
:100230000000000064420020801702100020704778
:1002400003680888184700BF10B40468087811785C
:100250001A7823465DF8044B184700BF0368184717
:10026000C269034602FB01F110B501F50010EFF37E
:10027000108472B6D96921F037FA84F3108800200F
:1002800010BD00BF944608B5C0690CF1815C00FB4D
:1002900001C1029A18461BF0E9FC002008BD00BF0E
:1002A0002DE9F047C769804638460C4691461E4600
:1002B00001FB07FA05F0F0FA38B305463A460AF1B1
:1002C00081511BF0D3FC3146089A05EB09001BF065
:1002D000CDFCEFF3108672B6D8F81C1004FB01F0C9
:1002E00000F5001021F000FAD8F81C20294604FB84
:1002F00002F000F5001021F0ABF986F310882846D3
:1003000005F004FB0020BDE8F0876FF00B00FAE772
:1003100010B51F21044602F053FB0022204611466F
:1003200002F06CFB2046BDE81040002102F07ABBD1
:10033000012A06D0022A0AD0032A00D022B10020C6
:1003400070470160002070470260002070470B6812
:1003500003600020704700BF012A06D0022A0AD09D
:10036000032A00D022B100207047016000207047AE
:100370000260002070470B6803600020704700BFD8
:10038000012A06D0022A0AD0032A00D022B1002076
:1003900070470160002070470260002070470B68C2
:1003A00003600020704700BF002370B586B002AD27
:1003B00002930593C5E901338B680446F3B10E46F9
:1003C000022228469847D6E90231A668A36004961F
:1003D000E368E16095E80300CDE9000194E80300DB
:1003E000059385E80300DDE9000184E803001EB100
:1003F000032229462846B04706B070BD1946E4E7F7
:100400002DE9F041B9492DED028B0B68EFF3108413
:1004100072B6D3E8CF5F0122002DFAD1C3E8452F91
:10042000002DF6D1BFF35F8FB14AB24DB24E1368C3
:100430002D683768B14E9D42D6ED006A4C6040F29F
:100440000F8237F91350DFEDAE7A07EE105ABAEE8D
:10045000E87AE6EE877A01331360AA4B93F82C34DE
:10046000002B40F09180A84B9D6825B15A68DE684A
:10047000B242C0F05F829FEDA27A9D6977EE877AE3
:1004800025B15A69DE69964200F24B829FED9C7A53
:100490009D6A77EE277A25B15A6ADE6A964200F2A3
:1004A00037829FED977A9D6B37EE277A25B15A6B8D
:1004B000DE6BB242C0F02382DFED917A9D6C37EEA5
:1004C000277A25B15A6CDE6CB242C0F00F82DFEDA4
:1004D0008C7A9D6D37EE277A25B15A6DDE6DB2426A
:1004E000C0F0FB81DFED867A9D6E37EE277A25B16D
:1004F0005A6EDE6EB242C0F0E781DFED817A9D6F09
:1005000037EE277A25B15A6FDE6FB242C0F0D38141
:10051000DFED7B7AD3F8885037EE277A35B1D3F800
:100520008420D3F88C60B242C0F0BB81DFED747AD6
:10053000D3F8985037EE277A35B1D3F89420D3F812
:100540009C60B242C0F0A381DFED6D7AD3F8A85071
:1005500037EE277A35B1D3F8A420D3F8AC60B24295
:10056000C0F08B81DFED667AD3F8B85037EE277A8A
:1005700035B1D3F8B420D3F8BC60B242C0F0738177
:10058000DFED5F7A77EE877A00230A68C2E88F3F53
:1005900084F310885D4B1B78002B4DD05C4A5D4B7B
:1005A00092ED097AD2ED054AD2ED0A0A92ED048A5B
:1005B00082ED0A7A27EE247AA7EE887A92ED060A6F
:1005C000C2ED097AF0EE477AD2ED0B5A92ED071A96
:1005D000E0EE207AD3ED096A92ED0C2A93ED055AEC
:1005E000D2ED081AE1EE657AD3ED0A3AE1EEC27A6D
:1005F000D3ED042AC3ED0A6A66EE856AE2EEA76AC5
:1006000093ED063AC2ED0B7AC3ED097AF0EE667A05
:1006100093ED0B6A93ED074AE3EE237A93ED0C5AC0
:10062000D3ED084AE4EE467AE4EEC57AC2ED0C5A00
:1006300083ED0C6AC3ED0B7A9FED3B6ADFED366A02
:1006400067EE867AF4EEE67AF1EE10FA9FED337AF1
:1006500048BFF0EE667AF4EEC77AF1EE10FA304B4E
:1006600037FE277A1D68002D00F0D980DC68D3EDB5
:10067000085A07EE904A93ED0B5AF8EE676AD3EDED
:10068000057A9FED286A36EEE54A77EEC54AE4EE34
:10069000065AA4EE865A93F82820C3ED085A83ED33
:1006A0000B5A5968DAB175EEE66AB6EE006AF0EEFA
:1006B000E66AF4EEC66AF1EE10FA10D5D3ED096AD7
:1006C000FCEEE66A16EE904A012C38BF01248C42FB
:1006D0004FF0000228BF0C4683F82820DC6093F816
:1006E0003420002A40F0AA8020E000BFD83B002040
:1006F0000C2800206032002010280020082800204C
:1007000000000000D8420020A03100200428002072
:1007100024420020DC3D0020000000C700FEFF4610
:100720001C3D00200AD7A33B00000047FCEEE55A21
:1007300015EE906A9F6993ED174A7A18921BB2FBE7
:10074000F1FC01FB1C2235F91220D3ED136A05EEF2
:10075000902A93ED121AFAEEE85A64EE266A93EDA7
:10076000182AD3ED141AE5EE816AD3ED194AD3EDB8
:10077000152AE1EE826AD3ED1A3A93ED163AE2EECB
:10078000E46A1FED176AE3EE636AD3ED047A26EE9E
:10079000866A66EE277AFDEEE77AF8EEE77A77EE7C
:1007A000877A7A1CB2FBF1FEFDEEE77A01FB1E218F
:1007B00017EE902ADFF89C8147F6FF7C4245B8BFD0
:1007C00042466245A8BF624683ED184AC3ED1A4A05
:1007D000C3ED175AC3ED196A25F817209961F4B1D2
:1007E000F7EE006ADFED587A76EEC56AF4EEE76A56
:1007F000F1EE10FA25EE066A58BFF0EE667AA7EE23
:10080000276AFDEEC67A17EE903A4345B8BF4346D5
:100810006345A8BF634607EE903AB8EEE77ABDECB1
:10082000028BBDEEC77A17EE103A00221BB263F3BB
:100830000F0263F31F420260BDE8F08175EE677A34
:10084000DFED426AF0EEE77AF4EEE67AF1EE10FAC6
:100850007FF56CAF1A6B5A61002283F8342065E78C
:10086000DFED3B7AF9E535F91250013207EE905A87
:10087000C3F8B420FAEEE87A84E635F91250013272
:1008800007EE905AC3F8A420FAEEE87A6CE635F940
:100890001250013207EE905AC3F89420FAEEE87A2B
:1008A00054E635F91250013207EE905AC3F884200D
:1008B000FAEEE87A3CE635F91250013207EE905A2A
:1008C0005A67FAEEE87A25E635F91250013207EE5A
:1008D000905A5A66FAEEE87A11E635F9125001326A
:1008E00007EE905A5A65FAEEE87AFDE535F91250AE
:1008F000013207EE905A5A64FAEEE87AE9E535F9E2
:100900001250013207EE905A5A63FAEEE87AD5E5B2
:1009100035F91250013207EE105A5A62BAEEE87AEF
:10092000C1E535F91250013207EE105A5A61BAEE9C
:10093000E87AADE535F91250013207EE105A5A60E7
:10094000BAEEE87A99E500BF6666663F0AD7233CAF
:10095000000000000080FFFF234B82B2A3F870204C
:10096000002A40D093ED1D7AB5EEC07AF1EE10FA70
:1009700039DD07EE902ADFED1D6AF8EEE77A93ED98
:10098000076A67EE266AF8EE465A86EEA77A67EEA1
:10099000257AFCEEE77A17EE902A596893ED086AFB
:1009A0008A4228BF0A4607EE902AB8EE677A76EEAA
:1009B000477AB6EE005AF0EEE77AF4EEC57AF1EE39
:1009C00010FA05DD012283ED097A83F828207047AB
:1009D000012A38BF01228A424FF0000028BF0A4690
:1009E00083F82800DA6070471C3D00200000704248
:1009F00021490B68EFF3108072B6D3E8CFCF012204
:100A0000BCF1000FF9D1C3E84C2FBCF1000FF4D1B9
:100A1000BFF35F8F0023194A4860C2E90233C2E97D
:100A20000633C2E90A33C2E90E33C2E91233C2E91E
:100A30001633C2E91A33C2E91E33C2E92233C2E9CE
:100A40002633536053615362536353645365536653
:100A50005367C2F88430C2F89430C2E92A33C2E93D
:100A60002E33C2F8A430C2F8B4300A68C2E88F3F0F
:100A700080F31088704700BFD83B0020A0310020D1
:100A800007EE900A9FED427AF8EEE77AC7EE877A92
:100A9000F8B517EE901A2DED028B3E4804F054FB8A
:100AA000B3EE047A07EE900A67EE877A3A4C17EEB7
:100AB000900AC4ED017A20F0EFFD33A3D3E90023BF
:100AC00003F018FC064620680F4620F0E5FD0B46B3
:100AD00002463946304603F033FC03F07FFC0546FE
:100AE00004F0BAFDD4ED027A07EE100A77EEA77A89
:100AF000284687EE278A04F0B2FD237B07EE900A92
:100B000033BBF7EE005AB8EE006A75EEE76A38EECE
:100B1000255AB6EE007A67EE867A26EE877A85EE5B
:100B2000856A35EEC88A27EE067A66EE266A67EE93
:100B3000867A28EE068A84ED047AC4ED056A84ED8F
:100B4000067AC4ED077A84ED088ABDEC028BF8BD05
:100B5000012BFAD1F7EE005AB8EE006A77EEA56ADB
:100B600038EE255AB6EE007A67EE867A26EE877A58
:100B700085EE856A35EEC88A27EE067A66EEC66A85
:100B8000D5E700BFAFF30080182D4454FB21194076
:100B900000F07F4500007A44DC3D002000000000AA
:100BA00007EE100ADFED426AB8EEC77AF8B5C7EE75
:100BB000267A2DED028BF7EE008A78EEE77A67EE63
:100BC000A77A3C4817EE901A04F0BEFA9FED3A7AE5
:100BD00007EE900A67EE877A384C17EE900AC4ED5C
:100BE000017A20F059FD30A3D3E9002303F082FB02
:100BF000064620680F4620F04FFD0B460246394658
:100C0000304603F09DFB03F0E9FB054604F024FDAC
:100C1000D4ED027A07EE100A77EEA77A284687EE1F
:100C2000278A04F01CFD237B07EE900A23BB38EED5
:100C3000285A78EEE76AB6EE007AF8EE005A88EEA7
:100C4000856A26EE877A38EEC88A67EEA57A66EE60
:100C5000266A27EE067A67EE867A28EE068AC4EDC3
:100C6000056A84ED047A84ED067AC4ED077A84ED92
:100C7000088ABDEC028BF8BD012BFAD138EE285A58
:100C800077EEA86AB6EE007AF8EE005A88EE856A2A
:100C900026EE877A38EEC88A67EEA57A66EEC66ACF
:100CA000D7E700BFAFF30080182D4454FB21194053
:100CB00000F07F450000C843000048422442002065
:100CC000F8B547292DED028B00F001814A2900F08B
:100CD000B181143903292BD8DFE801F0B19B022D33
:100CE00007EE902AC84BF8EEE77A93ED055ADFED50
:100CF000C74A93ED0B7A87EEA46AF7EE006A77EEA7
:100D0000457AB4EEE66ADFEDC25AF0EEE77AF1EE2C
:100D100010FAF4EEE57A76FE866AF1EE10FACBBFB1
:100D200001220022C3ED0C6AC3ED056A83F834206A
:100D3000BDEC028BF8BD07EE902ADFEDB46AF8EE49
:100D4000E77AF7EE008A87EEA67A78EEC77A67EE42
:100D5000A77AB04817EE901A04F0F6F99FEDAE7A34
:100D600007EE900A67EE877AA74C17EE900AC4ED5B
:100D70001B7AC4ED0F7A20F08FFCA1A3D3E90023E6
:100D800003F0B8FA0646A06B0F4620F085FC0B4630
:100D900002463946304603F0D3FA03F01FFB0546FE
:100DA00004F05AFCD4ED107A07EE100A77EEA77A19
:100DB000284687EE278A04F052FC94F8443007EE68
:100DC000900A002B40F0038138EE285A78EEE76A4B
:100DD000B6EE007AF8EE005A88EE856A26EE877A3B
:100DE00038EEC88A67EEA57A66EE266A27EE067A9E
:100DF00028EE068A67EE867A84ED168ABDEC028BB1
:100E0000C4ED136A84ED127A84ED147AC4ED157A78
:100E1000F8BD07EE902ABDEC028BF8EEE77A9FED65
:100E20007B6A9FED7E7AC7EE866AF4EEC76AF1EEC2
:100E300010FA754B37FE267A83ED047AF8BD07EE7B
:100E4000902ADFED726AF8EEE77AB6EE006A87EE76
:100E5000A67A67EE067A6C4BB3F87020C3ED1D7A64
:100E6000002A3FF465AFF5EEC07AF1EE10FA7FF795
:100E70005FAF9FED6B7A06EE902AD3ED075A67EECF
:100E8000877AF8EEE66AB8EE655A87EEA67A67EEDC
:100E9000057AFCEEE77A17EE902A5968D3ED085AE6
:100EA0008A4228BF0A4607EE902AB8EE677A75EEA6
:100EB000C77AF0EEE77AF4EEC67AF1EE10FA40F374
:100EC0003981012283ED097A83F8282030E7520125
:100ED00007EE902ADFED566AF8EEE77AF7EE008A21
:100EE00087EEA67A78EEC77A67EEA77A4D4817EEB6
:100EF000901A04F029F99FED4C7A07EE900A67EEFC
:100F0000877A4A4C17EE900AC4ED017A20F0C4FBB0
:100F10003BA3D3E9002303F0EDF9064620680F4612
:100F200020F0BAFB0B4602463946304603F008FA79
:100F300003F054FA054604F08FFBD4ED027A07EE75
:100F4000100A77EEA77A284687EE278A04F087FBF7
:100F5000237B07EE900A23BB38EE285A78EEE76A27
:100F6000B6EE007AF8EE005A88EE856A26EE877AA9
:100F700038EEC88A67EEA57A66EE266A27EE067A0C
:100F800028EE068A67EE867A84ED088ABDEC028B2D
:100F9000C4ED056A84ED047A84ED067AC4ED077A1F
:100FA000F8BD012B7FF4C4AE38EE285A77EEA86A5C
:100FB000B6EE007AF8EE005A88EE856A26EE877A59
:100FC00038EEC88A67EEA57A66EEC66AD6E7012BC8
:100FD0007FF4AEAE38EE285A77EEA86AB6EE007A05
:100FE000F8EE005A88EE856A26EE877A38EEC88ACF
:100FF00067EEA57A66EEC66AF8E600BFAFF300803A
:10100000182D4454FB2119401C3D00200000FE42D5
:101010000AD7233C000048430000C842A4707D3F2B
:10102000000070420000C8430000484224420020F3
:1010300000F07F45520107EE902A1FED037AF8EE8B
:10104000E77AC7EE877A444817EE901A04F07CF8E6
:10105000B3EE047A07EE900A67EE877A3F4C17EEFC
:10106000900AC4ED017A20F017FB39A3D3E90023DD
:1010700003F040F9064620680F4620F00DFB0B46B2
:1010800002463946304603F05BF903F0A7F90546FE
:1010900004F0E2FAD4ED027A07EE100A77EEA77AAE
:1010A000284687EE278A04F0DAFA237B07EE900AB7
:1010B00033BBF7EE005AB8EE006A75EEE76A38EE19
:1010C000255AB6EE007A67EE867A26EE877A85EEA6
:1010D000856A35EEC88A27EE067A66EE266A28EE1D
:1010E000068A67EE867A84ED088ABDEC028B84ED71
:1010F000047AC4ED056A84ED067AC4ED077AF8BD7A
:10110000012B7FF415AEF7EE005AB8EE006A77EEC9
:10111000A56A38EE255AB6EE007A67EE867A26EE94
:10112000877A85EE856A35EEC88A27EE067A66EEFE
:10113000C66AD4E7012A38BF01228A424FF0000074
:1011400028BF0A4683F82800DA60F1E5AFF3008093
:10115000182D4454FB21194000007A44DC3D002046
:1011600070B50B4604468CB058490068E36008F03F
:101170006FFE4FF480320346206907928602821C7C
:1011800002F01F0C06F4F84646EA0C06504946F0F9
:101190008046099146F4801621680A96A360DE1DF8
:1011A000DB0101F12F4143EA063323F0C04301F58F
:1011B000600112090893474D0309090D22F4F84212
:1011C00042EA832206312A43C9B20B9201F0F8FBAE
:1011D0002168206901F12F4101F56001090D0631F7
:1011E000C9B2013001F0ECFB2168206901F12F4107
:1011F00001F56001090D0631C9B2023001F0E0FBD2
:1012000001202269616800900323206808F06AFECB
:10121000314BE268314902FB03F3B1EBB31F13D248
:101220002F49304B01FB02F29A420BD92E4D284632
:1012300006AB05AA04A902F041FD38B929462B489E
:1012400001F024FC2A4DF2E72A4DF0E70498DDE98D
:10125000051202F071FC052002F068FCE3689FEDC6
:10126000267A9B01B0FBF3F307EE903AF8EEE77AAB
:1012700077EE877ABCEEE77A17EE103A9BB213B39B
:1012800007EE103AB8EE477ADFED1C6A77EEC77AC0
:1012900067EEA67AFCEEE77ACDED037A9DF80C5066
:1012A0002D02D4E9011245EA0345206807AB0795F2
:1012B00008F05EFED4E900200123116883400B434F
:1012C00013600CB070BD1D46EBE700BF10DA0210D2
:1012D00000000640E083FFFFD578E92626310800AC
:1012E000F125BED3BEF10500F049020080170210BF
:1012F000B0110200803202000000003B0000804379
:1013000038B50A4C206800B138BD1C2004F00EFB33
:101310004BF6803101220023C0E90412044D8360A2
:10132000C0E900350376206038BD00BFD03D002005
:101330000000205070B582B0FFF7E2FF012504469F
:1013400001A823689847A068019E00F11002616817
:1013500005FA02F24B681342FCD1043041F82060D8
:10136000EEE700BF00000000F8B504462DED028B4B
:10137000406820F091F932A3D3E9002302F0BAFFCC
:10138000064620680F4620F087F90B46024639468C
:10139000304602F0D5FF03F021F8054604F05CF971
:1013A000D4ED027A07EE100A77EEA77A284687EE88
:1013B000278A04F054F9237B07EE900A33BBF7EE3B
:1013C000005AB8EE006A75EEE76A38EE255AB6EEB6
:1013D000007A67EE867A26EE877A85EE856A35EEA4
:1013E000C88A27EE067A66EE866A67EE867A28EE67
:1013F000068A84ED047AC4ED056A84ED067AC4EDAC
:10140000077A84ED088ABDEC028BF8BD012BFAD176
:10141000F7EE005AB8EE006A77EEA56A38EE255A64
:10142000B6EE007A67EE867A26EE877A85EE856AD2
:1014300035EEC88A27EE067A66EEC66AD5E700BFA3
:10144000182D4454FB21194038B55422002120485E
:101450001AF06CF84FF480734FF460621C4D4FF437
:10146000FA746B61AB611B4B4FF480502B612A62A5
:101470004FF480734FF4807217496C6269601749AA
:10148000174CA960E86129461648C5E90A23EC60B3
:101490000EF062FB60B1144806F07EF82946114850
:1014A0000EF0B6FA48B90A490E480EF055FB50B98D
:1014B0000E4806F071F8012038BD01460C4806F0D0
:1014C000EBF8002038BD01460A4806F0E5F8F8E7D9
:1014D000B02F00203D02001085020010A102001074
:1014E0006102001064320020B4170210401802108C
:1014F000E01702100818021010B50446D0B02246BA
:101500001F4801A90FF0DCFCE0B921461D4806F098
:10151000C3F80EAC02E00A2005F0FCFF01A9224648
:1015200017480FF029FD002810A912DB1AD0164821
:10153000626806F0B1F82378022BECD1134806F06C
:10154000ABF8E8E70146124806F0A6F8002050B0D4
:1015500010BD01460F4806F09FF801A908480FF09A
:10156000FDFCF3E7064801A90FF0F8FC10B90120D3
:1015700050B010BD0146084806F08EF8E6E700BFFF
:10158000643200203C1902107C1902108C190210E0
:1015900018190210581902109419021030B58FB0A2
:1015A0000546FFF751FFB8B101230446124A13481C
:1015B00001A92B700FF084FC38B10F490F480FF0D0
:1015C0008BFB80B920460FB030BD01A90B480FF04E
:1015D000C5FC20460FB030BD094805F0DDFF0024F2
:1015E00020460FB030BD0146064806F055F80648C3
:1015F00005F0D2FFF3E700BF441A02106432002066
:10160000281A0210DC190210501A021010B5074CEB
:10161000206800B110BD102004F088F9002320607C
:10162000C0E90033C0E9023310BD00BFA84200206A
:10163000F0B5334D04462E68CBB0002E42D02021A9
:10164000304A6846237805F0E5FC69462E4808AA2A
:101650000EF06EFF20B9A368099D4BB14BB0F0BDF1
:1016600069462A4806F018F8A3680025002BF5D132
:10167000274B69081F68336864391F442B44E160B5
:101680006A46336020480123A76008A90FF03EF89E
:1016900018BB2B463A461C4808A90FF053F9061E02
:1016A00025DB194808A90FF03DF8D8B9B54204D098
:1016B000184805F071FF0023E360174805F0ECFFC0
:1016C0004BB0F0BD102004F031F900230646C0E90C
:1016D0000033C0E902332860B1E701460F4805F046
:1016E000DBFFE5E701460E4805F0D6FFE0E73146AF
:1016F0000C4805F0D1FF08A903480FF013F8D7E70D
:10170000A8420020741A021064320020881A0210C5
:1017100014280020A01A0210CC1A0210CC180210B3
:10172000AC180210F818021030B52A4B83B00192A1
:10173000A3FB0123DB0803EB4303274CA1EB83014D
:1017400011F0FF01206824D1DDED017ADFED236A7D
:10175000B8EEE77AC7EE267AEFF3108372B6D0E8D8
:10176000CF5F0122002DFAD1C0E8452F002DF6D120
:10177000BFF35F8F67EEA77A19481A4DC0ED007A64
:10178000226863602960C2E88F1F83F3108803B06A
:1017900030BDEFF3108372B6D0E8CF5F0122002D89
:1017A000FAD1C0E8452F002DF6D1BFF35F8F0E4D63
:1017B000636005EB01152846FFF73AFF1621002369
:1017C00022686960C2E88F3F636883F3108803B0C2
:1017D00030BD00BFABAAAAAAD83B00200000FE4241
:1017E000082800200C280020A031002018B90D2363
:1017F00040EC403070470D234FF0010210B542EC31
:1018000040300F4C2368EFF3108272B6D3E8CF0F4D
:1018100001210028FAD1C3E8401F0028F6D1BFF308
:101820005F8F08486260FFF703FF16210548002319
:1018300022684160C2E88F3F636883F3108810BD5F
:10184000D83B0020A03100206FF0784C2DE9F04FFC
:10185000D0E900A6A6EB0A07BCEB271F83B05CD03B
:101860003B11012B1A4638BF01229D1881460C46B8
:101870004FD2654528BF65462B011846019304F0F9
:1018800055F80022A36800EB070BC2518046CBE954
:101890000122CBF80C204BB1022221465846984732
:1018A000E368CBF80C30A368CBF80830B2452ED0F3
:1018B000524643460024D2E90251C3E90044C3E939
:1018C0000241F5B192E803001032B24283E803000E
:1018D0009D6003F11003EED147441037BAF1000FB9
:1018E00006D0D9F808105046A1EB0A0104F026F8FA
:1018F000019DC9E900874544C9F8085003B0BDE817
:10190000F08F1032B24203F11003D4D1E4E747461E
:10191000E3E7034B18460193B1E7024810F07CF966
:10192000F0FFFF7FDC1A02102DE9F04F2DED028B46
:10193000A7B005F0A7FD4FF03212BD4BBD491B68A3
:10194000BD489960BD495862C3E9031208F012FC12
:101950001C20FEF7DDFC1D20FEF7DAFC0D2001F057
:1019600071F801250D2345EC44300C2001F06AF894
:101970000C204FF0000343EC44000022294601F004
:101980003DF8142001F05EF8142345EC4430132098
:1019900001F058F8132345EC4430A94EA94B3468A4
:1019A0002360237E5BB9A84801F072FB4AF64441EC
:1019B000201DFFF7D5FBA54808F0B8FB2576356854
:1019C000A3482E69A34C07EE906AB8EE678A80EDB3
:1019D000008AFFF7C9FCA04880ED008AFFF7C4FC2D
:1019E000D4ED027A9FED9D7A28EE278AC8EE077A19
:1019F000FCEEE77A17EE903A012B38BF01232068FE
:101A0000E661636008B103F097FF6068944B984209
:101A10008CBF4FF0FF30400003F08AFF6268206007
:101A20001AB10021520019F081FDD5ED047A94ED30
:101A3000037AF8EE677A0023B8EE477AA36117EECF
:101A4000900AC4ED0E7A84ED087A1FF025FED4EDDD
:101A5000108A94F8443006460F4678EEA88AE06E65
:101A6000002B40F02D81E0631FF016FE6EA3D3E93A
:101A7000002302F03FFC32463B4602F061FC02F0DC
:101A8000ADFC054603F0E8FD07EE900A284687EE18
:101A9000A88A03F0E4FDB7EE005A07EE900A38EE8C
:101AA000054A35EE676AB6EE007AF8EE004AC5EEF2
:101AB000045A26EE077A75EE486A67EEA47A25EE98
:101AC000866A27EE257A67EEA57A66EEA56A84ED2A
:101AD000136AC4ED157AC4ED166A84ED127A84EDAA
:101AE000147A00235F4ACDE912335F4911920DF158
:101AF000440B07AE0C6809929BE803005B4A86E83A
:101B000003005B4D0A930C920B9504F1980393E844
:101B100003008BE80300D6E9000183E80300D4F852
:101B2000A030D4F8A4101393C4F8A0501491C4F8B2
:101B3000A4201BB10322594658469847012384F834
:101B4000A8300B9B1BB109A9032208469847464BB6
:101B5000484D18680023484C1293484B594628308A
:101B6000119314951394FEF71FFC139B1BB10322D2
:101B7000594658469847002312933B4B59461868DC
:101B80003F4B08301193CDE91345FEF70DFC139B35
:101B90001BB103225946584698473A4C47F6122142
:101BA000204601F075FE204600230122082101F0A5
:101BB000F1FE236B344A03F44043136320460121B2
:101BC00001F020FF0221052000F0FAFE022104208E
:101BD00000F0F6FE00220121052000F00FFF002298
:101BE0002A4B2B4D18682B4B2B4CCDE91132D0E9E9
:101BF00002318B421495139400F04485C3E901220D
:101C00001A60826811991032DD6019609C608260F0
:101C1000139B1BB1032259465846984709210020BF
:101C200000F0CEFE1D4A3BE0182D4454FB21194024
:101C300014420020A10B0010ED170010810A0010C3
:101C4000E03B002001040010D83B002035130010B9
:101C5000244200201C3D0020DC3D002000007A448E
:101C6000FCFFFF3F590900105842002041020010BC
:101C7000310300104902001059030010C10C00107C
:101C8000291700100080074000900740A442002060
:101C90005D020010F10900108103001000800C406B
:101CA00023491368086843F400631360FFF776FC68
:101CB00000283FD1012027B0BDEC028BBDE8F08F9A
:101CC000012BE0637FF40DAF1FF0E6FC16A3D3E910
:101CD000002302F00FFB32463B4602F031FB02F0DC
:101CE0007DFB054603F0B8FC07EE900A284687EE18
:101CF000A88A03F0B4FCB7EE005A07EE900A38EE5B
:101D0000054A37EE856AB6EE007AF8EE004AC5EE6F
:101D1000045A26EE077A75EE486A67EEA47A26EE34
:101D2000656ACEE6AFF30080182D4454FB211940BC
:101D3000CC3D00204FF0FF320023DFF8D4A2CAF8D8
:101D40002024DAF80C208AF81434D2E90145AC4298
:101D5000CAF81834CAF81C34CAF80830CAF8103463
:101D6000CAF82834136009D0A368002B00F0A684B9
:101D7000E368204610349847A542F5D19FED9A8A32
:101D8000DAF80C00994A0368126803F5001111444F
:101D90001A4403F58003CAF824240360CAF800102B
:101DA000934A944B14689B6A934AA2FB0323227DB7
:101DB0009B09DAB1E269A1699A1A8A4216D34FF0F7
:101DC00050414968627D11F4005F4FF00D0100F051
:101DD0007D814FF0000040EC4010A17DE361914215
:101DE00004D800220D21227542EC40106268934213
:101DF00052D00421814A63601368814883F4005300
:101E000003F4704303607F4B19601368DF05FCD552
:101E1000536894F8211098B239B92288131A002B0C
:101E2000228AB8BF5B42934205DDA368208013B1CC
:101E3000984794F821100420704A714D136883F478
:101E4000405303F470432B606E4B18601368DE053B
:101E5000FCD5536898B239B96288131A002B628A8C
:101E6000B8BF5B42934203DDE368608003B19847EB
:101E70004FF050435A68D50400F1CE8094F82020EA
:101E8000002A40F02B81636A01209847012384F8DF
:101E90002030002384F821305B4C5C4BA6691D6820
:101EA00016F010063AD1DFF86C81A369D906FCD48C
:101EB00023682A79DFB212B1A269920663D5F72F9F
:101EC0004ED81B065CD42B782BB3E9784A1CD2B2CF
:101ED0002944012AEA704F701DD903F0F002902ABC
:101EE0006878A978EE7003F00F0300F0B780B02A8D
:101EF00000F0A280802A0ED12A6A62B18DF81C30CF
:101F00008DF824008DF844105B466F6A07A909AA72
:101F100005F11800B847A369DF06C6D59AF814047E
:101F2000002839D0002005F0AFFA841C3FF438AF08
:101F30000A2800F0D7800D2800F0D480DAF8283481
:101F4000B3F5001F80F00B82DAF82424591CCAF87C
:101F50002814D054DAF81C340133CAF81C341FE7B3
:101F600095F8A8300BB1F82F2CD02B6C002BD2D0C9
:101F70008DF8447059466B6C05F138009847CAE7F4
:101F80002F70EE70C7E7B8F90220BA4224D0A269D8
:101F90009206FCD4276092E705F076FA821C3FF4A3
:101FA000FFAE0A28DAF810346BD00D2869D040F261
:101FB000FE3293423FF7F4AE5A1C5344CAF8102441
:101FC0001874EDE6D5F89030172B03F1010200F0FC
:101FD000F781C5F89020C8E70B498A699006FCD4C0
:101FE0000D220A60D3E700BF8845C84D14280020A1
:101FF0001442002000000B40D34D621000000A4044
:1020000000100A4000200A4000800740584200208B
:10201000D8420020C04200205B68D8047FF539AF69
:1020200094F82030002B3FF434AF636A00209847C7
:10203000002384F820302CE72A6B002A3FF46BAF92
:102040008DF81C308DF824008DF844105B466F6BC2
:1020500007A909AA05F12800B8475CE72A69002A00
:1020600000F02E82002940F01D822A6A002A3FF4E7
:1020700052AF8DF81C3000238DF824008DF84430C9
:1020800042E7002B7FF78CAE0022BF4C53441A74FA
:10209000CAF8102420461422BC4919F01BFB002862
:1020A00000F027822368BA4A934200F077822368BF
:1020B000B84A934200F080822368B74A934200F006
:1020C000CB82B149B54805F0E7FA69E64FF0010067
:1020D00040EC40100132D2B262757EE65B68DB04F0
:1020E000A3D4D6E6DAF81C14AD4805F0D5FADAF830
:1020F0002454002D00F09F80DAF800300493002B68
:1021000000F09980DAF82824032A40F2B7820023ED
:1021100003219C460591DFF89CE2A249934280F09E
:10212000B0805C1E2C4414F8010F0938C0B2172887
:1021300000F2A78021FA00F0C00740F1A28001332D
:102140009A42F0D11046031D9A42C0F09F802C188D
:1021500064782E5C1EF804401EF80660270902947D
:10216000C41C15F804900394049C47EA8607861C57
:1021700015F8068004F80C70AF5D1EF808803D2F3E
:102180001EF809600CF1010900F0D9802746029C75
:102190000CF1020C240144EA980407F80940039C5E
:1021A0002C5D3D2C05D046EA881607F80C60DDF85A
:1021B00014C008308242C0F0C7800CF10300B0F5B3
:1021C000001F0590AAD99A42644600F2C080CAF85E
:1021D0000440DAF80830043C9C4228BF1C46DAF878
:1021E000001025460E68002C00F023824FF0FF33CC
:1021F00003316D4C4F1911F8012F82EA030000F0F2
:102200000F0054F82000B94280EA131080EA12133C
:1022100003F00F0354F8233083EA1013EBD1DC43AF
:1022200031462246614805F037FAA64200F0D481D3
:102230005F4805F0B1F94FF0FF320023CAF82024BF
:10224000DAF80C208AF81434D2E90145AC42CAF815
:102250001834CAF81C34CAF80830CAF81034CAF85E
:102260002834136009D0A368002B00F02782E368AC
:10227000204610349847A542F5D100238AF82C3423
:102280008EE51846031D9A42BFF461AF9042644642
:102290004CD203460020013B013A424E2B44A91880
:1022A000119013F8015FA5F10902D2B2172A00F2CA
:1022B0000F8126FA02F2D70740F10A818B42F0D152
:1022C000A0B3042805D0C0F104023D21584419F000
:1022D0002DF9384A9DF845309DF84410D35C555C83
:1022E0009DF84660190941EA85019DF84700049D63
:1022F0003D2E2955955D04F10101125C00F0CB8162
:10230000B1F5001F00F0B181049E1B0143EA950363
:102310003D28735404F1020300F0CE81B3F5001F91
:1023200000F0A38142EA8512F2540334032CCAF868
:1023300004403FF64EAF204805F02EF97BE7083009
:102340008242CC46BFF439AF9A426446EED9B4F526
:10235000001F9FD1CAF804404FF4001439E7174812
:1023600005F01AF900234FF0FF328AF81434CAF846
:102370002024CAF81834CAF81C34CAF80830CAF83D
:102380001034CAF828340BE5E8420020081C02107B
:1023900070696E6777686F616C697374501D0210A5
:1023A000F81A02101300800024370210481B021094
:1023B000DC1B021064370210241B0210F01B0210F9
:1023C0000023C5F89030D5F8889001F029FAD5F8A7
:1023D000882005EBC909531CC9E91201594295F837
:1023E0008C0003F0070901F007014B4658BF4B4230
:1023F000002848D0093255F8320003F1090C05EBEA
:10240000C202516855F83C2005EBCC0C801ADCF870
:10241000042061EB0201002967DB50EA010232D09F
:10242000029302F061FF06EE100AF6EE007A95EDD7
:10243000257AC8EE066A37EE277A76EEA77AFCEEA2
:10244000E77ABDEEC77A17EE903A9AB217EE103AD5
:102450009342C5ED256A029B15D0D5F8A01091B125
:10246000D5F8A430ADF84420594605F198009847B6
:10247000D5F8883001335A4203F0070902F0070209
:102480004B4658BF5342C5F88830B9F1000F7FF46E
:102490006CAD95F88C30002B7FF467AD012385F887
:1024A0008C3062E58DF81C308DF824008DF84410D6
:1024B0005B466F6907A909AA05F10800B8472AE534
:1024C0002A6A002A3FF427AD00297FF424ADD0E525
:1024D0000DEB00028B4282F8445000F101003FF402
:1024E000EFAE04287FF4DDAEF3E6404261EB41013C
:1024F00096E7DAF80C20D2E90145AC42106009D029
:10250000A368002B00F0DA80E36820461034984777
:10251000A542F5D14FF0FF300125DAF80C40684BA9
:1025200007AA19682368CE18CAF8246403F5800640
:1025300003F500131944266009ABCAF80010079090
:10254000CDF800B0099011905E495F488AF82C548C
:1025500018F072FD03282AD10798099C0B281199BD
:1025600072D8002C70DD00296EDDB1F5001F00F37C
:102570009C802346CAF8084000240246CAF820047A
:1025800052488AF81454CAF81814CAF81C44CAF8F5
:102590001044CAF8284405F07FF801E42379002BA1
:1025A0007FF485AD4A4804F0F7FFFFF7F9BB4948CF
:1025B00004F0F2FFFFF7F4BB46F66D12464B1988A4
:1025C00091427FF479AD9B78002B7FF475AD434841
:1025D00004F0E2FFFFF7E4BB414804F0DDFF414AAD
:1025E000DAF82034202109A804F014FD09A93E4896
:1025F00005F052F8594640F202533C4809AADAF86D
:1026000000400EF083F80146B0B959462B463748D2
:10261000221D0EF0ADF9011E3FDB594633480EF086
:1026200081F8014630BB2A4609A9314805F034F843
:1026300001E64FF0FF33F2E52E4805F02DF809A929
:102640002D4805F029F8F6E50B46224601462B48B1
:1026500005F022F8FFF7A4BB2379002B7FF431ADFE
:102660002748FEF749FFFFF79BBB4FF40013CAF85A
:10267000043071E6234805F00FF8E0E742B9CAF8E4
:10268000042058E659460430FFF7DEF8FFF7C0BAD9
:1026900000242346FEE50C4648E61B4804F0FCFFF8
:1026A000594612480EF03EF8C9E74FF40012174899
:1026B00004F0F2FFFFF774BB1C4637E60FF0E0FAB8
:1026C00014280020201C0210FC420020541C021080
:1026D000281D0210D41C0210EC420020381D0210EC
:1026E000781B0210741A0210841B0210643200203E
:1026F0009C1B021060180210BC1B02109C1C0210D4
:10270000441A0210AC1802108C1802102C1C021073
:102710002DE9F84F934B944C1B68944A20685B0852
:102720001360002800F0D680914C924A2368106014
:10273000002B00F0D480904A904E1360FEF766FFA5
:102740008F4B1860FEF7DCFD8E4B35681860002D4E
:1027500000F0DA808C4B00241D6000254FF0010949
:102760008A488B4E8B4FDFF84C824660876045620B
:102770008562C5620563C0F800800473FEF7F4FD4E
:1027800085484FF47A7B4660876045628562C56202
:102790000563C0F8008080F80C904AF6444AFEF7C2
:1027A000E3FD4FF0FF31DFED7D7A7D4B7D4A1D610A
:1027B0005D615D62DD621D63DD651D665D669D6652
:1027C0005D67DFF8F4C1784DDFF8F0E177481F640A
:1027D000C3F858C09E60DE639A641A65C3ED137A2D
:1027E000C3E90044C3F83880C3F80CB0C3F81CA098
:1027F000C3F854E0D8669C6183F8284083F83440DD
:1028000083F84440A3F870400226C5E90044AC6058
:10281000C5F81044C5F8201485F81444C5F81844C8
:10282000C5F81C44C5F82444C5F8284485F82C4450
:10283000FEF7ECFE032104225D4BE860C5F824445A
:102840002C6083F8206083F8301083F840204FF02C
:10285000050C06270726082509200A210B22C3E9B3
:102860000144C3E90544C3E90944C3E90D44C3E98C
:102870001144C3E91544C3E9194483F810901C704E
:10288000DC60DC61DC62DC63DC64DC65DC6683F814
:1028900050C083F8607083F870605C6783F8805084
:1028A00083F8900083F8A01083F8B020C3E91E4499
:1028B000C3E92144C3E92544C3E92944C3E92D44BC
:1028C000C3F88C40C3F89C40C3F8AC40C3F8BC408C
:1028D000BDE8F88F012003F029F8206024E72820C4
:1028E00003F024F84FF0321500224FF480710346B4
:1028F000C0E90022C0E90222C0E90452C0E9062270
:10290000C0E90812206016E7B02003F00FF8002499
:102910000546C0E90044C0E90244C0E90444C0E9F6
:102920000644C0E90844C0E90A44C0E90C44C0E9CF
:102930000E44C0E9104440222146483018F0F6FD0C
:102940000023C5E92244C5E927443560C5F8904015
:10295000C5F89840C5F89430C5F8A44085F8A8405B
:10296000F8E600BF18280020D43D00206032002087
:1029700018420020CC3D0020144200205C42002080
:10298000A4420020E03B00205842002024420020C6
:1029900000007A44F4FD343FDC3D00205652003CF8
:1029A0001C3D00205652803BD842002000409C46EF
:1029B000A031002000803B473FBB543F565CE8BF3E
:1029C00010B44FF480740C4B53F8202003EB8003B9
:1029D000C00082F0400200F1804003F5805C02F00C
:1029E000C00200F5203003F54053CCF800204160D0
:1029F0001C605DF8044B70470480034010B4084C21
:102A0000C90041EA820154F8202004EB80035140C0
:102A100003F5805301F00C015DF8044B1960704719
:102A200004800340064B402203EB800319B103F5F9
:102A300000531A60704703F540531A60704700BF97
:102A40000480034030B44FF0000343EC440043ECF7
:102A5000400005254FF480740B4BC20053F8201042
:102A600003EB800081F0400102F1804303F5203345
:102A700001F0C00200F5805100F540500A605D6031
:102A8000046030BC704700BF048003400FB400B541
:102A900083B0049C074804F07FFD3CB105A92046A3
:102AA000019104F005FB044804F076FD012004F0D8
:102AB00017FB00BF681D0210981C0210EFF3108076
:102AC00072B6064BD3E8CF1F01220029FAD1C3E822
:102AD000412F0029F6D1BFF35F8F7047C337002025
:102AE0000023034AC2E88F3F80F31088704700BF7D
:102AF000C337002070B58646EFF3108572B6124CCE
:102B0000D4E8CF6F0120002EFAD1C4E8460F002E82
:102B1000F6D1BFF35F8F4FF0010CC80801F0070337
:102B20000CFA03F31EF800C01CEA030608D14CEAB5
:102B3000030C0EF800C0C4E88F6F85F3108870BDD9
:102B40001046FFF7A3FF00BFC3370020F8B5EFF32F
:102B5000108772B61C4ED6E8CF5F0124002DFAD143
:102B6000C6E8454F002DF6D1BFF35F8F9A421BD8C0
:102B7000012502E00132934222D3D40810F804E088
:102B800002F0070C05FA0CFC1EEA0C0FF2D14EEA1B
:102B90000C0E00F804E010460023C6E88F3F87F3D0
:102BA0001088984207DBF8BD0023C6E88F3F87F303
:102BB00010884FF0FF300029F5D00698FFF766FF28
:102BC0004FF0FF30E8E700BFC3370020044A107819
:102BD000431CDBB2182B28BF10231370704700BFB3
:102BE0001C28002010B5054C82B001461F23182276
:102BF00000940348FFF7AAFF02B010BD781D021031
:102C0000EC3C00204FF0E022936843F000539360C7
:102C1000704700BF0021044B03F12002C3E88F1F5F
:102C200001339342FAD17047B83700204FF0E023C8
:102C30004FF08032C3F80024C3F80424C3F80824FA
:102C4000C3F80C24C3F81024C3F81424C3F81824C0
:102C5000C3F81C24C3F82024C3F82424C3F8282470
:102C6000C3F82C24C3F83024704700BF012300F0C0
:102C70001F029340400941B1800000F1604000F51F
:102C80006140C0F8803103607047024A203042F84A
:102C90002030704700E100E00123064A410952F864
:102CA000212000F01F0003FA00F01040003818BF88
:102CB0000120704700E100E001224309034900F0D0
:102CC0001F008240403341F82320704700E100E0BC
:102CD000054A10309268054B52F82000C01A2F2880
:102CE0008CBF00200120704700ED00E0202800206C
:102CF000F8B50D46EFF3108772B6124ED6E8CF2F17
:102D00000123002AFAD1C6E8423F002AF6D1BFF3D8
:102D10005F8F0D4B00F110049B680C4A53F8243070
:102D2000934203D0994201D001F09AF9064B9B6877
:102D300043F82450BFF35F8F0023C6E88F3F87F32B
:102D40001088F8BDC137002000ED00E01D01001023
:102D50002DE9F04F81468B46164683B0EFF3108382
:102D600072B6DFF8D0A10093DAE8CF1F0123002963
:102D7000FAD1CAE8413F0029F6D1BFF35F8F664B15
:102D800093F90040002CC0F2A080644D04EB44078E
:102D900005EB870898F8061009F110091970604BC7
:102DA000BF009B6853F829006300411B2F292FD9CE
:102DB0005C49884240F0A4801C445B4B02372F449E
:102DC000043BDB1BC3F34A036FEAC3434FF42141C7
:102DD0006FEAD34325F8241005EB840463804BF697
:102DE0000153A380FF2348F00100E671C4F808B046
:102DF000A3714B4B9B6843F82900BFF35F8F0023FF
:102E0000CAE88F3F009B83F3108803B0BDE8F08FC2
:102E100020F0010E9EF80710B1422ED84FF4214346
:102E2000EB53414BB91C2944043B04375B1A2F4434
:102E3000AEF10401C91BC1F34A043C49C3F34A0380
:102E40000B432143A8F804103949A8F802304AF688
:102E5000AA2073465B1B5B415843000D88F807604E
:102E600088F80600C8F808B048F00100CEF8001055
:102E7000BFE7D179B1422ED996469EF906C00CEB38
:102E80004C02BCF1000F05EB8202F2DA4BF6015165
:102E90000EF10402A8F10407BF1AC7F34A076FEA4C
:102EA000C7476FEAD7478EF8064003EB0408204C6B
:102EB00005EB8803AEF8047045F82840998083F844
:102EC00006C0DE71C3F808B093E701F0C9F8124BF1
:102ED00093F9004059E7724632F8041F490514D4AB
:102EE0004915023102EB410101916FF00701C91B45
:102EF000019F491B3944C1F34A0141F46041C9E7CC
:102F0000019301F0ADF8019B56E701F5FF1101F5C2
:102F1000FF511F31E4E700BF0D47002020280020AB
:102F200000ED00E01D0100105028002000E0FFFF30
:102F300001488047C1370020F0B5EFF30585EDB2B9
:102F4000EFF3108C72B62649D1E8CF2F0123002A67
:102F5000FAD1C1E8423F002AF6D1BFF35F8F214E7C
:102F600040F0010EB4684AF6AA2354F825701E4AB0
:102F70000446A41A644163431B0D77455BB21BD022
:102F800092F906409C421CD092F912409C4223D0F8
:102F900092F91E409C4221D092F92A409C4208BFDF
:102FA00003240FD0114A0024157813708571C1E8ED
:102FB0008F4F8CF31088F0BDB2680D4C42F825405D
:102FC000F0E7002404EB440402EB8402FF24947134
:102FD0004BF601549480E5E70124F3E70224F1E77E
:102FE000C137002000ED00E0202800200D47002020
:102FF0001D01001010B5074C82B0014605230022C8
:1030000000940548FFF7A2FD0028A8BFC0F13300D7
:1030100002B010BD941D021011470020014B0B445B
:1030200003607047B837002070B5104C104DAC42AB
:103030000ED2FF26236863B1FFF7C8FD0146204684
:10304000FFF7ECFFA680BFF35F8F0834AC42F1D3EB
:1030500070BDFFF7BBFD01462046FFF7DFFF26717D
:10306000BFF35F8F0834AC42E4D370BD9C2F0020C7
:10307000AC2F002010B50446FFF7A8FD01462046FE
:10308000FFF7CCFFFF232371BFF35F8F10BD00BF9D
:1030900010B504460120FFF7A5FD034B0344236050
:1030A000BFF35F8F10BD00BFB8370020024B0B4449
:1030B0000360BFF35F8F7047B83700200D4B1A686D
:1030C000EFF3108172B6D2E8CFCF0120BCF1000F30
:1030D000F9D1C2E84C0FBCF1000FF4D1BFF35F8F00
:1030E00000221B68C3E88F2F81F3108840BF0020A7
:1030F00000217047B44200202DE9F04F2DED028BE6
:1031000085B0EFF30583DBB2103B9A0818BF0122AC
:103110004FF0010103F0030B18BFAF4DAF4B08BFD9
:10312000AF4D0BEB820253F8226001FA0BF205F56A
:1031300041539FEDA78B01925A602FE0B3881C0486
:1031400040F19380B379002B40F0DD80B6F9082080
:10315000002AC0F21E81736902EB420203EBC20334
:10316000D3E90247B7F1FF3F08BFB4F1FF3F0ED0EC
:1031700005EB8B01AB6A0A69D21AE31A934205D3B5
:1031800001232A6A03FA0BF3134200D10C6128468B
:1031900000F03EFBA042B941C0F2FB80B6F9083016
:1031A000019A002B0093EA63C8DBD6F8148003EB86
:1031B0004309284608EBC907D7E9024A00F028FB73
:1031C000A04271EB0A01B9DBBAF1000FC0F2C38073
:1031D000D7E90431834A934200F0ED807A88B6F94A
:1031E000080092B242EA0040984702460B4652EA73
:1031F000030100F0B080002B80F2D180B4EB020E0E
:103200006AEB030A38F93930C7E902EA002B95DB8B
:10321000716903EB430201EBC202D2E90270BE45C1
:103220007AEB000C4FEA430288DBB4462CF8083FE7
:1032300006E003EB430001EBC0005A00D0E9027046
:10324000BE451A447AEB000001EBC20404DB31F9FD
:103250003230A446002BECDA28F83930009BACF869
:103260000030B3881C043FF56DAF3369EFF3108273
:1032700072B6D3E8CF0F01210028FAD1C3E8401F6E
:103280000028F6D1BFF35F8F4FF6FF74B08800239C
:10329000316900B2B480C1E88F3F82F31088984250
:1032A000FFF650AF0746A946746906F1080807EB18
:1032B000470E04EBCE03D3E90250B6F90830C446FA
:1032C000002B13DBB246009704E034F93630944605
:1032D000002B09DB03EB430604EBC602D2E90271C3
:1032E000BD4270EB0101F0DA5646009FACF8007069
:1032F00034F93E7024F83E30002FD8DAB3794D46C9
:10330000002B3FF423AF0023B371B6F9083006F168
:103310000808581C3DD01A46776903E08046591CBE
:103320003FF416AF03EB430107EBC100B0F802C056
:103330001C461CF4004F9E4637F93130EED09442C3
:1033400080ED028B05D0A8F80030328927F83120B3
:1033500034817246E3E738F8393033813369EFF36B
:10336000108272B6D3E8CF0F01210028FAD1C3E84A
:10337000401F0028F6D1BFF35F8F7388316928F8AA
:103380003930009B73800023C1E88F3F82F310889F
:10339000D4E640BF05B0BDEC028BBDE8F08F2846F7
:1033A000CDE9022300F034FA029A039B10EB020EDF
:1033B00043EB010A26E708460B690291984700286B
:1033C000C9D00299D1E9002311E700BFAFF3008013
:1033D000FFFFFFFFFFFFFFFF00800B408442002044
:1033E00000000B40F93000102DE9F84F364C2569EC
:1033F0002DB1BDE8F84F0A213448FFF70FBEDFF8C2
:10340000E4800321404600F0F1F90326C4F80C8063
:10341000FFF7DCFB4FF0504C2D4B2670034423612B
:10342000DCF800300F216370636961801D834FF009
:103430000405A3F878504FF00505A3F890504FF01D
:103440000605A3F8A8504FF007050E214FF6FF72AE
:1034500008274FF00A0EA3F8C0504FF001094FF0B3
:103460000C0C4FF0020B4FF0090A0D204FF00B052A
:10347000A3F868111749A280A3F808E1A160A3F896
:1034800048B0A3F8F0A0A3F82051A3F838C1A3F8DE
:103490005001A3F83090A3F86060A3F8D8701A80A8
:1034A0000D4B3046C8F820700C49DC60FFF720FC5B
:1034B00049463046FFF7DAFB094B0A211F640348EF
:1034C000BDE8F84FFFF7AABD68280020B4420020ED
:1034D000B8370020FFFF100084420020F9300010B0
:1034E00000200B4000000B40004870476828002077
:1034F000F8B59DF82050044617461E4635B900F031
:103500008FF9874266EB010100295CDB2169EFF34B
:10351000108372B6D1E8CF0F01220028FAD1C1E89A
:10352000402F0028F6D1BFF35F8FB4F90220656900
:1035300002EB4201002A4FEAC10C206905EBC101F0
:1035400039DB35F80CE0A4F802E04FF0000EC0E8DB
:103550008FEF83F310884888069B0130C0F30E007C
:10356000012838BF01200B61079B48804B61C1E9EE
:10357000027640EA02402369EFF3108172B6D3E885
:10358000CF7F0126002FFAD1C3E8476F002FF6D175
:10359000BFF35F8FA38825F80C30A2802369C3E8AE
:1035A0008FEF81F310880122E368217803F501533E
:1035B0008A405A60F8BD0022C0E88F2F83F310883C
:1035C0004FF0FF30F8BD2846F8BD00BF0146F0B50A
:1035D0000069EFF3108772B6D0E8CF5F0124002DA9
:1035E000FAD1C0E8454F002DF6D1BFF35F8FB1F996
:1035F00002E04C690EEB4E0CBEF1000F4FEACC0519
:10360000086904EBCC0C3CDB665B4E800026C0E80E
:103610008F6F87F31088BCF80200CCE902230130D9
:10362000C0F30E00012838BF0120059BACF8020052
:10363000CCF81030069B40EA0E40CCF814300B69F1
:10364000EFF3108272B6D3E8CFCF0127BCF1000FA1
:10365000F9D1C3E84C7FBCF1000FF4D1BFF35F8F09
:103660008B886353A1F804E00B69C3E88F6F82F382
:1036700010880122CB68097803F501538A405A600B
:10368000F0BD0023C0E88F3F87F310884FF0FF3074
:10369000F0BD00BF03464089B0EB214F37DD5869CC
:1036A0000A1402EB420210B500EBC2001C69EFF3F2
:1036B000108C72B6D4E8CFEF0122BEF1000FF9D121
:1036C000C4E84E2FBEF1000FF4D1BFF35F8F4288E4
:1036D00089B292B28A4207D000221B69C3E88F2FB9
:1036E0008CF31088002010BD42F40042428001217A
:1036F000002218699971C0E88F2F8CF310881C780C
:10370000DA68084602F50153A140596010BD002057
:10371000704700BF407870472DE9F04306460D46DC
:1037200083B0EFF30584E4B23CB12D4B5A6AAA4250
:103730001CD2002003B0BDE8F0832A4FD7F80C90CC
:1037400097F80080484600F063F808F1040859F83B
:1037500028301B1A301A65EB0101984271F1000103
:1037600010DB20BF1E4B5A6AAA42E2D314BF0124C9
:1037700000249B6AB34234BF204644F0010003B0EA
:10378000BDE8F08300F04CF8864265EB01010029AA
:1037900014DB154B3846CDE9003432462B46FFF793
:1037A00015FF011E0ADD0E4B5A6AAA4216D39B6A08
:1037B000B34211D30B48FFF76DFFB6E7084B5C6AC5
:1037C000AC42B6D3641B18BF01249B6AB34234BF1A
:1037D000204644F00100ADE7AA42EBD120BFE9E763
:1037E00000000B4068280020BD30001010B4054BCD
:1037F000054C064AA04214BF1846581C5DF8044BFD
:10380000FFF778B9F03C002000800B40B01D02109B
:103810000346416A0A46986A596A8A42FAD1704751
:10382000034B596A0A46986A596A9142FAD170471D
:1038300000000B4030B4154A536A9C46946A536AA0
:103840006345FAD1021959414FF0000528BF0125FF
:103850000E4B5B6AB5B15A1C08BF1A4608D04FF030
:10386000FF310A460948436A8B42FCD38B4207D199
:10387000064902E0486A984202D1886A9042F9D328
:1038800030BC70479942EDD8F0E700BF00000B4014
:10389000F8B5054606200E4600F048F9002842D04B
:1038A000354A3648954214BF4FF080624FF00062AF
:1038B000334B344902601A608C6832EA0404FBD14D
:1038C0002D4B4FF48071EB1AB3FA83F32E4A5B0948
:1038D000062022F8131000F029F9C300B3FBF6F319
:1038E0000133DA0920D1402601216962AA622F6BD7
:1038F000FB0722D42B46002253F82C1F062003F589
:10390000805422602F6300F011F940F2013103224C
:103910008000B0FBF6F0EB6A83F0700303F07E03E7
:1039200023602963AA64F8BD4FF6FE718A421BD951
:1039300022464FF6FF71154ED7E740F2013205F5EA
:1039400040531A636B6AAC6A062004EB831400F0E0
:10395000EDF80F4BA402A3FB0023DB0A0021B4FB0C
:10396000F3F0FFF767FFC5E7C3F34503114603EB29
:1039700082161A46B9E700BF0080074000200240C7
:103980000030024000000240C0420020C0FF3F0063
:10399000757B2B8F013A0539D200F8B5054642EA0E
:1039A000411443B1A3F10103B3FA83F35B0944EA81
:1039B000830343F002042E6BF3070AD42B4653F81B
:1039C0002C2F624002F06E0203F580531A602E63C2
:1039D000F8BD40F2013205F540531A636B6AAF6AD5
:1039E000062007EB831700F0A1F8054BBF02A3FBED
:1039F0000030C00A0021B7FBF0F0FFF71BFFDDE746
:103A0000757B2B8FF8B5066B0546F3074FEA01145B
:103A10000AD42B4653F82C2F544004F0100403F51D
:103A200080531C602E63F8BD40F2013200F5405314
:103A30001A636B6AAF6A062007EB831700F076F80B
:103A4000054BBF02A3FB0030C00A0021B7FBF0F01A
:103A5000FFF7F0FEDDE700BF757B2B8F00EB400C1E
:103A60004FEA8C0C0CF1804C0CF5803CF0B51646FE
:103A7000DCF80420051FB2F5803F38BF4FF48032D8
:103A8000EDB238BFCCF80420012D2AD94FF40067DD
:103A9000254C0CF54052176054F82020B2B9DCF8E0
:103AA0000020012D82EA461202F0E0020CF5805659
:103AB00032602AD94FF4006144F820304FF480334B
:103AC0000CF500521160CCF80430F0BD6769B7FB0B
:103AD000F2FE0EF1010E0EEB4E0EBEF1030EFCD205
:103AE000DDE70129D2D103240CF540521460DCF843
:103AF0000820D207FBD5DCF800200B4C82EA4612E6
:103B000002F0E0020CF5805632600122DCF8005031
:103B10004D4005F00305356002FA01F1DCF808209C
:103B20000A42FBD0C6E700BFF43C0020014B53F82B
:103B300020007047F43C0020584B2DE9F0431C6CEA
:103B40001746B4F5803F38BF4FF4803283B038BF9A
:103B50001A64032280460E46514B504DDA636C6C5A
:103B6000E307FCD5EB6B4F4A83F0200303F0E0033F
:103B7000D363EB6B494D83F0010303F00303D3637D
:103B80006C6CA407FCD54FF400624FF48039464BAF
:103B9000464CDA63464B4246636101213346C5F821
:103BA00040904448009700F057F94FF400616B6B68
:103BB00007FB06F64B4538BFC5F83490384B2269F1
:103BC000B8FBF6F619633AB16369B3FBF2F301335C
:103BD00003EB4303033BFDD23049324A0B6B03F046
:103BE000E00313630B6B83F0020303F0030313631F
:103BF0008B6B5807FCD54FF400654FF480332A4A8D
:103C000015632D4A4B6322610A6C9A424FF00302FE
:103C100038BF0B64224B2149DA634B6CDA07FCD5C1
:103C2000CB6B204A03F0E003D363CB6B1B4983F0DB
:103C3000010303F00303D3634B6C9B07FCD54FF4E4
:103C400080334FF40065184A6661D5630B64CA6C13
:103C50009A4238BFCB644FF40061114BA26999645A
:103C60003AB16369B3FBF2F3013303EB4303033B64
:103C7000FDD24FF400604FF48031084A094D936C37
:103C800083F0400303F0E003AB64074B084DA561EC
:103C90009864D16403B0BDE8F08300BF0000014028
:103CA000003001400010014000200140F43C0020A1
:103CB000006CDC0200000540001BB7002DE9F04F4E
:103CC0004FF4A078994685B0CDE902125F4CDFF839
:103CD00084A154450AD908F1FF38A4F53B54B8F142
:103CE0000F0FA4F12004F4D1002069E0072304F5AC
:103CF0003722019403FB03F402F5D872B2FBF4FE01
:103D000070454FF0010C4FF002074FF003064FF0E3
:103D100004054FF005013FD0B3F1010E00F094808F
:103D20000EFB03F4B2FBF4FB58454CD019B301FB76
:103D300003F4B2FBF4FB58454FD0E5B105FB03F4A7
:103D4000B2FBF4FB584553D0AEB106FB03F4B2FB13
:103D5000F4FB584557D077B107FB03F4B2FBF4FBF3
:103D600058455BD0BCF1000F05D00CFB03F4B2FB4F
:103D7000F4FB83455DD0734603FB03F4B2FBF4FE12
:103D8000704501F1FF3105F1FF3506F1FF3607F10E
:103D9000FF370CF1FF3CBFD104FB1024002CBBD13A
:103DA0009E464A46DDF808B0DDF80C90012028490F
:103DB00001FB08F1CBF80010C9F80030C2F800E0B0
:103DC00005B0BDE8F08F04FB1024002CAED14A46AC
:103DD000DDF808B0DDF80C90E8E704FB1024002CB7
:103DE000ABD14A468E46DDF808B0DDF80C90DDE731
:103DF00004FB1024002CA7D14A46AE46DDF808B0DB
:103E0000DDF80C90D2E704FB1024002CA3D14A4625
:103E1000B646DDF808B0DDF80C90C7E704FB1024C7
:103E2000002C9FD14A46BE46DDF808B0DDF80C9064
:103E3000BCE704FB1024002C9DD14A46E646DDF881
:103E400008B0DDF80C90B1E7019C44E750262F0044
:103E5000001BB70050F80C0070B4039D04682D03DC
:103E600045EA03451B4B002CB3FBF1F3B2FBF3F621
:103E70001FDB194A194B904214BF4FF480424FF494
:103E80000042174C1A6003F580531A60A36832EAA7
:103E90000303FBD1212200F5405304330160866007
:103EA0001A600268002AFCDA0822C5601A6070BC39
:103EB0007047036803F03F038B42DAD18368C3F392
:103EC0000B03B342D5D1C36803F4EE23AB42D0D188
:103ED000EDE700BF001BB700008005400020024056
:103EE0000000024030B44FF080441C4B1C60E0B135
:103EF0001B4CA3F54053DC611A4C40F001004440D8
:103F00001C62596298624FF080454FF0E061134B9C
:103F10001548164C1D60846019604AB930BC4FF0DA
:103F20000042A3F580531A607047114BD861EAE74D
:103F30004FF47A7303FB02F2B2F1807F2ABF6FF075
:103F40007F4313461A464FF080410A4C08482360CD
:103F5000094B426030BC1960704700BF00B00D4093
:103F6000D3C007B02D3FF84F00A00140F3FFFF0181
:103F700000800D402042002000A00D40012300EBF6
:103F80004000800000F1804000F584104160036033
:103F9000704700BF002370B5DB8A04460D4600223F
:103FA00042E800F2520254BF1021042144F2522090
:103FB000984786462B462246F446BDE870400A21C3
:103FC0004FF48170604700BF0023DB8A002242E883
:103FD00000F2520201D4102118470421184700BFF3
:103FE00008B503460846191E02DB1AB140F030003E
:103FF000FFF7D0FF40F02000FAE700BF034AD2F8F5
:104000002838002BFBD0BFF35F8F704700000E40B5
:104010000021044B044ABFF35F8F43F8041B934213
:10402000F9D170470C080E402C080E4010B44FF424
:104030008D704FF42A64064A064B07491460D0601D
:1040400019605368002BFCDA5DF8044B704700BF21
:104050000080044000A0044000B0FA00704700BF98
:1040600008B50148FEF712FDD41D021038B5054C05
:10407000054DAC4204D254F8043B9847AC42FAD305
:1040800038BD00BF281702106817021038B5054C5C
:10409000054DAC4204D254F8043B9847AC42FAD3E5
:1040A00038BD00BF541702106817021010B407483B
:1040B000074C084B084A094904601A608B6832EAC9
:1040C0000303FBD15DF8044B704700BF00200240A2
:1040D0007F3BEFEF00300240F6FFF30300000240A9
:1040E000044BDB6CB3F5004F03D14FF48022024B3D
:1040F000DA64704700001150002011504FF0E022A8
:10410000044BD2F8881D0B43C2F8883D10EE3004F2
:10411000704700BF030330006FF06041044B054A55
:1041200019609368DB4333F06043FAD1704700BFF6
:10413000003002400000024010B545F25320FFF766
:1041400043FFBDE8104003460420184710B545F270
:104150005320FFF739FFBDE8104003460120184700
:10416000FEF758BD10B5054B054C4FF48872184644
:10417000A16817F07BFDA06010BD00BF000000200B
:1041800000ED00E0002370B52B4C82B0C4F8843001
:10419000FFF74CFF0122294BDA63636C012BFCD142
:1041A0000321264A244B11639C6B012CFCD102266F
:1041B000052521460523224A22480096FFF74CFE9A
:1041C00021462B46204A21480095FFF745FE002254
:1041D000042031461E4BFFF741FC214628460022B1
:1041E0001C4BFFF73BFC0022082011461A4BFFF73F
:1041F00035FC002209201146174BFFF72FFC002247
:1042000006201146134BFFF729FC0022114B072013
:104210001146FFF723FC0420FFF788FC00240F4B16
:10422000A3FB0035AD0CE0B229460134FFF7A6FE32
:10423000062CF8D102B070BD0000014000300140F2
:10424000002F685900000540008C8647008005401B
:10425000001BB70080D1F008006CDC0283DE1B433A
:1042600086B003B451FC0804CDE9020151FC0904F5
:10427000CDE9040151EC0A04CDE9060103BCF04785
:10428000BDE800504EEC00C4BDE800504EEC01C447
:10429000BDE800504EEC02C400BD000000B5FFF7C1
:1042A000DFFF02E010FE30F4F8D441EC100443ECE0
:1042B000112400EE010410EE010480EE200451EC04
:1042C0001004704700B5FFF7CBFF02E010FE30F49A
:1042D000F8D441EC100443EC112400EE010410EE7C
:1042E000210480EE200451EC3004704700B5FFF744
:1042F000B7FF02E010FE30F4F8D410B541EC100422
:1043000043EC112451EC040453EC0524A0FB024CB3
:104310005FF0000EE0FB03CEE1FB02CE4CEC20444C
:104320000024E1FB03E444EC30E480EE200451EC93
:104330005004BDE81040704700B5FFF791FF02E060
:1043400010FE30F4F8D441EC100443EC112451EC8D
:104350002104A0FB01126FEA820252FB100052FB03
:1043600012F252FB1000A0EBD07C53EC04245CFB57
:1043700013F153EC1524A1FB022001FB030053ECC5
:104380004424A2EB000050FB1CF24FEA111312EB85
:10439000017043EBE27140EA515020EA915020F065
:1043A000070053EC7524A0FB023C53EC752400FB82
:1043B00003CC01FB02CC53EC0424ACEB824C40EA6E
:1043C0005C70A0F1010041EC400480EE200451EC4F
:1043D0007004704700B5FFF743FF02E010FE30F4B1
:1043E000F8D441EC100480EE220410EEB2047047C1
:1043F00000B5FFF735FF02E010FE30F4F8D440ECD2
:10440000700400EE010410EE210480EE200451EC53
:104410003004704700B5FFF723FF02E010FE30F4D0
:10442000F8D440EC600400EE010410EE210480EEAC
:10443000200451EC3004704700B5FFF711FF02E093
:1044400010FE30F4F8D441EC800400EE010410EECC
:10445000010480EE400410EE1304704700B5FFF72E
:10446000FFFE02E010FE30F4F8D441EC800400EED0
:10447000010410EE010480EE400410EE3304704796
:1044800000B5FFF7EDFE02E010FE30F4F8D441EC89
:10449000100443EC112400EE010410EE3004C0F3CC
:1044A0000070704700B5FFF7DBFE02E010FE30F44D
:1044B000F8D441EC100443EC112400EE010410EE9A
:1044C0003004C0F38070704700B5FFF7C9FE02E00A
:1044D00010FE30F4F8D443EC102441EC110400EE4B
:1044E000010410EE30F48CBF01200020704700BFA3
:1044F00000B5FFF7B5FE02E010FE30F4F8D443EC4F
:10450000102441EC110400EE010410EE30F42CBF35
:1045100001200020704700BF00B5FFF7A1FE02E0B8
:1045200010FE30F4F8D441EC100443EC112400EEFA
:10453000010410EE30F42CBF01200020704700BFB2
:1045400000B5FFF78DFE02E010FE30F4F8D441EC28
:10455000100443EC112400EE010410EE30F48CBF83
:1045600001200020704700BF404261EB410140F252
:10457000F334B1FA81F20C2A0CD2153211FA02F39B
:10458000C2F12002D04021FA02F12244584141EB0D
:104590000251704769B1C2F12B0230FA02F3C2F145
:1045A0002002914090401943A4EB020201EB02511A
:1045B000704701004FF00000A4F12004D9D17047EA
:1045C000012767F31F5117FA03F817D0A0FB08075C
:1045D00001FB0871A1FB06785FEAD8469219A6FB99
:1045E000047806FB0588090351EA1051D7EB003027
:1045F00061EB0801A94238BF70470BE00C3301277B
:1046000017FA03F80FD0A0FB080701FB0871A942B5
:1046100038BF704708BFA04238BF7047001B61EB2E
:1046200005010132704703F1200311FA03F6D3F1BB
:104630002003D840D94030437047000000000000FC
:10464000000000000453B1086018850FC8E5F22A85
:104650006E07271E0D12B2210412572F12557CBC73
:10466000DA30723F17A717A55531994E9D0DBF0A35
:10467000EEE0AB5FE3EF6D9C7636AD6F697BCCE32C
:104680003D62BD7EF0810682F3FA428F37D5B78A4C
:104690005313C89E7FABB320491570AF00000000D4
:1046A00000000000025E88155580FF00907806B17A
:1046B000A602FE01DC4E21F0EB88FB027A7C801F13
:1046C0001615F8033C5DA9D110A9F304AA466CF5B0
:1046D000C146EE05FF65E4EB09F0E70613C00C9E4A
:1046E000C3A6E007E1BFEC91C46CD808D5AF5EFF6C
:1046F000DC43CF09466A72E4D72DC50A237E6E19C2
:104700007B2CBA0BBFF571648741AE0C61DFB88CAE
:10471000B86EA10D09A9856DC5B5930E3153B108C9
:104720006018850F3071E498359875105915550546
:1047300080FF0F0009C3EB8F80FB2F00B1910E9A11
:1047400082F34F001FE7FD2287E76F00C3A09A297D
:104750008FD78F004F4366AC9BC3AF00412A83A91C
:10476000ADABCF004FB7B41EC68FEF00B6815F0967
:10477000E66F0F01678589660E4C2F011A52DA32F7
:1047800040244F01483A9B6A7CF86E01FF81B709CB
:10479000C4C88E019C8DBC0B1895AE017010DA6BED
:1047A000795DCE013A3BE224E921EE01387395337D
:1047B000427FECA03114FAF5BD8689916B02FAE6CE
:1047C000E0F29183E682120713A85177212621682F
:1047D0006AB2736A9D0DBF0AEEE0AB5F19B4E0B731
:1047E0001CB66A549596E53DEF07A548D1CBE55533
:1047F000DC0E4E3CCE68ADE839B5A432CB3CFA961F
:10480000D9569A28C9B21CA1F9FCAE21864B6BE59A
:104810008AD2F0160453B1086018850F02C00C9EAE
:10482000C3A6E0070000000000000000AC79CFD173
:10483000F71772B1293BAAB84FEAC12040F00040F7
:10484000490043F1200340F20001C3F6F071C3F1C7
:104850000B0320FA03F038BF7047404261F10001BA
:1048600070475FEAD17CC1F30A53A3F2FF330C2BEC
:1048700062DA13F1200FDFDD2DE9F0413C4C70CC02
:104880004FF00002FFF79CFE1CF0010F04D06FEA0E
:104890000202201A65EB010102F2FE3C40F2FE73B7
:1048A0009C455CD20A0F334B03EBC2030CCB02F0E6
:1048B0003F0545F04005801A99410A0E2E4B03EB47
:1048C000C20318CB02F580725543C01AA1414A0DAC
:1048D0002A4B03EBC20318CB124402F5805205FBAE
:1048E0000255C01AA1418A0252EA905242F10002D6
:1048F00082FB02345B0D53EAC423C01841EB5451D0
:1049000084FB02344FF0553383FB043454FB11F322
:1049100004EB930410EB440241EBE473E900A1FBC8
:104920000240C1FB0301400A50EBC1504FEA512144
:1049300051EB0C51BDE8F081B3F5806F07D150EA1F
:1049400001320CBF21EAE17141F4002170470020DF
:1049500000211CF0010F08BFC7F6F07170474FF03F
:1049600000004FF00001A8BFC7F6F071BDE8F0816C
:104970002C4800103C4600109C4600102C470010AC
:1049800040F20001CFF6F0710020704750EA01328A
:1049900018BF41F4002170477FEAA65540F0198105
:1049A0004FF4805420E18CEA11331B0640F0EE8076
:1049B000BCF1000F67D1C90451EA5031C004B1FA0B
:1049C00081F4202C4BD20125A540A0FB052301FB3F
:1049D0000533A0FB03C5A1FB02C6E1FB6356B2EBA6
:1049E000152263F10003B2EB066273EB1623A0FB02
:1049F00006C7A1FB05C8E1FB66784FF05535A7FB5C
:104A000005C65FF0000CE8FB056C16EB0C064CF1DC
:104A1000000C12EB963243F1000312EB8C4243EB95
:104A20009C3358FB11F55FF0333755FB11F656FBFD
:104A300017F8A5EB581756FB11F5C2F6802656FB62
:104A400015F507EB1537B2EB472063EBD751C4F5EB
:104A50008064A4F11504FFF78CFDBDE8F081B0FA85
:104A600080F410FA04F1A0FB01234FF00000B0EB3A
:104A7000132061F10001C4F58064A4F13504FFF74F
:104A800078FDBDE8F081890451EA9031800440420C
:104A900061EB4101B1FA81F4202C4ED2013C012599
:104AA000A540A0FB052301FB0533A0FB03C5A1FB2B
:104AB00002C6E1FB635612EB152243F1000312EB31
:104AC000066253EB1623A0FB06C7A1FB05C8E1FB5A
:104AD00066784FF05535A7FB05C65FF0000CE8FB84
:104AE000056C16EB0C064CF1000C12EB963243F100
:104AF000000312EB8C4243EB9C3358FB11F55FF043
:104B0000333755FB11F656FB17F805EB581756FBD4
:104B100011F5C2F6802656FB15F507EB153712EB9B
:104B2000472043EBD751C4F58064A4F11504FFF787
:104B300020FD41F00041BDE8F081B0FA80F410FAA8
:104B400004F1A0FB01234FEA1320C4F58064A4F113
:104B50003504FFF70EFD91F00041BDE8F0815FEAFA
:104B6000410CBFF40DAF5FEA5C5C3FF409AFACF2FF
:104B7000FF3CBCF5806F3FF409AF012262F31F5187
:104B80002DE9F041BCEBEC7F3FF40DAF0C0C4E4D2A
:104B900005EBC40595E80C0002F03F0505F1400562
:104BA000A5FB000605FB01616FEAE14404F01F0468
:104BB000464D05EBC40560CD521943EB060304F5E1
:104BC0008074A4FB000604FB01667FEA26643FF4C0
:104BD000E3AE3F4D05EBC40522CD521843EB050370
:104BE00041F2010505EB44046404A4FB0050C4EB4E
:104BF000C401E4FB060180EAE17481EAE175A5FBEA
:104C00000567A4FB05487F084FEA360616EB080641
:104C100047F100078C0254EA905444F10004801BD1
:104C200061EB070154FB14F555FB14F655FB15F722
:104C30004FF0553456FB14F6B6EB173610EB8600E2
:104C400041EBA671101A63EB0101224A24CA1CF140
:104C5000010C0BDDA2FB0C230024E5FB0C34121A23
:104C60008B4164F100045FF080410CE0DCF1000C4A
:104C7000A2FB0C230024E5FB0C3482184B4144F1C9
:104C800000045FF040414CB91C0013000022B1F158
:104C900000711CB91C000023B1F10071B4FA84F555
:104CA000A5F11D06A1EB0651AC4013FA05F0C5F1C4
:104CB0002005EB401C43EA401043C00A50EB44502F
:104CC00041EBD421BDE8F0812C4700109C46001038
:104CD0002C4700102C4800100022002950DA4042D6
:104CE00061EB4101C9B1B1FA81F30B3B17D4D3F1A8
:104CF000200C30FA0CFC9840994051EA0C011A44FF
:104D0000524202F2324201EB025141F0004140F2C4
:104D1000FE739A4238BF704721E011467EE003F1EE
:104D2000210310FA03FCA3F1010301FA03FCC3F110
:104D3000200320FA03F021FA03F140EA0C00A3EB70
:104D4000020202F2324214D050F1000041EB025153
:104D500041F0004140F2FE739A4238BF70474FF075
:104D60000001A8BFC7F6F0714FF0000070470021A6
:104D70007047EBD350F1000020F00100E6E700227D
:104D8000B9B1B1FA81F30B3B16D4D3F1200C30FA50
:104D90000CFC9840994051EA0C011A44524202F22C
:104DA000324201EB025140F2FE739A4238BF704723
:104DB00020E0114600F066B803F1210310FA03FC6D
:104DC000A3F1010301FA03FCC3F1200320FA03F06D
:104DD00021FA03F140EA0C00A3EB020202F2324294
:104DE00012D050F1000041EB025140F2FE739A42A2
:104DF00038BF70474FF00001A8BFC7F6F0714FF001
:104E00000000704700217047EDD350F1000020F002
:104E10000100E8E7002880F235804042B0FA80F3D4
:104E20000B3B11D4984001EB0302524202F21242B2
:104E300000EB025141F000414FF0000040F2FE73E0
:104E40009A4238BF704713E0C3F1000330FA03FC05
:104E5000C3F120029040A3EB010202F212420CEBDC
:104E6000025141F0004140F2FE739A4238BF704750
:104E70004FF00041A8BFCFF6F0714FF0000070472F
:104E80000021704760B3B0FA80F30B3B0FD4984019
:104E900001EB0302524202F2124200EB02514FF0C8
:104EA000000040F2FE739A4238BF704710E05B4248
:104EB00030FA03FCC3F120029040A3EB010202F29E
:104EC00012420CEB025140F2FE739A4238BF704717
:104ED0004FF00001A8BFC7F6F0714FF00000704717
:104EE000002170470022A2F232425FEA215CACF15D
:104EF0000103A1EB03515B0513F5800F32D212EBD6
:104F0000535210D40B2A36DA9140D2F1200330FAF2
:104F100003F319439040BCF1000FA8BF7047404213
:104F200061EB4101704720320EDD01FA02F3D2F14C
:104F30002002D140D0401843BCF1000FA8BF7047F9
:104F4000404261EB41017047524282F3050231FA5F
:104F500002F00021BCF1000FA8BF7047404261EB96
:104F60004101704702D000200021704750EA013112
:104F700018BF4FF0000C6FF0004101EBDC716FEADD
:104F8000EC7070472DE9F04101292DED028B08EE00
:104F9000100A50D001EBD1756D10012D0C463CD09C
:104FA0000E460029B8BFCE1CB610012E4ED00F46BB
:104FB0000029B8BFCF1DFF10012F44D0884600291B
:104FC000B8BF01F10F084FEA2818B8F1010F40D01F
:104FD000A1F120031F2B3FD90021FFF7D3FF07EEDC
:104FE000900A67EEA77A18F0010F67EEA77A01D052
:104FF00067EE887AF80767EEA77A01D567EE887AB8
:10500000F10767EEA77A01D567EE887AEA0767EEBF
:10501000A77A04D567EE887A01E0F0EE487AE307D4
:1050200067EEA77A01D567EE887ABDEC028B17EEA2
:10503000900ABDE8F081F0EE487ABDEC028B17EEE5
:10504000900ABDE8F081F0EE487AD9E7F0EE487AB0
:10505000DCE7F0EE487ACDE7F0EE487AC3E700BF30
:10506000021E38B50C4618DAC1F3C7537F3B084619
:1050700010D4D3F117030DD44FF0010C0CFA03FC3C
:105080000CF1FF3C1CEA010F04D1172B24D0D840AF
:10509000C30721D402F10042104607EE904AFDEE0C
:1050A000E77A12F0FF4317EE901A1DD0B3F1FF4FCD
:1050B0001AD0C2F31603BBB9D20D7F3A01F308012F
:1050C00001FB02F303F17F02002A37DDFE2A37DC01
:1050D000DB0503F17E5038BD214602F10040FFF7A9
:1050E000BFFF00F1004038BD91B101F12003402B1A
:1050F00011D8002908DA07EE100AF7EE007AC7EE99
:10510000877A17EE900A4942BDE83840FFF73ABF68
:105110004FF07E5038BD1CF0BFFAFFF720FD02466D
:105120000D46204614461CF0B7FA22462B46FFF7E0
:10513000E1F8FFF796FBFFF751F938BD002038BDC5
:105140004FF0FF4038BD00BFB7EE007A07EE900A7F
:10515000F4EE477AF1EE10FA32D011F0FF4238B592
:105160000C460B4629D0FFEE006AF4EE667AF1EEAB
:1051700010FA26D1B2F1FF4F1FD040F27F105749ED
:10518000E20DFF2A60D040F2FF1C624558D012F0B9
:10519000FF020BD07F3A5BD4C2F11702002A05DD73
:1051A000012000FA02F2013A1A4251D12146BDE82B
:1051B000384017EE900AFFF753BF17EE100A38BDBC
:1051C000704710F0FF4F01461AD1002C4FEAD4521D
:1051D0001DDB7F3A19D4D2F1170216D40121914078
:1051E0000139214211D1172AE9D09FED3D7A24FAE5
:1051F00002F212F0010F47FE277A17EE900A38BD2F
:10520000C00DFF283BD1002C0CDA002038BDD2B2F3
:105210007F3A07D4D2F1170204D40120904001381C
:10522000204202D04FF0FF4038BD172A03D024FAA5
:1052300002F2D007F6D501F0004040F0FF4038BD43
:10524000C0B27E28EED9E0E7C0B27E28DDD9E9E71A
:105250000029E7DB17EE900A1CF01EFAFFF77FFC2F
:1052600002460D46204614461CF016FA22462B46EE
:10527000FFF740F8FFF7F5FAFFF7B0F838BD40F256
:10528000FF15A8424FEAD4527FF47BAF002C11DB0C
:105290007F3AC7D4D2F11702C4D401219140013919
:1052A0002142BFD1172A03D024FA02F2D207B9D57E
:1052B0000C4838BDD2B27F3AA7D4D2F11702A4D499
:1052C00001219140013921429FD1172A03D024FAAC
:1052D00002F2D30799D54FF0004038BD000080BFDF
:1052E00000000000000080FF0022002980F2A98059
:1052F000404261EB4101B1B3B1FA81F3083B16D4EE
:10530000994010FA03FCC3F1200320FA03F040EAAD
:105310000100A2EB0302C2F195021CEB0C0C40EB66
:10532000C25040F0004020D0FE2A16D2704703F150
:10533000210311FA03FC5CEA000CC3F1210321FAFA
:1053400003F0A3EB020202F1B50240EBC25040F0C1
:1053500000400AD0FE2A38BF70474FF00040A8BF77
:10536000CFF68070704711460AE028BF20F0010098
:10537000FE2A38BF7047F0E7002880F233804042B1
:10538000B0FA80F3083B0CD4984001EB0302C2F161
:10539000950200EBC25040F00040FE2A38BF704733
:1053A00013E003F1210310FA03FCC3F1210320FAF7
:1053B00003F0A3EB010202F1950240EBC25040F072
:1053C000004008D0FE2A38BF70474FF00040A8BF09
:1053D00040F0FF40704728BF20F00100FE2A38BF90
:1053E0007047F2E720B3B0FA80F3083B0AD4984044
:1053F00001EB0302C2F1950200EBC250FE2A38BF56
:10540000704711E003F1210310FA03FCC3F12103FB
:1054100020FA03F0A3EB010202F1950240EBC25027
:1054200007D0FE2A38BF7047ACBF4FF0FF400020C6
:10543000704728BF20F00100FE2A38BF7047F3E70D
:10544000002289B3B1FA81F3083B14D4994010FAD1
:1054500003FCC3F1200320FA03F040EA0100A2EBB1
:105460000302C2F195021CEB0C0C40EBC2501ED0A3
:10547000FE2A14D2704703F1210311FA03FC5CEAFF
:10548000000CC3F1210321FA03F0A3EB020202F1A5
:10549000B50240EBC2500AD0FE2A38BF7047ACBFFD
:1054A0004FF0FF40002070471146FFF79BBF28BF19
:1054B00020F00100FE2A38BF7047F0E7000000002E
:1054C0000000000000000000DB60BE284A05919348
:1054D000F4D5097F70374D7D66A5D83610E4104F9E
:1054E000AFF224024B1102EB830201F01F034FF0D5
:1054F00001049C40A4FB0034D568A5FB04569568C4
:1055000005FB0466E5FB0356556805FB036670471B
:10551000410201D150F0004050F480007047F0B5D6
:10552000012363F3DF50C1F109014FF07E07FFF75C
:10553000D7FFB30F53F100039C44B6EB8376B20060
:1055400028BF5242B2F1805F0BD20231FFF7C8FF91
:1055500096EA260242F10002B2F1805F01D2023FD8
:10556000F3D50A4CA2FB0424B4FA84F29440240A32
:10557000A7EB020244EBC250C10DD1F17F01F60F3F
:1055800000EBC673BDE8F04073E00000A2DA0FC97B
:1055900011F1800FBCD030EACC7248BF0CF1020C84
:1055A00020F0004000EE100A0DA2F2EC032A22EED9
:1055B000802A11F1080FB9FE422AB0DDA2EE630A7B
:1055C000A2EE430A10EE103AFDEEC21AC3F3C75220
:1055D000782AA4D3D2F17F0111EE902A944448E0B6
:1055E00083F9223F7A7795B60010C93F07B5C0F31B
:1055F000C751FF2925D000F032F8BDE80640CEF8AB
:1056000000000ED2C9438CEAD17C63EEA02AE1EE01
:10561000032A73EE622A12EE900A80EACC701060C0
:1056200000BD8CEAD17C21EE232AA3EE602A8CEA0D
:10563000D37133EEC22A12EE100A80EAC1701060F4
:1056400000BD4102BDE80E4001D150F0004050F4D1
:1056500080001060186070475FF0000C01E05FF0A0
:10566000010CC0F3C751A1B3D1F17F0190D920EA59
:10567000CC7323F0004000EE100AC0F384402030C9
:1056800030FA01F1834A51F10001B2EC024A02EB17
:10569000810202EBC102D2EC032A70EE620A20EE14
:1056A000A01A5FEA5C0C61EE201A15D221EE041AF2
:1056B00061EEA41A70EEE10A21EE232AA3EE602A1D
:1056C0008CEAD37133EEC22A12EE100A80EAC1705E
:1056D000704700F00040C7E761EEA41A70EEE10ADF
:1056E00021EE041A63EEA02AE1EE032A73EE622A89
:1056F00012EE900A80EACC70704700BFAFF30080D2
:10570000C1FEFF3E25AA2A3E000000000000803FA7
:105710000000000061C9FC3CCDE07F3F1CBFFC3CA9
:105720007605813DFE7D7F3F9EEF803D090CBF3DAC
:105730000FE37E3F22C5BE3DB624FF3D14047E3FED
:10574000E27BFE3D13071F3E48EB7C3FA0631E3EFD
:105750006D30403E1D817B3F15103F3EA2AD603E47
:10576000CFDC793F3EE15E3E7B0D803EFA08783F1C
:1057700096717D3E6E988F3E65FF753F68B88D3E91
:10578000F4E19F3E939E733FFD4B9D3EC654B03E59
:10579000AEF7703FB3DDAC3EC589BF3E604B6E3F98
:1057A0000A1ABB3E26C4CF3ECA356B3F631CCA3EB5
:1057B000F254E03E66D1673F0739D93EDDF0EF3E57
:1057C0004B66643F1641E73E312B003F8894603FB3
:1057D0000FC3F53E07E4073FA2C55C3F2B99013F8D
:1057E000C51F103F8F7D583F65A1083F8AF6173FC0
:1057F000B534543FCA310F3FE2FF1F3F599B4F3F23
:10580000D7C8153F4606283F6BCF4A3FC4371C3FD9
:105810004130303FE0B9453FE49A223FA71D383F71
:10582000CA98403F20A6283F2FC73F3FAC763B3F5A
:105830004A562E3FDB13483FCCB6353F6B52343FC0
:1058400079C74F3F2F35303FD0B4393F52DD573FF6
:1058500070412A3F912D3F3F26CE5F3F9F3E243F20
:10586000C35D443FF125683F50C21D3F1C9D493F29
:10587000E13B703F4150173FBF7E4E3F7810783F6D
:1058800071ED103FAF06533FD4F47F3FA75A0A3F54
:105890009B64573F0057001038B5044609481BF079
:1058A0001FFF204614F010FE054606481BF008FFB7
:1058B0002DB1054B2C449C4201D8284638BD0348E5
:1058C000FDF7E4F89C2F002000000820E01D0210E6
:1058D00038B505460C460A481BF002FF284621460B
:1058E00015F046F9054606481BF0EAFE2DB1054BBA
:1058F0002C449C4201D8284638BD0348FDF7C6F821
:105900009C2F002000000820E01D021010B5044666
:1059100005481BF0E5FE204614F0DEFDBDE8104012
:1059200001481BF0CDBE00BF9C2F0020FFF7B4BF85
:10593000FFF7B2BFFFF7EABFFFF7E8BFFFF7E6BF29
:105940009A4238BF88547047704700BF2DE9F04F26
:1059500083B09946DDE90DAB0F9B884611469A0747
:10596000074616D1DA453AD20C460D46ABEB0A068D
:105970000E4422464B46414620200134B847B442EB
:10598000F7D12946BAF1000F08D1204603B0BDE88F
:10599000F08F0C46BAF1000F10D00E4655460C9B06
:1059A0002E449A440191721B4B46013D41461AF820
:1059B000010D3446B847002DF5D101990F9B9B0787
:1059C000E3D5651AAB45E0D922464B464146202037
:1059D0000135B8475D4504F10104F5D3D5E70C4620
:1059E000BAF1000FD9D1D0E72DE9F04F0F9FDDF8C4
:1059F000248017F0020F0A9C9DF82CA00E9DDDE973
:105A00000C9644D1F5BBB44241D207F0010B04F12E
:105A1000FF3C4FF0300EC44404E00134A6420CF8C1
:105A200001EF01D9202CF8D1BBF1000F00F08880E4
:105A3000A5422CD904F1FF3C4FF0300EC44404E0E1
:105A40000134AC420CF801EF21D0202CF8D117F032
:105A5000100F0ED017F4806F54D1A64263D0A54228
:105A600061D0B9F1100F50D0B9F1020F56D0202CEF
:105A700029D12024CDE90B57CDE90984BDE8F04FA9
:105A8000FFF764BF17F0010B34D1B442BFD317F056
:105A9000100F1ED017F4806FE3D1002CDDD1B9F1C7
:105AA000100F63D0B9F1020F77D0302488F800408E
:105AB0000124BAF1000F11D17E0748D52B2608F832
:105AC00004600134D6E7264601344FF0300C08F864
:105AD00006C0202CCDD0BAF1000FEDD02D2608F84D
