:020000041000EA
:10000000002008205D0100101301001015010010F0
:100010001101001011010010110100101101001058
:100020001101001011010010110100101701001042
:100030001101001011010010190100101B01001026
:100040001D0100101D0100101D0100101D010010F8
:100050001D0100101D0100101D0100101D010010E8
:100060001D0100101D0100101D0100101D010010D8
:100070001D0100101D0100101D0100101D010010C8
:100080001D0100101D0100101D0100101D010010B8
:100090001D0100101D0100101D0100101D010010A8
:1000A0001D0100101D0100101D0100101D01001098
:1000B0001D0100101D0100101D0100101D01001088
:1000C0001D0100101D0100101D0100101D01001078
:1000D0001D0100101D0100101D0100101D01001068
:1000E0001D0100101D0100101D0100101D01001058
:1000F0001D0100101D0100101D0100101D01001048
:100100001D0100101D0100101D0100101D01001037
:1001100000BE00BE00BE00BE00BE00BEEFF3058004
:10012000103800BEF2EB887110CF021034CF0210ED
:10013000A801001090A31AE7D3DEFFFF42012110AF
:10014000FF01000050EC0200793512AB4FF00000C7
:100150002049086006C881F3088810474FF05040D6
:10016000006810B14FF00000F2E70FA40ECC002998
:1001700002D000F015F8F9E71749184A002000E00E
:1001800001C19142FCD1002080F30A8814498847BC
:10019000144988471449884700BEFDE701C901C2D8
:1001A0009A42FBD3704700BF34CF021010010020E9
:1001B000641F002088ED02100000082000000820C5
:1001C00088ED021000100820001008200000000038
:1001D0007047000008ED00E0641F0020402F002061
:1001E0003DA30010C144001001A30010F8B500BFEA
:1001F000064B0749C91A891048BF0131491003D07D
:10020000044B0BB101481847704700BF641F002022
:10021000641F00200000000008B5054B1BB1054914
:100220000548AFF30080BDE80840FFF7E1BF00BF1D
:1002300000000000BC2E002074AB011000207047AD
:100240000048704778AB01100420704703299ABF1B
:10025000024B53F821000248704700BF1CB901103F
:100260008CB0011005EE101A4168002900F0AE8034
:1002700070B4056990ED097A06EE905AD0ED0C7ACB
:10028000F8EE666AD0ED065A9FED526A36EEC74A1E
:1002900075EEE74AA4EE067AE4EE867A90F82C3002
:1002A00080ED097AC0ED0C7A8468DBB177EE666A7E
:1002B000B6EE006AF0EEE66AF4EEC66AF1EE10FA07
:1002C00010D5D0ED0A6AFCEEE66A16EE905A012DC2
:1002D00038BF0125A5424FF0000328BF254680F80E
:1002E0002C30056190F83830002B5AD1BCEEC77A1B
:1002F00017EE106AC36990ED186A1A19921BB2FBC7
:10030000F4FCD0ED147A04FB1C2201EB820292ED86
:10031000007A90ED132A66EE277A90ED193AD0ED27
:10032000152AE7EE027AD0ED1A6AD0ED163AE2EE1F
:10033000837AD0ED1B4A90ED174AE3EEE67AD0EDD2
:10034000055A80ED187AE4EE647AB0EE457A01EB56
:1003500083010133B3FBF4F2A7EEA57A04FB123359
:1003600080ED196AC0ED1B6AC0ED1A7A81ED007A42
:10037000C3613DB370BC90ED0C6AF7EE006A9FED6F
:10038000167A76EEC66AF4EEC76AF1EE10FA67EEF8
:10039000867A58BFB0EE667AE5EE077A17EE900AD5
:1003A000704777EEE57ADFED0D6AF0EEE77AF4EE6E
:1003B000E67AF1EE10FA99D50022436B80F83820E6
:1003C000836193E715EE100A70BC704715EE100AB2
:1003D000704700BF0AD7A33B6666663F0AD7233C37
:1003E0000048704780AB01100020704700487047FC
:1003F0008CB00110704700BF08467047704700BFBF
:10040000704700BF002070470048704788AB01105C
:100410000420704703299ABF024B53F82100024879
:10042000704700BF0CB901108CB00110704700BFBD
:1004300070B50546D0F884008CB203682146DB69AC
:10044000A5F890409847D5F8880021460368DB69F5
:100450009847D5F88C002146BDE870400368DB69F9
:10046000184700BF704700BF4368B3FBF1F38381B7
:10047000704700BF4B6B4360704700BF0023038190
:10048000704700BF4368B3FBF1F38381704700BF3F
:100490004B6B4360704700BF00230381704700BF70
:1004A00003890246408923B99189814200D0518154
:1004B0000846591CB1FBF0FCC3EB0343B3FBF0F35C
:1004C00000FB1C11A3F5004398B21181704700BFD7
:1004D0004368B3FBF1F38381704700BF4B6B43600C
:1004E000704700BF00230381704700BF03890146A6
:1004F00000B5B0F80AC023B98289624500D04281B4
:100500009446B3EB5C0F4FEA5C000ED2C3EB0342A0
:10051000B2FBF0F2A2F500400133B3FBFCFE0CFB92
:100520001E3380B20B815DF804FB1A1AC2EB024243
:10053000B2FBF0F2C2F5FF407F30EDE74368B3FB5A
:10054000F1F38381704700BF4B6B4360704700BF7E
:1005500000230381704700BF03460089B3F80AC037
:1005600020B99A89624500D05A8194469A7B0A49FB
:100570000CFB02F2A1FB0212411CB0EB521FB1FBBB
:10058000FCF234BF4FF0FF3000200CFB121180F45E
:10059000004080B2198170471F85EB514B6B90ED85
:1005A000066A07EE903AF8EEE77A90ED057ADFED0D
:1005B0000E5A27EE866A67EE876A86EE257AC6EEC1
:1005C000A57ABDEEC77AFDEEE77A17EE102AC36171
:1005D00017EE903A012AB8BF0122012BB8BF0123C0
:1005E000C0E90832704700BF00007A4451B30129C6
:1005F00023D190ED057A06EE902A8261D0ED077A3C
:10060000F8EEE77A9FED126A27EE877A67EEA67A10
:10061000C7EE066A87EE867AFDEEE67A17EE902A36
:10062000FDEEC77A17EE903A012AB8BF0122012BDE
:10063000B8BF0123C0E90823704790ED057AD0EDDB
:10064000066ADBE7D0ED066A07EE102A4261D5E7BD
:1006500000007A4480F82D1059B190F92E30013302
:1006600003D0012380F82C3070470023836280F888
:100670002E30704790F82C3010B50C46DBB1038E4D
:1006800063EA01031B0416D40122002113460486E9
:1006900080F82C1080F82E108262026A9A4237DBB2
:1006A00007EE102A07EE903AF8EEC76AF8EEE77AFE
:1006B00087EEA67A0DE0836A90F92E200133012A95
:1006C0000486836217D0022A0FD0002AE5D09FED5E
:1006D0001F7A07EE904AF8EEE77A67EE877AFDEE2A
:1006E000E77A17EE903A18B210BD90F82D3033B378
:1006F000B7EE007AEDE7426A9A4211DAFF22C36848
:1007000080F82E20002BE2D0036904309847DEE702
:1007100002220023B7EE007A80F82E208362D8E709
:1007200007EE102A07EE903AF8EEC76AF8EEE77A7D
:10073000B7EE007A87EEA66A37EE467AC9E701225D
:10074000B7EE007A836280F82E20C2E70000000036
:1007500090F92E00013018BF01207047704700BF8C
:10076000704700BF704700BF704700BF704700BFB1
:10077000704700BF704700BF704700BF704700BFA1
:10078000704700BF704700BF704700BF704700BF91
:1007900000207047024B186803689B68184700BF29
:1007A0000C290020024B014618680368DB681847D3
:1007B0000C2900208C4610B586461346044A714623
:1007C0001068026854696246A446BDE8104060475C
:1007D0000C2900208C4610B586461346044A714603
:1007E0001068026894696246A446BDE810406047FC
:1007F0000C2900208C4610B586461346044A7146E3
:1008000010680268D4696246A446BDE8104060479B
:100810000C290020024B014618680368DB6A184760
:100820000C290020024B0146186803685B6A1847D0
:100830000C290020024B0146186803689B6A184780
:100840000C290020024B0146186803681B6A1847F0
:100850000C290020012A02D022B10020704701603B
:100860000020704702600020704700BF0068836965
:100870004BB100B583B0C369019001A9103098470E
:1008800003B05DF804FB704703680868184700BFB1
:1008900003680888184700BF10B404680878117806
:1008A0001A7823465DF8044B184700BF704700BF15
:1008B000704700BF054AC36810B5044602601BB10B
:1008C000011D032208469847204610BD60BA01105A
:1008D000704700BF704700BF704700BF704700BF40
:1008E000C269034602FB01F110B501F50010EFF3F8
:1008F000108472B6D9691AF007F984F310880020C1
:1009000010BD00BF944608B5C0690CF1815C00FBC6
:1009100001C1029A184615F0FBF9002008BD00BF7E
:100920002DE9F047C769804638460C4691461E4679
:1009300001FB07FA08F0A8F838B305463A460AF171
:10094000815115F0E5F93146089A05EB090015F0DB
:10095000DFF9EFF3108672B6D8F81C1004FB01F033
:1009600000F500101AF0D0F8D8F81C20294604FB36
:1009700002F000F500101AF09BF886F31088284664
:1009800008F0BCF80020BDE8F0876FF00B00FAE734
:10099000014809F085BE00BF94AB011010B50446B4
:1009A000902108F0C1F8204610BD00BF10B50446E4
:1009B000042108F0B9F8204610BD00BF10B5044668
:1009C000902108F0B1F8204610BD00BF10B50446D4
:1009D000042108F0A9F8204610BD00BF10B5044658
:1009E0004FF4CA7108F0A0F8204610BD10B50446B7
:1009F0004FF4D87108F098F8204610BD074AC36834
:100A000010B5044602601BB1011D03220846984739
:100A10002046342108F088F8204610BD60BA011045
:100A200008B50389428923B98189914200D0418167
:100A30000A4607EE903AB8EEE76A07EE902AF8EE1B
:100A4000676AB7EE007AC6EE267AF4EEC77A01330B
:100A5000B3FBF2F1F1EE10FA02FB113377FE277AC5
:100A6000038117EE900A1AF03BF80CA3D3E9002398
:100A700006F038FD06F0AAFD07F0E6FE9FED067AC7
:100A800007EE900A67EE877AFDEEE77A17EE903A66
:100A900098B208BDAFF3008000FEFF46182D445405
:100AA000FB211940084608B50B22064914F0D4FF73
:100AB00008B1002008BD0449044809F071FE012076
:100AC00008BD00BFA4AB0110B0AB0110BCAB01105E
:100AD00010B51F21044604F0C9FB00222046114630
:100AE00004F0E2FB2046BDE81040002104F0F0BB1A
:100AF000012A06D0022A0AD0032A00D022B10020FF
:100B000070470160002070470260002070470B684A
:100B100003600020704700BF012A06D0022A0AD0D5
:100B2000032A00D022B100207047016000207047E6
:100B30000260002070470B6803600020704700BF10
:100B4000012A06D0022A0AD0032A00D022B10020AE
:100B500070470160002070470260002070470B68FA
:100B600003600020704700BF012A06D0022A0AD085
:100B7000032A00D022B10020704701600020704796
:100B80000260002070470B6803600020704700BFC0
:100B9000012A06D0022A0AD0032A00D022B100205E
:100BA00070470160002070470260002070470B68AA
:100BB00003600020704700BF07EE101ADFEDA06A47
:100BC000B8EEC77A9FED9F6AC7EE267A70B567EEDA
:100BD000867A2DED028BB2EE048AF4EEC87AF1EE3D
:100BE00010FAD0F8943104469868974D036858BFBE
:100BF000B0EE678ADB68AB4240F01D81D0ED077A2A
:100C0000D0ED056AF8EEE77A67EEA66A67EE887AB5
:100C100086EE867AC7EE866AFDEEC77A17EE903AC0
:100C2000FDEEE67A012B17EE902AB8BF0123002AC9
:100C3000C0E90832D8BF012380ED068AD8BF4362DD
:100C4000D4F8983198680368DB68AB4240F0EE80D6
:100C5000D0ED077AD0ED056AF8EEE77A9FED796A74
:100C600067EEA66A68EE277A86EE867AC7EE866A0F
:100C7000FDEEC77A17EE903AFDEEE67A012B17EEFD
:100C8000902AB8BF0123002AC0E90832D8BF012347
:100C900080ED068AD8BF4362D4F89C319868036817
:100CA000DB68AB4240F0BD80D0ED077AD0ED056A3D
:100CB000F8EEE77A9FED636A67EEA66A68EE277A38
:100CC00086EE867AC7EE866AFDEEC77A17EE903A10
:100CD000FDEEE67A012B17EE902AB8BF0123002A19
:100CE000C0E90832D8BF012380ED068AD8BF43622D
:100CF000D4F8A03198680368DB68AB4240F08C8080
:100D0000D0ED077AD0ED056AF8EEE77A9FED4D6AEF
:100D100067EEA66A68EE277A86EE867AC7EE866A5E
:100D2000FDEEC77A17EE903AFDEEE67A012B17EE4C
:100D3000902AB8BF0123002AC0E90832D8BF012396
:100D400080ED068AD8BF4362D4F8A431986803685E
:100D5000DB68AB425BD1D0ED077AD0ED056AF8EEE7
:100D6000E77A9FED386A67EEA66A68EE277A86EE24
:100D7000867AC7EE866AFDEEC77A17EE903AFDEEE8
:100D8000E67A012B17EE902AB8BF0123002AC0E9AA
:100D90000832D8BF012380ED068AD8BF4362D4F859
:100DA000A83198680368DB68AB4228D1D0ED077A98
:100DB000D0ED056AF8EEE77A9FED226A67EEA66A43
:100DC00068EE277A86EE867AC7EE866AFDEEC77AE7
:100DD00017EE903AFDEEE67A012B17EE902AB8BF97
:100DE0000123002A80ED068AC0E9083202DDBDEC4D
:100DF000028B70BD0123BDEC028B436270BD18EE07
:100E0000102ABDEC028BBDE870400121184718EE96
:100E1000102A01219847C2E718EE102A01219847AD
:100E200092E718EE102A0121984761E718EE102A80
:100E30000121984730E718EE102A01219847FFE674
:100E400000F07F4500007A44ED05001007EE101A0F
:100E50009FEDA16AB8EEC77ADFEDA06AC7EE067A09
:100E600070B567EEA67A2DED028BB7EE008AF4EE30
:100E7000C87AF1EE10FAD0F8943104469868984D8B
:100E8000036858BFB0EE678ADB68AB4240F01F8151
:100E9000D0ED077AF8EEE77A9FED926A68EE276A5E
:100EA00090ED067A67EE877A86EE867AC7EE866AD6
:100EB000FDEEC77A17EE903AFDEEE67A012B17EEBB
:100EC000902AB8BF0123002AC0E90832D8BF012305
:100ED00080ED058AD8BF4362D4F8983198680368DA
:100EE000DB68AB4240F0EE80D0ED077AF8EEE77AAF
:100EF0009FED7C6A68EE276A90ED067A67EE877A46
:100F000086EE867AC7EE866AFDEEC77A17EE903ACD
:100F1000FDEEE67A012B17EE902AB8BF0123002AD6
:100F2000C0E90832D8BF012380ED058AD8BF4362EB
:100F3000D4F89C3198680368DB68AB4240F0BD8010
:100F4000D0ED077AF8EEE77A9FED666A68EE276AD9
:100F500090ED067A67EE877A86EE867AC7EE866A25
:100F6000FDEEC77A17EE903AFDEEE67A012B17EE0A
:100F7000902AB8BF0123002AC0E90832D8BF012354
:100F800080ED058AD8BF4362D4F8A0319868036821
:100F9000DB68AB4240F08C80D0ED077AF8EEE77A60
:100FA0009FED506A68EE276A90ED067A67EE877AC1
:100FB00086EE867AC7EE866AFDEEC77A17EE903A1D
:100FC000FDEEE67A012B17EE902AB8BF0123002A26
:100FD000C0E90832D8BF012380ED058AD8BF43623B
:100FE000D4F8A43198680368DB68AB425BD1D0EDDC
:100FF000077AF8EEE77A9FED3B6A68EE276A90ED94
:10100000067A67EE877A86EE867AC7EE866AFDEE06
:10101000C77A17EE903AFDEEE67A012B17EE902A8A
:10102000B8BF0123002AC0E90832D8BF012380EDF0
:10103000058AD8BF4362D4F8A83198680368DB6892
:10104000AB4228D1D0ED077AF8EEE77A9FED256A1A
:1010500090ED067A80ED058A28EE278A67EE877A7A
:1010600088EE067AC7EE866AFDEEC77A17EE903AEA
:10107000FDEEE67A012B17EE902AB8BF0123002A75
:10108000C0E9083202DDBDEC028B70BD0123BDEC6E
:10109000028B436270BD18EE102ABDEC028BBDE8D6
:1010A00070400021184718EE102A00219847C2E727
:1010B00018EE102A0021984792E718EE102A002116
:1010C000984761E718EE102A0021984730E718EE9C
:1010D000102A00219847FFE600F07F450000FA4300
:1010E000ED05001000007A4470B5154690F8AC216B
:1010F0000446013A52B280F8AC211AB910461422C3
:1011000040EC40202A46384809F04AFBD4F8943194
:101110001A7BAA424BD0D4F898311A7BAA423CD011
:10112000D4F89C311A7BAA422DD0D4F8A0311A7B76
:10113000AA421ED0D4F8A4311A7BAA420FD0D4F808
:10114000A8311A7BAA4200D070BD9868274A03686C
:101150001B69934235D1002380F82D3070BD98680B
:10116000224A03681B69934235D1002380F82D3051
:10117000E5E798681D4A03681B6993422ED1002356
:1011800080F82D30D6E79868184A03681B699342A7
:101190001BD1002380F82D30C7E79868134A0368F5
:1011A0001B69934214D1002380F82D30B8E798686A
:1011B0000E4A03681B69934213D1002380F82D3037
:1011C000A9E70021BDE87040184700219847ACE727
:1011D00000219847A4E700219847B0E700219847ED
:1011E000A8E70021984796E7D0AB011055060010FC
:1011F000002370B586B002AD02930593C5E90133B3
:101200008B680446F3B10E46022228469847D6E979
:101210000231A668A3600496E368E16095E80300E4
:10122000CDE9000194E80300059385E80300DDE9BA
:10123000000184E803001EB1032229462846B04776
:1012400006B070BD1946E4E770B5CA4A2DED028BB1
:1012500004460D461668EFF3108372B6D6E8CF0F3A
:1012600001210028FAD1C6E8401F0028F6D1BFF3BB
:101270005F8FD4F89C10D4F898005360814280F0BE
:101280004781D4F89400D4ED286A30F91100DFEDDD
:10129000BA7A07EE100ABAEEE87AE7EE267A01315A
:1012A000C4F89C10D4F8AC0030B1D4F8A810D4F82D
:1012B000B060B142C0F037829FEDAF7AD4F8C00081
:1012C00077EE877A30B1D4F8BC10D4F8C460B1425C
:1012D000C0F012829FEDA87AD4F8D40077EE877A16
:1012E00030B1D4F8D010D4F8D860B142C0F0ED815C
:1012F0009FEDA17AD4F8E80077EE877A30B1D4F880
:10130000E410D4F8EC60B142C0F0C8819FED9A7A45
:10131000D4F8FC0077EE877A30B1D4F8F810D4F81E
:101320000061B142C0F0A3819FED937AD4F810011F
:1013300077EE877A30B1D4F80C11D4F81461B14249
:10134000C0F07E81DFED8C6AD4F8240176EEA76AC6
:1013500030B1D4F82011D4F82861B142C0F05981DD
:10136000DFED857A9FED847AD4F8380177EE877ABD
:1013700030B1D4F83411D4F83C61B142C0F03281BC
:10138000D4F84C0177EE877A30B1D4F84811D4F80C
:101390005061B142C0F00F819FED777AD4F86001BF
:1013A00077EE877A30B1D4F85C11D4F86461B14239
:1013B000C0F0EA809FED707AD4F8740177EE877AF6
:1013C00030B1D4F87011D4F87861B142C0F0BA806D
:1013D0009FED697AD4F8880177EE877A30B1D4F836
:1013E0008411D4F88C61B142C0F095809FED628A7F
:1013F00038EE278A00261268C2E88F6F83F31088C0
:10140000D4ED107A94ED0C6AD4F88400D4ED110A6E
:101410000368D4ED0B8A9B69C4ED117A67EE867A76
:1014200094ED0D0AE6EEA87AD4ED125A94ED0E1A58
:10143000E0EE207A94ED132A94ED1D7AD4ED0F1A84
:10144000E1EE657A94ED195AE1EEC27AD4ED1E3AD6
:10145000D4ED182A84ED1E7A27EE057AA2EEA77A3B
:1014600094ED1A3AC4ED127AC4ED1D7AF0EE477A83
:1014700094ED1F6A94ED1B4AE3EE237A94ED205A13
:10148000E4EE467AD4ED1C4AE4EEC57AC4ED106A67
:1014900017EE901A84ED206AC4ED1F7AC4ED135A3A
:1014A00098470146D4F88800026893699847034634
:1014B000D4F88C0018EE101A026808EE103A9269FF
:1014C000904707EE100A9FED2D6A38EE077ABDECC3
:1014D000028BDFED2B6A27EE067AB4EEE67AF1EEA8
:1014E00010FADFED287A48BFB0EE667AB4EEE77AFC
:1014F000F1EE10FA77FE877AFDEEE77A17EE903A72
:1015000032461BB263F30F0263F31F422A6070BDC1
:10151000DFED197AC6E630F9110094ED647A08EE31
:10152000100AB8EEC88A28EE078ABDEEC88A0131D3
:10153000C4F8841118EE101A09B208EE101ABAEEA7
:10154000E88A55E730F9110094ED5F6A07EE100A5A
:10155000B8EEC77A27EE067ABDEEC77A0131C4F835
:10156000701117EE101A09B207EE101ABAEEE87AE7
:1015700030E700BF102900200000000000000047F5
:10158000000000C700FEFF4630F9110094ED5A6AD2
:1015900007EE100AB8EEC77A27EE067ABDEEC77AD4
:1015A0000131C4F85C1117EE101A09B207EE101AD7
:1015B000BAEEE87A00E730F9110094ED556A07EECB
:1015C000100AB8EEC77A27EE067ABDEEC77A013167
:1015D000C4F8481117EE101A09B207EE101ABAEE45
:1015E000E87ADBE630F9110094ED506A07EE100A54
:1015F000B8EEC77A27EE067ABDEEC77A0131C4F895
:10160000341117EE101A09B207EE101ABAEEE87A82
:10161000B6E630F9110094ED4B7A07EE900AF8EE39
:10162000E77A67EE877AFDEEE77A0131C4F8201198
:1016300017EE901A09B207EE901AFAEEE87A91E6E0
:1016400030F9110094ED467A06EE900AF8EEE66A5B
:1016500066EE876AFDEEE66A0131C4F80C1116EEFB
:10166000901A09B206EE901AFAEEE86A6CE630F9C2
:101670001100D4ED416A07EE100AB8EEC77A27EEE2
:10168000267ABDEEC77A0131C4F8F81017EE101AA9
:1016900009B207EE101ABAEEE87A47E630F91100FF
:1016A000D4ED3C6A07EE100AB8EEC77A27EE267A28
:1016B000BDEEC77A0131C4F8E41017EE101A09B272
:1016C00007EE101ABAEEE87A22E630F91100D4EDEE
:1016D000376A07EE100AB8EEC77A27EE267ABDEE13
:1016E000C77A0131C4F8D01017EE101A09B207EE0C
:1016F000101ABAEEE87AFDE530F91100D4ED326A3D
:1017000007EE100AB8EEC77A27EE267ABDEEC77A42
:101710000131C4F8BC1017EE101A09B207EE101A06
:10172000BAEEE87AD8E530F91100D4ED2D6A07EE6B
:10173000100AB8EEC77A27EE267ABDEEC77A0131D5
:10174000C4F8A81017EE101A09B207EE101ABAEE74
:10175000E87AB3E538B50368084ADB680446934283
:101760000D4608D10420A8428ABF04EB850400205E
:10177000D4F8800038BD9847F5E700BF1104001089
:1017800038B50368084ADB68044693420D4608D121
:101790000420A8428ABF04EB85040020D4F880000E
:1017A00038BD9847F5E700BF490200102DE9F04F1A
:1017B000044685B0A2F1450015461E460F4605F0C9
:1017C00013FF0022754B05F0B3FE02460B460020C6
:1017D0004FF0804105F0CEFC0022714B05F082FEF7
:1017E00005F038FF034639469BB22A466D480096FD
:1017F00008F0D6FF94F8AC3101335BB2002B04DD66
:1018000014224FF0010141EC4020D4F894B184F847
:10181000AC31DBF80800644E03689B69B34245D1E4
:1018200090F92E3001334BD0D4F898B1DBF8080092
:1018300003689B69B34240F0908090F92E300133E9
:101840003ED0D4F89CB1DBF8080003689B69B34232
:1018500040F0898090F92E30013331D0D4F8A0B116
:10186000DBF8080003689B69B34240F0828090F97E
:101870002E30013324D0D4F8A4B1DBF8080003687B
:101880009B69B3427BD190F92E30013318D0D4F844
:10189000A8B1DBF8080003689B69B34274D190F9E2
:1018A0002E3001330CD005B0BDE8F08F98470028EA
:1018B000BAD104EB8004D4F894B1BBF1000FF2D09C
:1018C0009BF804308DF80C508BF80C5073B3002447
:1018D0004FF0000800264FF08047DFF8C0900DF170
:1018E0000C0A1AF8010B453805F07EFE42464B46BD
:1018F00005F01EFE02460B463046394605F03AFC1E
:10190000DBF80030002253F82450254B05F0EAFDA7
:1019100005F0A0FE01462B6828465B6889B298470F
:1019200001349BF80420E3B29A42DAD8DBF80800CD
:101930001E4A03681B6993422BD1012390F92E2084
:1019400080F82D30013209BF002380F82C308362EB
:1019500080F82E3005B0BDE8F08F984700287FF45E
:1019600070AF0120A5E7984700287FF477AF0220E9
:101970009FE7984700287FF47EAF032099E79847B8
:10198000002884D1042094E7984700288BD10520B3
:101990008FE7012105B0BDE8F04F1847000028404F
:1019A00000807B40E4AB0110510700105506001089
:1019B000A0F87410002940D090ED1E7AB5EEC07AE0
:1019C000F1EE10FA39DDDFED1D6A07EE901A90EDA9
:1019D000086AF8EEE77A67EE266AF8EE465A86EE6F
:1019E000A77A67EE257AFCEEE77A17EE903A8268DE
:1019F00090ED096A934228BF134607EE903AB8EE7D
:101A0000677A76EE477AB6EE005AF0EEE77AF4EEB1
:101A1000C57AF1EE10FA05DD012380ED0A7A80F82F
:101A20002C307047012B38BF012393424FF0000147
:101A300028BF134680F82C100361704700007042E5
:101A4000A0F87410002940D090ED1E7AB5EEC07A4F
:101A5000F1EE10FA39DDDFED1D6A07EE901A90ED18
:101A6000086AF8EEE77A67EE266AF8EE465A86EEDE
:101A7000A77A67EE257AFCEEE77A17EE903A82684D
:101A800090ED096A934228BF134607EE903AB8EEEC
:101A9000677A76EE477AB6EE005AF0EEE77AF4EE21
:101AA000C57AF1EE10FA05DD012380ED0A7A80F89F
:101AB0002C307047012B38BF012393424FF00001B7
:101AC00028BF134680F82C10036170470000704255
:101AD0002DE9F04789462DED028B9FED688ADFEDF9
:101AE000688ADFF8AC8100F5C87600F5D47756F83F
:101AF00004AFBAF1000F47D09AF80430002B00F081
:101B0000BA8000242546DAF8003053F82400013466
:101B10000368DB6898479AF80430E2B293420544C0
:101B2000F1D895FBF3F5DAF808002DB203685B698C
:101B3000AAF82050434552D190F82C302BB1B0F97F
:101B40003030002B01DB002D4EDB836A90F92E2014
:101B50000133012A0586836262D0022A5AD0002A04
:101B60004AD09FED467A07EE905AF8EEE77A67EE94
:101B7000877AFDEEE77A17EE903A1BB207EE903ABD
:101B8000F8EEE77AA7EEA88AB742B0D1F0EE085A8D
:101B90009FED3C6AC8EE256ABDEC028B9FED3A7A58
:101BA00066EE866AF4EEC76AF1EE10FADFED377A78
:101BB00058BFB0EE667AB4EEE77AF1EE10FA77FE2F
:101BC000877AFDEEE77A17EE903A00221BB263F3B4
:101BD0000F0263F31F42C9F80020BDE8F0872946D1
:101BE000984707EE900ACBE700220123058680F88C
:101BF0002C2080F82E208362026A9A4233DB07EEA3
:101C0000102A07EE903AF8EEC76AF8EEE77A87EE08
:101C1000A67AA8E790F82D30F3B1B7EE007AA2E7E4
:101C2000426A9A4209DAFF2380F82E30C368002BFB
:101C300097D003690430984793E707EE102A07EE20
:101C4000903AF8EEC76AF8EEE77AB7EE007A87EED8
:101C5000A66A37EE467A86E783620123B7EE007AFA
:101C600080F82E307FE7022380F82E300023B7EE75
:101C7000007A836277E71D4653E700BF000000004B
:101C80000000003800000047000000C700FEFF46CB
:101C9000750600102DE9F04F2DED028B00259FED0C
:101CA0006E8ADFED6E8A8FB000F5D4730AAE0390B2
:101CB00000F5C87800F114070293242058F8049F17
:101CC00006F02CFF04463420019706F027FF01237D
:101CD000F2EE047A4AF6444E4FF0FF0C23710346AD
:101CE0005F4AC3ED057A1A60C3ED068AC3E902555F
:101CF0005D60A360C3F81CE083F82EC01D619D6287
:101D00009D851D860420C4E905552561E56125846E
:101D100006F006FF3023534A23731378C8F80040B7
:101D2000637301331370039A2379D2F80CA02060F7
:101D30000760CBB1019A4FF0000B104602E0226819
:101D400052F82300036851461B6898472368822194
:101D500053F82B000BF1010B03685B68984722795D
:101D60005FFA8BF39A42EAD8A0683F4A03689B68FF
:101D700093426DD1DAF8343090ED057A07EE903A5F
:101D8000F8EEE77AD0ED066A27EE877A67EEA66A64
:101D9000C7EE087A86EE887AFDEEE77AC36117EE21
:101DA000903AFDEEC77A012B17EE902AB8BF0123B7
:101DB000002AC0E9083201DC01234362CDE90A456B
:101DC0002A4B2B4A0D930C9209930694A36804ACFA
:101DD00096E80300CDE9075284E803001A1D92E853
:101DE000030086E80300D4E9000182E803000C9AAE
:101DF000DC680D99DA601A690C9419610D921CB1B6
:101E0000032231463046A047089B1BB106A9032296
:101E100008469847B9F1000F10D0D9F8000008B172
:101E200006F080FED9F8183023B109F11001032221
:101E3000084698474846242106F076FE029B103754
:101E400043457FF43AAF0FB0BDEC028BBDE8F08F95
:101E500051469847B2E700BF00007A440000FA43B9
:101E600084BA0110342F00209D0500106D08001069
:101E7000190B001007EE103ADFED296AB8EEC77AA9
:101E8000C7EE267A274B30B4A3FB0253DB0803EBE3
:101E90004303254CA2EB830212F0FF0267EEA77A00
:101EA00021681BD1EFF3108372B6D1E8CFCF0125A3
:101EB000BCF1000FF9D1C1E84C5FBCF1000FF4D1C7
:101EC000BFF35F8FC0ED287A21686360C0F89C2063
:101ED000C1E88F2F83F3108830BC7047EFF3108375
:101EE00072B6D1E8CFCF0125BCF1000FF9D1C1E81E
:101EF0004C5FBCF1000FF4D1BFF35F8F162502EBEE
:101F0000820200EB8200C0ED2D7A0022216863601E
:101F1000C0F8A850C1E88F2F83F3108830BC7047F9
:101F20000000FE42ABAAAAAA1029002070B51346F1
:101F300004468C469EB020211D4A1E6801A82378C5
:101F4000DCF8005008F05EF940F20253194801AA8B
:101F500009A911F093FC98B909A9334615482A1D1F
:101F600011F0BEFD011E16DB124809A911F092FC0A
:101F7000C8B9216810481EB0BDE8704008F010BC18
:101F800001460E4808F00CFC21680D481EB0BDE863
:101F9000704008F005BC0B4808F002FC09A9054890
:101FA00011F078FCF0E70146074808F0F9FBEBE791
:101FB000FCAB0110482100207CAC011010AC0110DA
:101FC00090AC01103CAC01105CAC0110002958D160
:101FD0002DE9F04F037C83B0013303F00303037456
:101FE000002B4FD100F114084446804600F5C87913
:101FF00000F5D47A59F8046F0194307B453805F028
:10200000F3FA0022754B05F093FA02460B460020C6
:102010004FF0804105F0AEF8714B002205F062FAF6
:1020200005F018FB33791FFA80FB7BB1002501AF67
:1020300057F8040B3368594643F825000368013507
:102040005B6898473279EBB29A42F1D8D14504F1F6
:102050001004CFD10121FA2698F81030D8F80420C6
:102060000B44604D937591829661AB6A5E480D2476
:10207000A0FB03039B09D36141EC404003B0BDE8E2
:10208000F08F7047012B00F5C87A38D0022B6DD045
:1020900000F59A7980464C4600F5D47B5AF8046FD7
:1020A0000194307B453805F09FFA00224B4B05F038
:1020B0003FFA02460B4600204FF0804105F05AF8E7
:1020C000474B002205F00EFA05F0C4FA33791FFAE7
:1020D00080F97BB1002501AF57F8040B33684946FE
:1020E00043F82500036801355B6898473279EBB205
:1020F0009A42F1D8DA4504F11004CFD1AAE700F1F1
:10210000740980464C4600F5D47B5AF8046F01945C
:10211000307B453805F068FA0022304B05F008FAAC
:1021200002460B4600204FF0804105F023F82C4B6F
:10213000002205F0D7F905F08DFA33791FFA80F9FE
:102140007BB1002501AF57F8040B3368494643F8CB
:102150002500036801355B6898473279EBB29A42F3
:10216000F1D8DA4504F11004CFD173E700F1D409B6
:1021700080464C4600F5D47B5AF8046F0194307BBE
:10218000453805F031FA0022144B05F0D1F902462A
:102190000B4600204FF0804104F0ECFF104B002272
:1021A00005F0A0F905F056FA33791FFA80F97BB1F2
:1021B000002501AF57F8040B3368494643F8250062
:1021C000036801355B6898473279EBB29A42F1D8DF
:1021D000DA4504F11004CFD13CE700BF00002840ED
:1021E00000807B4000000B40D34D621005EE101ABA
:1021F0004168002900F0AE8070B4056990ED097A5D
:1022000006EE905AD0ED0C7AF8EE666AD0ED065ADA
:102210009FED526A36EEC74A75EEE74AA4EE067A9B
:10222000E4EE867A90F82C3080ED097AC0ED0C7AD5
:102230008468DBB177EE666AB6EE006AF0EEE66AB5
:10224000F4EEC66AF1EE10FA10D5D0ED0A6AFCEE93
:10225000E66A16EE905A012D38BF0125A5424FF0CF
:10226000000328BF254680F82C30056190F83830EF
:10227000002B5AD1BCEEC77A17EE106AC36990EDF5
:10228000186A1A19921BB2FBF4FCD0ED147A04FB05
:102290001C2201EB820292ED007A90ED132A66EE89
:1022A000277A90ED193AD0ED152AE7EE027AD0EDB3
:1022B0001A6AD0ED163AE2EE837AD0ED1B4A90ED21
:1022C000174AE3EEE67AD0ED055A80ED187AE4EE8F
:1022D000647AB0EE457A01EB83010133B3FBF4F28B
:1022E000A7EEA57A04FB123380ED196AC0ED1B6AD4
:1022F000C0ED1A7A81ED007AC3613DB370BC90EDF8
:102300000C6AF7EE006A9FED167A76EEC66AF4EE76
:10231000C76AF1EE10FA67EE867A58BFB0EE667AB9
:10232000E5EE077A17EE900A704777EEE57ADFED73
:102330000D6AF0EEE77AF4EEE67AF1EE10FA99D54E
:102340000022436B80F83820836193E715EE100A72
:1023500070BC704715EE100A704700BF0AD7A33B48
:102360006666663F0AD7233CF0B5274D83B02C68DC
:102370005CB32368012501A89847E06A019F00F13A
:102380001002A16A05FA02F24B681342FCD194F8DC
:102390003D60043041F820700EB12368EBE7E3683C
:1023A0008BB1251D236928469847E3682BB103228A
:1023B000294628469847C4E90366E3691BB1236AA6
:1023C00004F11400984703B0F0BD402006F0A6FBCE
:1023D000002201464BF680370126DFF830C041F875
:1023E000042B044642601346C1E901222860C0E97B
:1023F0000422C0E90622C0E90822C0E90D76C0F82F
:1024000028C0C2628287B5E7902A002000002050D1
:1024100030B504468BB0002937D00D224FF00101B2
:10242000036941EC402000222F49CDE906220991A1
:1024300005912E4906AC0891049194E80300CDE97A
:102440000001029283F83D20039203F1040C9CE802
:10245000030084E80300DDE900018CE80300089A2A
:10246000DD680999DA601A69EE46089519610992E2
:102470001DB1032221462046A847049B1BB102A997
:102480000322084698470BB030BD05696B6A03B15B
:102490009847012385F83D300AF08AFE14480AF077
:1024A000FDFE00230D2243EC4020124A1068EFF39A
:1024B000108172B6D0E8CFCF0125BCF1000FF9D161
:1024C000C0E84C5FBCF1000FF4D1BFF35F8F0A4846
:1024D0005160C4F89C301268C4F8A000C2E88F3F75
:1024E00081F310880BB030BD910900105508001021
:1024F0006923001010290020CDCC4C3F00000000C3
:1025000007EE901A9FED427AF8EEE77AC7EE877AE7
:10251000F8B517EE901A2DED028B04463D4805F0F4
:102520000BFFB3EE047A07EE900A67EE877AC4EDEC
:10253000157A17EE900A18F0D3FA33A3D3E90023E3
:1025400004F0D0FF0646206D0F4618F0C9FA0B467E
:1025500002463946304604F0EBFF05F037F80546F1
:1025600006F072F9D4ED167A07EE100A77EEA77A24
:10257000284687EE278A06F06AF994F85C3007EE61
:10258000900A33BBF7EE005AB8EE006A75EEE76AC0
:1025900038EE255AB6EE007A67EE867A26EE877A0E
:1025A00085EE856A35EEC88A27EE067A66EE266ADB
:1025B00067EE867A28EE068A84ED187AC4ED196AE9
:1025C00084ED1A7AC4ED1B7A84ED1C8ABDEC028B73
:1025D000F8BD012BFAD1F7EE005AB8EE006A77EE9B
:1025E000A56A38EE255AB6EE007A67EE867A26EEB0
:1025F000877A85EE856A35EEC88A27EE067A66EE1A
:10260000C66AD5E7AFF30080182D4454FB2119406A
:1026100000F07F4500007A4407EE101ADFED426AB1
:10262000B8EEC77AF8B5C7EE267A2DED028BF7EE35
:10263000008A78EEE77A67EEA77A044617EE901ADA
:102640003A4805F079FE9FED3A7A07EE900A67EE78
:10265000877AC4ED087A17EE900A18F041FA30A391
:10266000D3E9002304F03EFF0646E0690F4618F068
:1026700037FA0B4602463946304604F059FF04F05B
:10268000A5FF054606F0E0F8D4ED097A07EE100A3A
:1026900077EEA77A284687EE278A06F0D8F894F8CE
:1026A000283007EE900A23BB38EE285A78EEE76A06
:1026B000B6EE007AF8EE005A88EE856A26EE877A42
:1026C00038EEC88A67EEA57A66EE266A27EE067AA5
:1026D00067EE867A28EE068AC4ED0C6A84ED0B7AE2
:1026E00084ED0D7AC4ED0E7A84ED0F8ABDEC028B79
:1026F000F8BD012BFAD138EE285A77EEA86AB6EE6B
:10270000007AF8EE005A88EE856A26EE877A38EE6F
:10271000C88A67EEA57A66EEC66AD7E7AFF300808F
:10272000182D4454FB21194000F07F450000C84398
:1027300000004842000000000A46526BF8B507EE60
:10274000902A2DED028B90ED037AB8EE678ADFEDCB
:10275000566A28EE077AC7EE267AFCEEE77A02621E
:1027600017EE902A012A38BF01220446C66F4F4B4C
:10277000826035681B680021581905EB82053560B9
:102780009200606013F094F8D4ED047A0023F8EE20
:10279000677A84ED0F8A18EE100AC4ED097AE361B6
:1027A00018F09EF9D4ED117A064694F84830206F5F
:1027B0000F4637EEA78A2064002B3FD118F090F91E
:1027C00037A3D3E9002304F08DFE32463B4604F0E4
:1027D000AFFE04F0FBFE054606F036F807EE900A61
:1027E0002846C7EE888A06F032F8F7EE005A07EE60
:1027F000900A78EEA54A75EEE76AB6EE007AB8EE72
:10280000005A85EEA46A26EE877A75EEE88A67EEAE
:10281000857A66EE266A27EE067A67EE867A68EE95
:10282000868AC4ED146AC4ED167AC4ED178A84ED65
:10283000137A84ED157ABDEC028BF8BD012BFAD129
:1028400018F04EF916A3D3E9002304F04BFE3246EC
:102850003B4604F06DFE04F0B9FE054605F0F4FFBA
:1028600007EE900A2846C7EE888A05F0F0FFF7EEDB
:10287000005A07EE900A78EEA54A77EEA56AB6EE02
:10288000007AB8EE005A85EEA46A26EE877A75EED5
:10289000E88A67EE857A66EEC66ABCE7AFF3008029
:1028A000182D4454FB21194000007A44EC170020F5
:1028B0000A46526BF8B507EE902A2DED028B90ED8B
:1028C000037AB8EE678ADFED566A28EE077AC7EE1C
:1028D000267AFCEEE77A026217EE902A012A38BFC8
:1028E00001220446C66F4F4B826035681B68002189
:1028F000581905EB820535609200606012F0D8FF30
:10290000D4ED047A0023F8EE677A84ED0F8A18EE8E
:10291000100AC4ED097AE36118F0E2F8D4ED117AF7
:10292000064694F84830206F0F4637EEA78A206499
:10293000002B3FD118F0D4F837A3D3E9002304F0DB
:10294000D1FD32463B4604F0F3FD04F03FFE054660
:1029500005F07AFF07EE900A2846C7EE888A05F050
:1029600076FFF7EE005A07EE900A78EEA54A75EE6C
:10297000E76AB6EE007AB8EE005A85EEA46A26EE53
:10298000877A75EEE88A67EE857A66EE266A27EE24
:10299000067A67EE867A68EE868AC4ED146AC4ED1C
:1029A000167AC4ED178A84ED137A84ED157ABDEC9E
:1029B000028BF8BD012BFAD118F092F816A3D3E9D7
:1029C000002304F08FFD32463B4604F0B1FD04F0D5
:1029D000FDFD054605F038FF07EE900A2846C7EED4
:1029E000888A05F034FFF7EE005A07EE900A78EE79
:1029F000A54A77EEA56AB6EE007AB8EE005A85EEE3
:102A0000A46A26EE877A75EEE88A67EE857A66EE26
:102A1000C66ABCE7AFF30080182D4454FB2119406F
:102A200000007A44EC170020F8B503688E4EDB688E
:102A30002DED028BB34204460D4608EE102A1FD13D
:102A40000420A84219D904EB850383ED208A032DC5
:102A500013D8DFE805F07A02B617B5EEC08AF1EEBA
:102A600010FA00F1EB80DFED817AB4EEE78AF1EE47
:102A700010FA77FE887AC4ED057ABDEC028BF8BDBA
:102A80009847DEE7F7EE008A38EEC88A68EE087AE3
:102A9000774817EE901A05F04FFC9FED767A07EE17
:102AA000900A67EE877AC4ED1C7AC4ED107A17EEAF
:102AB000900A18F015F86AA3D3E9002304F012FD78
:102AC0000646E06B0F4618F00BF80B4602463946F7
:102AD000304604F02DFD04F079FD054605F0B4FE06
:102AE000D4ED117A07EE100A77EEA77A284687EE22
:102AF000278A05F0ACFE94F8483007EE900A002BC8
:102B000040F0868038EE285A78EEE76AB6EE007A12
:102B1000F8EE005A88EE856A26EE877A38EEC88A83
:102B200067EEA57A66EE266A27EE067A67EE867A63
:102B300028EE068AC4ED146A84ED137A84ED157AC2
:102B4000C4ED167A84ED178A97E7F6EE006A28EE50
:102B5000268AB4F8743084ED1E8A002B8DD0B5EE31
:102B6000C08AF1EE10FA88DDDFED437A07EE103A05
:102B700094ED086AB8EEC77A28EE278AF8EE465A2E
:102B8000C8EE077A67EEA57AFCEEE77A17EE903A80
:102B9000A26894ED096A934228BF134607EE903A63
:102BA000B8EE677A76EE477AF0EEE77AF4EEE67AF8
:102BB000F1EE10FA48DD012384ED0A7A84F82C3016
:102BC0005BE7B5EEC08AF1EE10FA3AD4B7EE007AC0
:102BD000B4EEC78AF1EE10FA37FE087A94ED066A71
:102BE000BDEC028BD4ED0C7A77EEC67ADFED236A6A
:102BF000F0EEE77AF4EEE67AF1EE10FACBBF0123BD
:102C0000002384ED0D7A84ED067A84F83830F8BD1F
:102C1000012B7FF432AF38EE285A77EEA86AB6EE71
:102C2000007AF8EE005A88EE856A26EE877A38EE4A
:102C3000C88A67EEA57A66EEC66A75E7DFED107A98
:102C400019E79FED0F7AC9E7012B38BF01239342A3
:102C50004FF0000128BF134684F82C1023610CE7C5
:102C6000182D4454FB21194049020010A4707D3FE7
:102C7000000048430000C842000070420AD7233CCD
:102C80000000000000000000F8B50368924EDB6809
:102C90002DED028BB34204460D4608EE102A23D1D7
:102CA0000420A8421DD904EB850383ED208A032D5F
:102CB00017D8DFE805F07E02BC1BF6EE007AE8EEDE
:102CC000277AF5EEC07AF1EE10FA00F1ED809FED73
:102CD000837AF4EEC77AF1EE10FA77FE277AC4ED24
:102CE000057ABDEC028BF8BD9847DAE7F7EE008A6B
:102CF00038EEC88A68EE087A794817EE901A05F01F
:102D00001BFB9FED787A07EE900A67EE877AC4ED99
:102D10001C7AC4ED107A17EE900A17F0E1FE6CA34E
:102D2000D3E9002304F0DEFB0646E06B0F4617F004
:102D3000D7FE0B4602463946304604F0F9FB04F054
:102D400045FC054605F080FDD4ED117A07EE100A2A
:102D500077EEA77A284687EE278A05F078FD94F863
:102D6000483007EE900A002B40F0888038EE285A51
:102D700078EEE76AB6EE007AF8EE005A88EE856AD9
:102D800026EE877A38EEC88A67EEA57A66EE266A5E
:102D900027EE067A67EE867A28EE068AC4ED146A74
:102DA00084ED137A84ED157AC4ED167A84ED178AD2
:102DB00097E7F4EE007A28EE278AB4F8743084EDB1
:102DC0001E8A002B8DD0B5EEC08AF1EE10FA88DD98
:102DD000DFED457A07EE103AD4ED086AB8EEC77A0F
:102DE00028EE278AB8EE666AC8EE077A67EE867A1A
:102DF000FCEEE77A17EE903AA268D4ED096A9342A6
:102E000028BF134607EE903AB8EE677A76EEC77A97
:102E1000F6EE005AF0EEE77AF4EEE57AF1EE10FA0B
:102E200048DD012384ED0A7A84F82C3059E7B5EEA9
:102E3000C08AF1EE10FA3AD4B7EE007AB4EEC78A3F
:102E4000F1EE10FA37FE087A94ED066ABDEC028BBB
:102E5000D4ED0C7A77EEC67ADFED246AF0EEE77AED
:102E6000F4EEE67AF1EE10FACBBF0123002384EDF5
:102E70000D7A84ED067A84F83830F8BD012B7FF4A2
:102E800030AF38EE285A77EEA86AB6EE007AF8EE40
:102E9000005A88EE856A26EE877A38EEC88A67EE91
:102EA000A57A66EEC66A73E7DFED117A17E79FED44
:102EB000107AC9E7012B38BF012393424FF000017C
:102EC00028BF134684F82C1023610AE7AFF3008073
:102ED000182D4454FB21194011040010A4707D3FAB
:102EE000000048430000C842000070420AD7233C5B
:102EF00000000000000000002DE9F041472A2DED00
:102F0000028B044600F0AD804A2A114612D007EE2B
:102F1000903A9FEDBB7AF8EEE77AC7EE877AA2F196
:102F2000140317EE902A032B00F23D81DFE803F033
:102F30008F857B710268B34D926A5901AA4240F0B5
:102F4000138107EE901A9FEDB07AF8EEE77AC7EE9C
:102F5000877AAE4817EE901A05F0EEF9B3EE047AD0
:102F600007EE900A67EE877AC4ED157A17EE900A9D
:102F700017F0B6FDA0A3D3E9002304F0B3FA064688
:102F8000206D0F4617F0ACFD0B4602463946304621
:102F900004F0CEFA04F01AFB054605F055FCD4ED1A
:102FA000167A07EE100A77EEA77A284687EE278A68
:102FB00005F04DFC94F85C3007EE900A002B40F0D1
:102FC000D880F7EE005AB8EE006A75EEE76A38EE80
:102FD000255AB6EE007A67EE867A26EE877A85EE77
:102FE000856A35EEC88A27EE067A66EE266A67EEAF
:102FF000867A28EE068A84ED187AC4ED196A84ED83
:103000001A7AC4ED1B7A84ED1C8ABDEC028BBDE8F4
:10301000F081D4F884000368BDEC028B0321BDE885
:10302000F0411B6A1847D4F884000368BDEC028B9A
:103030000221BDE8F0411B6A1847D4F884000368F8
:10304000BDEC028B0121BDE8F0411B6A1847D4F8A2
:1030500084000368BDEC028B0021BDE8F0411B6ACF
:10306000184702686A4D526A5901AA427CD107EE9C
:10307000901ADFED656AF8EEE77AF7EE008A87EEE0
:10308000A67A78EEC77A67EEA77A624817EE901AAA
:1030900005F052F99FED607A07EE900A67EE877AA5
:1030A000C4ED087A17EE900A17F01AFD52A3D3E97F
:1030B000002304F017FA0646E0690F4617F010FDEA
:1030C0000B4602463946304604F032FA04F07EFAE6
:1030D000054605F0B9FBD4ED097A07EE100A77EE44
:1030E000A77A284687EE278A05F0B1FB94F82830A6
:1030F00007EE900A13BB38EE285A78EEE76AB6EE70
:10310000007AF8EE005A88EE856A26EE877A38EE65
:10311000C88A67EEA57A66EE266A27EE067A67EE1B
:10312000867A28EE068AC4ED0C6A84ED0B7A84ED6B
:103130000D7AC4ED0E7A84ED0F8A66E7012B7FF4D9
:1031400064AF38EE285A77EEA86AB6EE007AF8EE49
:10315000005A88EE856A26EE877A38EEC88A67EECE
:10316000A57A66EEC66AD8E7BDEC028BBDE8F041F1
:103170001047012B7FF449AFF7EE005AB8EE006A12
:1031800077EEA56A38EE255AB6EE007A67EE867AB3
:1031900026EE877A85EE856A35EEC88A27EE067AAE
:1031A00066EEC66A23E7A1F11B03032B03D8DFE811
:1031B00003F013100D0A553903293FF626AFDFE857
:1031C00001F01714110ED4F8880024E7D4F8880011
:1031D0002BE7D4F8880032E7D4F8880039E7D4F830
:1031E0008C0018E7D4F88C001FE7D4F88C0026E791
:1031F000D4F88C002DE700BF182D4454FB21194052
:103200000000FE420125001000F07F4500007A44D6
:10321000192600100000C843000048422DE9F0477D
:103220000C46064694B00B222046B54912F014FC19
:10323000002800F0958006222046B24912F00CFCCE
:1032400060B114222046B04912F006FC0546002861
:1032500000F09480002014B0BDE8F087A379312BF2
:1032600000F08980322B00F08380332B40F04481C2
:1032700006F18C07083404222046A44912F0ECFB26
:10328000002800F0318105222046A14912F0E4FB1C
:103290000546002800F06E81092220469D4912F063
:1032A000DBFB0546002840F01A81902005F036FC33
:1032B000044600234FF47A7E4AF6444CDFEDAA5AC6
:1032C0009FEDAA6ADFEDAA6A9FED937ADFED937A0C
:1032D000DFF884829248C4F87080DFF880829149D8
:1032E000914AC4E90005D8F80000C4ED0F5A84EDF6
:1032F000116AC4ED146A84ED167AC4ED177AC4F825
:1033000010E0C4F820C0E16021646361A361A3629E
:103310002363636323666366A366E366A367E2646D
:103320006265A560E56184F82C5084F8385084F813
:103330004850A4F87450002800F065817B4BE0678A
:1033400020463169984723682046DB69B6F890101B
:10335000984738683C6038B103685B68984703E079
:103360007349744807F01CFA012014B0BDE8F087D7
:1033700006F188077EE706F184077BE74FF0FF3709
:1033800005AB00936C4904AB04F1140003AACDE92A
:103390000377059712F0B2F9002800F09C80039B98
:1033A0000B2B00F29880DDF81080B8F1000F40F38D
:1033B0009280059F002F40F38E80DFF8A491DFF804
:1033C000A4A1B7F5001FCDE90835B469CDF82C905C
:1033D000CDF828A000F32081CDE911551095139563
:1033E00010AD022208A90CAE2846FDF781FB95E836
:1033F000030086E8030004F1100393E8030085E866
:10340000030096E8030083E80300A369E2691293CE
:10341000C4F818A01392C4F81C901BB103222946CB
:103420002846984700230122D4F82CC0C4F83874E9
:10343000C4F83C34C4F83034C4F84834C4F82880A4
:1034400084F834243D4ADCF80010106801F50017B8
:10345000D4F84C240744084401F58001C4F844041E
:10346000CCF8001027620C93C6E901330F9382F861
:103470003D301093C5E9013306AC139395E8030082
:1034800084E80300131D93E8030085E8030094E833
:10349000030083E803001299D36810691293D16086
:1034A0001399139011611BB10322294628469847AE
:1034B0000E9B1BB103223146304698470A9B1BB135
:1034C00008A9032208469847DDE9032305991C480B
:1034D00007F066F948E71B4807F0E2F8BAE621462C
:1034E000194807F05DF93FE7042005F017FB174A7C
:1034F0000446174B026023E7164807F0D1F833E77C
:10350000A4AB0110ACAC011000AD0110E8AD01108E
:10351000D4AC0110DCAC0110565CE8BF3FBB543F9B
:1035200094B9011000007A445652803BB128001033
:10353000F8AD0110BCAB011018AD0110EC17002064
:1035400098AD011024AD0110E8AC011064B9011070
:10355000F5030010B4AC011000409C46002F002081
:103560002D1F0010F10A001000803B47F4FD343F8E
:103570005652003C902005F0D1FA044600234FF447
:103580007A7E4AF6444C5FED086A1FED087A5FEDDB
:10359000087ADFF8B8802848C4F87080DFF8B08077
:1035A0002649274AC4E90005DFF8A8A0DFF8A8905B
:1035B000D8F80000C4ED0F6A84ED117AC4ED147AD6
:1035C000C4F858A0C4F85C90C4F810E0C4F820C057
:1035D000E16021646361A361A36223636363236683
:1035E0006366A366E366A367E2646265A560E5615E
:1035F00084F82C5084F8385084F84850A4F874505B
:1036000008B1104B9BE6042005F088FA236805609A
:103610005B69C8F8000092E64FF4001239460A4888
:1036200007F0BEF80A9B002B3FF414AE08A9032252
:10363000084698470EE600BF34B9011000007A44EE
:103640005652803B3927001070AD011000409C4657
:10365000002F0020565CE8BF3FBB543F2DE9F04FE0
:103660002DED068B0C228BB07149044612F0F4F953
:1036700000B30F2220466F4912F0EEF900286BD0FC
:10368000042220466C4912F0E7F9002800F0AC80D3
:1036900006222046694912F0DFF9002852D021465F
:1036A000674B186803681B6B0BB0BDEC068BBDE85D
:1036B000F04F1847634D02AC2A680290C4E901003C
:1036C000059082F83D00CDE90800CDE9060006AB83
:1036D00093E80300CDE9000102F1040C9CE803002B
:1036E00083E80300DDE900018CE803000899D6684F
:1036F00010690896D1600999099011611EB10322E1
:1037000019461846B047049B1BB1032221462046A8
:1037100098474D4C2068002800F083802C68484A68
:10372000636A106003B19847012384F83D3009F0C3
:103730003FFD464809F0B2FD01200BB0BDEC068B01
:10374000BDE8F08F4249434807F02AF801200BB04A
:10375000BDEC068BBDE8F08F3A4D02AC2A680290B2
:10376000C4E90100059082F83D00CDE90800CDE9EB
:10377000060006AB93E80300CDE90001161D96E8AC
:10378000030083E80300DDE9000186E803000899EF
:10379000D66810690896D1600999099011611EB127
:1037A000032219461846B047049B1BB10322214649
:1037B00020469847DFF8B480D8F80040002C57D056
:1037C0002D681F4A6B6A146003B19847012385F87E
:1037D0003D3009F0EDFC1D4809F060FD01200BB003
:1037E000BDEC068BBDE8F08F4FF4407664251A4897
:1037F00006F056FF0121194A194B12681948A2F820
:10380000156095619B6A0D24A0FB03039B0911754C
:10381000D36141EC404001200BB0BDEC068BBDE80C
:10382000F08F042005F07AF90F4B2060036075E7F4
:10383000E0AD0110F0AD011000AE011010AE0110AE
:103840000C29002018290020D02100206923001015
:1038500018AE0110BCAB011008AE01109C2E002068
:1038600000000B40D34D6210E4BA0110C8210020C3
:103870004FF4CA7005F052F9C94ECA4A336804467B
:103880000260002B00F07781C74E6360306800282B
:1038900000F03B82DFF85493A060D9F800000028C4
:1038A00000F02B82C14FE0603868002800F00882E9
:1038B000DFF83CA32061DAF80060002E00F0D2812E
:1038C000DFF830A36661DAF80060002E00F098811E
:1038D000012300274FF0000A9FEDB58A9FEDB5AA9E
:1038E000DFEDB59A9FEDB59ADFEDB58ADFEDB5AAAC
:1038F000DFF8E4B2B44A84F85C30B44BA6612266C7
:10390000A266636684ED07AA84ED088AC4ED099A6D
:10391000C4ED0CAA84ED0E9AC4ED0F8A84ED14AAAE
:1039200084ED158AC4ED169A84ED1B9AC4ED1C8AA9
:10393000902027646764A764E764C4F82CB0C4F8D7
:1039400034B06767A767E767C4F8807084F828A079
:1039500005F0E4F84FF47A724AF64443DFF898C26F
:103960009B49064680ED0FAAC0ED119AC0ED14AA3E
:1039700080ED169AC0ED178A80ED038A80ED108ADB
:10398000C0E901AAC0F870C001600261036247612A
:103990008761876207634763076647668766C7660E
:1039A0008767C0F84CB0C0F854B0C0F81CA080F8CD
:1039B0002CA080F838A080F848A0A0F874A0D9F80E
:1039C0000000002800F0E480F067C4F884609020D4
:1039D00005F0A4F8002300274FF47A7E4AF6444C01
:1039E0009FED746ADFED746A9FED767ADFED737A8E
:1039F0007849794A43618361836203634363036661
:103A000043668366C3668367DFF8F0B1DFF8E8A139
:103A1000724B064680ED0F6AC0ED116A80ED147A94
:103A2000C0ED167AC0E90177C0F85CB0C0F870A0AC
:103A3000C0F810E0C0F820C0C1600164C2644265F3
:103A4000C76180F82C7080F8387080F84870A0F852
:103A500074700360D9F80000002800F09280F067CD
:103A6000C4F88860042005F059F85D4978260160A3
:103A7000012184F8B810022184F8CC10032184F8C5
:103A8000E010042100234FF07E52A4F89060C4F8A7
:103A90008C004FF0050A4FF006094FF0070E4FF06B
:103AA000080C09270A260B2084F8F4104D49C4E9B4
:103AB0002A330968C4E92F334908C4E926114A4961
:103AC000C4E93433C4E93933C4E93E33C4F8A0202F
:103AD000C4F8B420C4F8C820C4F8DC20C4F8F0202E
:103AE00084F8A430C4F8B030C4F8C430C4F8D83076
:103AF000C4F8EC30C4F80031C4F89410C4F80421C0
:103B0000C4E94333C4E94833C4E94D33C4E952330B
:103B1000C4E95733C4E95C3384F808A184F81C91E4
:103B200084F830E184F844C184F8587184F86C61F9
:103B300084F88001C4F81821C4F82C21C4F840216D
:103B4000C4F85421C4F86821C4F87C21C4F81431A5
:103B5000C4F82831C4F83C31C4F85031C4F8643199
:103B6000C4F87831C4E96133C4F89021C4F88C31C9
:103B7000C8F8004024E6012004F0D0FF034630607E
:103B800082E6042004F0CAFF0760C9F8000066E777
:103B9000042004F0C3FFC0F800A0C9F8000013E738
:103BA000942A0020C4B90110A02E0020902A0020E1
:103BB00000007A4400803B47F4FD343F565CE8BF88
:103BC0003FBB543F5652003CFA5C693FFA5CE9BF88
:103BD00034B9011000007A445652803B94B9011068
:103BE00064B90110E817002018BB0110002F002055
:103BF000B42E0020D421002000409C463FBB543FFF
:103C00004FF48A6004F08AFF00234FF0FF313A68D6
:103C10000646C0E90033C0E90233C0E90433C0E915
:103C20000733C0E909338361C0F84014C0F8303469
:103C300080F83434C0F83834C0F83C34C0F8443428
:103C4000C0F84834002A7CD0D9F80000C6F84C24CB
:103C500000286ED00023F062CAF80060C6F8443431
:103C6000336235E6B02004F059FF00210646C0E972
:103C70000011C0E90211C0E90411C0E90611C0E950
:103C80000811C0E90A11C0E90C11C0E90E11C0E920
:103C900010114022483011F00BFE00210023C6E92C
:103CA0002211C6E92711CAF80060C6F89010C6F8BC
:103CB0009810C6F89430C6F8A41086F8A810FFE54E
:103CC000402004F02BFF002302464BF6803C0126E7
:103CD000DFF8ACE042F8043B38604360C2E90133EE
:103CE000C0E90433C0E90633C0E90DC6C0E90833B2
:103CF000C0F828E0C3628387DAE5042004F00EFFF1
:103D00000023C9F800000360CCE5282004F006FF7A
:103D100000234FF032114FF48072C0E90033C0E944
:103D20000233C0E90533016102623060C36143625E
:103D3000B0E5042004F0F2FE0022C9F800000260A1
:103D400088E7402004F0EAFE002301464BF6803E5F
:103D50004FF0010CDFF828B041F8043B0246436005
:103D60003860C1E90133C0E90433C0E90633C0E972
:103D70000DECC0E90833C0F828B0C362838763E75D
:103D80000000205070B5194E34680CB1204670BD4B
:103D9000B02004F0C3FE00250446C0E90055C0E988
:103DA0000255C0E90455C0E90655C0E90855C0E907
:103DB0000A55C0E90C55C0E90E55C0E9105540221E
:103DC0002946483011F074FD0023C4E92255C4E9A6
:103DD0002755C4F8985020463460C4F89050C4F871
:103DE0009430C4F8A45084F8A85070BDB42E0020BC
:103DF00038B554220021204811F05AFD4FF4807349
:103E00004FF460621C4D4FF4FA746B61AB611B4B55
:103E10004FF480502B612A624FF480734FF480720C
:103E200017496C6269601749174CA960E861294617
:103E30001648C5E90A23EC600EF046FF60B114484D
:103E400006F02EFC294611480EF09AFE48B90A49A0
:103E50000E480EF039FF50B90E4806F021FC012043
:103E600038BD01460C4806F09BFC002038BD0146D9
:103E70000A4806F095FCF8E7681F00203D02001094
:103E80000509001021090010E10800104821002058
:103E900020AE0110ACAE01104CAE011074AE01109A
:103EA00030B58FB00546FFF7A3FFB8B10123044634
:103EB000124A134801A92B7010F0BAF838B10F4913
:103EC0000F480FF0C1FF80B920460FB030BD01A9E7
:103ED0000B4810F0FBF820460FB030BD094806F043
:103EE000DFFB002420460FB030BD0146064806F037
:103EF00057FC064806F0D4FBF3E700BF74AF01108F
:103F00004821002058AF01100CAF011080AF011004
:103F100070B50B4604468CB058490068E36009F060
:103F20001BF84FF480320346206907928602821CF8
:103F300002F01F0C06F4F84646EA0C06504946F01B
:103F40008046099146F4801621680A96A360DE1D1A
:103F5000DB0101F12F4143EA063323F0C04301F5B1
:103F6000600112090893474D0309090D22F4F84234
:103F700042EA832206312A43C9B20B9201F076F954
:103F80002168206901F12F4101F56001090D063119
:103F9000C9B2013001F06AF92168206901F12F41AD
:103FA00001F56001090D0631C9B2023001F05EF978
:103FB00001202269616800900323206809F016F847
:103FC000314BE268314902FB03F3B1EBB31F13D26B
:103FD0002F49304B01FB02F29A420BD92E4D284655
:103FE00006AB05AA04A902F0C1FA38B929462B4844
:103FF00001F0A2F92A4DF2E72A4DF0E70498DDE935
:10400000051202F0F1F9052002F0E8F9E3689FEDEE
:10401000267A9B01B0FBF3F307EE903AF8EEE77ACD
:1040200077EE877ABCEEE77A17EE103A9BB213B3BD
:1040300007EE103AB8EE477ADFED1C6A77EEC77AE2
:1040400067EEA67AFCEEE77ACDED037A9DF80C5088
:104050002D02D4E9011245EA0345206807AB079514
:1040600009F00AF8D4E900200123116883400B43CA
:1040700013600CB070BD1D46EBE700BF045D02107D
:1040800000000640E083FFFFD578E92626310800CE
:10409000F125BED3BEF10500F0490200A4AF011026
:1040A000B0110200803202000000003B000080439B
:1040B000F8B50F4C206800B1F8BD402004F02EFD8B
:1040C000002302464BF68036012542F8043B43604C
:1040D000C2E90133C0E90433C0E90633054FC0E942
:1040E0000833C0E90A73C0E90D6520608387F8BD15
:1040F000902A0020000020502DE9F0412F4E346816
:1041000014B12046BDE8F0814FF48A6004F006FD4A
:1041100000254FF0FF312A4F04463B68C0E90055A7
:10412000C0E90255C0E90455C0E90755C0E9095581
:104130008561C0F84014C0F8305480F83454C0F899
:104140003854C0F83C54C0F84454C0F848546BB1DB
:104150001C4DC4F84C34286840B30023E06234603E
:104160002046C4F844342362BDE8F081402004F0C6
:10417000D5FC02464BF6803E4FF0010CDFF848803C
:1041800042F8045B034645603860C2E90155C0E966
:104190000455C0E90655C0E90855C0F82880C0F8A4
:1041A00034E0C562C0F838C08587D1E7042004F048
:1041B000B5FC002328600360CFE700BFD4210020B6
:1041C000902A0020002F002000002050F0B52A4E39
:1041D00004463568CBB0002D37D02021274A6846E9
:1041E000237806F00FF86946254808AA0FF058FA18
:1041F000B0B9099F7B08643BE3606360214B6A466A
:104200001E682B681E481E443B442B6008A90123EE
:10421000A6600FF033FB38B10023E3604BB0F0BD74
:104220006FF063030027E7E73B463246144808A9CE
:104230000FF040FC051E15DB114808A90FF02AFB02
:1042400058B9AF42E8D14BB0F0BD042004F066FC91
:104250000023054603603060BFE701460A4806F0C8
:104260009FFAD9E72946094806F09AFA08A90448AE
:104270000FF010FBD0E700BF002F0020FCAB0110B7
:1042800048210020EC1700205CAC0110CCAE0110DE
:104290002DE9F041D0E903382DED028B98ED0D8A20
:1042A0000022B8EE488A05461A6080ED078A18EEAB
:1042B000100A16F015FC06460F46286A16F010FC88
:1042C0007DA3D3E9002303F00DF93B46324603F00A
:1042D0002FF903F07BF9044604F0B6FAD5ED097A1C
:1042E00007EE100A77EEA77A2046C7EE278A04F079
:1042F000AEFA95F8283007EE900A002B40F0B38014
:10430000F7EE005AB8EE006A75EEE76A38EEA55A85
:10431000B6EE007A67EE867A26EE877A85EE856AB3
:1043200075EEE88A27EE067A66EE266A67EE867AEA
:1043300068EE868A85ED0B7AC5ED0C6A85ED0D7AFF
:10434000C5ED0E7AC5ED0F8A85ED148A686D16F0FD
:10435000C7FB59A3D3E9002303F0C4F83B46324618
:1043600003F0E6F803F032F9044604F06DFAD5EDF7
:10437000167A07EE100A77EEA77A204687EE278A8C
:1043800004F065FA95F85C3007EE900A002B43D1F3
:10439000F7EE005AB8EE006A75EEE76A38EE255A75
:1043A000B6EE007A67EE867A26EE877A85EE856A23
:1043B00035EEC88A27EE067A66EE266A67EE867ABA
:1043C00028EE068A85ED187AC5ED196A85ED1A7A08
:1043D000C5ED1B7A85ED1C8AD5F88400414603683B
:1043E00005F1A4045B699847D5F88800296903683A
:1043F0005B699847D5F88C002969036805F5CA758B
:104400005B69984720461434FFF7E0FEA542F9D1D6
:10441000BDEC028BBDE8F081012BDDD1B7EE005A77
:10442000B8EE007A37EE856AF6EE006A78EE054A55
:1044300067EE877AC5EE245A66EE266A35EE487A2C
:1044400066EEA56A26EE656A67EEA57A27EE257AFE
:10445000C5ED186A85ED196AC5ED1A6AC5ED1B7AB6
:1044600085ED1C7AB8E7012B7FF46EAFB7EE005AEA
:10447000B8EE007A37EE856AF6EE006A78EE854A85
:1044800067EE877AC5EE245A66EE266A35EE687ABC
:1044900066EEA56A26EE656A67EEA57A27EE257AAE
:1044A000C5ED0B6A85ED0C6AC5ED0D6AC5ED0E7A9A
:1044B00085ED0F7A48E700BF182D4454FB211940C1
:1044C0002DE9F04F2DED028B8FB006F05FF809213A
:1044D000002000F0CBFE084A08491368086843F43E
:1044E00000631360FFF7DCFC50B901200FB0BDEC96
:1044F000028BBDE8F08F00BF00800C408C2A0020AA
:104500004FF03212AD4BAE491B68AE489960AE49D0
:104510005862C3E9031208F0E5FE1C20FCF7D8FA44
:104520001D20FCF7D5FA0D2000F0E2FE4FF001054A
:104530000D2345EC44300C2000F0DAFE00240C2062
:1045400044EC44000121224600F0AEFE142000F0AD
:10455000CFFE142345EC4430132000F0C9FE132392
:1045600045EC443099499A4ACDE90A140D920992D2
:10457000984A0DF128090C920892974B04AA0691CB
:1045800099E8030082E803001B68079493E803009E
:1045900089E8030092E8030083E80300D3E90245B9
:1045A0000C9A0C949A600D9A0D95DA601CB1032256
:1045B00049464846A047089B0DF1180B1BB1032242
:1045C00059465846984700224FF0FF31834B1C68EC
:1045D000814B1B6883F83424C3F84014C3F8382493
:1045E000C3F83C249A62C3F83024C3F848247C4BB7
:1045F00063627C4B236094F83C30B3B97A4801F095
:104600009DF94AF6444104F12800FFF781FC01239B
:1046100084F83C30636A03B19847012384F83D3045
:1046200008F0C6FD714808F039FE0023CDE90B33D0
:1046300007936F4B04AE0A9306936E4B99E8030001
:104640001C6886E803006C4A6C4D0992089504F1D9
:10465000980393E8030089E80300D6E9000183E8A2
:104660000300D4F8A030D4F8A4100C93C4F8A050E0
:104670000D91C4F8A4201BB103224946484698472F
:10468000012384F8A830089B1BB1032259465846E1
:10469000984700230B93574B594D1868594C5A4B68
:1046A000494628300A930D950C94FCF7A1FD0C9B0C
:1046B0001BB1032249464846984700230B934D4BB4
:1046C00049461868514B08300A93CDE90C45FCF770
:1046D0008FFD0C9B1BB10322494648469847002397
:1046E0000B93444B49461868494B18300A93CDE95F
:1046F0000C45FCF77DFD0C9B1BB103224946484647
:104700009847444C47F61221204601F019FD00233A
:1047100001220821204601F095FD236B3E4A03F457
:10472000404313630121204601F0C4FD022105200E
:1047300000F09CFD0221042000F098FD00220121E0
:10474000052000F0B1FD9FED358ADFF8E8A0344B7D
:10475000344A9B6AA2FB0323184A9B091468227DF2
:10476000DAB1E269A1699A1A8A4216D34FF0504130
:104770004968627D11F4005F4FF00D0100F09D81EA
:104780004FF0000040EC4010A17DE361914204D85D
:1047900000220D21227542EC40106268934200F025
:1047A00092800421204A63601368204883F40053F8
:1047B00003F4704303601E4B19603DE09C2E002003
:1047C0002508001015080010350800105D3600108F
:1047D00089080010410B0010302F002018290020FC
:1047E00095070010A507001010290020692300106C
:1047F00045080010B02E002091080010690B001031
:1048000099080010910B0010F5070010B507001073
:10481000D507001000800740009007408845C84D2C
:1048200000000B40D34D621000000A4000100A4007
:1048300000200A40130080001368DF05FCD5536890
:1048400094F8211098B239B92288131A002B228AC1
:10485000B8BF5B42934205DDA368208013B198473F
:1048600094F8211004209B4A9B4D136883F4405315
:1048700003F470432B60994B18601368DE05FCD578
:10488000536898B239B96288131A002B628AB8BF8C
:104890005B42934203DDE368608003B198474FF0C9
:1048A00050435A68D50400F1BA8094F82020002AB9
:1048B00040F00B81636A01209847012384F820307F
:1048C000002384F82130864C864BA6691D6816F0BB
:1048D00010063AD105F13808A369D906FCD423683B
:1048E0002A79DFB212B1A269920668D5F72F54D89F
:1048F0001B0661D42B782BB3E9784A1CD2B2294429
:10490000012AEA704F701DD903F0F00190296878F0
:10491000AA78EE7003F00F0300F0A380B02900F036
:104920008E8080290ED1296A61B18DF810308DF802
:1049300018008DF828204B465A466F6A04A905F1E5
:104940001800B847A369DF06C6D5674B1C6894F802
:10495000340400283DD0002005F01AFE851C16D036
:104960000A2800F0C9800D2800F0C680D4F8483429
:10497000B3F5001F80F0F881D4F84424591CC4F822
:104980004814D054D4F83C340133C4F83C34574B69
:10499000186803681B699847D9E695F8A8300BB1E9
:1049A000F82F2BD02B6C002BCCD08DF828704946DB
:1049B00040466B6C9847C5E72F70EE70C2E74C4AD3
:1049C000B2F90220BA4223D0A2699206FCD4276031
:1049D0008CE705F0DDFD821CD9D00A28D4F83034EC
:1049E00052D00D2850D040F2FE329342CFDC5A1CF8
:1049F0002344C4F8302483F83000C8E7D5F8903059
:104A0000172B03F1010200F0BF81C5F89020C9E720
:104A100033498A699006FCD40D220A60D4E75B68AA
:104A2000D8047FF54DAF94F82030002B3FF448AF09
:104A3000636A00209847002384F8203040E7296B00
:104A400000293FF47FAF8DF810308DF818008DF8F5
:104A500028204B465A466F6B04A905F12800B84739
:104A600070E72969002900F01682002A40F00582CB
:104A70002A6A002A3FF466AF8DF8103000238DF8C3
:104A800018008DF8283056E7002B80DD00222344E3
:104A900083F83020A368C4F8302404F130053BB11A
:104AA00049462046E3680A95984700287FF46FAF8F
:104AB0002946104805F074FE69E74FF0010040EC0C
:104AC00040100132D2B262755EE65B68DB04AFD49F
:104AD000F6E600BF00000A4000100A4000200A402D
:104AE00000800740B02E0020302F00200C2900202D
:104AF000182F002078B00110D4F83C149C4805F021
:104B00004FFED4F84404002800F0AA80236A0193E1
:104B1000002B00F0A580D4F84824032A40F2DD8160
:104B2000002303211D468E460294CDF80CB093421B
:104B300080F0A7805C1E044414F8011F0939C9B233
:104B400017292AFA01F600F29C80F10740F19980BA
:104B500001339A42F0D111460B1D9A42C0F0968063
:104B60004418844F6478465C3C5DBE5D00943C46CE
:104B7000009F01F1030C3F0947EA86078E1C10F8DD
:104B8000068010F80CB014F80880019C6755875D0A
:104B9000784C3D2F14F80B6005F1010B00F0D2802A
:104BA000009C019F240144EA980407F80B4010F888
:104BB0000C4002353D2C03D046EA88167E557546DA
:104BC00008318A42C0F0C38005F1030EBEF5001F14
:104BD000ADD99A42DDE9024B00F269816562A36AB0
:104BE000043D9D4228BF1D46266A2F464FF0FF33E5
:104BF0003168CDB18E46F51C05EB070C15F8012F79
:104C00005D4982EA030000F00F0051F8200065457D
:104C100080EA131080EA121303F00F0351F82330D7
:104C200083EA1013EAD17146DA43914240F03B81A6
:104C3000A36943B104364A465946E3690A97069682
:104C400004F110009847D4F84C546B6A03B19847AC
:104C5000012385F83D3008F0ABFA484808F01EFB08
:104C600000234FF0FF3284F83434C4F84024C4F8F1
:104C70003834C4F83C34A362C4F83034C4F848343F
:104C800085E619460B1D9A42BFF46AAF9142DDE9F1
:104C9000024B61D20B46013BC1180023013A861832
:104CA0000A9311F8017F03F138020DEB020CA7F112
:104CB0000902D2B2172A2AFA02FE03F1010000F219
:104CC00002811EF0010F00F0FE80B142E9D11846CA
:104CD000002841D0042805D0C0F104023D214844F9
:104CE00010F0E6FD234E9DF829309DF82820F35C56
:104CF000B15C1A0942EA810201999DF82A709DF877
:104D00002B004A5532463D2FF65D125C05F101013C
:104D100000F0E680B1F5001F00F0E480019F1B0168
:104D200043EA96033D287B5405F1020300F0E1803D
:104D3000B3F5001F00F0D680019942EA8612CA54EA
:104D4000033509E008318A425D46BFF43DAF9A421F
:104D5000DDE9024B00F2AB80032D65623FF63FAF09
:104D6000074805F09DFC7BE7064805F099FC77E7CE
:104D7000D8AF01101C5D0210C45C02106923001042
:104D800004B0011060B001100023C5F89030D5F8D0
:104D90008830009301F09CF9009B95F88CC005EBDE
:104DA000C303C3E91201D5F888104B1C584203F025
:104DB00007031A4600F0070058BF42429646BCF16E
:104DC000000F4CD001F1090C02F1090155F83C002B
:104DD00055F8312005EBCC0C05EBC101DCF804C023
:104DE0004968801A6CEB0101002968DB50EA010C6C
:104DF00035D0CDE900E303F06FFB06EE100AF6EEC6
:104E0000007A95ED257AC8EE066A37EE277A76EEB7
:104E1000A77AFCEEE77ABDEEC77A17EE903A99B220
:104E200017EE103A8B42C5ED256ADDE900E316D096
:104E3000D5F8A00098B1D5F8A430ADF8281005F148
:104E4000980049469847D5F888300133594203F015
:104E500007031A4601F0070158BF4A429646C5F8B3
:104E600088E0002B7FF49EAD95F88C30002B7FF40A
:104E700099AD012385F88C3094E58DF810308DF8CC
:104E800018008DF828204B465A466F6904A905F191
:104E90000800B84756E5296A00293FF453AD002AB7
:104EA0007FF450ADE8E5144805F07AFCD8E6B5F596
:104EB000001F7FF4F0AE65624FF400158FE64042AC
:104EC00061EB410195E7B1420CF8107C3FF400AF73
:104ED00004283FF407AF0346E3E63AB962623FE7CE
:104EE0000D4639E74FF400136362E5E700231D46E2
:104EF000D1E61D4630E700BF28B001102DE9F0478C
:104F0000C74C2068F0B1C74DC74A2B681060F3B199
:104F1000C64EC74A3068136070B3C64BC64F1860A0
:104F2000FFF7C6F8C54B1860FEF72CFFC44B18609E
:104F3000FFF7E2F8C34B3C68186024B3C24B1C6017
:104F4000BDE8F087012003F0E9FD2060DBE72820C1
:104F500003F0E4FD4FF0321400224FF48071034659
:104F6000C0E90022C0E90222C0E90442C0E90622E9
:104F7000C0E908122860CBE7042003F0CFFD00232E
:104F800030600360C9E74FF4D87003F0C7FD0446F2
:104F90004FF4D872002110F08BFCAC4B28682360D2
:104FA000002800F0B180DFF8B8926060D9F80050B6
:104FB000002D00F0DB80DFF8AC82D8F80000A5609F
:104FC000002800F0B580A24A0023E0606261322030
:104FD000626262636264626562664BF680329D4E15
:104FE0009D4D9E496667C4F884602374E361238401
:104FF000E3622386E363A4F84030E364A4F850300E
:10500000E365A4F86030E366A4F87030E367A4F8C1
:105010008030A261A262A263A264A265A266A267B6
:10502000C4E92223C4E92562C4E92962C4E92D62E6
:10503000C4E93162C4E93552C4E93952C4E93D5288
:10504000A4F89030C4F89C30A4F8A030C4F8AC3078
:10505000A4F8B030C4F8BC30A4F8C030C4F8CC30E8
:10506000A4F8D030C4F8DC30A4F8E03084F8E200D2
:10507000C4F8EC30A4F8F03084F8F200C4F8FC3046
:10508000A4F8003184F80201C4E94152C4E946237E
:10509000C4E94A23C4E94D12C4E95112C4E95512C6
:1050A000C4E95912C4E95D12C4F80C31A4F81031F6
:1050B00084F81201C4F81451C4F82451A4F8203122
:1050C00084F8220184F83201A4F83031C4F83C316C
:1050D000A4F84031C4F84C31A4F85031C4F85C3124
:1050E000A4F86031C4F86C31A4F87031C4F87C3194
:1050F000C4E96112A4F88031C4F88C31A4F890316D
:1051000084F8AC313C6019E7282003F007FD002348
:105110004FF032114FF48072C0E90033C0E902331E
:10512000C0E90533016102622860C36143623AE766
:10513000402003F0F3FC002302464BF680360125A5
:10514000DFF824C142F8043BC8F800004360C2E91C
:105150000133C0E90433C0E90633C0E90833C0F8BD
:1051600028C04663C362856383872CE74FF48A6057
:1051700003F0D4FC00234FF0FF31DFF8E880054650
:10518000D8F80020C0E90033C0E90233C0E9043395
:10519000C0E90733C0E909338361C0F84014C0F89F
:1051A000303480F83434C0F83834C0F83C34C0F8B7
:1051B0004434C0F848345AB13068C5F84C2438B388
:1051C0000023E862C9F80050C5F844342B62F4E6C5
:1051D000402003F0A3FC002301464BF6803E4FF035
:1051E000010CDFF884A041F8043B02464360C8F894
:1051F0000000C1E90133C0E90433C0E90633C0E966
:105200000DECC0E90833C0F828A0C3628387D3E758
:10521000042003F083FC002330600360D0E700BF6C
:10522000942A0020A02E00208C2A0020002F00208D
:105230009C2E0020FC2E0020CC21002018290020CC
:10524000B02E0020302F00200C290020A8BA011019
:1052500018BA011030BA011048BA011000BA011092
:10526000D4210020902A00200000205010B44FF4D8
:1052700080740C4B53F8202003EB8003C00082F0B5
:10528000400200F1804003F5805C02F0C00200F5AE
:10529000203003F54053CCF8002041601C605DF8DD
:1052A000044B70470480034010B4084CC90041EA25
:1052B000820154F8202004EB8003514003F5805311
:1052C00001F00C015DF8044B196070470480034045
:1052D000064B402203EB800319B103F500531A601B
:1052E000704703F540531A60704700BF04800340C5
:1052F00030B44FF0000343EC440043EC400005257C
:105300004FF480740B4BC20053F8201003EB800065
:1053100081F0400102F1804303F5203301F0C00227
:1053200000F5805100F540500A605D60046030BCBB
:10533000704700BF048003400FB400B583B0049CE5
:10534000074805F0ADF93CB105A92046019104F0EC
:10535000A7FF044805F0A4F9012004F0B9FF00BF3D
:10536000D4B00110DCAD0110EFF3108072B6064B23
:10537000D3E8CF1F01220029FAD1C3E8412F002929
:10538000F6D1BFF35F8F7047F72400200023034A54
:10539000C2E88F3F80F31088704700BFF7240020D9
:1053A00070B58646EFF3108572B6124CD4E8CF6F15
:1053B0000120002EFAD1C4E8460F002EF6D1BFF32B
:1053C0005F8F4FF0010CC80801F007030CFA03F3DC
:1053D0001EF800C01CEA030608D14CEA030C0EF8C4
:1053E00000C0C4E88F6F85F3108870BD1046FFF7CA
:1053F000A3FF00BFF7240020F8B5EFF3108772B6C3
:105400001C4ED6E8CF5F0124002DFAD1C6E8454FE7
:10541000002DF6D1BFF35F8F9A421BD8012502E021
:105420000132934222D3D40810F804E002F0070CB2
:1054300005FA0CFC1EEA0C0FF2D14EEA0C0E00F835
:1054400004E010460023C6E88F3F87F31088984297
:1054500007DBF8BD0023C6E88F3F87F310884FF0C5
:10546000FF300029F5D00698FFF766FF4FF0FF30B8
:10547000E8E700BFF7240020044A1078431CDBB2A1
:10548000182B28BF10231370704700BFF01700209F
:1054900010B5054C82B001461F2318220094034822
:1054A000FFF7AAFF02B010BDE4B00110242A0020CB
:1054B0004FF0E022936843F000539360704700BFC1
:1054C0000021044B03F12002C3E88F1F01339342F4
:1054D000FAD17047EC2400204FF0E0234FF08032E7
:1054E000C3F80024C3F80424C3F80824C3F80C2428
:1054F000C3F81024C3F81424C3F81824C3F81C24D8
:10550000C3F82024C3F82424C3F82824C3F82C2487
:10551000C3F83024704700BF012300F01F029340FE
:10552000400941B1800000F1604000F56140C0F8E1
:10553000803103607047024A203042F820307047C3
:1055400000E100E00123064A410952F8212000F061
:105550001F0003FA00F01040003818BF0120704708
:1055600000E100E001224309034900F01F008240EE
:10557000403341F82320704700E100E0054A103035
:105580009268054B52F82000C01A2F288CBF0020CB
:105590000120704700ED00E0F4170020F8B50D463B
:1055A000EFF3108772B6124ED6E8CF2F0123002AF0
:1055B000FAD1C6E8423F002AF6D1BFF35F8F0D4B08
:1055C00000F110049B680C4A53F82430934203D036
:1055D000994201D001F09CF9064B9B6843F8245096
:1055E000BFF35F8F0023C6E88F3F87F31088F8BDB5
:1055F000F524002000ED00E01D0100102DE9F04F22
:1056000081468B46164683B0EFF3108372B6DFF8FF
:10561000D0A10093DAE8CF1F01230029FAD1CAE80C
:10562000413F0029F6D1BFF35F8F664B93F90040ED
:10563000002CC0F2A080644D04EB440705EB870802
:1056400098F8061009F110091970604BBF009B68AB
:1056500053F829006300411B2F292FD95C49884248
:1056600040F0A4801C445B4B02372F44043BDB1BFF
:10567000C3F34A036FEAC3434FF421416FEAD343B4
:1056800025F8241005EB840463804BF60153A380B6
:10569000FF2348F00100E671C4F808B0A3714B4B3A
:1056A0009B6843F82900BFF35F8F0023CAE88F3F50
:1056B000009B83F3108803B0BDE8F08F20F0010E4B
:1056C0009EF80710B1422ED84FF42143EB53414BC3
:1056D000B91C2944043B04375B1A2F44AEF1040182
:1056E000C91BC1F34A043C49C3F34A030B4321439A
:1056F000A8F804103949A8F802304AF6AA207346DF
:105700005B1B5B415843000D88F8076088F8060072
:10571000C8F808B048F00100CEF80010BFE7D17912
:10572000B1422ED996469EF906C00CEB4C02BCF154
:10573000000F05EB8202F2DA4BF601510EF1040282
:10574000A8F10407BF1AC7F34A076FEAC7476FEA11
:10575000D7478EF8064003EB0408204C05EB88037E
:10576000AEF8047045F82840998083F806C0DE71D1
:10577000C3F808B093E701F0CBF8124B93F900405F
:1057800059E7724632F8041F490514D4491502310D
:1057900002EB410101916FF00701C91B019F491BF9
:1057A0003944C1F34A0141F46041C9E7019301F072
:1057B000AFF8019B56E701F5FF1101F5FF511F31CD
:1057C000E4E700BF392F0020F417002000ED00E0CF
:1057D0001D0100102418002000E0FFFF0148804751
:1057E000F5240020F0B5EFF30585EDB2EFF3108C52
:1057F00072B62649D1E8CF2F0123002AFAD1C1E899
:10580000423F002AF6D1BFF35F8F214E40F0010ED8
:10581000B4684AF6AA2354F825701E4A0446A41A0E
:10582000644163431B0D77455BB21BD092F9064080
:105830009C421CD092F912409C4223D092F91E4007
:105840009C4221D092F92A409C4208BF03240FD0E9
:10585000114A0024157813708571C1E88F4F8CF3BD
:105860001088F0BDB2680D4C42F82540F0E70024E6
:1058700004EB440402EB8402FF2494714BF60154C0
:105880009480E5E70124F3E70224F1E7F524002002
:1058900000ED00E0F4170020392F00201D0100105A
:1058A00010B5074C82B0014605230022009405483C
:1058B000FFF7A2FD0028A8BFC0F1330002B010BD61
:1058C00000B101103D2F0020014B0B4403607047D5
:1058D000EC24002070B5104C104DAC420ED2FF26C7
:1058E000236863B1FFF7C8FD01462046FFF7ECFFD0
:1058F000A680BFF35F8F0834AC42F1D370BDFFF7D1
:10590000BBFD01462046FFF7DFFF2671BFF35F8F27
:105910000834AC42E4D370BD541F0020641F002043
:1059200010B50446FFF7A8FD01462046FFF7CCFF5F
:10593000FF232371BFF35F8F10BD00BF10B5044676
:105940000120FFF7A5FD034B03442360BFF35F8FE6
:1059500010BD00BFEC240020024B0B440360BFF3DA
:105960005F8F7047EC2400200D4B1A68EFF3108115
:1059700072B6D2E8CFCF0120BCF1000FF9D1C2E856
:105980004C0FBCF1000FF4D1BFF35F8F00221B68F6
:10599000C3E88F2F81F3108840BF0020002170479B
:1059A0000C2F0020000000002DE9F04F2DED028BA0
:1059B00085B0EFF30583DBB2103B9A0818BF0122D4
:1059C0004FF0010103F0030B18BFAF4DAF4B08BF01
:1059D000AF4D0BEB820253F8226001FA0BF205F592
:1059E00041539FEDA78B01925A602FE0B3881C04AE
:1059F00040F19380B379002B40F0DD80B6F90820A8
:105A0000002AC0F21E81736902EB420203EBC2035B
:105A1000D3E90247B7F1FF3F08BFB4F1FF3F0ED013
:105A200005EB8B01AB6A0A69D21AE31A934205D3DC
:105A300001232A6A03FA0BF3134200D10C612846B2
:105A400000F03EFBA042B941C0F2FB80B6F908303D
:105A5000019A002B0093EA63C8DBD6F8148003EBAD
:105A60004309284608EBC907D7E9024A00F028FB9A
:105A7000A04271EB0A01B9DBBAF1000FC0F2C3809A
:105A8000D7E90431834A934200F0ED807A88B6F971
:105A9000080092B242EA0040984702460B4652EA9A
:105AA000030100F0B080002B80F2D180B4EB020E35
:105AB0006AEB030A38F93930C7E902EA002B95DBB3
:105AC000716903EB430201EBC202D2E90270BE45E9
:105AD0007AEB000C4FEA430288DBB4462CF8083F0F
