:020000041000EA
:10000000002008205D0100101301001015010010F0
:100010001101001011010010110100101101001058
:100020001101001011010010110100101701001042
:100030001101001011010010190100101B01001026
:100040001D0100101D0100101D0100101D010010F8
:100050001D0100101D0100101D0100101D010010E8
:100060001D0100101D0100101D0100101D010010D8
:100070001D0100101D0100101D0100101D010010C8
:100080001D0100101D0100101D0100101D010010B8
:100090001D0100101D0100101D0100101D010010A8
:1000A0001D0100101D0100101D0100101D01001098
:1000B0001D0100101D0100101D0100101D01001088
:1000C0001D0100101D0100101D0100101D01001078
:1000D0001D0100101D0100101D0100101D01001068
:1000E0001D0100101D0100101D0100101D01001058
:1000F0001D0100101D0100101D0100101D01001048
:100100001D0100101D0100101D0100101D01001037
:1001100000BE00BE00BE00BE00BE00BEEFF3058004
:10012000103800BEF2EB8871A8240310CC24031011
:10013000A801001090A31AE7D3DEFFFF42012110AF
:10014000FF01000000420300793512AB4FF00000C0
:100150002049086006C881F3088810474FF05040D6
:10016000006810B14FF00000F2E70FA40ECC002998
:1001700002D000F015F8F9E71749184A002000E00E
:1001800001C19142FCD1002080F30A8814498847BC
:10019000144988471449884700BEFDE701C901C2D8
:1001A0009A42FBD3704700BFCC24031010010020FB
:1001B0007C1F0020384303100000082000000820A6
:1001C0003843031000100820001008200000000031
:1001D0007047000008ED00E07C1F0020483402203A
:1001E000896A0010B91400104D6A0010F8B500BFFC
:1001F000064B0749C91A891048BF0131491003D07D
:10020000044B0BB101481847704700BF7C1F00200A
:100210007C1F00200000000008B5054B1BB10549FC
:100220000548AFF30080BDE80840FFF7E1BF00BF1D
:1002300000000000A82F0020547201100020704719
:1002400003680888184700BF10B40468087811785C
:100250001A7823465DF8044B184700BFC26903466D
:1002600002FB01F110B501F50010EFF3108472B636
:10027000D96916F0B5FF84F31088002010BD00BFC7
:10028000944608B5C0690CF1815C00FB01C1029A7B
:10029000184612F0ADF8002008BD00BF2DE9F04768
:1002A000C769804638460C4691461E4601FB07FA50
:1002B00004F0AAFF38B305463A460AF1815112F01C
:1002C00097F83146089A05EB090012F091F8EFF320
:1002D000108672B6D8F81C1004FB01F000F500106F
:1002E00016F07EFFD8F81C20294604FB02F000F52A
:1002F000001016F04DFF86F31088284604F0BEFF6C
:100300000020BDE8F0876FF00B00FAE710B51F2161
:10031000044602F00BF800222046114602F024F8B1
:100320002046BDE81040002102F032B8012A06D074
:10033000022A0AD0032A00D022B1002070470160AF
:10034000002070470260002070470B6803600020A7
:10035000704700BF012A06D0022A0AD0032A00D023
:1003600022B1002070470160002070470260002029
:1003700070470B6803600020704700BF002370B512
:1003800086B002AD02930593C5E901338B6804463C
:10039000F3B10E46022228469847D6E90231A668F4
:1003A000A3600496E368E16095E80300CDE90001ED
:1003B00094E80300059385E80300DDE9000184E883
:1003C00003001EB1032229462846B04706B070BD7F
:1003D0001946E4E72DE9F041D04C2DED028B23685E
:1003E000EFF3108572B6D3E8CF1F01220029FAD1AE
:1003F000C3E8412F0029F6D1BFF35F8FC84BC9492D
:100400001A680E68DFEDC87A964265600ED9C74E4D
:10041000366836F91260013207EE106A1A60C44A73
:10042000BAEEE87AD2ED006AE6EE877A49685A6851
:100430008A420ED2BD49496831F91210013207EEE5
:10044000101A5A60BA4BBAEEE87AD3ED016AE6EEBA
:10045000877AB84AB84913680968994204D9B749F4
:1004600009688B42C0F04A8100232268C2E88F3FAE
:1004700085F31088B24B1B78002B4DD0B14AB24B9C
:1004800092ED097AD2ED054AD2ED0A0A92ED048A7C
:1004900082ED0A7A27EE247AA7EE887A92ED060A90
:1004A000C2ED097AF0EE477AD2ED0B5A92ED071AB7
:1004B000E0EE207AD3ED096A92ED0C2A93ED055A0D
:1004C000D2ED081AE1EE657AD3ED0A3AE1EEC27A8E
:1004D000D3ED042AC3ED0A6A66EE856A93ED063A07
:1004E000E2EEA76A93ED0B6A93ED074AE3EE236A07
:1004F000E4EE466A93ED0C5AD3ED084AC2ED0B7A4E
:10050000C3ED097AF0EE667AE4EEC57AC2ED0C5AD4
:1005100083ED0C6AC3ED0B7A9FED8C6ADFED8C6A7C
:1005200067EE867AF4EEE67AF1EE10FA9FED897ABC
:1005300048BFF0EE667AF4EEC77AF1EE10FA864B19
:1005400037FE277A1D68002D00F0B780DC68D3EDF8
:10055000085A07EE904A93ED0B5AF8EE676AD3ED0E
:10056000057A9FED7E6A36EEE54A77EEC54AE4EEFF
:10057000065AA4EE865A93F82820C3ED085A83ED54
:100580000B5A5968DAB175EEE66AB6EE006AF0EE1B
:10059000E66AF4EEC66AF1EE10FA10D5D3ED096AF8
:1005A000FCEEE66A16EE904A012C38BF01248C421C
:1005B0004FF0000228BF0C4683F82820DC6093F837
:1005C0003420002A40F08880FCEEE55A15EE906A4F
:1005D0009F6993ED174A7A18921BB2FBF1FC01FB5D
:1005E0001C2235F91220D3ED136A05EE902A93ED03
:1005F000121AFAEEE85A64EE266A93ED182AD3ED41
:10060000141AE5EE816AD3ED194AD3ED152AE1EE0D
:10061000826AD3ED1A3A93ED163AE2EEE46A9FED60
:100620004B6AE3EE636AD3ED047A26EE866A66EEE1
:10063000277AFDEEE77AF8EEE77A77EE877A7A1C8A
:10064000B2FBF1FEFDEEE77A01FB1E2117EE902AC8
:10065000DFF81C8147F6FF7C4245B8BF4246624541
:10066000A8BF624683ED184AC3ED1A4AC3ED175A74
:10067000C3ED196A25F817209961F4B1F7EE006A05
:10068000DFED377A76EEC56AF4EEE76AF1EE10FA3E
:1006900025EE066A58BFF0EE667AA7EE276AFDEEF1
:1006A000C67A17EE903A4345B8BF43466345A8BFA4
:1006B000634607EE903AB8EEE77ABDEC028BBDEEEA
:1006C000C77A17EE103A00221BB263F30F0263F3EE
:1006D0001F420260BDE8F08175EE677ADFED216AA6
:1006E000F0EEE77AF4EEE67AF1EE10FA7FF56CAF11
:1006F0001A6B5A61002283F8342065E71A49DFED4E
:100700001B6A096831F91310013307EE101AB8EEAD
:10071000C77A1360E7EE267AA6E600BF20290020FC
:10072000F41700206021002000000000FC170020CA
:10073000EC170020682100201430012034340220FE
:10074000E8170020682F0020242B0020000000471D
:10075000000000C700FEFF46642A00200AD7A33B22
:100760006666663F0AD7233C383402200000003812
:100770000080FFFF234B82B2A3F87020002A40D0F4
:1007800093ED1D7AB5EEC07AF1EE10FA39DD07EE81
:10079000902ADFED1D6AF8EEE77A93ED076A67EEBF
:1007A000266AF8EE465A86EEA77A67EE257AFCEEC0
:1007B000E77A17EE902A596893ED086A8A4228BFB3
:1007C0000A4607EE902AB8EE677A76EE477AB6EEDA
:1007D000005AF0EEE77AF4EEC57AF1EE10FA05DD94
:1007E000012283ED097A83F828207047012A38BF57
:1007F00001228A424FF0000028BF0A4683F82800F1
:10080000DA607047642A00200000704238B518B9D9
:100810000D2340EC403038BD184C194804F58035A4
:10082000296806F063FB0D234FF0010242EC4030D3
:10083000144A1368EFF3108172B6D3E8CFCF0120CA
:10084000BCF1000FF9D1C3E84C0FBCF1000FF4D19B
:10085000BFF35F8F6B680C4803EBD37304605B10CE
:100860000A48643B03600023094851600360126832
:10087000C2E88F3F81F3108838BD00BF14300020DC
:10088000587201102029002038340220343402200C
:100890006821002030B41E4B82B00192A3FB0123DB
:1008A000DB0803EB4303A1EB8301C9B2012902D9A1
:1008B00002B030BC7047DDED017ADFED166AF8EE6C
:1008C000E77A154A87EEA67A1368EFF3108072B6BE
:1008D000D3E8CF5F0124002DFAD1C3E8454F002DA6
:1008E000F6D1BFF35F8F002427EE077A0B4B0C4D38
:1008F00003EB8103506083ED007A126845F82140D4
:10090000C2E88F4F80F3108802B030BC704700BF40
:10091000ABAAAAAA0000FE4220290020EC17002062
:10092000F41700200000000007EE900A9FED427AC5
:10093000F8EEE77AC7EE877AF8B517EE901A2DED44
:10094000028B3E4804F0B8F8B3EE047A07EE900A42
:1009500067EE877A3A4C17EE900AC4ED017A16F0EA
:100960002BFC33A3D3E9002303F07CF9064620686F
:100970000F4616F021FC0B4602463946304603F07E
:1009800097F903F0E3F9054604F01EFBD4ED027A73
:1009900007EE100A77EEA77A284687EE278A04F03A
:1009A00016FB237B07EE900A33BBF7EE005AB8EE36
:1009B000006A75EEE76A38EE255AB6EE007A67EE01
:1009C000867A26EE877A85EE856A35EEC88A27EE26
:1009D000067A66EE266A67EE867A28EE068A84ED47
:1009E000047AC4ED056A84ED067AC4ED077A84EDD5
:1009F000088ABDEC028BF8BD012BFAD1F7EE005A44
:100A0000B8EE006A77EEA56A38EE255AB6EE007A9F
:100A100067EE867A26EE877A85EE856A35EEC88A95
:100A200027EE067A66EEC66AD5E700BFAFF3008010
:100A3000182D4454FB21194000F07F4500007A44F2
:100A4000242B00200000000007EE100ADFED426AB0
:100A5000B8EEC77AF8B5C7EE267A2DED028BF7EE21
:100A6000008A78EEE77A67EEA77A3C4817EE901A8C
:100A700004F022F89FED3A7A07EE900A67EE877A43
:100A8000384C17EE900AC4ED017A16F095FB30A3AE
:100A9000D3E9002303F0E6F8064620680F4616F077
:100AA0008BFB0B4602463946304603F001F903F052
:100AB0004DF9054604F088FAD4ED027A07EE100AE3
:100AC00077EEA77A284687EE278A04F080FA237B00
:100AD00007EE900A23BB38EE285A78EEE76AB6EEA6
:100AE000007AF8EE005A88EE856A26EE877A38EEAC
:100AF000C88A67EEA57A66EE266A27EE067A67EE62
:100B0000867A28EE068AC4ED056A84ED047A84EDBF
:100B1000067AC4ED077A84ED088ABDEC028BF8BD35
:100B2000012BFAD138EE285A77EEA86AB6EE007A91
:100B3000F8EE005A88EE856A26EE877A38EEC88A83
:100B400067EEA57A66EEC66AD7E700BFAFF300800E
:100B5000182D4454FB21194000F07F450000C84384
:100B600000004842682F0020F8B547292DED028B80
:100B700000F001814A2900F0B181143903292BD8F2
:100B8000DFE801F0B19B022D07EE902AC84BF8EE8A
:100B9000E77A93ED055ADFEDC74A93ED0B7A87EEBE
:100BA000A46AF7EE006A77EE457AB4EEE66ADFED06
:100BB000C25AF0EEE77AF1EE10FAF4EEE57A76FE3C
:100BC000866AF1EE10FACBBF01220022C3ED0C6A57
:100BD000C3ED056A83F83420BDEC028BF8BD07EE47
:100BE000902ADFEDB46AF8EEE77AF7EE008A87EE36
:100BF000A67A78EEC77A67EEA77AB04817EE901A11
:100C000003F05AFF9FEDAE7A07EE900A67EE877AFF
:100C1000A74C17EE900AC4ED1B7AC4ED0F7A16F0BC
:100C2000CBFAA1A3D3E9002303F01CF80646A06B7E
:100C30000F4616F0C1FA0B4602463946304603F01D
:100C400037F803F083F8054604F0BEF9D4ED107AC6
:100C500007EE100A77EEA77A284687EE278A04F077
:100C6000B6F994F8443007EE900A002B40F0038167
:100C700038EE285A78EEE76AB6EE007AF8EE005AB7
:100C800088EE856A26EE877A38EEC88A67EEA57AFE
:100C900066EE266A27EE067A28EE068A67EE867AE0
:100CA00084ED168ABDEC028BC4ED136A84ED127AD2
:100CB00084ED147AC4ED157AF8BD07EE902ABDECE8
:100CC000028BF8EEE77A9FED7B6A9FED7E7AC7EEA6
:100CD000866AF4EEC76AF1EE10FA754B37FE267A93
:100CE00083ED047AF8BD07EE902ADFED726AF8EE24
:100CF000E77AB6EE006A87EEA67A67EE067A6C4B64
:100D0000B3F87020C3ED1D7A002A3FF465AFF5EE0D
:100D1000C07AF1EE10FA7FF75FAF9FED6B7A06EEC7
:100D2000902AD3ED075A67EE877AF8EEE66AB8EEB6
:100D3000655A87EEA67A67EE057AFCEEE77A17EE3B
:100D4000902A5968D3ED085A8A4228BF0A4607EE0E
:100D5000902AB8EE677A75EEC77AF0EEE77AF4EE8D
:100D6000C67AF1EE10FA40F33981012283ED097A57
:100D700083F8282030E7520107EE902ADFED566A0B
:100D8000F8EEE77AF7EE008A87EEA67A78EEC77A71
:100D900067EEA77A4D4817EE901A03F08DFE9FED8F
:100DA0004C7A07EE900A67EE877A4A4C17EE900A63
:100DB000C4ED017A16F000FA3BA3D3E9002302F058
:100DC00051FF064620680F4616F0F6F90B4602461C
:100DD0003946304602F06CFF02F0B8FF054604F0D9
:100DE000F3F8D4ED027A07EE100A77EEA77A2846D8
:100DF00087EE278A04F0EBF8237B07EE900A23BBEB
:100E000038EE285A78EEE76AB6EE007AF8EE005A25
:100E100088EE856A26EE877A38EEC88A67EEA57A6C
:100E200066EE266A27EE067A28EE068A67EE867A4E
:100E300084ED088ABDEC028BC4ED056A84ED047A6A
:100E400084ED067AC4ED077AF8BD012B7FF4C4AEB9
:100E500038EE285A77EEA86AB6EE007AF8EE005A15
:100E600088EE856A26EE877A38EEC88A67EEA57A1C
:100E700066EEC66AD6E7012B7FF4AEAE38EE285A8E
:100E800077EEA86AB6EE007AF8EE005A88EE856A28
:100E900026EE877A38EEC88A67EEA57A66EEC66ACD
:100EA000F8E600BFAFF30080182D4454FB21194031
:100EB000642A00200000FE420AD7233C0000484379
:100EC0000000C842A4707D3F000070420000C8438B
:100ED00000004842682F002000F07F45520107EED5
:100EE000902A1FED037AF8EEE77AC7EE877A444836
:100EF00017EE901A03F0E0FDB3EE047A07EE900AC5
:100F000067EE877A3F4C17EE900AC4ED017A16F02F
:100F100053F939A3D3E9002302F0A4FE0646206862
:100F20000F4616F049F90B4602463946304602F0A4
:100F3000BFFE02F00BFF054604F046F8D4ED027A3E
:100F400007EE100A77EEA77A284687EE278A04F084
:100F50003EF8237B07EE900A33BBF7EE005AB8EE5B
:100F6000006A75EEE76A38EE255AB6EE007A67EE4B
:100F7000867A26EE877A85EE856A35EEC88A27EE70
:100F8000067A66EE266A28EE068A67EE867A84ED91
:100F9000088ABDEC028B84ED047AC4ED056A84ED09
:100FA000067AC4ED077AF8BD012B7FF415AEF7EE93
:100FB000005AB8EE006A77EEA56A38EE255AB6EE0A
:100FC000007A67EE867A26EE877A85EE856A35EEB8
:100FD000C88A27EE067A66EEC66AD4E7012A38BFC9
:100FE00001228A424FF0000028BF0A4683F82800F9
:100FF000DA60F1E5AFF30080182D4454FB2119406D
:1010000000007A44242B002070B50B4604468CB0B7
:1010100058490068E36008F045FB4FF4803203460E
:10102000206907928602821C02F01F0C06F4F84623
:1010300046EA0C06504946F08046099146F480166F
:1010400021680A96A360DE1DDB0101F12F4143EA0E
:10105000063323F0C04301F5600112090893474DA0
:101060000309090D22F4F84242EA832206312A4399
:10107000C9B20B9201F05AF92168206901F12F41A0
:1010800001F56001090D0631C9B2013001F04EF9D8
:101090002168206901F12F4101F56001090D063138
:1010A000C9B2023001F042F9012022696168009062
:1010B0000323206808F040FB314BE268314902FB12
:1010C00003F3B1EBB31F13D22F49304B01FB02F2F4
:1010D0009A420BD92E4D284606AB05AA04A902F068
:1010E000A5FA38B929462B4801F086F92A4DF2E7CE
:1010F0002A4DF0E70498DDE9051202F0D5F9052044
:1011000002F0CCF9E3689FED267A9B01B0FBF3F384
:1011100007EE903AF8EEE77A77EE877ABCEEE77A58
:1011200017EE103A9BB213B307EE103AB8EE477AB7
:10113000DFED1C6A77EEC77A67EEA67AFCEEE77AF7
:10114000CDED037A9DF80C502D02D4E9011245EA49
:101150000345206807AB079508F034FBD4E900206D
:101160000123116883400B4313600CB070BD1D4612
:10117000EBE700BF9CB3021000000640E083FFFFD6
:10118000D578E92626310800F125BED3BEF1050049
:10119000F04902006C720110B011020080320200AE
:1011A0000000003B0000804338B50A4C206800B1C5
:1011B00038BD1C2004F072F84BF680310122002368
:1011C000C0E90412044D8360C0E900350376206055
:1011D00038BD00BF182B00200000205070B582B031
:1011E000FFF7E2FF0125044601A823689847A0689D
:1011F000019E00F11002616805FA02F24B68134289
:10120000FCD1043041F82060EEE700BF0000000090
:10121000F8B504462DED028B406815F0CDFF32A3E2
:10122000D3E9002302F01EFD064620680F4615F0A4
:10123000C3FF0B4602463946304602F039FD02F044
:1012400085FD054603F0C0FED4ED027A07EE100AD4
:1012500077EEA77A284687EE278A03F0B8FE237B2D
:1012600007EE900A33BBF7EE005AB8EE006A75EE4F
:10127000E76A38EE255AB6EE007A67EE867A26EEF1
:10128000877A85EE856A35EEC88A27EE067A66EE9D
:10129000866A67EE867A28EE068A84ED047AC4EDC3
:1012A000056A84ED067AC4ED077A84ED088ABDEC00
:1012B000028BF8BD012BFAD1F7EE005AB8EE006AA6
:1012C00077EEA56A38EE255AB6EE007A67EE867A92
:1012D00026EE877A85EE856A35EEC88A27EE067A8D
:1012E00066EEC66AD5E700BF182D4454FB211940AD
:1012F00038B554220021204810F04AFE4FF4807384
:101300004FF460621C4D4FF4FA746B61AB611B4B80
:101310004FF480502B612A624FF480734FF4807237
:1013200017496C6269601749174CA960E861294642
:101330001648C5E90A23EC600EF036F860B114488F
:1013400005F054FD294611480DF08AFF48B90A49B5
:101350000E480EF029F850B90E4805F047FD01205F
:1013600038BD01460C4805F0C1FD002038BD0146DE
:101370000A4805F0BBFDF8E7801F00203D02001081
:10138000810200109D0200105D0200106C210020FF
:10139000A07201102C730110CC720110F4720110B4
:1013A00010B50446D0B022461F4801A90FF0B0F98D
:1013B000E0B921461D4805F099FD0EAC02E00A2077
:1013C00005F0D2FC01A9224617480FF0FDF90028CC
:1013D00010A912DB1AD01648626805F087FD237841
:1013E000022BECD1134805F081FDE8E701461248D5
:1013F00005F07CFD002050B010BD01460F4805F0FF
:1014000075FD01A908480FF0D1F9F3E7064801A9D5
:101410000FF0CCF910B9012050B010BD01460848BA
:1014200005F064FDE6E700BF6C2100207073011039
:10143000B0730110C07301104C7301108C73011054
:10144000C873011030B58FB00546FFF751FFB8B132
:1014500001230446124A134801A92B700FF058F9D2
:1014600038B10F490F480FF05FF880B920460FB030
:1014700030BD01A90B480FF099F920460FB030BDDF
:10148000094805F0B3FC002420460FB030BD0146EA
:10149000064805F02BFD064805F0A8FCF3E700BF61
:1014A000787401106C2100205C740110107401101C
:1014B00084740110000000002DE9F04F2DED028B27
:1014C0008FB005F009FC4FF03212BF4BBF491B68CB
:1014D000BF489960BF495862C3E9031208F074FA23
:1014E0001C20FEF713FF1D20FEF710FF0D2000F05B
:1014F0005FFF01250D2345EC44300C2000F058FF20
:101500000C204FF0000343EC44000022294600F079
:101510002BFF142000F04CFF142345EC4430132023
:1015200000F046FF132345EC4430AB4EAB4B346820
:101530002360237E5BB9AA4801F060FA4AF6444171
:10154000201DFFF761FDA74808F01AFA25763568D7
:10155000A5482E69A54C07EE906AB8EE678A80ED23
:10156000008AFFF755FEA24880ED008AFFF750FE83
:10157000D4ED027A9FED9F7A28EE278AC8EE077A8B
:10158000FCEEE77A17EE903A012B38BF0123206872
:10159000E661636008B103F085FE6068964B98428F
:1015A0008CBF4FF0FF30400003F07AFE626820608D
:1015B0001AB10021520010F0EBFCD5ED047A94ED45
:1015C000037AF8EE677A0023B8EE477AA36117EE44
:1015D000900AC4ED0E7A84ED087A15F0EDFDD4ED95
:1015E000108A94F8443006460F4678EEA88AE06EDA
:1015F000002B40F01985E06315F0DEFD70A3D3E900
:10160000002302F02FFB32463B4602F051FB02F072
:101610009DFB054603F0D8FC07EE900A284687EEAE
:10162000A88A03F0D4FCB7EE005A07EE900A38EE11
:10163000054A35EE676AB6EE007AF8EE004AC5EE66
:10164000045A26EE077A75EE486A67EEA47A25EE0C
:10165000866A27EE257A67EEA57A66EEA56A84ED9E
:10166000136AC4ED157AC4ED166A84ED127A84ED1E
:10167000147A0023614ACDE90B3361490A920C6860
:1016800004AE0AA903C9069286E803005D4A5E4DCE
:1016900007930992089504F198030AAE93E80300B2
:1016A00086E8030004A903C983E80300D4F8A03046
:1016B000D4F8A4100C93C4F8A0500D91C4F8A42041
:1016C0001BB10322314630469847012384F8A830E5
:1016D000089B23B106AA1146032208469847484BA7
:1016E0004A4D186800234A4C0B934A4B28300AA9EC
:1016F0000A930D950C94FEF741FE0C9B1BB10AA9B1
:1017000003220846984700230B933D4B0AA918680B
:10171000414B08300A93CDE90C45FEF72FFE0C9B98
:101720001BB10AA90322084698473C4C47F61221F0
:10173000204601F065FD002301220821204601F02A
:10174000E1FD236B364A03F4404313630121204635
:1017500001F010FE0221052000F0E8FD0221042026
:1017600000F0E4FD05200022012100F0FDFD2D4BDD
:101770001868FFF767FE002800F09A844FF0FF32E8
:1017800000239FED298ADFF8AC80C8F8182408F5FB
:10179000803288F80C34C8F81034C8F81434C8F80B
:1017A0000834C2F81C3406AB08F21C4903931F4BE3
:1017B0001F4A9B6AA2FB0323034A9B0914683BE070
:1017C000182D4454FB211940582F0020490A0010BD
:1017D0000D0800102909001028290020D503001049
:1017E00020290020DD110010682F0020642A00202D
:1017F000242B002000007A44FCFFFF3F75070010F7
:101800009C2F0020410200102D03001049020010FF
:1018100055030010690B0010950800100080074068
:1018200000900740142B00208845C84D00000B4055
:10183000D34D621014300120227DDAB1E269A16932
:101840009A1A8A4216D34FF050414968627D11F4CA
:10185000005F4FF00D0100F05D824FF0000040ECA2
:101860004010A17DE361914204D800220D21227530
:1018700042EC40106268934252D004219B4A63605C
:1018800013689B4883F4005303F470430360994B3F
:1018900019601368DF05FCD5536894F8211098B2DD
:1018A00039B92288131A002B228AB8BF5B429342AF
:1018B00005DDA368208013B1984794F82110042017
:1018C0008A4A8B4D136883F4405303F470432B60B2
:1018D000884B18601368DE05FCD5536898B239B997
:1018E0006288131A002B628AB8BF5B42934203DD01
:1018F000E368608003B198474FF050435A68D504BD
:1019000000F1E38094F82020002A40F00B82636A03
:1019100001209847012384F82030002384F82130E7
:10192000754C764BA6691D6816F010063CD105F182
:10193000380AA369D906FCD423682A79DFB21AB120
:10194000A269920640F18D80F72F78D81B0600F12E
:1019500085802B782BB3E9784A1CD2B22944012A1E
:10196000EA704F701DD903F0F002902A6878A978C8
:10197000EE7003F00F0300F0E580B02A00F0D08095
:10198000802A0ED12A6A62B18DF810308DF81800C5
:101990008DF82810039A6F6A0AAB04A905F11800A4
:1019A000B847A369DF06C4D598F80C04002862D0B4
:1019B000002005F093F9841C3FF4F9AE0A2800F0EA
:1019C000FF800D2800F0FC8040F2FE31D8F808249A
:1019D0004B4B1344013203F580338A421872C8F826
:1019E00008247FF6E4AE474DD5F81C041318B3F570
:1019F000803F80F00F824449484410F0F9FC0022F7
:101A0000D8F80804D8F81414404BC8F80824404A01
:101A1000014402FB01333F4CD5F81C24B4EBF30F17
:101A20000244C8F81414C5F81C2402D201297FF41A
:101A3000BEAED8F81024384805F058FAB7E695F845
:101A4000A8300BB1F82F2FD02B6C002BA9D08DF81C
:101A5000287050466B6C0AA99847A2E72F70EE7069
:101A60009FE72E4AB2F90220BA4227D0A269920615
:101A7000FCD4276068E705F031F9821C3FF497AE8B
:101A80000A28D8F8083470D00D286ED040F2FE3203
:101A900093423FF78CAE1A4A1A440133C8F808340F
:101AA00002F58033187282E6D5F89030172B03F1D7
:101AB000010200F03C81C5F89020C5E70E498A6913
:101AC0009006FCD40D220A60D0E75B68D8047FF54D
:101AD00024AF94F82030002B3FF41FAF636A00203E
:101AE0009847002384F8203017E700BF00000A4021
:101AF00000100A4000200A40008007409C2F002070
:101B000014300020143002201C300120D82406019B
:101B1000D578E9263689410020750110FC2F002078
:101B20002A6B002A3FF43DAF8DF810308DF8180075
:101B30008DF82810039A6F6B0AAB04A905F12800F1
:101B4000B8472EE72A69002A00F07681002940F084
:101B500065812A6A002A3FF424AF8DF810300023F3
:101B60008DF818008DF8283014E7002B7FF71FAE92
:101B7000B54AB6491344002203F580331A72C8F8F7
:101B80000824B348142210F0D7FA0446002800F0C5
:101B9000F081AF4BAF4A1B68934200F01D82AC4B03
:101BA000AD4A1B68934200F02182A94BAB4A1B68E7
:101BB000934200F06C82A649A94805F097F9F6E532
:101BC000D8F81034002B40F39280D8F80824002A6B
:101BD00040F3BA81A34CD4F81C048318B3F5803FBA
:101BE00080F0BD819A49484410F002FCD8F80814EE
:101BF000D4F81C340B44C4F81C34D8F814341944F9
:101C0000C8F814140023C8F80834974805F06EF992
:101C1000944BD3F81C54032D40F250820023032729
:101C20001C46924E0297AB4280F02A8103F5823126
:101C30001A46854B1B31029F194411F8013F093B9D
:101C4000DBB2172B26FA03F004D8C00702D5013205
:101C50009542F2D1131D9D420297C0F0168184482F
:101C600084490746895C02F1020C415C19F80200C4
:101C700019F80CE0385C17F80EE04FEA111B724FB0
:101C80004BEA800BD01C19F800A007F804B019F833
:101C90000CB0774FBBF13D0F17F80AC004F1010AF1
:101CA00036D0694F090141EA9E0107F80A1019F878
:101CB000001002343D2904D04CEA8E1C07F804C001
:101CC000029C0832954204D3E21CB2F5803F029296
:101CD000A9D99D4203D9B4F5803F40F0E481214663
:101CE000D8F818246448C8F8004005F0FFF84FF011
:101CF000FF320023C8F818245A4A88F80C34C8F870
:101D00001034C8F81434C8F80834C2F81C344EE54E
:101D10005446D6E74FF0010040EC40100132D2B2F9
:101D200062759EE55B68DB043FF5D8AEF5E5002300
:101D3000C5F89030D5F888B001F02AFAD5F8882097
:101D400005EBCB0B531CCBE91201594295F88C00E3
:101D500003F0070B01F007015B4658BF4B42002818
:101D600049D0093255F8320003F1090C05EBC202E3
:101D7000516855F83C2005EBCC0C801ADCF80420A7
:101D800061EB02010029C0F2F08050EA010232D07A
:101D9000029302F061FF06EE100AF6EE007A95ED6E
:101DA000257AC8EE066A37EE277A76EEA77AFCEE39
:101DB000E77ABDEEC77A17EE903A9AB217EE103A6C
:101DC0009342C5ED256A029B15D0D5F8A01091B1BC
:101DD000D5F8A430ADF828200AA905F19800984755
:101DE000D5F8883001335A4203F0070B02F007029E
:101DF0005B4658BF5342C5F88830BBF1000F7FF4F3
:101E000023AE95F88C30002B7FF41EAE012385F8AD
:101E10008C3019E6194804F0E9FF68E78DF81030B6
:101E20008DF818008DF82810039A6F690AAB04A981
:101E300005F10800B847B4E52A6A002A3FF4B1ADBD
:101E400000297FF4AEAD88E614300020387501100B
:101E50001C30012070696E6777686F616C697374FC
:101E60008476011014300220C07401101300800029
:101E7000E47E011031340120EC740110A8740110CB
:101E80001A46131D9D42BFF4EAAEAA42BFF427AF23
:101E900002F58233944A1B3315441344002205F59E
:101EA0008235924F1B350A9213F8016F02F1380107
:101EB0000DEB010CA6F10901C9B2172927FA01FEA1
:101EC00002F1010043D81EF0010F40D09D42EBD13A
:101ED000104600283FF403AF042806D00AABC0F137
:101EE00004023D21184410F053F881489DF8293030
:101EF0009DF82820C35C815C1A0942EA81027A4974
:101F00009DF82A600A5502469DF82B503D2E805DB3
:101F1000525D04F1010100F0C480B1F5803F00F092
:101F2000C480714E1B0143EA90033D2D735404F1AC
:101F3000020300F0D080B3F5803F00F0B68042EAA3
:101F40008012F2540334CAE6D8F814145DE69D42B8
:101F50000CF8106CBDD00428C7D00246A4E7654831
:101F600004F044FFD8F814144CE6404261EB410100
:101F70000EE74FF0FF350AAB00935F49039B5F48C4
:101F800004AA049506950A950FF028FF03283ED170
:101F90000498069D0B280A993ED8002D3CDD0029A7
:101FA0003ADDB1F5803F00F28F800246C8F8180490
:101FB00053482B46C0F81C44012088F80C045148B3
:101FC000C8F80450C8F81014C8F81444C8F80844F5
:101FD00004F08CFFFFF7EBBB4B4B1B79002B7FF41E
:101FE000DEAD4A4804F002FFFFF7E1BB46F66D1391
:101FF000474A12889A427FF4D8AD464B1B78002B93
:102000007FF4D3AD444804F0F1FEFFF7D0BB434862
:1020100004F0ECFEFFF7CBBB0B462A4601464048D6
:1020200004F064FFFFF7C3BB012BE0637FF421AB37
:1020300015F0C2F82AA3D3E9002301F013FE3246BB
:102040003B4601F035FE01F081FE054602F0BCFF83
:1020500007EE900A284687EEA88A02F0B8FFB7EE8E
:10206000005A07EE900A38EE054A37EE856AB6EE5A
:10207000007AF8EE004AC5EE045A26EE077A75EEAD
:10208000486A67EEA47A26EE656AFFF7E2BA1E4B4D
:102090001B79002B7FF48FAD2248FFF781F9FFF702
:1020A00086BB0C461BE61A46F2E64FF4803416E671
:1020B00001200FB0BDEC028BBDE8F08F15B10024FC
:1020C0002246E5E62C460AE64FF48032164804F034
:1020D0000DFFFFF76CBB1C4601E600BFAFF30080AD
:1020E000182D4454FB2119401430002013008000A7
:1020F000E47E0110A87401105075011030300120E9
:1021000014300220887501101C3001205C7601100B
:1021100020300120223001206C7601100876011059
:10212000D0750110787401105C750110694A6A4B12
:102130002DE9F047694C12681B686949206852080C
:102140005B080A604B6000287DD0664C664A2368B5
:102150001060002B7CD0654A654E1360FFF724F8B1
:10216000644B34681860002C00F08780624B0025B7
:102170001C6000246148624EDFF8A481614FC0F802
:10218000008046608760057344628462C4620463B1
:10219000FFF73EF801235C4A4FF47A7A1046137336
:1021A000C2F800805660976054629462D4621463EF
:1021B0004AF64449FFF72CF89FED547ADFED547A44
:1021C0004FF0FF30534B544A5449DFF858E1DFF8E1
:1021D00058C183ED137AC3ED157AC3E90055C3F8EE
:1021E00038801F64C3F80CA0C3F81C90C3F858E0F3
:1021F000C3F86CC09E60DE631C615C615C62DC6283
:102200001C63DC651C665C669C665C67996419658A
:102210009D6183F8285083F8345083F84450A3F824
:10222000705002F58033C2E90055C2F8085482F8B4
:102230000C54C2F81054C2F81454C2F81804C3F86D
:102240001C54BDE8F087012003F028F820607CE7EB
:10225000282003F023F84FF0321500224FF480714C
:102260000346C0E90022C0E90222C0E90452C0E9E5
:102270000622C0E9081220606DE7B02003F00EF8D6
:1022800000250446C0E90055C0E90255C0E90455DF
:10229000C0E90655C0E90855C0E90A55C0E90C5522
:1022A000C0E90E55C0E910554022294648300FF0CC
:1022B0006FFE0023C4E92255C4E927553460C4F8F1
:1022C0009050C4F89850C4F89430C4F8A45084F8DE
:1022D000A8504BE708180020041800201C2B0020F1
:1022E000602100205C2F0020142B0020582F00209C
:1022F000A02F0020282900209C2F0020682F0020DC
:1023000000007A44F4FD343F242B00205652003C58
:10231000565CE8BF642A0020143001205652803BEE
:1023200000803B473FBB543F00409C4610B44FF4F5
:1023300080740C4B53F8202003EB8003C00082F024
:10234000400200F1804003F5805C02F0C00200F51D
:10235000203003F54053CCF8002041601C605DF84C
:10236000044B70470480034010B4084CC90041EA94
:10237000820154F8202004EB8003514003F5805380
:1023800001F00C015DF8044B1960704704800340B4
:10239000064B402203EB800319B103F500531A608A
:1023A000704703F540531A60704700BF0480034034
:1023B00030B44FF0000343EC440043EC40000525EB
:1023C0004FF480740B4BC20053F8201003EB8000D5
:1023D00081F0400102F1804303F5203301F0C00297
:1023E00000F5805100F540500A605D60046030BC2B
:1023F000704700BF048003400FB400B583B0049C55
:10240000074804F0F3FC3CB105A92046019104F013
:10241000EDFA044804F0EAFC012004F0FFFA00BFE2
:102420009C760110CC750110EFF3108072B6064B4C
:10243000D3E8CF1F01220029FAD1C3E8412F002998
:10244000F6D1BFF35F8F70470B2500200023034AAE
:10245000C2E88F3F80F31088704700BF0B25002033
:1024600070B58646EFF3108572B6124CD4E8CF6F84
:102470000120002EFAD1C4E8460F002EF6D1BFF39A
:102480005F8F4FF0010CC80801F007030CFA03F34B
:102490001EF800C01CEA030608D14CEA030C0EF833
:1024A00000C0C4E88F6F85F3108870BD1046FFF739
:1024B000A3FF00BF0B250020F8B5EFF3108772B61D
:1024C0001C4ED6E8CF5F0124002DFAD1C6E8454F57
:1024D000002DF6D1BFF35F8F9A421BD8012502E091
:1024E0000132934222D3D40810F804E002F0070C22
:1024F00005FA0CFC1EEA0C0FF2D14EEA0C0E00F8A5
:1025000004E010460023C6E88F3F87F31088984206
:1025100007DBF8BD0023C6E88F3F87F310884FF034
:10252000FF300029F5D00698FFF766FF4FF0FF3027
:10253000E8E700BF0B250020044A1078431CDBB2FB
:10254000182B28BF10231370704700BF0C180020F1
:1025500010B5054C82B001461F2318220094034891
:10256000FFF7AAFF02B010BDAC760110342A00209C
:102570004FF0E022936843F000539360704700BF30
:102580000021044B03F12002C3E88F1F0133934263
:10259000FAD17047002500204FF0E0234FF0803241
:1025A000C3F80024C3F80424C3F80824C3F80C2497
:1025B000C3F81024C3F81424C3F81824C3F81C2447
:1025C000C3F82024C3F82424C3F82824C3F82C24F7
:1025D000C3F83024704700BF012300F01F0293406E
:1025E000400941B1800000F1604000F56140C0F851
:1025F000803103607047024A203042F82030704733
:1026000000E100E00123064A410952F8212000F0D0
:102610001F0003FA00F01040003818BF0120704777
:1026200000E100E001224309034900F01F0082405D
:10263000403341F82320704700E100E0054A1030A4
:102640009268054B52F82000C01A2F288CBF00203A
:102650000120704700ED00E010180020F8B50D468D
:10266000EFF3108772B6124ED6E8CF2F0123002A5F
:10267000FAD1C6E8423F002AF6D1BFF35F8F0D4B77
:1026800000F110049B680C4A53F82430934203D0A5
:10269000994201D001F09CF9064B9B6843F8245005
:1026A000BFF35F8F0023C6E88F3F87F31088F8BD24
:1026B0000925002000ED00E01D0100102DE9F04F7C
:1026C00081468B46164683B0EFF3108372B6DFF86F
:1026D000D0A10093DAE8CF1F01230029FAD1CAE87C
:1026E000413F0029F6D1BFF35F8F664B93F900405D
:1026F000002CC0F2A080644D04EB440705EB870872
:1027000098F8061009F110091970604BBF009B681A
:1027100053F829006300411B2F292FD95C498842B7
:1027200040F0A4801C445B4B02372F44043BDB1B6E
:10273000C3F34A036FEAC3434FF421416FEAD34323
:1027400025F8241005EB840463804BF60153A38025
:10275000FF2348F00100E671C4F808B0A3714B4BA9
:102760009B6843F82900BFF35F8F0023CAE88F3FBF
:10277000009B83F3108803B0BDE8F08F20F0010EBA
:102780009EF80710B1422ED84FF42143EB53414B32
:10279000B91C2944043B04375B1A2F44AEF10401F1
:1027A000C91BC1F34A043C49C3F34A030B43214309
:1027B000A8F804103949A8F802304AF6AA2073464E
:1027C0005B1B5B415843000D88F8076088F80600E2
:1027D000C8F808B048F00100CEF80010BFE7D17982
:1027E000B1422ED996469EF906C00CEB4C02BCF1C4
:1027F000000F05EB8202F2DA4BF601510EF10402F2
:10280000A8F10407BF1AC7F34A076FEAC7476FEA80
:10281000D7478EF8064003EB0408204C05EB8803ED
:10282000AEF8047045F82840998083F806C0DE7140
:10283000C3F808B093E701F0CBF8124B93F90040CE
:1028400059E7724632F8041F490514D4491502317C
:1028500002EB410101916FF00701C91B019F491B68
:102860003944C1F34A0141F46041C9E7019301F0E1
:10287000AFF8019B56E701F5FF1101F5FF511F313C
:10288000E4E700BF403402201018002000ED00E013
:102890001D0100104018002000E0FFFF01488047A4
:1028A00009250020F0B5EFF30585EDB2EFF3108CAC
:1028B00072B62649D1E8CF2F0123002AFAD1C1E808
:1028C000423F002AF6D1BFF35F8F214E40F0010E48
:1028D000B4684AF6AA2354F825701E4A0446A41A7E
:1028E000644163431B0D77455BB21BD092F90640F0
:1028F0009C421CD092F912409C4223D092F91E4077
:102900009C4221D092F92A409C4208BF03240FD058
:10291000114A0024157813708571C1E88F4F8CF32C
:102920001088F0BDB2680D4C42F82540F0E7002455
:1029300004EB440402EB8402FF2494714BF601542F
:102940009480E5E70124F3E70224F1E7092500205C
:1029500000ED00E010180020403402201D0100109E
:1029600010B5074C82B001460523002200940548AB
:10297000FFF7A2FD0028A8BFC0F1330002B010BDD0
:10298000C876011044340220014B0B4403607047A9
:102990000025002070B5104C104DAC420ED2FF2621
:1029A000236863B1FFF7C8FD01462046FFF7ECFF3F
:1029B000A680BFF35F8F0834AC42F1D370BDFFF740
:1029C000BBFD01462046FFF7DFFF2671BFF35F8F97
:1029D0000834AC42E4D370BD6C1F00207C1F002083
:1029E00010B50446FFF7A8FD01462046FFF7CCFFCF
:1029F000FF232371BFF35F8F10BD00BF10B50446E6
:102A00000120FFF7A5FD034B03442360BFF35F8F55
:102A100010BD00BF00250020024B0B440360BFF334
:102A20005F8F7047002500200D4B1A68EFF310816F
:102A300072B6D2E8CFCF0120BCF1000FF9D1C2E8C5
:102A40004C0FBCF1000FF4D1BFF35F8F00221B6865
:102A5000C3E88F2F81F3108840BF0020002170470A
:102A6000F02F0020000000002DE9F04F2DED028B2B
:102A700085B0EFF30583DBB2103B9A0818BF012243
:102A80004FF0010103F0030B18BFAF4DAF4B08BF70
:102A9000AF4D0BEB820253F8226001FA0BF205F501
:102AA00041539FEDA78B01925A602FE0B3881C041D
:102AB00040F19380B379002B40F0DD80B6F9082017
:102AC000002AC0F21E81736902EB420203EBC203CB
:102AD000D3E90247B7F1FF3F08BFB4F1FF3F0ED083
:102AE00005EB8B01AB6A0A69D21AE31A934205D34C
:102AF00001232A6A03FA0BF3134200D10C61284622
:102B000000F03EFBA042B941C0F2FB80B6F90830AC
:102B1000019A002B0093EA63C8DBD6F8148003EB1C
:102B20004309284608EBC907D7E9024A00F028FB09
:102B3000A04271EB0A01B9DBBAF1000FC0F2C38009
:102B4000D7E90431834A934200F0ED807A88B6F9E0
:102B5000080092B242EA0040984702460B4652EA09
:102B6000030100F0B080002B80F2D180B4EB020EA4
:102B70006AEB030A38F93930C7E902EA002B95DB22
:102B8000716903EB430201EBC202D2E90270BE4558
:102B90007AEB000C4FEA430288DBB4462CF8083F7E
:102BA00006E003EB430001EBC0005A00D0E90270DD
:102BB000BE451A447AEB000001EBC20404DB31F994
:102BC0003230A446002BECDA28F83930009BACF800
:102BD0000030B3881C043FF56DAF3369EFF310820A
:102BE00072B6D3E8CF0F01210028FAD1C3E8401F05
:102BF0000028F6D1BFF35F8F4FF6FF74B088002333
:102C0000316900B2B480C1E88F3F82F310889842E6
:102C1000FFF650AF0746A946746906F1080807EBAE
:102C2000470E04EBCE03D3E90250B6F90830C44690
:102C3000002B13DBB246009704E034F9363094469B
:102C4000002B09DB03EB430604EBC602D2E9027159
:102C5000BD4270EB0101F0DA5646009FACF80070FF
:102C600034F93E7024F83E30002FD8DAB3794D465F
:102C7000002B3FF423AF0023B371B6F9083006F1FF
:102C80000808581C3DD01A46776903E08046591C55
:102C90003FF416AF03EB430107EBC100B0F802C0ED
:102CA0001C461CF4004F9E4637F93130EED094425A
:102CB00080ED028B05D0A8F80030328927F831204A
:102CC00034817246E3E738F8393033813369EFF302
:102CD000108272B6D3E8CF0F01210028FAD1C3E8E1
:102CE000401F0028F6D1BFF35F8F7388316928F841
:102CF0003930009B73800023C1E88F3F82F3108836
:102D0000D4E640BF05B0BDEC028BBDE8F08F28468D
:102D1000CDE9022300F034FA029A039B10EB020E75
:102D200043EB010A26E708460B6902919847002801
:102D3000C9D00299D1E9002311E700BFAFF30080A9
:102D4000FFFFFFFFFFFFFFFF00800B40C82F0020A9
:102D500000000B40692A00102DE9F84F364C256918
:102D60002DB1BDE8F84F0A213448FFF70DBEDFF85A
:102D7000E4800321404600F0F1F90326C4F80C80FA
:102D8000FFF7DAFB4FF0504C2D4B267003442361C4
:102D9000DCF800300F216370636961801D834FF0A0
:102DA0000405A3F878504FF00505A3F890504FF0B4
:102DB0000605A3F8A8504FF007050E214FF6FF7245
:102DC00008274FF00A0EA3F8C0504FF001094FF04A
:102DD0000C0C4FF0020B4FF0090A0D204FF00B05C1
:102DE000A3F868111749A280A3F808E1A160A3F82D
:102DF00048B0A3F8F0A0A3F82051A3F838C1A3F875
:102E00005001A3F83090A3F86060A3F8D8701A803E
:102E10000D4B3046C8F820700C49DC60FFF71EFCF3
:102E200049463046FFF7D8FB094B0A211F64034887
:102E3000BDE8F84FFFF7A8BD58180020F02F00207C
:102E400000250020FFFF1000C82F0020692A001075
:102E500000200B4000000B4000487047581800202D
:102E6000F8B59DF82050044617461E4635B900F0C7
:102E70008FF9874266EB010100295CDB2169EFF3E2
:102E8000108372B6D1E8CF0F01220028FAD1C1E831
:102E9000402F0028F6D1BFF35F8FB4F90220656997
:102EA00002EB4201002A4FEAC10C206905EBC10187
:102EB00039DB35F80CE0A4F802E04FF0000EC0E872
:102EC0008FEF83F310884888069B0130C0F30E0013
:102ED000012838BF01200B61079B48804B61C1E985
:102EE000027640EA02402369EFF3108172B6D3E81C
:102EF000CF7F0126002FFAD1C3E8476F002FF6D10C
:102F0000BFF35F8FA38825F80C30A2802369C3E844
:102F10008FEF81F310880122E368217803F50153D4
:102F20008A405A60F8BD0022C0E88F2F83F31088D2
:102F30004FF0FF30F8BD2846F8BD00BF0146F0B5A0
:102F40000069EFF3108772B6D0E8CF5F0124002D3F
:102F5000FAD1C0E8454F002DF6D1BFF35F8FB1F92C
:102F600002E04C690EEB4E0CBEF1000F4FEACC05AF
:102F7000086904EBCC0C3CDB665B4E800026C0E8A5
:102F80008F6F87F31088BCF80200CCE90223013070
:102F9000C0F30E00012838BF0120059BACF80200E9
:102FA000CCF81030069B40EA0E40CCF814300B6988
:102FB000EFF3108272B6D3E8CFCF0127BCF1000F38
:102FC000F9D1C3E84C7FBCF1000FF4D1BFF35F8FA0
:102FD0008B886353A1F804E00B69C3E88F6F82F319
:102FE00010880122CB68097803F501538A405A60A2
:102FF000F0BD0023C0E88F3F87F310884FF0FF300B
:10300000F0BD00BF03464089B0EB214F37DD586962
:103010000A1402EB420210B500EBC2001C69EFF388
:10302000108C72B6D4E8CFEF0122BEF1000FF9D1B7
:10303000C4E84E2FBEF1000FF4D1BFF35F8F42887A
:1030400089B292B28A4207D000221B69C3E88F2F4F
:103050008CF31088002010BD42F400424280012110
:10306000002218699971C0E88F2F8CF310881C78A2
:10307000DA68084602F50153A140596010BD0020EE
:10308000704700BF407870472DE9F04306460D4673
:1030900083B0EFF30584E4B23CB12D4B5A6AAA42E7
:1030A0001CD2002003B0BDE8F0832A4FD7F80C9063
:1030B00097F80080484600F063F808F1040859F8D2
:1030C00028301B1A301A65EB0101984271F100019A
:1030D00010DB20BF1E4B5A6AAA42E2D314BF012460
:1030E00000249B6AB34234BF204644F0010003B081
:1030F000BDE8F08300F04CF8864265EB0101002941
:1031000014DB154B3846CDE9003432462B46FFF729
:1031100015FF011E0ADD0E4B5A6AAA4216D39B6A9E
:10312000B34211D30B48FFF76DFFB6E7084B5C6A5B
:10313000AC42B6D3641B18BF01249B6AB34234BFB0
:10314000204644F00100ADE7AA42EBD120BFE9E7F9
:1031500000000B4058180020292A001010B4054B1D
:10316000054C064AA04214BF1846581C5DF8044B93
:10317000FFF776B9382A002000800B40E476011072
:103180000346416A0A46986A596A8A42FAD17047E8
:10319000034B596A0A46986A596A9142FAD17047B4
:1031A00000000B4030B4154A536A9C46946A536A37
:1031B0006345FAD1021959414FF0000528BF012596
:1031C0000E4B5B6AB5B15A1C08BF1A4608D04FF0C7
:1031D000FF310A460948436A8B42FCD38B4207D130
:1031E000064902E0486A984202D1886A9042F9D3BF
:1031F00030BC70479942EDD8F0E700BF00000B40AB
:10320000F8B5054606200E4600F048F9002842D0E1
:10321000354A3648954214BF4FF080624FF0006245
:10322000334B344902601A608C6832EA0404FBD1E3
:103230002D4B4FF48071EB1AB3FA83F32E4A5B09DE
:10324000062022F8131000F029F9C300B3FBF6F3AF
:103250000133DA0920D1402601216962AA622F6B6D
:10326000FB0722D42B46002253F82C1F062003F51F
:10327000805422602F6300F011F940F201310322E3
:103280008000B0FBF6F0EB6A83F0700303F07E037E
:1032900023602963AA64F8BD4FF6FE718A421BD9E8
:1032A00022464FF6FF71154ED7E740F2013205F581
:1032B00040531A636B6AAC6A062004EB831400F077
:1032C000EDF80F4BA402A3FB0023DB0A0021B4FBA3
:1032D000F3F0FFF767FFC5E7C3F34503114603EBC0
:1032E00082161A46B9E700BF00800740002002405E
:1032F0000030024000000240FC2F0020C0FF3F00D1
:10330000757B2B8F013A0539D200F8B5054642EAA4
:10331000411443B1A3F10103B3FA83F35B0944EA17
:10332000830343F002042E6BF3070AD42B4653F8B1
:103330002C2F624002F06E0203F580531A602E6358
:10334000F8BD40F2013205F540531A636B6AAF6A6B
:10335000062007EB831700F0A1F8054BBF02A3FB83
:103360000030C00A0021B7FBF0F0FFF71BFFDDE7DC
:10337000757B2B8FF8B5066B0546F3074FEA0114F2
:103380000AD42B4653F82C2F544004F0100403F5B4
:1033900080531C602E63F8BD40F2013200F54053AB
:1033A0001A636B6AAF6A062007EB831700F076F8A2
:1033B000054BBF02A3FB0030C00A0021B7FBF0F0B1
:1033C000FFF7F0FEDDE700BF757B2B8F00EB400CB5
:1033D0004FEA8C0C0CF1804C0CF5803CF0B5164695
:1033E000DCF80420051FB2F5803F38BF4FF480326F
:1033F000EDB238BFCCF80420012D2AD94FF4006774
:10340000254C0CF54052176054F82020B2B9DCF876
:103410000020012D82EA461202F0E0020CF58056EF
:1034200032602AD94FF4006144F820304FF48033E1
:103430000CF500521160CCF80430F0BD6769B7FBA1
:10344000F2FE0EF1010E0EEB4E0EBEF1030EFCD29B
:10345000DDE70129D2D103240CF540521460DCF8D9
:103460000820D207FBD5DCF800200B4C82EA46127C
:1034700002F0E0020CF5805632600122DCF80050C8
:103480004D4005F00305356002FA01F1DCF8082033
:103490000A42FBD0C6E700BF3C2A0020014B53F88C
:1034A000200070473C2A0020584B2DE9F0431C6C4B
:1034B0001746B4F5803F38BF4FF4803283B038BF31
:1034C0001A64032280460E46514B504DDA636C6CF1
:1034D000E307FCD5EB6B4F4A83F0200303F0E003D6
:1034E000D363EB6B494D83F0010303F00303D36314
:1034F0006C6CA407FCD54FF400624FF48039464B46
:10350000464CDA63464B4246636101213346C5F8B7
:1035100040904448009700F057F94FF400616B6BFE
:1035200007FB06F64B4538BFC5F83490384B226987
:10353000B8FBF6F619633AB16369B3FBF2F30133F2
:1035400003EB4303033BFDD23049324A0B6B03F0DC
:10355000E00313630B6B83F0020303F003031363B5
:103560008B6B5807FCD54FF400654FF480332A4A23
:1035700015632D4A4B6322610A6C9A424FF0030295
:1035800038BF0B64224B2149DA634B6CDA07FCD558
:10359000CB6B204A03F0E003D363CB6B1B4983F072
:1035A000010303F00303D3634B6C9B07FCD54FF47B
:1035B00080334FF40065184A6661D5630B64CA6CAA
:1035C0009A4238BFCB644FF40061114BA2699964F1
:1035D0003AB16369B3FBF2F3013303EB4303033BFB
:1035E000FDD24FF400604FF48031084A094D936CCE
:1035F00083F0400303F0E003AB64074B084DA56183
:103600009864D16403B0BDE8F08300BF00000140BE
:103610000030014000100140002001403C2A002001
:10362000006CDC0200000540001BB7002DE9F04FE4
:103630004FF4A078994685B0CDE902125F4CDFF8CF
:1036400084A154450AD908F1FF38A4F53B54B8F1D8
:103650000F0FA4F12004F4D1002069E0072304F542
:103660003722019403FB03F402F5D872B2FBF4FE97
:1036700070454FF0010C4FF002074FF003064FF07A
:1036800004054FF005013FD0B3F1010E00F0948026
:103690000EFB03F4B2FBF4FB58454CD019B301FB0D
:1036A00003F4B2FBF4FB58454FD0E5B105FB03F43E
:1036B000B2FBF4FB584553D0AEB106FB03F4B2FBAA
:1036C000F4FB584557D077B107FB03F4B2FBF4FB8A
:1036D00058455BD0BCF1000F05D00CFB03F4B2FBE6
:1036E000F4FB83455DD0734603FB03F4B2FBF4FEA9
:1036F000704501F1FF3105F1FF3506F1FF3607F1A5
:10370000FF370CF1FF3CBFD104FB1024002CBBD1D0
:103710009E464A46DDF808B0DDF80C9001202849A5
:1037200001FB08F1CBF80010C9F80030C2F800E046
:1037300005B0BDE8F08F04FB1024002CAED14A4642
:10374000DDF808B0DDF80C90E8E704FB1024002C4D
:10375000ABD14A468E46DDF808B0DDF80C90DDE7C7
:1037600004FB1024002CA7D14A46AE46DDF808B071
:10377000DDF80C90D2E704FB1024002CA3D14A46BC
:10378000B646DDF808B0DDF80C90C7E704FB10245E
:10379000002C9FD14A46BE46DDF808B0DDF80C90FB
:1037A000BCE704FB1024002C9DD14A46E646DDF818
:1037B00008B0DDF80C90B1E7019C44E750262F00DB
:1037C000001BB70050F80C0070B4039D04682D0373
:1037D00045EA03451B4B002CB3FBF1F3B2FBF3F6B8
:1037E0001FDB194A194B904214BF4FF480424FF42B
:1037F0000042174C1A6003F580531A60A36832EA3E
:103800000303FBD1212200F540530433016086609D
:103810001A600268002AFCDA0822C5601A6070BCCF
:103820007047036803F03F038B42DAD18368C3F328
:103830000B03B342D5D1C36803F4EE23AB42D0D11E
:10384000EDE700BF001BB7000080054000200240EC
:103850000000024030B44FF080441C4B1C60E0B1CB
:103860001B4CA3F54053DC611A4C40F0010044406E
:103870001C62596298624FF080454FF0E061134B33
:103880001548164C1D60846019604AB930BC4FF071
:103890000042A3F580531A607047114BD861EAE7E4
:1038A0004FF47A7303FB02F2B2F1807F2ABF6FF00C
:1038B0007F4313461A464FF080410A4C0848236064
:1038C000094B426030BC1960704700BF00B00D402A
:1038D000D3C007B02D3FF84F00A00140F3FFFF0118
:1038E00000800D40642F002000A00D40012300EB5C
:1038F0004000800000F1804000F5841041600360CA
:10390000704700BF002370B5DB8A04460D460022D5
:1039100042E800F2520254BF1021042144F2522026
:10392000984786462B462246F446BDE870400A2159
:103930004FF48170604700BF0023DB8A002242E819
:1039400000F2520201D4102118470421184700BF89
:1039500008B503460846191E02DB1AB140F03000D4
:10396000FFF7D0FF40F02000FAE700BF034AD2F88B
:103970002838002BFBD0BFF35F8F704700000E404C
:103980000021044B044ABFF35F8F43F8041B9342AA
:10399000F9D170470C080E402C080E4010B44FF4BB
:1039A0008D704FF42A64064A064B07491460D060B4
:1039B00019605368002BFCDA5DF8044B704700BFB8
:1039C0000080044000A0044000B0FA00704700BF2F
:1039D00008B50148FEF710FD0877011038B5054C11
:1039E000054DAC4204D254F8043B9847AC42FAD39C
:1039F00038BD00BF087201104872011038B5054C7F
:103A0000054DAC4204D254F8043B9847AC42FAD37B
:103A100038BD00BF347201104872011010B407485D
:103A2000074C084B084A094904601A608B6832EA5F
:103A30000303FBD15DF8044B704700BF0020024038
:103A40007F3BEFEF00300240F6FFF303000002403F
:103A5000044BDB6CB3F5004F03D14FF48022024BD3
:103A6000DA64704700001150002011504FF0E0223E
:103A7000044BD2F8881D0B43C2F8883D10EE300489
:103A8000704700BF030330006FF06041044B054AEC
:103A900019609368DB4333F06043FAD1704700BF8D
:103AA000003002400000024010B545F25320FFF7FD
:103AB00043FFBDE8104003460420184710B545F207
:103AC0005320FFF739FFBDE8104003460120184797
:103AD000FEF756BD10B5054B054C4FF488721846DD
:103AE000A1680EF085FCA06010BD00BF00000020A2
:103AF00000ED00E0002370B52B4C82B0C4F8843098
:103B0000FFF74CFF0122294BDA63636C012BFCD1D8
:103B10000321264A244B11639C6B012CFCD1022605
:103B2000052521460523224A22480096FFF74CFE30
:103B300021462B46204A21480095FFF745FE0022EA
:103B4000042031461E4BFFF741FC21462846002247
:103B50001C4BFFF73BFC0022082011461A4BFFF7D5
:103B600035FC002209201146174BFFF72FFC0022DD
:103B700006201146134BFFF729FC0022114B0720AA
:103B80001146FFF723FC0420FFF788FC00240F4BAD
:103B9000A3FB0035AD0CE0B229460134FFF7A6FEC9
:103BA000062CF8D102B070BD000001400030014089
:103BB000002F685900000540008C864700800540B2
:103BC000001BB70080D1F008006CDC0283DE1B43D1
:103BD00086B003B451FC0804CDE9020151FC09048C
:103BE000CDE9040151EC0A04CDE9060103BCF0471C
:103BF000BDE800504EEC00C4BDE800504EEC01C4DE
:103C0000BDE800504EEC02C400BD000000B5FFF757
:103C1000DFFF02E010FE30F4F8D441EC100443EC76
:103C2000112400EE010410EE010480EE200451EC9A
:103C30001004704700B5FFF7CBFF02E010FE30F430
:103C4000F8D441EC100443EC112400EE010410EE12
:103C5000210480EE200451EC3004704700B5FFF7DA
:103C6000B7FF02E010FE30F4F8D410B541EC1004B8
:103C700043EC112451EC040453EC0524A0FB024C4A
:103C80005FF0000EE0FB03CEE1FB02CE4CEC2044E3
:103C90000024E1FB03E444EC30E480EE200451EC2A
:103CA0005004BDE81040704700B5FFF791FF02E0F7
:103CB00010FE30F4F8D441EC100443EC112451EC24
:103CC0002104A0FB01126FEA820252FB100052FB9A
:103CD00012F252FB1000A0EBD07C53EC04245CFBEE
:103CE00013F153EC1524A1FB022001FB030053EC5C
:103CF0004424A2EB000050FB1CF24FEA111312EB1C
:103D0000017043EBE27140EA515020EA915020F0FB
:103D1000070053EC7524A0FB023C53EC752400FB18
:103D200003CC01FB02CC53EC0424ACEB824C40EA04
:103D30005C70A0F1010041EC400480EE200451ECE5
:103D40007004704700B5FFF743FF02E010FE30F447
:103D5000F8D441EC100480EE220410EEB204704757
:103D600000B5FFF735FF02E010FE30F4F8D440EC68
:103D7000700400EE010410EE210480EE200451ECEA
:103D80003004704700B5FFF723FF02E010FE30F467
:103D9000F8D440EC600400EE010410EE210480EE43
:103DA000200451EC3004704700B5FFF711FF02E02A
:103DB00010FE30F4F8D441EC800400EE010410EE63
:103DC000010480EE400410EE1304704700B5FFF7C5
:103DD000FFFE02E010FE30F4F8D441EC800400EE67
:103DE000010410EE010480EE400410EE330470472D
:103DF00000B5FFF7EDFE02E010FE30F4F8D441EC20
:103E0000100443EC112400EE010410EE3004C0F362
:103E10000070704700B5FFF7DBFE02E010FE30F4E3
:103E2000F8D441EC100443EC112400EE010410EE30
:103E30003004C0F38070704700B5FFF7C9FE02E0A0
:103E400010FE30F4F8D443EC102441EC110400EEE1
:103E5000010410EE30F48CBF01200020704700BF39
:103E600000B5FFF7B5FE02E010FE30F4F8D443ECE5
:103E7000102441EC110400EE010410EE30F42CBFCC
:103E800001200020704700BF00B5FFF7A1FE02E04F
:103E900010FE30F4F8D441EC100443EC112400EE91
:103EA000010410EE30F42CBF01200020704700BF49
:103EB00000B5FFF78DFE02E010FE30F4F8D441ECBF
:103EC000100443EC112400EE010410EE30F48CBF1A
:103ED00001200020704700BF404261EB410140F2E9
:103EE000F334B1FA81F20C2A0CD2153211FA02F332
:103EF000C2F12002D04021FA02F12244584141EBA4
:103F00000251704769B1C2F12B0230FA02F3C2F1DB
:103F10002002914090401943A4EB020201EB0251B0
:103F2000704701004FF00000A4F12004D9D1704780
:103F3000012767F31F5117FA03F817D0A0FB0807F2
:103F400001FB0871A1FB06785FEAD8469219A6FB2F
:103F5000047806FB0588090351EA1051D7EB0030BD
:103F600061EB0801A94238BF70470BE00C33012711
:103F700017FA03F80FD0A0FB080701FB0871A9424C
:103F800038BF704708BFA04238BF7047001B61EBC5
:103F900005010132704703F1200311FA03F6D3F152
:103FA0002003D840D9403043704700000000000093
:103FB000000000000453B1086018850FC8E5F22A1C
:103FC0006E07271E0D12B2210412572F12557CBC0A
:103FD000DA30723F17A717A55531994E9D0DBF0ACC
:103FE000EEE0AB5FE3EF6D9C7636AD6F697BCCE3C3
:103FF0003D62BD7EF0810682F3FA428F37D5B78AE3
:104000005313C89E7FABB320491570AF000000006A
:1040100000000000025E88155580FF00907806B110
:10402000A602FE01DC4E21F0EB88FB027A7C801FA9
:104030001615F8033C5DA9D110A9F304AA466CF546
:10404000C146EE05FF65E4EB09F0E70613C00C9EE0
:10405000C3A6E007E1BFEC91C46CD808D5AF5EFF02
:10406000DC43CF09466A72E4D72DC50A237E6E1958
:104070007B2CBA0BBFF571648741AE0C61DFB88C45
:10408000B86EA10D09A9856DC5B5930E3153B10860
:104090006018850F3071E4983598751059155505DD
:1040A00080FF0F0009C3EB8F80FB2F00B1910E9AA8
:1040B00082F34F001FE7FD2287E76F00C3A09A2914
:1040C0008FD78F004F4366AC9BC3AF00412A83A9B3
:1040D000ADABCF004FB7B41EC68FEF00B6815F09FE
:1040E000E66F0F01678589660E4C2F011A52DA328E
:1040F00040244F01483A9B6A7CF86E01FF81B70962
:10410000C4C88E019C8DBC0B1895AE017010DA6B83
:10411000795DCE013A3BE224E921EE013873953313
:10412000427FECA03114FAF5BD8689916B02FAE664
:10413000E0F29183E682120713A8517721262168C5
:104140006AB2736A9D0DBF0AEEE0AB5F19B4E0B7C7
:104150001CB66A549596E53DEF07A548D1CBE555C9
:10416000DC0E4E3CCE68ADE839B5A432CB3CFA96B5
:10417000D9569A28C9B21CA1F9FCAE21864B6BE531
:104180008AD2F0160453B1086018850F02C00C9E45
:10419000C3A6E0070000000000000000AC79CFD10A
:1041A000F71772B1293BAAB84FEAC12040F000408E
:1041B000490043F1200340F20001C3F6F071C3F15E
:1041C0000B0320FA03F038BF7047404261F1000151
:1041D00070475FEAD17CC1F30A53A3F2FF330C2B83
:1041E00062DA13F1200FDFDD2DE9F0413C4C70CC99
:1041F0004FF00002FFF79CFE1CF0010F04D06FEAA5
:104200000202201A65EB010102F2FE3C40F2FE734D
:104210009C455CD20A0F334B03EBC2030CCB02F07C
:104220003F0545F04005801A99410A0E2E4B03EBDD
:10423000C20318CB02F580725543C01AA1414A0D42
:104240002A4B03EBC20318CB124402F5805205FB44
:104250000255C01AA1418A0252EA905242F100026C
:1042600082FB02345B0D53EAC423C01841EB545166
:1042700084FB02344FF0553383FB043454FB11F3B9
:1042800004EB930410EB440241EBE473E900A1FB5F
:104290000240C1FB0301400A50EBC1504FEA5121DB
:1042A00051EB0C51BDE8F081B3F5806F07D150EAB6
:1042B00001320CBF21EAE17141F400217047002076
:1042C00000211CF0010F08BFC7F6F07170474FF0D6
:1042D00000004FF00001A8BFC7F6F071BDE8F08103
:1042E0009C410010AC3F00100C4000109C4000109E
:1042F00040F20001CFF6F0710020704750EA013221
:1043000018BF41F4002170477FEAA65540F019819B
:104310004FF4805420E18CEA11331B0640F0EE800C
:10432000BCF1000F67D1C90451EA5031C004B1FAA1
:1043300081F4202C4BD20125A540A0FB052301FBD5
:104340000533A0FB03C5A1FB02C6E1FB6356B2EB3C
:10435000152263F10003B2EB066273EB1623A0FB98
:1043600006C7A1FB05C8E1FB66784FF05535A7FBF2
:1043700005C65FF0000CE8FB056C16EB0C064CF173
:10438000000C12EB963243F1000312EB8C4243EB2C
:104390009C3358FB11F55FF0333755FB11F656FB94
:1043A00017F8A5EB581756FB11F5C2F6802656FBF9
:1043B00015F507EB1537B2EB472063EBD751C4F582
:1043C0008064A4F11504FFF78CFDBDE8F081B0FA1C
:1043D00080F410FA04F1A0FB01234FF00000B0EBD1
:1043E000132061F10001C4F58064A4F13504FFF7E6
:1043F00078FDBDE8F081890451EA903180044042A3
:1044000061EB4101B1FA81F4202C4ED2013C01252F
:10441000A540A0FB052301FB0533A0FB03C5A1FBC1
:1044200002C6E1FB635612EB152243F1000312EBC7
:10443000066253EB1623A0FB06C7A1FB05C8E1FBF0
:1044400066784FF05535A7FB05C65FF0000CE8FB1A
:10445000056C16EB0C064CF1000C12EB963243F196
:10446000000312EB8C4243EB9C3358FB11F55FF0D9
:10447000333755FB11F656FB17F805EB581756FB6B
:1044800011F5C2F6802656FB15F507EB153712EB32
:10449000472043EBD751C4F58064A4F11504FFF71E
:1044A00020FD41F00041BDE8F081B0FA80F410FA3F
:1044B00004F1A0FB01234FEA1320C4F58064A4F1AA
:1044C0003504FFF70EFD91F00041BDE8F0815FEA91
:1044D000410CBFF40DAF5FEA5C5C3FF409AFACF296
:1044E000FF3CBCF5806F3FF409AF012262F31F511E
:1044F0002DE9F041BCEBEC7F3FF40DAF0C0C4E4DC1
:1045000005EBC40595E80C0002F03F0505F14005F8
:10451000A5FB000605FB01616FEAE14404F01F04FE
:10452000464D05EBC40560CD521943EB060304F577
:104530008074A4FB000604FB01667FEA26643FF456
:10454000E3AE3F4D05EBC40522CD521843EB050306
:1045500041F2010505EB44046404A4FB0050C4EBE4
:10456000C401E4FB060180EAE17481EAE175A5FB80
:104570000567A4FB05487F084FEA360616EB0806D8
:1045800047F100078C0254EA905444F10004801B68
:1045900061EB070154FB14F555FB14F655FB15F7B9
:1045A0004FF0553456FB14F6B6EB173610EB860079
:1045B00041EBA671101A63EB0101224A24CA1CF1D7
:1045C000010C0BDDA2FB0C230024E5FB0C34121ABA
:1045D0008B4164F100045FF080410CE0DCF1000CE1
:1045E000A2FB0C230024E5FB0C3482184B4144F160
:1045F00000045FF040414CB91C0013000022B1F1EF
:1046000000711CB91C000023B1F10071B4FA84F5EB
:10461000A5F11D06A1EB0651AC4013FA05F0C5F15A
:104620002005EB401C43EA401043C00A50EB4450C5
:1046300041EBD421BDE8F0819C4000100C400010FB
:104640009C4000109C4100100022002950DA40429A
:1046500061EB4101C9B1B1FA81F30B3B17D4D3F13E
:10466000200C30FA0CFC9840994051EA0C011A4495
:10467000524202F2324201EB025141F0004140F25B
:10468000FE739A4238BF704721E011467EE003F185
:10469000210310FA03FCA3F1010301FA03FCC3F1A7
:1046A000200320FA03F021FA03F140EA0C00A3EB07
:1046B000020202F2324214D050F1000041EB0251EA
:1046C00041F0004140F2FE739A4238BF70474FF00C
:1046D0000001A8BFC7F6F0714FF00000704700213D
:1046E0007047EBD350F1000020F00100E6E7002214
:1046F000B9B1B1FA81F30B3B16D4D3F1200C30FAE7
:104700000CFC9840994051EA0C011A44524202F2C2
:10471000324201EB025140F2FE739A4238BF7047B9
:1047200020E0114600F066B803F1210310FA03FC03
:10473000A3F1010301FA03FCC3F1200320FA03F003
:1047400021FA03F140EA0C00A3EB020202F232422A
:1047500012D050F1000041EB025140F2FE739A4238
:1047600038BF70474FF00001A8BFC7F6F0714FF097
:104770000000704700217047EDD350F1000020F099
:104780000100E8E7002880F235804042B0FA80F36B
:104790000B3B11D4984001EB0302524202F2124249
:1047A00000EB025141F000414FF0000040F2FE7377
:1047B0009A4238BF704713E0C3F1000330FA03FC9C
:1047C000C3F120029040A3EB010202F212420CEB73
:1047D000025141F0004140F2FE739A4238BF7047E7
:1047E0004FF00041A8BFCFF6F0714FF000007047C6
:1047F0000021704760B3B0FA80F30B3B0FD49840B0
:1048000001EB0302524202F2124200EB02514FF05E
:10481000000040F2FE739A4238BF704710E05B42DE
:1048200030FA03FCC3F120029040A3EB010202F234
:1048300012420CEB025140F2FE739A4238BF7047AD
:104840004FF00001A8BFC7F6F0714FF000007047AD
:10485000002170470022A2F232425FEA215CACF1F3
:104860000103A1EB03515B0513F5800F32D212EB6C
:10487000535210D40B2A36DA9140D2F1200330FA89
:1048800003F319439040BCF1000FA8BF70474042AA
:1048900061EB4101704720320EDD01FA02F3D2F1E3
:1048A0002002D140D0401843BCF1000FA8BF704790
:1048B000404261EB41017047524282F3050231FAF6
:1048C00002F00021BCF1000FA8BF7047404261EB2D
:1048D0004101704702D000200021704750EA0131A9
:1048E00018BF4FF0000C6FF0004101EBDC716FEA74
:1048F000EC7070472DE9F04101292DED028B08EE97
:10490000100A50D001EBD1756D10012D0C463CD032
:104910000E460029B8BFCE1CB610012E4ED00F4651
:104920000029B8BFCF1DFF10012F44D088460029B1
:10493000B8BF01F10F084FEA2818B8F1010F40D0B5
:10494000A1F120031F2B3FD90021FFF7D3FF07EE72
:10495000900A67EEA77A18F0010F67EEA77A01D0E8
:1049600067EE887AF80767EEA77A01D567EE887A4E
:10497000F10767EEA77A01D567EE887AEA0767EE56
:10498000A77A04D567EE887A01E0F0EE487AE3076B
:1049900067EEA77A01D567EE887ABDEC028B17EE39
:1049A000900ABDE8F081F0EE487ABDEC028B17EE7C
:1049B000900ABDE8F081F0EE487AD9E7F0EE487A47
:1049C000DCE7F0EE487ACDE7F0EE487AC3E700BFC7
:1049D000021E38B50C4618DAC1F3C7537F3B0846B0
:1049E00010D4D3F117030DD44FF0010C0CFA03FCD3
:1049F0000CF1FF3C1CEA010F04D1172B24D0D84046
:104A0000C30721D402F10042104607EE904AFDEEA2
:104A1000E77A12F0FF4317EE901A1DD0B3F1FF4F63
:104A20001AD0C2F31603BBB9D20D7F3A01F30801C5
:104A300001FB02F303F17F02002A37DDFE2A37DC97
:104A4000DB0503F17E5038BD214602F10040FFF73F
:104A5000BFFF00F1004038BD91B101F12003402BB0
:104A600011D8002908DA07EE100AF7EE007AC7EE2F
:104A7000877A17EE900A4942BDE83840FFF73ABFFF
:104A80004FF07E5038BD12F097FBFFF720FD024635
:104A90000D462046144612F08FFB22462B46FFF7A8
:104AA000E1F8FFF796FBFFF751F938BD002038BD5C
:104AB0004FF0FF4038BD00BFB7EE007A07EE900A16
:104AC000F4EE477AF1EE10FA32D011F0FF4238B529
:104AD0000C460B4629D0FFEE006AF4EE667AF1EE42
:104AE00010FA26D1B2F1FF4F1FD040F27F10574984
:104AF000E20DFF2A60D040F2FF1C624558D012F050
:104B0000FF020BD07F3A5BD4C2F11702002A05DD09
:104B1000012000FA02F2013A1A4251D12146BDE8C1
:104B2000384017EE900AFFF753BF17EE100A38BD52
:104B3000704710F0FF4F01461AD1002C4FEAD452B3
:104B40001DDB7F3A19D4D2F1170216D4012191400E
:104B50000139214211D1172AE9D09FED3D7A24FA7B
:104B600002F212F0010F47FE277A17EE900A38BDC5
:104B7000C00DFF283BD1002C0CDA002038BDD2B28A
:104B80007F3A07D4D2F1170204D4012090400138B3
:104B9000204202D04FF0FF4038BD172A03D024FA3C
:104BA00002F2D007F6D501F0004040F0FF4038BDDA
:104BB000C0B27E28EED9E0E7C0B27E28DDD9E9E7B1
:104BC0000029E7DB17EE900A12F0F6FAFFF77FFCF8
:104BD00002460D462046144612F0EEFA22462B46B7
:104BE000FFF740F8FFF7F5FAFFF7B0F838BD40F2ED
:104BF000FF15A8424FEAD4527FF47BAF002C11DBA3
:104C00007F3AC7D4D2F11702C4D4012191400139AF
:104C10002142BFD1172A03D024FA02F2D207B9D514
:104C20000C4838BDD2B27F3AA7D4D2F11702A4D42F
:104C300001219140013921429FD1172A03D024FA42
:104C400002F2D30799D54FF0004038BD000080BF75
:104C500000000000000080FF0022002980F2A980EF
:104C6000404261EB4101B1B3B1FA81F3083B16D484
:104C7000994010FA03FCC3F1200320FA03F040EA44
:104C80000100A2EB0302C2F195021CEB0C0C40EBFD
:104C9000C25040F0004020D0FE2A16D2704703F1E7
:104CA000210311FA03FC5CEA000CC3F1210321FA91
:104CB00003F0A3EB020202F1B50240EBC25040F058
:104CC00000400AD0FE2A38BF70474FF00040A8BF0E
:104CD000CFF68070704711460AE028BF20F001002F
:104CE000FE2A38BF7047F0E7002880F23380404248
:104CF000B0FA80F3083B0CD4984001EB0302C2F1F8
:104D0000950200EBC25040F00040FE2A38BF7047C9
:104D100013E003F1210310FA03FCC3F1210320FA8D
:104D200003F0A3EB010202F1950240EBC25040F008
:104D3000004008D0FE2A38BF70474FF00040A8BF9F
:104D400040F0FF40704728BF20F00100FE2A38BF26
:104D50007047F2E720B3B0FA80F3083B0AD49840DA
:104D600001EB0302C2F1950200EBC250FE2A38BFEC
:104D7000704711E003F1210310FA03FCC3F1210392
:104D800020FA03F0A3EB010202F1950240EBC250BE
:104D900007D0FE2A38BF7047ACBF4FF0FF4000205D
:104DA000704728BF20F00100FE2A38BF7047F3E7A4
:104DB000002289B3B1FA81F3083B14D4994010FA68
:104DC00003FCC3F1200320FA03F040EA0100A2EB48
:104DD0000302C2F195021CEB0C0C40EBC2501ED03A
:104DE000FE2A14D2704703F1210311FA03FC5CEA96
:104DF000000CC3F1210321FA03F0A3EB020202F13C
:104E0000B50240EBC2500AD0FE2A38BF7047ACBF93
:104E10004FF0FF40002070471146FFF79BBF28BFAF
:104E200020F00100FE2A38BF7047F0E700000000C4
:104E30000000000000000000DB60BE284A059193DE
:104E4000F4D5097F70374D7D66A5D83610E4104F34
:104E5000AFF224024B1102EB830201F01F034FF06B
:104E600001049C40A4FB0034D568A5FB045695685A
:104E700005FB0466E5FB0356556805FB03667047B2
:104E8000410201D150F0004050F480007047F0B56D
:104E9000012363F3DF50C1F109014FF07E07FFF7F3
:104EA000D7FFB30F53F100039C44B6EB8376B200F7
:104EB00028BF5242B2F1805F0BD20231FFF7C8FF28
:104EC00096EA260242F10002B2F1805F01D2023F6F
:104ED000F3D50A4CA2FB0424B4FA84F29440240AC9
:104EE000A7EB020244EBC250C10DD1F17F01F60FD6
:104EF00000EBC673BDE8F04073E00000A2DA0FC912
:104F000011F1800FBCD030EACC7248BF0CF1020C1A
:104F100020F0004000EE100A0DA2F2EC032A22EE6F
:104F2000802A11F1080FB9FE422AB0DDA2EE630A11
:104F3000A2EE430A10EE103AFDEEC21AC3F3C752B6
:104F4000782AA4D3D2F17F0111EE902A944448E04C
:104F500083F9223F7A7795B60010C93F07B5C0F3B1
:104F6000C751FF2925D000F032F8BDE80640CEF841
:104F700000000ED2C9438CEAD17C63EEA02AE1EE98
:104F8000032A73EE622A12EE900A80EACC70106057
:104F900000BD8CEAD17C21EE232AA3EE602A8CEAA4
:104FA000D37133EEC22A12EE100A80EAC17010608B
:104FB00000BD4102BDE80E4001D150F0004050F468
:104FC00080001060186070475FF0000C01E05FF037
:104FD000010CC0F3C751A1B3D1F17F0190D920EAF0
:104FE000CC7323F0004000EE100AC0F38440203060
:104FF00030FA01F1834A51F10001B2EC024A02EBAE
:10500000810202EBC102D2EC032A70EE620A20EEAA
:10501000A01A5FEA5C0C61EE201A15D221EE041A88
:1050200061EEA41A70EEE10A21EE232AA3EE602AB3
:105030008CEAD37133EEC22A12EE100A80EAC170F4
:10504000704700F00040C7E761EEA41A70EEE10A75
:1050500021EE041A63EEA02AE1EE032A73EE622A1F
:1050600012EE900A80EACC70704700BFAFF3008068
:10507000C1FEFF3E25AA2A3E000000000000803F3E
:105080000000000061C9FC3CCDE07F3F1CBFFC3C40
:105090007605813DFE7D7F3F9EEF803D090CBF3D43
:1050A0000FE37E3F22C5BE3DB624FF3D14047E3F84
:1050B000E27BFE3D13071F3E48EB7C3FA0631E3E94
:1050C0006D30403E1D817B3F15103F3EA2AD603EDE
:1050D000CFDC793F3EE15E3E7B0D803EFA08783FB3
:1050E00096717D3E6E988F3E65FF753F68B88D3E28
:1050F000F4E19F3E939E733FFD4B9D3EC654B03EF0
:10510000AEF7703FB3DDAC3EC589BF3E604B6E3F2E
:105110000A1ABB3E26C4CF3ECA356B3F631CCA3E4B
:10512000F254E03E66D1673F0739D93EDDF0EF3EED
:105130004B66643F1641E73E312B003F8894603F49
:105140000FC3F53E07E4073FA2C55C3F2B99013F23
:10515000C51F103F8F7D583F65A1083F8AF6173F56
:10516000B534543FCA310F3FE2FF1F3F599B4F3FB9
:10517000D7C8153F4606283F6BCF4A3FC4371C3F70
:105180004130303FE0B9453FE49A223FA71D383F08
:10519000CA98403F20A6283F2FC73F3FAC763B3FF1
:1051A0004A562E3FDB13483FCCB6353F6B52343F57
:1051B00079C74F3F2F35303FD0B4393F52DD573F8D
:1051C00070412A3F912D3F3F26CE5F3F9F3E243FB7
:1051D000C35D443FF125683F50C21D3F1C9D493FC0
:1051E000E13B703F4150173FBF7E4E3F7810783F04
:1051F00071ED103FAF06533FD4F47F3FA75A0A3FEB
:105200009B64573F7050001038B50446094811F0B0
:10521000E3FF20460CF048F90546064811F0D8FF98
:105220002DB1054B2C449C4201D8284638BD03487B
:10523000FDF7E2F86C1F0020000008201477011031
:1052400038B505460C460A4811F0C6FF28462146E7
:105250000CF002FC0546064811F0BAFF2DB1054BD3
:105260002C449C4201D8284638BD0348FDF7C4F8B9
:105270006C1F0020000008201477011010B50446B0
:10528000054811F0A9FF20460CF016F9BDE81040C2
:10529000014811F09DBF00BF6C1F0020FFF7B4BF95
:1052A000FFF7B2BFFFF7EABF9A4238BF8854704792
:1052B000704700BF2DE9F04F83B09946DDE90DAB93
:1052C0000F9B884611469A07074616D1DA453AD20F
:1052D0000C460D46ABEB0A060E4422464B464146B1
:1052E00020200134B847B442F7D12946BAF1000F63
:1052F00008D1204603B0BDE8F08F0C46BAF1000F8C
:1053000010D00E4655460C9B2E449A440191721BB8
:105310004B46013D41461AF8010D3446B847002D71
:10532000F5D101990F9B9B07E3D5651AAB45E0D9F1
:1053300022464B46414620200135B8475D4504F1E1
:105340000104F5D3D5E70C46BAF1000FD9D1D0E767
:105350002DE9F04F0F9FDDF8248017F0020F0A9C13
:105360009DF82CA00E9DDDE90C9644D1F5BBB4420E
:1053700041D207F0010B04F1FF3C4FF0300EC44462
:1053800004E00134A6420CF801EF01D9202CF8D139
:10539000BBF1000F00F08880A5422CD904F1FF3C3E
:1053A0004FF0300EC44404E00134AC420CF801EF7D
:1053B00021D0202CF8D117F0100F0ED017F4806FE9
:1053C00054D1A64263D0A54261D0B9F1100F50D09C
:1053D000B9F1020F56D0202C29D12024CDE90B574A
:1053E000CDE90984BDE8F04FFFF764BF17F0010B6A
:1053F00034D1B442BFD317F0100F1ED017F4806F12
:10540000E3D1002CDDD1B9F1100F63D0B9F1020F57
:1054100077D0302488F800400124BAF1000F11D170
:105420007E0748D52B2608F804600134D6E72646C7
:1054300001344FF0300C08F806C0202CCDD0BAF162
:10544000000FEDD02D2608F804600134CDE90B578C
:10545000CDE90984BDE8F04FFFF72CBFBAF1000F8A
:1054600030D0B44205F1FF3585D395E7B9F1100F7F
:10547000B3D1BE063BD5202CAFD0582608F8046027
:105480000134A8E7202CA8D02646013407E0661E88
:10549000B9D0B9F1100F36D0B9F1020FC9D14FF020
:1054A000620C08F806C096E717F0100FC5D017F485
:1054B000806F86D089E73E0790D5202608F80460E3
:1054C00001348BE717F00C0F00D0013DB442FFF41C
:1054D00052AF61E7BC0612D4782488F8004030242B
:1054E00088F801400224BAF1000F99D0AAE7202CD5
:1054F0003FF473AF782608F8046001346BE7582452
:10550000EBE76224E9E717F0200FA4F1020C04D0C6
:105510004FF0580E08F80CE08BE74FF0780E08F8C3
:105520000CE086E700B9704701F01EBC10B1D1E96C
:1055300000311847704700BF2DE9F04F97B09DED3F
:10554000207BDDE9225B0746884651EC170B249C43
:1055500099460C920B4602468DED047B0794FEF7AC
:105560004BFC002840F0F481DDE904014FF0FF32EC
:105570006FF48013FEF764FC002840F01B81DDE926
:1055800004014FF0FF32AC4BFEF796FC002840F0D0
:10559000EE80DDE90401A4A3D3E90023FEF78CFC2F
:1055A000002840F0D380DDE90401A1A3D3E9002362
:1055B000FEF746FC002840F0C980DDE90401002226
:1055C0000023FEF73DFC002840F0E88023460D90C4
:1055D00013F4806F08BF062530212B460EAAA5F1D3
:1055E000200605E0013BB34202F8011B00F0938165
:1055F000092BF7D81E46ED1ADDE90401FEF7D8FBAA
:105600008E4B044603EBC60393ED007B8DED087BC8
:10561000FEF7AAFB02460B46DDE90401FEF70EFB8E
:10562000DDE90823FEF71EFB02460B46CDE90A23FF
:10563000FEF7D0FB8246FEF7A9FB02460B46DDE9EA
:105640000A01FEF7FBFA02460B46CDE90A230022C7
:105650007B4BFEF731FC002800F0FE800AF1010AC6
:105660005046FEF793FB02460B46DDE90801FEF7C4
:10567000FBFB10B14FF0000A0134002E00F0FD805A
:10568000681E0EABDFF8CCC118440FE0ACFB0A215A
:10569000C90801EB8102AAEB42023032BAF1090FCC
:1056A00000F8012F40F21C818A461D46202D05F18D
:1056B000010306F1FF36E9D12025691E0EAB6148D2
:1056C000194410E080FB0462C3EBA20303EB8302E6
:1056D000A4EB420404F1300201351C4601F8012F0D
:1056E000002B00F0EB80202D4FEAE473EAD1079BFA
:1056F00003F00303012B18D1BBF1000F15D00D9B54
:10570000002B00F00A810BF1FF3BBBF1200F0CD9FD
:105710006B1E0EA930220B4405E001355D4503F8F0
:10572000012F80F0D180202DF7D1079B0EACCDE961
:1057300002B341464B4638460C9A01950094FFF758
:10574000B9FD8246504617B0BDE8F08F079B9DED2E
:10575000047BCDE923B341464B4638460C9A8DED88
:10576000207B229517B0BDE8F04F00F045B96107E6
:1057700023464CBF042303234146219338464B461E
:10578000079A48BF304CCDE922B258BF2F4C0C9A33
:10579000209417B0BDE8F04FFFF78CBDDDE904237E
:1057A00000200021FEF74AFA0123CDE904010D9300
:1057B00023460DE723469C0740F0AA80BBF1040F67
:1057C00040F2A6800C9B1D461C1F04EB0B0A2A46C8
:1057D0004B46414620200135B847AA45F7D15546EA
:1057E0001B4C261F14F8010D2A464B464146B8476C
:1057F000B44205F10105F5D1079B0AF1040A9807A7
:10580000A0D50C9CAAEB04039B459BD952464B4662
:10581000414620200AF1010AB847AAEB04035B4580
:10582000F4D38FE7AFF300800000000065CDCD41D9
:105830000000000065CDCDC1FFFFEF7F18B402105E
:105840000000E03F676666666877011070770110B8
:105850007C770110CDCCCCCC0022DDE90A01634B72
:10586000FEF7EEFA00287FF408AFBAF1000F6AD114
:105870000AF1010A002E7FF403AF2046FEF774FA06
:1058800002460B46DDE90401FEF7D8F902460B4655
:10589000CDE904230022554BFEF7D2FA00287FF40D
:1058A0000CAFDDE904010022504BFEF705FB002898
:1058B0007FF403AF013424F00104FEE6079B03F0FC
:1058C0000303012B00F08280202D3FF42EAF0D9BAF
:1058D0007BB32D220DEB050383F83820013524E737
:1058E000202B3FF4E9AE0EAA15441E44302204E0FA
:1058F000202B05F8012F3FF4DFAE9E4203F1010398
:10590000F6D12E220DEB060383F83820751CD4E661
:10591000DDF830A063E720256EE6079B13F00C0F3F
:1059200050D00BF1FF3BAB453FF6F2AE202D3FF4DC
:10593000FCAE079B5A0701D52B22CBE71B077FF54F
:10594000F4AE2022C6E71AF0010F3FF496AE8FE7BF
:10595000A60734D1BBF1030F31D90C9B1D46DC1EC9
:1059600004EB0B0A2A464B46414620200135B84736
:105970005545F7D155461E4CE61E14F8010D2A4632
:105980004B464146B847A64205F10105F5D1079BB4
:105990000AF1030A9D077FF5D5AE0C9CAAEB040320
:1059A0009B457FF6CFAE52464B46414620200AF13A
:1059B000010AB847AAEB04039B45F4D8C2E6DDF818
:1059C00030A0D7E7AB453FF6A3AEAEE6BBF1000F84
:1059D0003FF47AAF0D9B002B9FD00BF1FF3B5D4551
:1059E000FFF496AE202D7FF474AF9EE60000E03FFA
:1059F00077770110000000002DE9F04F9FB02A9E3C
:105A0000DDE92845074693460891099322462B462F
:105A1000204629460E96DDE92BA6FEF7EDF9002873
:105A200040F0BE80204629464FF0FF32784BFEF70B
:105A300043FA002840F0B480204629464FF0FF3258
:105A40006FF48013FEF7FCF9002840F0A98020468F
:105A5000294600220023FEF7F3F9002840F0D58103
:105A6000CDE90A45DDE90A239046994606F400622D
:105A700016F480630F92139340F0A18058EA090353
:105A800040F0CA80002A40F0E38106230E9316F00E
:105A90000202109240F0D4815346042B38BF0423F5
:105AA0000C920422043B12920F93204629460022B6
:105AB0000023FEF7C5F9002840F0F3819DED0A7B35
:105AC0000F9B5A4603930E9B8DED007B029326F4A9
:105AD000006304933846099B0899FFF72DFD0246A1
