:020000041000EA
:10000000002008205D0100101301001015010010F0
:100010001101001011010010110100101101001058
:100020001101001011010010110100101701001042
:100030001101001011010010190100101B01001026
:100040001D0100101D0100101D0100101D010010F8
:100050001D0100101D0100101D0100101D010010E8
:100060001D0100101D0100101D0100101D010010D8
:100070001D0100101D0100101D0100101D010010C8
:100080001D0100101D0100101D0100101D010010B8
:100090001D0100101D0100101D0100101D010010A8
:1000A0001D0100101D0100101D0100101D01001098
:1000B0001D0100101D0100101D0100101D01001088
:1000C0001D0100101D0100101D0100101D01001078
:1000D0001D0100101D0100101D0100101D01001068
:1000E0001D0100101D0100101D0100101D01001058
:1000F0001D0100101D0100101D0100101D01001048
:100100001D0100101D0100101D0100101D01001037
:1001100000BE00BE00BE00BE00BE00BEEFF3058004
:10012000103800BEF2EB8871C0400310E4400310A9
:10013000A801001090A31AE7D3DEFFFF42012110AF
:10014000FF010000446E0300793512AB4FF0000050
:100150002049086006C881F3088810474FF05040D6
:10016000006810B14FF00000F2E70FA40ECC002998
:1001700002D000F015F8F9E71749184A002000E00E
:1001800001C19142FCD1002080F30A8814498847BC
:10019000144988471449884700BEFDE701C901C2D8
:1001A0009A42FBD3704700BFE440031010010020C7
:1001B000A82F00207C6F03100000082000000820FA
:1001C0007C6F0310001008200010082000000000C1
:1001D0007047000008ED00E0A82F0020B8D40120EF
:1001E000216E001031160010E56D0010F8B500BF4B
:1001F000064B0749C91A891048BF0131491003D07D
:10020000044B0BB101481847704700BFA82F0020CE
:10021000A82F00200000000008B5054B1BB10549C0
:100220000548AFF30080BDE80840FFF7E1BF00BF1D
:10023000000000000CD001200808021000207047C8
:1002400003680888184700BF10B40468087811785C
:100250001A7823465DF8044B184700BFC26903466D
:1002600002FB01F110B501F50010EFF3108472B636
:10027000D96920F081FA84F31088002010BD00BFF6
:10028000944608B5C0690CF1815C00FB01C1029A7B
:1002900018461AF043FF002008BD00BF2DE9F047C3
:1002A000C769804638460C4691461E4601FB07FA50
:1002B00005F026F938B305463A460AF181511AF09D
:1002C0002DFF3146089A05EB09001AF027FFEFF3DE
:1002D000108672B6D8F81C1004FB01F000F500106F
:1002E00020F04AFAD8F81C20294604FB02F000F559
:1002F000001020F0F9F986F31088284605F03AF945
:100300000020BDE8F0876FF00B00FAE710B51F2161
:10031000044602F089F900222046114602F0A2F9B3
:100320002046BDE81040002102F0B0B9012A06D0F5
:10033000022A0AD0032A00D022B1002070470160AF
:10034000002070470260002070470B6803600020A7
:10035000704700BF012A06D0022A0AD0032A00D023
:1003600022B1002070470160002070470260002029
:1003700070470B6803600020704700BF002370B512
:1003800086B002AD02930593C5E901338B6804463C
:10039000F3B10E46022228469847D6E90231A668F4
:1003A000A3600496E368E16095E80300CDE90001ED
:1003B00094E80300059385E80300DDE9000184E883
:1003C00003001EB1032229462846B04706B070BD7F
:1003D0001946E4E72DE9F047C0492DED028B0B6883
:1003E000EFF3108472B6D3E8CF5F0122002DFAD16B
:1003F000C3E8452F002DF6D1BFF35F8FB84AB94D42
:10040000B94E13682D683768B84E9D42D6ED006A24
:100410004C6040F2B98137F91350DFEDB57A07EE41
:10042000105ABAEEE87AE6EE877A01331360B14BE0
:100430001A7832B1B04AB14D16682A68B242C0F09B
:10044000758100221A7000230A68C2E88F3F84F386
:100450001088AB4B1B78002B4DD0AA4AAA4B92EDCB
:10046000097AD2ED054AD2ED0A0A92ED048A82EDAC
:100470000A7A27EE247AA7EE887A92ED060AC2ED70
:10048000097AF0EE477AD2ED0B5A92ED071AE0EEB8
:10049000207AD3ED096A92ED0C2A93ED055AD2ED3C
:1004A000081AE1EE657AD3ED0A3AE1EEC27AD3EDAD
:1004B000042AC3ED0A6A66EE856AE2EEA76A93ED46
:1004C000063AC2ED0B7AC3ED097AF0EE667A93ED47
:1004D0000B6A93ED074AE3EE237A93ED0C5AD3EDC2
:1004E000084AE4EE467AE4EEC57AC2ED0C5A83ED92
:1004F0000C6AC3ED0B7A9FED856ADFED856A67EEC6
:10050000867AF4EEE67AF1EE10FA9FED827A48BF31
:10051000F0EE667AF4EEC77AF1EE10FA7E4B37FE13
:10052000277A1D68002D00F0B780DC68D3ED085AEB
:1005300007EE904A93ED0B5AF8EE676AD3ED057A11
:100540009FED766A36EEE54A77EEC54AE4EE065A46
:10055000A4EE865A93F82820C3ED085A83ED0B5A6F
:100560005968DAB175EEE66AB6EE006AF0EEE66A50
:10057000F4EEC66AF1EE10FA10D5D3ED096AFCEE7E
:10058000E66A16EE904A012C38BF01248C424FF0E7
:10059000000228BF0C4683F82820DC6093F8342042
:1005A000002A40F08880FCEEE55A15EE906A9F69BB
:1005B00093ED174A7A18921BB2FBF1FC01FB1C2247
:1005C00035F91220D3ED136A05EE902A93ED121A35
:1005D000FAEEE85A64EE266A93ED182AD3ED141A5F
:1005E000E5EE816AD3ED194AD3ED152AE1EE826A70
:1005F000D3ED1A3A93ED163AE2EEE46A9FED436AC0
:10060000E3EE636AD3ED047A26EE866A66EE277A15
:10061000FDEEE77AF8EEE77A77EE877A7A1CB2FB9E
:10062000F1FEFDEEE77A01FB1E2117EE902ADFF8BE
:10063000F88047F6FF7C4245B8BF42466245A8BFF6
:10064000624683ED184AC3ED1A4AC3ED175AC3ED4B
:10065000196A25F817209961F4B1F7EE006ADFED09
:10066000307A76EEC56AF4EEE76AF1EE10FA25EE1E
:10067000066A58BFF0EE667AA7EE276AFDEEC67AE4
:1006800017EE903A4345B8BF43466345A8BF63465B
:1006900007EE903AB8EEE77ABDEC028BBDEEC77A72
:1006A00017EE103A00221BB263F30F0263F31F42EE
:1006B0000260BDE8F08775EE677ADFED1A6AF0EE4A
:1006C000E77AF4EEE67AF1EE10FA7FF56CAF1A6B8A
:1006D0005A61002283F8342065E700BF80C90120F9
:1006E0001028002098310020142800200C28002019
:1006F00000000000ADD40120B0C10120ACC1012038
:1007000008280020CCCF012084CB01200000004726
:10071000000000C700FEFF46C4CA01200AD7A33B61
:100720006666663F0AD7233C0080FFFF214EDFF854
:1007300098C03368DCF80070BB4228D31E4F3B786A
:10074000002B3FF480AE0023DFF880A03B701B4FEE
:10075000DFF87CE0D7F80080DAF80070DFF87490FA
:1007600007F54847CCF80080CAF80070D9F800C0F7
:10077000DEF800703360C9F80070CEF800C0B8F140
:10078000000F3FF460AE04E0DFED0D7A4FE6DFF8D6
:1007900040E0DEF80070DFED0B6A37F913700132CC
:1007A00007EE107AB8EEC77A0133E7EE267A3360A7
:1007B0002A6048E6A0C10120ACD40120A4C10120D8
:1007C0000000000000000038A8C101209C3100207A
:1007D0000428002000280020234B82B2A3F87020B8
:1007E000002A40D093ED1D7AB5EEC07AF1EE10FAF2
:1007F00039DD07EE902ADFED1D6AF8EEE77A93ED1A
:10080000076A67EE266AF8EE465A86EEA77A67EE22
:10081000257AFCEEE77A17EE902A596893ED086A7C
:100820008A4228BF0A4607EE902AB8EE677A76EE2B
:10083000477AB6EE005AF0EEE77AF4EEC57AF1EEBA
:1008400010FA05DD012283ED097A83F8282070472C
:10085000012A38BF01228A424FF0000028BF0A4611
:1008600083F82800DA607047C4CA01200000704293
:1008700001EBC10310B401EB430101EBC101C1F372
:10088000850343EA8113DBB283B0152B019203D9B0
:1008900003B05DF8044B704707EE902ADFED136A52
:1008A000F8EEE77A124B87EEA67A1968EFF310821A
:1008B00072B6D1E8CF4F0120002CFAD1C1E8440F25
:1008C000002CF6D1BFF35F8F002127EE077A09488D
:1008D000094C5A6080ED007A1B682160C3E88F1FC5
:1008E00082F3108803B05DF8044B70470000FE42AD
:1008F00080C901200C2800201028002000000000E2
:1009000007EE900A9FED427AF8EEE77AC7EE877A13
:10091000F8B517EE901A2DED028B3E4804F048FA18
:10092000B3EE047A07EE900A67EE877A3A4C17EE38
:10093000900AC4ED017A1FF0F7FE33A3D3E9002338
:1009400003F00CFB064620680F461FF0EDFE0B4639
:1009500002463946304603F027FB03F073FB054699
:1009600004F0AEFCD4ED027A07EE100A77EEA77A17
:10097000284687EE278A04F0A6FC237B07EE900A20
:1009800033BBF7EE005AB8EE006A75EEE76A38EE50
:10099000255AB6EE007A67EE867A26EE877A85EEDD
:1009A000856A35EEC88A27EE067A66EE266A67EE15
:1009B000867A28EE068A84ED047AC4ED056A84ED11
:1009C000067AC4ED077A84ED088ABDEC028BF8BD87
:1009D000012BFAD1F7EE005AB8EE006A77EEA56A5D
:1009E00038EE255AB6EE007A67EE867A26EE877ADA
:1009F00085EE856A35EEC88A27EE067A66EEC66A07
:100A0000D5E700BFAFF30080182D4454FB211940F7
:100A100000F07F4500007A4484CB012000000000F4
:100A200007EE100ADFED426AB8EEC77AF8B5C7EEF6
:100A3000267A2DED028BF7EE008A78EEE77A67EEE4
:100A4000A77A3C4817EE901A04F0B2F99FED3A7A73
:100A500007EE900A67EE877A384C17EE900AC4EDDD
:100A6000017A1FF061FE30A3D3E9002303F076FA88
:100A7000064620680F461FF057FE0B4602463946D1
:100A8000304603F091FA03F0DDFA054604F018FC55
:100A9000D4ED027A07EE100A77EEA77A284687EEA1
:100AA000278A04F010FC237B07EE900A23BB38EE64
:100AB000285A78EEE76AB6EE007AF8EE005A88EE29
:100AC000856A26EE877A38EEC88A67EEA57A66EEE2
:100AD000266A27EE067A67EE867A28EE068AC4ED45
:100AE000056A84ED047A84ED067AC4ED077A84ED14
:100AF000088ABDEC028BF8BD012BFAD138EE285ADA
:100B000077EEA86AB6EE007AF8EE005A88EE856AAB
:100B100026EE877A38EEC88A67EEA57A66EEC66A50
:100B2000D7E700BFAFF30080182D4454FB211940D4
:100B300000F07F450000C84300004842CCCF0120B0
:100B4000F8B547292DED028B00F001814A2900F00C
:100B5000B181143903292BD8DFE801F0B19B022DB4
:100B600007EE902AC84BF8EEE77A93ED055ADFEDD1
:100B7000C74A93ED0B7A87EEA46AF7EE006A77EE28
:100B8000457AB4EEE66ADFEDC25AF0EEE77AF1EEAE
:100B900010FAF4EEE57A76FE866AF1EE10FACBBF33
:100BA00001220022C3ED0C6AC3ED056A83F83420EC
:100BB000BDEC028BF8BD07EE902ADFEDB46AF8EECB
:100BC000E77AF7EE008A87EEA67A78EEC77A67EEC4
:100BD000A77AB04817EE901A04F0EAF89FEDAE7AC3
:100BE00007EE900A67EE877AA74C17EE900AC4EDDD
:100BF0001B7AC4ED0F7A1FF097FDA1A3D3E9002360
:100C000003F0ACF90646A06B0F461FF08DFD0B46B6
:100C100002463946304603F0C7F903F013FA054699
:100C200004F04EFBD4ED107A07EE100A77EEA77AA7
:100C3000284687EE278A04F046FB94F8443007EEF6
:100C4000900A002B40F0038138EE285A78EEE76ACC
:100C5000B6EE007AF8EE005A88EE856A26EE877ABC
:100C600038EEC88A67EEA57A66EE266A27EE067A1F
:100C700028EE068A67EE867A84ED168ABDEC028B32
:100C8000C4ED136A84ED127A84ED147AC4ED157AFA
:100C9000F8BD07EE902ABDEC028BF8EEE77A9FEDE7
:100CA0007B6A9FED7E7AC7EE866AF4EEC76AF1EE44
:100CB00010FA754B37FE267A83ED047AF8BD07EEFD
:100CC000902ADFED726AF8EEE77AB6EE006A87EEF8
:100CD000A67A67EE067A6C4BB3F87020C3ED1D7AE6
:100CE000002A3FF465AFF5EEC07AF1EE10FA7FF717
:100CF0005FAF9FED6B7A06EE902AD3ED075A67EE51
:100D0000877AF8EEE66AB8EE655A87EEA67A67EE5D
:100D1000057AFCEEE77A17EE902A5968D3ED085A67
:100D20008A4228BF0A4607EE902AB8EE677A75EE27
:100D3000C77AF0EEE77AF4EEC67AF1EE10FA40F3F5
:100D40003981012283ED097A83F8282030E75201A6
:100D500007EE902ADFED566AF8EEE77AF7EE008AA2
:100D600087EEA67A78EEC77A67EEA77A4D4817EE37
:100D7000901A04F01DF89FED4C7A07EE900A67EE8A
:100D8000877A4A4C17EE900AC4ED017A1FF0CCFC2A
:100D90003BA3D3E9002303F0E1F8064620680F46A1
:100DA0001FF0C2FC0B4602463946304603F0FCF801
:100DB00003F048F9054604F083FAD4ED027A07EE11
:100DC000100A77EEA77A284687EE278A04F07BFA86
:100DD000237B07EE900A23BB38EE285A78EEE76AA9
:100DE000B6EE007AF8EE005A88EE856A26EE877A2B
:100DF00038EEC88A67EEA57A66EE266A27EE067A8E
:100E000028EE068A67EE867A84ED088ABDEC028BAE
:100E1000C4ED056A84ED047A84ED067AC4ED077AA0
:100E2000F8BD012B7FF4C4AE38EE285A77EEA86ADD
:100E3000B6EE007AF8EE005A88EE856A26EE877ADA
:100E400038EEC88A67EEA57A66EEC66AD6E7012B49
:100E50007FF4AEAE38EE285A77EEA86AB6EE007A86
:100E6000F8EE005A88EE856A26EE877A38EEC88A50
:100E700067EEA57A66EEC66AF8E600BFAFF30080BB
:100E8000182D4454FB211940C4CA01200000FE4221
:100E90000AD7233C000048430000C842A4707D3FAD
:100EA000000070420000C84300004842CCCF01203F
:100EB00000F07F45520107EE902A1FED037AF8EE0D
:100EC000E77AC7EE877A444817EE901A03F070FF6E
:100ED000B3EE047A07EE900A67EE877A3F4C17EE7E
:100EE000900AC4ED017A1FF01FFC39A3D3E9002357
:100EF00003F034F8064620680F461FF015FC0B4639
:100F000002463946304603F04FF803F09BF8054699
:100F100004F0D6F9D4ED027A07EE100A77EEA77A3C
:100F2000284687EE278A04F0CEF9237B07EE900A45
:100F300033BBF7EE005AB8EE006A75EEE76A38EE9A
:100F4000255AB6EE007A67EE867A26EE877A85EE27
:100F5000856A35EEC88A27EE067A66EE266A28EE9E
:100F6000068A67EE867A84ED088ABDEC028B84EDF2
:100F7000047AC4ED056A84ED067AC4ED077AF8BDFB
:100F8000012B7FF415AEF7EE005AB8EE006A77EE4B
:100F9000A56A38EE255AB6EE007A67EE867A26EE16
:100FA000877A85EE856A35EEC88A27EE067A66EE80
:100FB000C66AD4E7012A38BF01228A424FF00000F6
:100FC00028BF0A4683F82800DA60F1E5AFF3008015
:100FD000182D4454FB21194000007A4484CB012091
:100FE00070B50B4604468CB058490068E36008F0C1
:100FF00063FD4FF480320346206907928602821C0B
:1010000002F01F0C06F4F84646EA0C06504946F07A
:101010008046099146F4801621680A96A360DE1D79
:10102000DB0101F12F4143EA063323F0C04301F510
:10103000600112090893474D0309090D22F4F84293
:1010400042EA832206312A43C9B20B9201F0ECFA3C
:101050002168206901F12F4101F56001090D063178
:10106000C9B2013001F0E0FA2168206901F12F4195
:1010700001F56001090D0631C9B2023001F0D4FA60
:1010800001202269616800900323206808F05EFD5A
:10109000314BE268314902FB03F3B1EBB31F13D2CA
:1010A0002F49304B01FB02F29A420BD92E4D2846B4
:1010B00006AB05AA04A902F035FC38B929462B482D
:1010C00001F018FB2A4DF2E72A4DF0E70498DDE91C
:1010D000051202F065FB052002F05CFBE3689FED62
:1010E000267A9B01B0FBF3F307EE903AF8EEE77A2D
:1010F00077EE877ABCEEE77A17EE103A9BB213B31D
:1011000007EE103AB8EE477ADFED1C6A77EEC77A41
:1011100067EEA67AFCEEE77ACDED037A9DF80C50E7
:101120002D02D4E9011245EA0345206807AB079573
:1011300008F052FDD4E900200123116883400B43DD
:1011400013600CB070BD1D46EBE700BF3CC302103E
:1011500000000640E083FFFFD578E926263108002D
:10116000F125BED3BEF10500F049020008080210C7
:10117000B0110200803202000000003B00008043FA
:1011800038B50A4C206800B138BD1C2004F002FAC2
:101190004BF6803101220023C0E90412044D836024
:1011A000C0E900350376206038BD00BF78CB012050
:1011B0000000205070B582B0FFF7E2FF0125044621
:1011C00001A823689847A068019E00F11002616899
:1011D00005FA02F24B681342FCD1043041F820605A
:1011E000EEE700BF00000000F8B504462DED028BCD
:1011F00040681FF099FA32A3D3E9002302F0AEFE53
:10120000064620680F461FF08FFA0B460246394605
:10121000304602F0C9FE02F015FF054604F050F812
:10122000D4ED027A07EE100A77EEA77A284687EE09
:10123000278A04F048F8237B07EE900A33BBF7EEC9
:10124000005AB8EE006A75EEE76A38EE255AB6EE37
:10125000007A67EE867A26EE877A85EE856A35EE25
:10126000C88A27EE067A66EE866A67EE867A28EEE8
:10127000068A84ED047AC4ED056A84ED067AC4ED2D
:10128000077A84ED088ABDEC028BF8BD012BFAD1F8
:10129000F7EE005AB8EE006A77EEA56A38EE255AE6
:1012A000B6EE007A67EE867A26EE877A85EE856A54
:1012B00035EEC88A27EE067A66EEC66AD5E700BF25
:1012C000182D4454FB21194038B5542200212048E0
:1012D00019F058FC4FF480734FF460621C4D4FF4CA
:1012E000FA746B61AB611B4B4FF480502B612A6227
:1012F0004FF480734FF4807217496C62696017492C
:10130000174CA960E86129461648C5E90A23EC6034
:101310000EF056FA60B1144805F072FF29461148E4
:101320000EF0AAF948B90A490E480EF049FA50B928
:101330000E4805F065FF012038BD01460C4805F058
:10134000DFFF002038BD01460A4805F0D9FFF8E765
:10135000A82F00203D020010810200109D02001005
:101360005D020010B4C101203C080210C808021040
:10137000680802109008021010B50446D0B022464A
:101380001F4801A90FF0D0FBE0B921461D4805F028
:10139000B7FF0EAC02E00A2005F0F0FE01A92246DC
:1013A00017480FF01DFC002810A912DB1AD01648B0
:1013B000626805F0A5FF2378022BECD1134805F0F5
:1013C0009FFFE8E70146124805F09AFF002050B061
:1013D00010BD01460F4805F093FF01A908480FF022
:1013E000F1FBF3E7064801A90FF0ECFB10B901206F
:1013F00050B010BD0146084805F082FFE6E700BF87
:10140000B4C1012078090210B8090210C8090210FD
:101410005409021094090210D009021010B50446B4
:10142000C2B06A46214607480EF0B6FE10B90198D0
:1014300042B010BD2146044805F062FF002042B0D2
:1014400010BD00BFB4C10120640A021030B58FB0D6
:101450000546FFF739FFB8B101230446124A134885
:1014600001A92B700FF060FB38B10F490F480FF046
:1014700067FA80B920460FB030BD01A90B480FF0C4
:10148000A1FB20460FB030BD094805F0B9FE00248D
:1014900020460FB030BD0146064805F031FF064832
:1014A00005F0AEFEF3E700BF980A0210B4C10120B8
:1014B0007C0A0210180A0210A40A021010B5074C88
:1014C000206800B110BD102004F064F800232060F3
:1014D000C0E90033C0E9023310BD00BF50D0012085
:1014E000F0B5044697B00D461E4617460123224626
:1014F0001C4801A90EF03EFFC8B903462A46194808
:1015000001A90FF0AFF800281ADB4FF448433A4620
:10151000144801A90FF04AF8051E1ADB01A9114869
:101520000EF034FF0120C540356017B0F0BD2146F4
:101530000D4805F0E5FE00252846356017B0F0BDE2
:1015400021460A4805F0DCFE01A906480EF01EFF00
:10155000F1E72146064805F0D3FE01A901480EF047
:1015600015FFE8E7B4C10120C80A0210F00A021012
:101570000C0B021018B90D2340EC4030704730B509
:101580000D2383B04FF0010242EC40301C4C236825
:10159000EFF3108272B6D3E8CF0F01210028FAD101
:1015A000C3E8401F0028F6D1BFF35F8F1548626083
:1015B000FFF734FF1625144B1449154A40086438C8
:1015C00018600D60126800210E4801ABFFF788FF1C
:1015D00000B10198002301210E4A0F4D10600F4801
:1015E0000F4A036013600F480F4A2B60117003709D
:1015F0002268C2E88F3F636883F3108803B030BD70
:1016000080C90120300B0210B0C10120ACC1012003
:1016100004280020A8C10120A4C10120A0C10120EC
:101620009C310020ACD40120ADD40120000000008A
:101630002DE9F04F2DED028BA7B005F057FD4FF0CF
:101640003212B54BB5491B68B5489960B549586227
:10165000C3E9031208F0C2FB1C20FEF757FE1D2051
:10166000FEF754FE0D2001F021F801250D2345EC75
:1016700044300C2001F01AF80C204FF0000343EC2A
:1016800044000022294600F0EDFF142001F00EF87E
:10169000142345EC4430132001F008F8132345ECE3
:1016A0004430A14EA14B34682360237E5BB9A0482F
:1016B00001F022FB4AF64441201DFFF791FC9D48B2
:1016C00008F068FB257635689B482E699B4C07EE31
:1016D000906AB8EE678A80ED008AFFF785FD98482A
:1016E00080ED008AFFF780FDD4ED027A9FED957AB8
:1016F00028EE278AC8EE077AFCEEE77A17EE903AD2
:10170000012B38BF01232068E661636008B103F054
:1017100047FF60688C4B98428CBF4FF0FF30400011
:1017200003F03AFF626820601AB10021520019F0FC
:1017300029FAD5ED047A94ED037AF8EE677A00235E
:10174000B8EE477AA36117EE900AC4ED0E7A84EDE5
:10175000087A1EF0E9FFD4ED108A94F8443006466A
:101760000F4678EEA88AE06E002B40F00781E06318
:101770001EF0DAFF66A3D3E9002302F0EFFB324646
:101780003B4602F011FC02F05DFC054603F098FDBB
:1017900007EE900A284687EEA88A03F094FDB7EE7C
:1017A000005A07EE900A38EE054A35EE676AB6EE43
:1017B000007AF8EE004AC5EE045A26EE077A75EE76
:1017C000486A67EEA47A25EE866A27EE257A67EEE8
:1017D000A57A66EEA56A84ED136AC4ED157AC4EDA8
:1017E000166A84ED127A84ED147A0023574ACDE903
:1017F0001233574911920DF1440B07AE0C68099250
:101800009BE80300534A86E80300534D0A930C9269
:101810000B9504F1980393E803008BE80300D6E9E5
:10182000000183E80300D4F8A030D4F8A410139387
:10183000C4F8A0501491C4F8A4201BB10322594647
:1018400058469847012384F8A8300B9B1BB109A97F
:101850000322084698473E4B404D18680023404CF1
:101860001293404B59462830119314951394FEF768
:1018700085FD139B1BB10322594658469847002308
:101880001293334B59461868374B08301193CDE902
:101890001345FEF773FD139B1BB1032259465846AF
:1018A0009847324C47F61221204601F025FE0023CE
:1018B00001220821204601F0A1FE236B2C4A03F4EB
:1018C000404313630121204601F0D0FE0221052090
:1018D00000F0AAFE0221042000F0A6FE0022012151
:1018E000052000F0BFFE0921002000F09DFE214AE6
:1018F00021491368086843F400631360FFF7A6FDED
:1019000000286DD1012027B0BDEC028BBDE8F08F1F
:10191000182D4454FB211940BCCF0120210A00108E
:10192000751500100109001088C90120D5030010A9
:1019300080C90120B5110010CCCF0120C4CA0120FC
:1019400084CB012000007A44FCFFFF3FD907001040
:1019500000D00120410200102D03001049020010A8
:1019600055030010410B0010710800100080074063
:101970000090074000800C4074CB0120012BE063F5
:101980007FF433AF1EF0D0FED9A3D3E9002302F0D9
:10199000E5FA32463B4602F007FB02F053FB0546F0
:1019A00003F08EFC07EE900A284687EEA88A03F023
:1019B0008AFCB7EE005A07EE900A38EE054A37EE79
:1019C000856AB6EE007AF8EE004AC5EE045A26EEB5
:1019D000077A75EE486A67EEA47A26EE656AF4E641
:1019E0004FF0FF320023DFF810A3CAF82024DAF802
:1019F0000C208AF81434D2E90145AC42CAF81834F4
:101A0000CAF81C34CAF80830CAF81034CAF82834A6
:101A1000136009D0A368002B00F0E184E36820463E
:101A200010349847A542F5D19FED9D8ADAF80C0055
:101A30009C4A0368126803F5001111441A4403F527
:101A40008003CAF824240360CAF80010964B974A12
:101A50001C68974B9B6AA2FB0323227D9B09DAB18A
:101A6000E269A1699A1A8A4216D34FF05041496837
:101A7000627D11F4005F4FF00D0100F0CD814FF059
:101A8000000040EC4010A17DE361914204D80022A7
:101A90000D21227542EC40106268934252D004211D
:101AA000844A63601368844883F4005303F47043EA
:101AB0000360824B19601368DF05FCD5536894F806
:101AC000211098B239B92288131A002B228AB8BF84
:101AD0005B42934205DDA368208013B1984794F8D8
:101AE00021100420734A744D136883F4405303F4A7
:101AF00070432B60714B18601368DE05FCD553688A
:101B000098B239B96288131A002B628AB8BF5B4257
:101B1000934203DDE368608003B198474FF0504380
:101B20005A68D50400F11C8194F82020002A40F066
:101B30007B81636A01209847012384F820300023C9
:101B400084F821305E4C5F4BA6691D6816F01006C4
:101B50003DD1DFF8A881A369D906FCD423682A798E
:101B6000DFB21AB1A269920640F1CA80F72F00F2E3
:101B700084801B0600F191802B782BB3E9784A1CF6
:101B8000D2B22944012AEA704F701DD903F0F00245
:101B9000902A6878A978EE7003F00F0300F00281B4
:101BA000B02A00F0ED80802A0ED12A6A62B18DF849
:101BB0001C308DF824008DF844105B466F6A07A92D
:101BC00009AA05F11800B847A369DF06C3D59AF83A
:101BD0001404002800F09D80002005F089FA841C80
:101BE00016D00A2800F024810D2800F02181DAF8AF
:101BF0002834B3F5001F80F05F82DAF82424591CE2
:101C0000CAF82814D054DAF81C340133CAF81C344A
:101C10002D4B1B78002B3FF419AF2C4C2378002B55
:101C20007FF414AF2A4B1B68002B3FF40FAF294BF6
:101C3000294D1A682B6803F548439342BFF406AF59
:101C4000264805F0DDFA264E2D68264B0FCB8BE893
:101C50000F0009AB5846326805F54841FFF740FCD4
:101C6000034608B1099A22B91F4805F0C9FA0023B2
:101C70001A4623701D4B1A60E8E695F8A8300BB1A0
:101C8000F82F5CD02B6C002B9ED08DF844705946F9
:101C90006B6C05F13800984796E72F70EE7093E76C
:101CA0008845C84D18280020BCCF0120D34D6210B4
:101CB00000000B4000000A4000100A4000200A40CB
:101CC0000080074000D00120ADD40120ACD4012019
:101CD000A8C10120B0C101209C310020C40D021018
:101CE00000280020300B0210DC0D0210A4C10120DE
:101CF000182D4454FB21194080D0012068D00120C8
:101D0000B8F90220BA4224D0A2699206FCD4276016
:101D10002CE705F0EDF9821C3FF47AAF0A28DAF8D7
:101D2000103452D00D2850D040F2FE3293423FF78B
:101D30006FAF5A1C5344CAF81024187468E7D5F8DA
:101D40009030172B03F1010200F0B881C5F8902004
:101D500098E795498A699006FCD40D220A60D3E77A
:101D60005B68D8047FF5EBAE94F82030002B3FF48D
:101D7000E6AE636A00209847002384F82030DEE650
:101D80002A6B002A3FF420AF8DF81C308DF8240018
:101D90008DF844105B466F6B07A909AA05F128006E
:101DA000B84711E72A69002A00F00882002940F0AC
:101DB000F7812A6A002A3FF407AF8DF81C30002310
:101DC0008DF824008DF84430F7E6002B7FF720AF24
:101DD000002253441A74CAF8102474491422744817
:101DE00018F0A4FF002800F00282714B714A1B68B2
:101DF000934200F09F826E4B6F4A1B68934200F043
:101E0000A2826B4B6D4A1B68934200F0AB8268491B
:101E10006B4805F075FAFBE64FF0010040EC40100E
:101E20000132D2B262752EE65B68DB04A1D486E68D
:101E3000DAF81C14634805F063FADAF82454002D2C
:101E400000F09F80DAF800300493002B00F09980B6
:101E5000DAF82824032A40F2B382002303219C46A7
:101E60000591DFF874E15849934280F0B7805C1E19
:101E70002C4414F8010F0938C0B2172800F2AE80C4
:101E800021FA00F0C00740F1A98001339A42F0D155
:101E90001046031D9A42C0F0A6802C1864782E5C70
:101EA0001EF804401EF8066027090294C41C15F8A9
:101EB00004900394049C47EA8607861C15F8068064
:101EC00004F80C70AF5D1EF808803D2F1EF8096005
:101ED0000CF1010900F0E0802746029C0CF1020C95
:101EE000240144EA980407F80940039C2C5D3D2C2A
:101EF00005D046EA881607F80C60DDF814C00830F3
:101F00008242C0F0CE800CF10300B0F5001F0590B6
:101F1000AAD99A42644600F2C780CAF80440DAF8A7
:101F20000830043C9C4228BF1C46DAF800102546C5
:101F30000E68002C00F02E824FF0FF330331234C4B
:101F40004F1911F8012F82EA030000F00F0054F836
:101F500020008F4280EA131080EA121303F00F036F
:101F600054F8233083EA1013EBD1DC433146224688
:101F7000174805F0C5F9A64200F08F81154805F015
:101F80003FF900234FF0FF328AF81434CAF82024B6
:101F9000CAF81834CAF81C34CAF80830CAF8103421
:101FA000CAF8283434E600BF00800740640C0210F1
:101FB00090D0012070696E6777686F616C69737487
:101FC000AC0D0210400B02101300800050200210D4
:101FD000900B0210380C0210902002101846031DBE
:101FE0009A42BFF45AAF904264464CD20346002056
:101FF000013B013AC04E2B44A918119013F8015F20
:10200000A5F10902D2B2172A00F2E48026FA02F200
:10201000D70740F1DF808B42F0D1A0B3042805D070
:10202000C0F104023D21584418F0ACFDB34A9DF8BC
:1020300045309DF84410D35C555C9DF84660190905
:1020400041EA85019DF84700049D3D2E2955955D87
:1020500004F10101125C00F0B181B1F5001F00F044
:102060009C81049E1B0143EA95033D28735404F1AF
:10207000020300F0B281B3F5001F00F08E8142EA46
:102080008512F2540334032CCAF804403FF647AFDC
:102090009B4805F0B5F874E708308242CC46BFF49F
:1020A00032AF9A426446EED9B4F5001F9FD1CAF808
:1020B00004404FF4001432E7924860E70023C5F86B
:1020C0009030D5F8889001F0DFF9D5F8882005EB3D
:1020D000C909531CC9E91201594295F88C0003F053
:1020E000070901F007014B4658BF4B42002848D072
:1020F000093255F8320003F1090C05EBC2025168B0
:1021000055F83C2005EBCC0C801ADCF8042061EB80
:10211000020100295ADB50EA010232D0029302F098
:1021200017FF06EE100AF6EE007A95ED257AC8EE56
:10213000066A37EE277A76EEA77AFCEEE77ABDEEEE
:10214000C77A17EE903A9AB217EE103A9342C5ED5D
:10215000256A029B15D0D5F8A01091B1D5F8A4300E
:10216000ADF84420594605F198009847D5F88830D5
:1021700001335A4203F0070902F007024B4658BFE9
:102180005342C5F88830B9F1000F7FF47BAD95F864
:102190008C30002B7FF476AD012385F88C3071E50F
:1021A0008DF81C308DF824008DF844105B466F6963
:1021B00007A909AA05F10800B84705E52A6A002A17
:1021C0003FF402AD00297FF4FFACF6E5404261EB3D
:1021D0004101A3E70DEB00028B4282F8445000F16D
:1021E00001003FF41AAF04287FF408AF1EE7DAF8C5
:1021F0000C20D2E90145AC42106009D0A368002B45
:1022000000F0ED80E368204610349847A542F5D1F0
:102210004FF0FF30DAF80C403B4B07AA19682368EF
:10222000CD18CAF8245403F5800503F500131944AA
:10223000256009ABCAF80010079009901190334946
:102240003348CDF800B018F023FA03286ED1079870
:10225000099C0B28119900F28E80002C40F38B8092
:10226000002940F38880B1F5001F00F3AD800246DD
:10227000CAF8200400202346CAF808400124CAF8FE
:102280001C04CAF81004CAF828042248CAF8181412
:102290008AF8144405F034F8BAE41F4804F0B0FF9B
:1022A0001E4ADAF82034202109A804F0E7FC09A925
:1022B0001B4805F025F8594640F20253194809AA6F
:1022C000DAF800400EF056F8014600285AD1594677
:1022D0002B461448221D0EF07FF9011E66DB59467D
:1022E00010480EF053F8014600285BD12A4609A990
:1022F0000D4805F005F844E6130080009020021018
:102300006C0B02104C0C0210182800207C0C0210E0
:10231000A4D00120B00C0210C00B0210CC0B021094
:10232000E00B0210B4C10120F80B02102D4804F09C
:1023300067FF6DE42C4B1B79002B7FF45CAD2B48C1
:1023400004F05EFF64E446F66D12294B1988914251
:102350007FF457AD9B78002B7FF453AD254804F0F4
:102360004FFF55E4204B1B79002B7FF450AD2248E2
:10237000FFF702F84CE40B46224601461F4804F0E2
:10238000BFFF45E41E4804F0BBFF09A91D4804F047
:10239000B7FFF6E54FF0FF33E7E54FF40013CAF857
:1023A000043086E6184804F0ABFFEEE7174804F067
:1023B000A7FF594616480DF0E9FFE6E70C4662E62E
:1023C00042B9CAF8042063E64FF40012114804F041
:1023D00097FF1DE40024234609E61C4653E60FF050
:1023E00053FA00BF300D021090D00120840D02106E
:1023F00094D00120940D0210980A0210F80C0210DB
:10240000E8080210180C0210340902101409021016
:10241000B4C10120880C02106D4B2DE9F0476D4CC2
:102420001B686D4A20685B081360002800F08880F4
:102430006A4C6B4A23681060002B00F08680694A62
:10244000694E1360FFF73AF8684B1860FEF798FE84
:10245000674B35681860002D00F08C80654B0024B8
:102460001D6000256448654EDFF8B081644F456209
:102470008562C5620563C0F80080466087600473AA
:10248000FEF7B2FE01235F4A4FF47A7A10461373C7
:1024900055629562D5621563C2F8008056609760F8
:1024A0004AF64449FEF7A0FEDFED577A4FF0FF31C0
:1024B000564B574A1D615D615D62DD621D63DD65DE
:1024C0001D665D669D665D67DFF854E1514DDFF87E
:1024D00054C15148C3ED137AC3E90044C3F83880AE
:1024E0001F64C3F80CA0C3F81C90C3F854E0C3F8F1
:1024F00058C0D8669E60DE639A641A659C6183F852
:10250000284083F8344083F84440A3F87040C5E97C
:102510000044AC60C5F8104485F81444C5F818446C
:10252000C5F81C44C5F82014C5F82444C5F828444F
:10253000FEF7C4FFC5F82444E8602C60BDE8F087CE
:10254000012003F027F8206072E7282003F022F82A
:102550004FF0321500224FF480710346C0E900228B
:10256000C0E90222C0E90452C0E90622C0E908120B
:10257000206064E7B02003F00DF800240546C0E9B0
:102580000044C0E90244C0E90444C0E90644C0E98B
:102590000844C0E90A44C0E90C44C0E90E44C0E95B
:1025A000104440222146483018F0ECFA0023C5E9D7
:1025B0002244C5E927443560C5F89040C5F89840E5
:1025C000C5F89430C5F8A44085F8A84046E700BF98
:1025D0001C2800207CCB012098310020C0CF012096
:1025E00074CB0120BCCF012004D001204CD00120AD
:1025F00088C9012000D00120CCCF012000007A44FE
:10260000F4FD343F84CB01205652003CC4CA012063
:102610005652803B80D0012000409C4600803B47C2
:10262000565CE8BF3FBB543F10B44FF480740C4B72
:1026300053F8202003EB8003C00082F0400200F139
:10264000804003F5805C02F0C00200F5203003F505
:102650004053CCF8002041601C605DF8044B70478B
:102660000480034010B4084CC90041EA820154F8C8
:10267000202004EB8003514003F5805301F00C014E
:102680005DF8044B1960704704800340064B4022FC
:1026900003EB800319B103F500531A60704703F58B
:1026A00040531A60704700BF0480034030B44FF0BD
:1026B000000343EC440043EC400005254FF48074D4
:1026C0000B4BC20053F8201003EB800081F0400157
:1026D00002F1804303F5203301F0C00200F5805180
:1026E00000F540500A605D60046030BC704700BF78
:1026F000048003400FB400B583B0049C074804F085
:102700007FFD3CB105A92046019104F005FB04487A
:1027100004F076FD012004F017FB00BFFC0D021051
:10272000F40C0210EFF3108072B6064BD3E8CF1F03
:1027300001220029FAD1C3E8412F0029F6D1BFF3C5
:102740005F8F70476BC501200023034AC2E88F3FAB
:1027500080F31088704700BF6BC5012070B58646B6
:10276000EFF3108572B6124CD4E8CF6F0120002E23
:10277000FAD1C4E8460F002EF6D1BFF35F8F4FF0B9
:10278000010CC80801F007030CFA03F31EF800C09F
:102790001CEA030608D14CEA030C0EF800C0C4E89A
:1027A0008F6F85F3108870BD1046FFF7A3FF00BF41
:1027B0006BC50120F8B5EFF3108772B61C4ED6E852
:1027C000CF5F0124002DFAD1C6E8454F002DF6D188
:1027D000BFF35F8F9A421BD8012502E0013293427A
:1027E00022D3D40810F804E002F0070C05FA0CFC20
:1027F0001EEA0C0FF2D14EEA0C0E00F804E010466F
:102800000023C6E88F3F87F31088984207DBF8BDA6
:102810000023C6E88F3F87F310884FF0FF30002970
:10282000F5D00698FFF766FF4FF0FF30E8E700BFEE
:102830006BC50120044A1078431CDBB2182B28BF5B
:1028400010231370704700BF2028002010B5054CDE
:1028500082B001461F23182200940348FFF7AAFF05
:1028600002B010BD0C0E021094CA01204FF0E022FD
:10287000936843F000539360704700BF0021044BFE
:1028800003F12002C3E88F1F01339342FAD170474E
:1028900060C501204FF0E0234FF08032C3F80024E0
:1028A000C3F80424C3F80824C3F80C24C3F8102484
:1028B000C3F81424C3F81824C3F81C24C3F8202434
:1028C000C3F82424C3F82824C3F82C24C3F83024E4
:1028D000704700BF012300F01F029340400941B13F
:1028E000800000F1604000F56140C0F88031036075
:1028F0007047024A203042F82030704700E100E083
:102900000123064A410952F8212000F01F0003FA72
:1029100000F01040003818BF0120704700E100E0CF
:1029200001224309034900F01F008240403341F86F
:102930002320704700E100E0054A10309268054B03
:1029400052F82000C01A2F288CBF002001207047A9
:1029500000ED00E024280020F8B50D46EFF31087C5
:1029600072B6124ED6E8CF2F0123002AFAD1C6E85C
:10297000423F002AF6D1BFF35F8F0D4B00F11004E8
:102980009B680C4A53F82430934203D0994201D0FB
:1029900001F09AF9064B9B6843F82450BFF35F8F10
:1029A0000023C6E88F3F87F31088F8BD69C5012072
:1029B00000ED00E01D0100102DE9F04F81468B462F
:1029C000164683B0EFF3108372B6DFF8D0A1009300
:1029D000DAE8CF1F01230029FAD1CAE8413F0029D4
:1029E000F6D1BFF35F8F664B93F90040002CC0F225
:1029F000A080644D04EB440705EB870898F80610A7
:102A000009F110091970604BBF009B6853F8290049
:102A10006300411B2F292FD95C49884240F0A480D4
:102A20001C445B4B02372F44043BDB1BC3F34A03BC
:102A30006FEAC3434FF421416FEAD34325F82410D2
:102A400005EB840463804BF60153A380FF2348F019
:102A50000100E671C4F808B0A3714B4B9B6843F8C2
:102A60002900BFF35F8F0023CAE88F3F009B83F3E9
:102A7000108803B0BDE8F08F20F0010E9EF807101B
:102A8000B1422ED84FF42143EB53414BB91C29449A
:102A9000043B04375B1A2F44AEF10401C91BC1F398
:102AA0004A043C49C3F34A030B432143A8F80410EA
:102AB0003949A8F802304AF6AA2073465B1B5B41ED
:102AC0005843000D88F8076088F80600C8F808B079
:102AD00048F00100CEF80010BFE7D179B1422ED9FD
:102AE00096469EF906C00CEB4C02BCF1000F05EBBC
:102AF0008202F2DA4BF601510EF10402A8F104074A
:102B0000BF1AC7F34A076FEAC7476FEAD7478EF87D
:102B1000064003EB0408204C05EB8803AEF8047074
:102B200045F82840998083F806C0DE71C3F808B0E4
:102B300093E701F0C9F8124B93F9004059E7724648
:102B400032F8041F490514D44915023102EB410142
:102B500001916FF00701C91B019F491B3944C1F363
:102B60004A0141F46041C9E7019301F0ADF8019BCE
:102B700056E701F5FF1101F5FF511F31E4E700BFF2
:102B8000B3D401202428002000ED00E01D01001036
:102B90005428002000E0FFFF0148804769C501205C
:102BA000F0B5EFF30585EDB2EFF3108C72B6264960
:102BB000D1E8CF2F0123002AFAD1C1E8423F002AF1
:102BC000F6D1BFF35F8F214E40F0010EB4684AF694
:102BD000AA2354F825701E4A0446A41A644163438C
:102BE0001B0D77455BB21BD092F906409C421CD06E
:102BF00092F912409C4223D092F91E409C4221D06F
:102C000092F92A409C4208BF03240FD0114A0024A5
:102C1000157813708571C1E88F4F8CF31088F0BD63
:102C2000B2680D4C42F82540F0E7002404EB440460
:102C300002EB8402FF2494714BF601549480E5E783
:102C40000124F3E70224F1E769C5012000ED00E06B
:102C500024280020B3D401201D01001010B5074C1A
:102C600082B001460523002200940548FFF7A2FD2B
:102C70000028A8BFC0F1330002B010BD280E02101A
:102C8000B7D40120014B0B440360704760C501209D
:102C900070B5104C104DAC420ED2FF26236863B1C4
:102CA000FFF7C8FD01462046FFF7ECFFA680BFF303
:102CB0005F8F0834AC42F1D370BDFFF7BBFD014616
:102CC0002046FFF7DFFF2671BFF35F8F0834AC4269
:102CD000E4D370BD982F0020A82F002010B5044623
:102CE000FFF7A8FD01462046FFF7CCFFFF23237125
:102CF000BFF35F8F10BD00BF10B504460120FFF782
:102D0000A5FD034B03442360BFF35F8F10BD00BFDD
:102D100060C50120024B0B440360BFF35F8F704717
:102D200060C501200D4B1A68EFF3108172B6D2E82E
:102D3000CFCF0120BCF1000FF9D1C2E84C0FBCF19C
:102D4000000FF4D1BFF35F8F00221B68C3E88F2F01
:102D500081F3108840BF0020002170475CD0012023
:102D60002DE9F04F2DED028B85B0EFF30583DBB23B
:102D7000103B9A0818BF01224FF0010103F0030B2A
:102D800018BFAF4DAF4B08BFAF4D0BEB820253F8EE
:102D9000226001FA0BF205F541539FEDA78B0192DA
:102DA0005A602FE0B3881C0440F19380B379002B64
:102DB00040F0DD80B6F90820002AC0F21E81736958
:102DC00002EB420203EBC203D3E90247B7F1FF3F34
:102DD00008BFB4F1FF3F0ED005EB8B01AB6A0A6967
:102DE000D21AE31A934205D301232A6A03FA0BF39A
:102DF000134200D10C61284600F03EFBA042B941CD
:102E0000C0F2FB80B6F90830019A002B0093EA6308
:102E1000C8DBD6F8148003EB4309284608EBC90742
:102E2000D7E9024A00F028FBA04271EB0A01B9DBA6
:102E3000BAF1000FC0F2C380D7E90431834A93424C
:102E400000F0ED807A88B6F9080092B242EA0040BC
:102E5000984702460B4652EA030100F0B080002B6F
:102E600080F2D180B4EB020E6AEB030A38F93930F4
:102E7000C7E902EA002B95DB716903EB430201EB22
:102E8000C202D2E90270BE457AEB000C4FEA43025F
:102E900088DBB4462CF8083F06E003EB430001EB67
:102EA000C0005A00D0E90270BE451A447AEB000017
:102EB00001EBC20404DB31F93230A446002BECDA1A
:102EC00028F83930009BACF80030B3881C043FF57B
:102ED0006DAF3369EFF3108272B6D3E8CF0F0121E3
:102EE0000028FAD1C3E8401F0028F6D1BFF35F8F56
:102EF0004FF6FF74B0880023316900B2B480C1E896
:102F00008F3F82F310889842FFF650AF0746A946DC
:102F1000746906F1080807EB470E04EBCE03D3E90A
:102F20000250B6F90830C446002B13DBB2460097B6
:102F300004E034F936309446002B09DB03EB4306FA
:102F400004EBC602D2E90271BD4270EB0101F0DA76
:102F50005646009FACF8007034F93E7024F83E30BD
:102F6000002FD8DAB3794D46002B3FF423AF00236E
:102F7000B371B6F9083006F10808581C3DD01A465E
:102F8000776903E08046591C3FF416AF03EB430119
:102F900007EBC100B0F802C01C461CF4004F9E466F
:102FA00037F93130EED0944280ED028B05D0A8F88D
:102FB0000030328927F8312034817246E3E738F84F
:102FC000393033813369EFF3108272B6D3E8CF0F13
:102FD00001210028FAD1C3E8401F0028F6D1BFF331
:102FE0005F8F7388316928F83930009B7380002324
:102FF000C1E88F3F82F31088D4E640BF05B0BDEC36
:10300000028BBDE8F08F2846CDE9022300F034FAA8
:10301000029A039B10EB020E43EB010A26E70846D7
:103020000B69029198470028C9D00299D1E9002381
:1030300011E700BFAFF30080FFFFFFFFFFFFFFFFBF
:1030400000800B402CD0012000000B40612D0010AF
:103050002DE9F84F364C25692DB1BDE8F84F0A210E
:103060003448FFF70FBEDFF8E4800321404600F04C
:10307000F1F90326C4F80C80FFF7DCFB4FF0504C4D
:103080002D4B267003442361DCF800300F21637060
:10309000636961801D834FF00405A3F878504FF0F9
:1030A0000505A3F890504FF00605A3F8A8504FF07F
:1030B00007050E214FF6FF7208274FF00A0EA3F8FE
:1030C000C0504FF001094FF00C0C4FF0020B4FF0C5
:1030D000090A0D204FF00B05A3F868111749A280CB
:1030E000A3F808E1A160A3F848B0A3F8F0A0A3F802
:1030F0002051A3F838C1A3F85001A3F83090A3F8E9
:103100006060A3F8D8701A800D4B3046C8F8207064
:103110000C49DC60FFF720FC49463046FFF7DAFB3C
:10312000094B0A211F640348BDE8F84FFFF7AABD09
:103130006C2800205CD0012060C50120FFFF10003A
:103140002CD00120612D001000200B4000000B400E
:10315000004870476C280020F8B59DF820500446C0
:1031600017461E4635B900F08FF9874266EB01011C
:1031700000295CDB2169EFF3108372B6D1E8CF0F31
:1031800001220028FAD1C1E8402F0028F6D1BFF370
:103190005F8FB4F90220656902EB4201002A4FEA11
:1031A000C10C206905EBC10139DB35F80CE0A4F84E
:1031B00002E04FF0000EC0E88FEF83F310884888DC
:1031C000069B0130C0F30E00012838BF01200B61BF
:1031D000079B48804B61C1E9027640EA02402369BF
:1031E000EFF3108172B6D3E8CF7F0126002FFAD11A
:1031F000C3E8476F002FF6D1BFF35F8FA38825F890
:103200000C30A2802369C3E88FEF81F3108801227C
:10321000E368217803F501538A405A60F8BD002223
:10322000C0E88F2F83F310884FF0FF30F8BD284699
:10323000F8BD00BF0146F0B50069EFF3108772B624
:10324000D0E8CF5F0124002DFAD1C0E8454F002D12
:10325000F6D1BFF35F8FB1F902E04C690EEB4E0C73
:10326000BEF1000F4FEACC05086904EBCC0C3CDB47
:10327000665B4E800026C0E88F6F87F31088BCF82D
:103280000200CCE902230130C0F30E00012838BF50
:103290000120059BACF80200CCF81030069B40EAF8
:1032A0000E40CCF814300B69EFF3108272B6D3E8FD
:1032B000CFCF0127BCF1000FF9D1C3E84C7FBCF19F
:1032C000000FF4D1BFF35F8F8B886353A1F804E044
:1032D0000B69C3E88F6F82F310880122CB680978ED
:1032E00003F501538A405A60F0BD0023C0E88F3FC8
:1032F00087F310884FF0FF30F0BD00BF03464089D0
:10330000B0EB214F37DD58690A1402EB420210B5C9
:1033100000EBC2001C69EFF3108C72B6D4E8CFEF5B
:103320000122BEF1000FF9D1C4E84E2FBEF1000F0B
:10333000F4D1BFF35F8F428889B292B28A4207D03C
:1033400000221B69C3E88F2F8CF31088002010BD6A
:1033500042F4004242800121002218699971C0E8BC
:103360008F2F8CF310881C78DA68084602F5015319
:10337000A140596010BD0020704700BF40787047E1
:103380002DE9F04306460D4683B0EFF30584E4B221
:103390003CB12D4B5A6AAA421CD2002003B0BDE8B2
:1033A000F0832A4FD7F80C9097F80080484600F039
:1033B00063F808F1040859F828301B1A301A65EB35
:1033C0000101984271F1000110DB20BF1E4B5A6AC7
:1033D000AA42E2D314BF012400249B6AB34234BF43
:1033E000204644F0010003B0BDE8F08300F04CF843
:1033F000864265EB0101002914DB154B3846CDE907
:10340000003432462B46FFF715FF011E0ADD0E4B36
:103410005A6AAA4216D39B6AB34211D30B48FFF7EC
:103420006DFFB6E7084B5C6AAC42B6D3641B18BFAD
:1034300001249B6AB34234BF204644F00100ADE74B
:10344000AA42EBD120BFE9E700000B406C28002026
:10345000252D001010B4054B054C064AA04214BFA0
:103460001846581C5DF8044BFFF778B998CA01203C
:1034700000800B40440E02100346416A0A46986AD7
:10348000596A8A42FAD17047034B596A0A46986AC8
:10349000596A9142FAD1704700000B4030B4154A86
:1034A000536A9C46946A536A6345FAD1021959419A
:1034B0004FF0000528BF01250E4B5B6AB5B15A1CC1
:1034C00008BF1A4608D04FF0FF310A460948436A40
:1034D0008B42FCD38B4207D1064902E0486A9842EE
:1034E00002D1886A9042F9D330BC70479942EDD836
:1034F000F0E700BF00000B40F8B5054606200E4679
:1035000000F048F9002842D0354A3648954214BFA9
:103510004FF080624FF00062334B344902601A6012
:103520008C6832EA0404FBD12D4B4FF48071EB1A06
:10353000B3FA83F32E4A5B09062022F8131000F039
:1035400029F9C300B3FBF6F30133DA0920D1402691
:1035500001216962AA622F6BFB0722D42B4600224D
:1035600053F82C1F062003F5805422602F6300F0CF
:1035700011F940F2013103228000B0FBF6F0EB6A52
:1035800083F0700303F07E0323602963AA64F8BD0F
:103590004FF6FE718A421BD922464FF6FF71154E37
:1035A000D7E740F2013205F540531A636B6AAC6A03
:1035B000062004EB831400F0EDF80F4BA402A3FBEC
:1035C0000023DB0A0021B4FBF3F0FFF767FFC5E738
:1035D000C3F34503114603EB82161A46B9E700BF51
:1035E00000800740002002400030024000000240FE
:1035F00068D00120C0FF3F00757B2B8F013A053951
:10360000D200F8B5054642EA411443B1A3F10103E3
:10361000B3FA83F35B0944EA830343F002042E6B9D
:10362000F3070AD42B4653F82C2F624002F06E02A7
:1036300003F580531A602E63F8BD40F2013205F5A0
:1036400040531A636B6AAF6A062007EB831700F0DA
:10365000A1F8054BBF02A3FB0030C00A0021B7FB55
:10366000F0F0FFF71BFFDDE7757B2B8FF8B5066BDE
:103670000546F3074FEA01140AD42B4653F82C2FC2
:10368000544004F0100403F580531C602E63F8BD11
:1036900040F2013200F540531A636B6AAF6A0620AC
:1036A00007EB831700F076F8054BBF02A3FB003051
:1036B000C00A0021B7FBF0F0FFF7F0FEDDE700BF26
:1036C000757B2B8F00EB400C4FEA8C0C0CF1804C7F
:1036D0000CF5803CF0B51646DCF80420051FB2F569
:1036E000803F38BF4FF48032EDB238BFCCF80420B1
:1036F000012D2AD94FF40067254C0CF54052176074
:1037000054F82020B2B9DCF80020012D82EA4612DC
:1037100002F0E0020CF5805632602AD94FF40061C5
:1037200044F820304FF480330CF500521160CCF88F
:103730000430F0BD6769B7FBF2FE0EF1010E0EEB2F
:103740004E0EBEF1030EFCD2DDE70129D2D10324D7
:103750000CF540521460DCF80820D207FBD5DCF8E9
:1037600000200B4C82EA461202F0E0020CF5805673
:1037700032600122DCF800504D4005F00305356051
:1037800002FA01F1DCF808200A42FBD0C6E700BFCC
:103790009CCA0120014B53F8200070479CCA0120AD
:1037A000584B2DE9F0431C6C1746B4F5803F38BFE9
:1037B0004FF4803283B038BF1A64032280460E462D
:1037C000514B504DDA636C6CE307FCD5EB6B4F4A01
:1037D00083F0200303F0E003D363EB6B494D83F0E8
:1037E000010303F00303D3636C6CA407FCD54FF40F
:1037F00000624FF48039464B464CDA63464B4246F2
:10380000636101213346C5F840904448009700F0B9
:1038100057F94FF400616B6B07FB06F64B4538BF59
:10382000C5F83490384B2269B8FBF6F619633AB103
:103830006369B3FBF2F3013303EB4303033BFDD2B4
:103840003049324A0B6B03F0E00313630B6B83F0D8
:10385000020303F0030313638B6B5807FCD54FF48B
:1038600000654FF480332A4A15632D4A4B63226169
:103870000A6C9A424FF0030238BF0B64224B214975
:10388000DA634B6CDA07FCD5CB6B204A03F0E0031C
:10389000D363CB6B1B4983F0010303F00303D363B2
:1038A0004B6C9B07FCD54FF480334FF40065184AEE
:1038B0006661D5630B64CA6C9A4238BFCB644FF41F
:1038C0000061114BA26999643AB16369B3FBF2F3E9
:1038D000013303EB4303033BFDD24FF400604FF48D
:1038E0008031084A094D936C83F0400303F0E003F4
:1038F000AB64074B084DA5619864D16403B0BDE883
:10390000F08300BF00000140003001400010014082
:10391000002001409CCA0120006CDC020000054030
:10392000001BB7002DE9F04F4FF4A078994685B001
:10393000CDE902125F4CDFF884A154450AD908F1A1
:10394000FF38A4F53B54B8F10F0FA4F12004F4D1D3
:10395000002069E0072304F53722019403FB03F4F8
:1039600002F5D872B2FBF4FE70454FF0010C4FF037
:1039700002074FF003064FF004054FF005013FD05A
:10398000B3F1010E00F094800EFB03F4B2FBF4FBE4
:1039900058454CD019B301FB03F4B2FBF4FB584576
:1039A0004FD0E5B105FB03F4B2FBF4FB584553D00F
:1039B000AEB106FB03F4B2FBF4FB584557D077B128
:1039C00007FB03F4B2FBF4FB58455BD0BCF1000FDE
:1039D00005D00CFB03F4B2FBF4FB83455DD07346CA
:1039E00003FB03F4B2FBF4FE704501F1FF3105F176
:1039F000FF3506F1FF3607F1FF370CF1FF3CBFD171
:103A000004FB1024002CBBD19E464A46DDF808B0CA
:103A1000DDF80C900120284901FB08F1CBF80010DB
:103A2000C9F80030C2F800E005B0BDE8F08F04FB33
:103A30001024002CAED14A46DDF808B0DDF80C9019
:103A4000E8E704FB1024002CABD14A468E46DDF893
:103A500008B0DDF80C90DDE704FB1024002CA7D1A2
:103A60004A46AE46DDF808B0DDF80C90D2E704FB1C
:103A70001024002CA3D14A46B646DDF808B0DDF884
:103A80000C90C7E704FB1024002C9FD14A46BE4689
:103A9000DDF808B0DDF80C90BCE704FB1024002C26
:103AA0009DD14A46E646DDF808B0DDF80C90B1E756
:103AB000019C44E750262F00001BB70050F80C0073
:103AC00070B4039D04682D0345EA03451B4B002C8D
:103AD000B3FBF1F3B2FBF3F61FDB194A194B90422B
:103AE00014BF4FF480424FF40042174C1A6003F5A4
:103AF00080531A60A36832EA0303FBD1212200F548
:103B000040530433016086601A600268002AFCDAC0
:103B10000822C5601A6070BC7047036803F03F0359
:103B20008B42DAD18368C3F30B03B342D5D1C368A8
:103B300003F4EE23AB42D0D1EDE700BF001BB7008A
:103B400000800540002002400000024030B44FF0E9
:103B500080441C4B1C60E0B11B4CA3F54053DC615E
:103B60001A4C40F0010044401C62596298624FF0C8
:103B700080454FF0E061134B1548164C1D60846082
:103B800019604AB930BC4FF00042A3F580531A6067
:103B90007047114BD861EAE74FF47A7303FB02F2E6
:103BA000B2F1807F2ABF6FF07F4313461A464FF071
:103BB00080410A4C08482360094B426030BC1960C0
:103BC000704700BF00B00D40D3C007B02D3FF84F85
:103BD00000A00140F3FFFF0100800D40C8CF01208D
:103BE00000A00D40012300EB4000800000F1804068
:103BF00000F5841041600360704700BF002370B57A
:103C0000DB8A04460D46002242E800F2520254BF0D
:103C10001021042144F25220984786462B46224622
:103C2000F446BDE870400A214FF48170604700BF40
:103C30000023DB8A002242E800F2520201D4102164
:103C400018470421184700BF08B503460846191E47
:103C500002DB1AB140F03000FFF7D0FF40F0200047
:103C6000FAE700BF034AD2F82838002BFBD0BFF395
:103C70005F8F704700000E400021044B044ABFF3E1
:103C80005F8F43F8041B9342F9D170470C080E4034
:103C90002C080E4010B44FF48D704FF42A64064A7D
:103CA000064B07491460D06019605368002BFCDA9A
:103CB0005DF8044B704700BF0080044000A0044042
:103CC00000B0FA00704700BF08B50148FEF712FDCA
:103CD000680E021038B5054C054DAC4204D254F8BC
:103CE000043B9847AC42FAD338BD00BFB807021076
:103CF000F807021038B5054C054DAC4204D254F813
:103D0000043B9847AC42FAD338BD00BFE407021029
:103D1000F807021010B40748074C084B084A094935
:103D200004601A608B6832EA0303FBD15DF8044B30
:103D3000704700BF002002407F3BEFEF00300240A1
:103D4000F6FFF30300000240044BDB6CB3F5004FB9
:103D500003D14FF48022024BDA6470470000115007
:103D6000002011504FF0E022044BD2F8881D0B4385
:103D7000C2F8883D10EE3004704700BF03033000E6
:103D80006FF06041044B054A19609368DB4333F0E0
:103D90006043FAD1704700BF00300240000002408B
:103DA00010B545F25320FFF743FFBDE8104003462E
:103DB0000420184710B545F25320FFF739FFBDE83E
:103DC0001040034601201847FEF758BD10B5054BBB
:103DD000054C4FF488721846A16817F09FF9A0604F
:103DE00010BD00BF0000002000ED00E0002370B512
:103DF0002B4C82B0C4F88430FFF74CFF0122294BD2
:103E0000DA63636C012BFCD10321264A244B116336
:103E10009C6B012CFCD10226052521460523224A54
:103E200022480096FFF74CFE21462B46204A2148A7
:103E30000095FFF745FE0022042031461E4BFFF798
:103E400041FC2146284600221C4BFFF73BFC002288
:103E5000082011461A4BFFF735FC002209201146B5
:103E6000174BFFF72FFC002206201146134BFFF7DC
:103E700029FC0022114B07201146FFF723FC0420E8
:103E8000FFF788FC00240F4BA3FB0035AD0CE0B21C
:103E900029460134FFF7A6FE062CF8D102B070BD0A
:103EA0000000014000300140002F6859000005402B
:103EB000008C864700800540001BB70080D1F008C9
:103EC000006CDC0283DE1B4386B003B451FC0804A3
:103ED000CDE9020151FC0904CDE9040151EC0A04C9
:103EE000CDE9060103BCF047BDE800504EEC00C42C
:103EF000BDE800504EEC01C4BDE800504EEC02C4D9
:103F000000BD000000B5FFF7DFFF02E010FE30F457
:103F1000F8D441EC100443EC112400EE010410EE3F
:103F2000010480EE200451EC1004704700B5FFF747
:103F3000CBFF02E010FE30F4F8D441EC100443EC67
:103F4000112400EE010410EE210480EE200451EC57
:103F50003004704700B5FFF7B7FF02E010FE30F401
:103F6000F8D410B541EC100443EC112451EC0404D6
:103F700053EC0524A0FB024C5FF0000EE0FB03CEE7
:103F8000E1FB02CE4CEC20440024E1FB03E444ECD2
:103F900030E480EE200451EC5004BDE8104070473E
:103FA00000B5FFF791FF02E010FE30F4F8D441ECC9
:103FB000100443EC112451EC2104A0FB01126FEA20
:103FC000820252FB100052FB12F252FB1000A0EBD7
:103FD000D07C53EC04245CFB13F153EC1524A1FBBF
:103FE000022001FB030053EC4424A2EB000050FB31
:103FF0001CF24FEA111312EB017043EBE27140EA3D
:10400000515020EA915020F0070053EC7524A0FB9A
:10401000023C53EC752400FB03CC01FB02CC53ECB7
:104020000424ACEB824C40EA5C70A0F1010041EC4E
:10403000400480EE200451EC7004704700B5FFF797
:1040400043FF02E010FE30F4F8D441EC100480EE9F
:10405000220410EEB204704700B5FFF735FF02E00E
:1040600010FE30F4F8D440EC700400EE010410EEC1
:10407000210480EE200451EC3004704700B5FFF7B6
:1040800023FF02E010FE30F4F8D440EC600400EEB0
:10409000010410EE210480EE200451EC300470473E
:1040A00000B5FFF711FF02E010FE30F4F8D441EC48
:1040B000800400EE010410EE010480EE400410EED6
:1040C0001304704700B5FFF7FFFE02E010FE30F466
:1040D000F8D441EC800400EE010410EE010480EEFF
:1040E000400410EE3304704700B5FFF7EDFE02E028
:1040F00010FE30F4F8D441EC100443EC112400EE2F
:10410000010410EE3004C0F30070704700B5FFF7F3
:10411000DBFE02E010FE30F4F8D441EC100443EC76
:10412000112400EE010410EE3004C0F380707047DB
:1041300000B5FFF7C9FE02E010FE30F4F8D443ECFE
:10414000102441EC110400EE010410EE30F48CBF99
:1041500001200020704700BF00B5FFF7B5FE02E068
:1041600010FE30F4F8D443EC102441EC110400EEBE
:10417000010410EE30F42CBF01200020704700BF76
:1041800000B5FFF7A1FE02E010FE30F4F8D441ECD8
:10419000100443EC112400EE010410EE30F42CBFA7
:1041A00001200020704700BF00B5FFF78DFE02E040
:1041B00010FE30F4F8D441EC100443EC112400EE6E
:1041C000010410EE30F48CBF01200020704700BFC6
:1041D000404261EB410140F2F334B1FA81F20C2A22
:1041E0000CD2153211FA02F3C2F12002D04021FAAA
:1041F00002F12244584141EB0251704769B1C2F1CA
:104200002B0230FA02F3C2F1200291409040194390
:10421000A4EB020201EB0251704701004FF00000D5
:10422000A4F12004D9D17047012767F31F5117FA71
:1042300003F817D0A0FB080701FB0871A1FB067863
:104240005FEAD8469219A6FB047806FB05880903A5
:1042500051EA1051D7EB003061EB0801A94238BF99
:1042600070470BE00C33012717FA03F80FD0A0FBBF
:10427000080701FB0871A94238BF704708BFA04278
:1042800038BF7047001B61EB05010132704703F135
:10429000200311FA03F6D3F12003D840D94030436C
:1042A0007047000000000000000000000453B10847
:1042B0006018850FC8E5F22A6E07271E0D12B2217D
:1042C0000412572F12557CBCDA30723F17A717A57E
:1042D0005531994E9D0DBF0AEEE0AB5FE3EF6D9C4B
:1042E0007636AD6F697BCCE33D62BD7EF0810682A0
:1042F000F3FA428F37D5B78A5313C89E7FABB320EA
:10430000491570AF0000000000000000025E881533
:104310005580FF00907806B1A602FE01DC4E21F028
:10432000EB88FB027A7C801F1615F8033C5DA9D14F
:1043300010A9F304AA466CF5C146EE05FF65E4EB4F
:1043400009F0E70613C00C9EC3A6E007E1BFEC919D
:10435000C46CD808D5AF5EFFDC43CF09466A72E46F
:10436000D72DC50A237E6E197B2CBA0BBFF571645D
:104370008741AE0C61DFB88CB86EA10D09A9856DBF
:10438000C5B5930E3153B1086018850F3071E498AC
:10439000359875105915550580FF0F0009C3EB8F2F
:1043A00080FB2F00B1910E9A82F34F001FE7FD2290
:1043B00087E76F00C3A09A298FD78F004F4366AC61
:1043C0009BC3AF00412A83A9ADABCF004FB7B41E4A
:1043D000C68FEF00B6815F09E66F0F0167858966BA
:1043E0000E4C2F011A52DA3240244F01483A9B6A90
:1043F0007CF86E01FF81B709C4C88E019C8DBC0B8F
:104400001895AE017010DA6B795DCE013A3BE2246B
:10441000E921EE0138739533427FECA03114FAF5AF
:10442000BD8689916B02FAE6E0F29183E68212077B
:1044300013A85177212621686AB2736A9D0DBF0ABD
:10444000EEE0AB5F19B4E0B71CB66A549596E53D53
:10445000EF07A548D1CBE555DC0E4E3CCE68ADE864
:1044600039B5A432CB3CFA96D9569A28C9B21CA1C8
:10447000F9FCAE21864B6BE58AD2F0160453B108E5
:104480006018850F02C00C9EC3A6E0070000000064
:1044900000000000AC79CFD1F71772B1293BAAB860
:1044A0004FEAC12040F00040490043F1200340F2B0
:1044B0000001C3F6F071C3F10B0320FA03F038BF1B
:1044C0007047404261F1000170475FEAD17CC1F35F
:1044D0000A53A3F2FF330C2B62DA13F1200FDFDD56
:1044E0002DE9F0413C4C70CC4FF00002FFF79CFEF0
:1044F0001CF0010F04D06FEA0202201A65EB0101E3
:1045000002F2FE3C40F2FE739C455CD20A0F334B34
:1045100003EBC2030CCB02F03F0545F04005801AC7
:1045200099410A0E2E4B03EBC20318CB02F58072A1
:104530005543C01AA1414A0D2A4B03EBC20318CBC5
:10454000124402F5805205FB0255C01AA1418A02AD
:1045500052EA905242F1000282FB02345B0D53EAB0
:10456000C423C01841EB545184FB02344FF055333F
:1045700083FB043454FB11F304EB930410EB44026B
:1045800041EBE473E900A1FB0240C1FB0301400AD7
:1045900050EBC1504FEA512151EB0C51BDE8F08175
:1045A000B3F5806F07D150EA01320CBF21EAE17107
:1045B00041F400217047002000211CF0010F08BFCA
:1045C000C7F6F07170474FF000004FF00001A8BF30
:1045D000C7F6F071BDE8F08194440010A4420010C9
:1045E000044300109443001040F20001CFF6F07134
:1045F0000020704750EA013218BF41F40021704793
:104600007FEAA65540F019814FF4805420E18CEAEE
:1046100011331B0640F0EE80BCF1000F67D1C904D6
:1046200051EA5031C004B1FA81F4202C4BD201255B
:10463000A540A0FB052301FB0533A0FB03C5A1FB9F
:1046400002C6E1FB6356B2EB152263F10003B2EB45
:10465000066273EB1623A0FB06C7A1FB05C8E1FBAE
:1046600066784FF05535A7FB05C65FF0000CE8FBF8
:10467000056C16EB0C064CF1000C12EB963243F174
:10468000000312EB8C4243EB9C3358FB11F55FF0B7
:10469000333755FB11F656FB17F8A5EB581756FBA9
:1046A00011F5C2F6802656FB15F507EB1537B2EB70
:1046B000472063EBD751C4F58064A4F11504FFF7DC
:1046C0008CFDBDE8F081B0FA80F410FA04F1A0FB93
:1046D00001234FF00000B0EB132061F10001C4F59D
:1046E0008064A4F13504FFF778FDBDE8F08189040A
:1046F00051EA90318004404261EB4101B1FA81F40A
:10470000202C4ED2013C0125A540A0FB052301FB36
:104710000533A0FB03C5A1FB02C6E1FB635612EB08
:10472000152243F1000312EB066253EB1623A0FBA4
:1047300006C7A1FB05C8E1FB66784FF05535A7FB1E
:1047400005C65FF0000CE8FB056C16EB0C064CF19F
:10475000000C12EB963243F1000312EB8C4243EB58
:104760009C3358FB11F55FF0333755FB11F656FBC0
:1047700017F805EB581756FB11F5C2F6802656FBC5
:1047800015F507EB153712EB472043EBD751C4F56E
:104790008064A4F11504FFF720FD41F00041BDE85D
:1047A000F081B0FA80F410FA04F1A0FB01234FEA83
:1047B0001320C4F58064A4F13504FFF70EFD91F0D9
:1047C0000041BDE8F0815FEA410CBFF40DAF5FEA44
:1047D0005C5C3FF409AFACF2FF3CBCF5806F3FF48A
:1047E00009AF012262F31F512DE9F041BCEBEC7FD0
:1047F0003FF40DAF0C0C4E4D05EBC40595E80C00D5
:1048000002F03F0505F14005A5FB000605FB01612F
:104810006FEAE14404F01F04464D05EBC40560CD8A
:10482000521943EB060304F58074A4FB000604FB55
:1048300001667FEA26643FF4E3AE3F4D05EBC40515
:1048400022CD521843EB050341F2010505EB440468
:104850006404A4FB0050C4EBC401E4FB060180EA3D
:10486000E17481EAE175A5FB0567A4FB05487F08B3
:104870004FEA360616EB080647F100078C0254EAA9
:10488000905444F10004801B61EB070154FB14F5C4
:1048900055FB14F655FB15F74FF0553456FB14F63F
:1048A000B6EB173610EB860041EBA671101A63EBDE
:1048B0000101224A24CA1CF1010C0BDDA2FB0C23CE
:1048C0000024E5FB0C34121A8B4164F100045FF004
:1048D00080410CE0DCF1000CA2FB0C230024E5FB82
:1048E0000C3482184B4144F100045FF040414CB954
:1048F0001C0013000022B1F100711CB91C00002340
:10490000B1F10071B4FA84F5A5F11D06A1EB0651D1
:10491000AC4013FA05F0C5F12005EB401C43EA401A
:104920001043C00A50EB445041EBD421BDE8F08164
:10493000944300100443001094430010944400106A
:104940000022002950DA404261EB4101C9B1B1FABD
:1049500081F30B3B17D4D3F1200C30FA0CFC9840B8
:10496000994051EA0C011A44524202F2324201EBE0
:10497000025141F0004140F2FE739A4238BF704745
:1049800021E011467EE003F1210310FA03FCA3F1BC
:10499000010301FA03FCC3F1200320FA03F021FA1A
:1049A00003F140EA0C00A3EB020202F2324214D0FF
:1049B00050F1000041EB025141F0004140F2FE7322
:1049C0009A4238BF70474FF00001A8BFC7F6F07198
:1049D0004FF00000704700217047EBD350F100000A
:1049E00020F00100E6E70022B9B1B1FA81F30B3BF8
:1049F00016D4D3F1200C30FA0CFC9840994051EABF
:104A00000C011A44524202F2324201EB025140F2CE
:104A1000FE739A4238BF704720E0114600F066B836
:104A200003F1210310FA03FCA3F1010301FA03FCD3
:104A3000C3F1200320FA03F021FA03F140EA0C004D
:104A4000A3EB020202F2324212D050F1000041EB1D
:104A5000025140F2FE739A4238BF70474FF0000196
:104A6000A8BFC7F6F0714FF00000704700217047F3
:104A7000EDD350F1000020F00100E8E7002880F2BB
:104A800035804042B0FA80F30B3B11D4984001EBE3
:104A90000302524202F2124200EB025141F0004185
:104AA0004FF0000040F2FE739A4238BF704713E0A7
:104AB000C3F1000330FA03FCC3F120029040A3EBE2
:104AC000010202F212420CEB025141F0004140F2AD
:104AD000FE739A4238BF70474FF00041A8BFCFF62F
:104AE000F0714FF0000070470021704760B3B0FADA
:104AF00080F30B3B0FD4984001EB0302524202F2C9
:104B0000124200EB02514FF0000040F2FE739A4255
:104B100038BF704710E05B4230FA03FCC3F120025B
:104B20009040A3EB010202F212420CEB025140F260
:104B3000FE739A4238BF70474FF00001A8BFC7F616
:104B4000F0714FF000007047002170470022A2F280
:104B500032425FEA215CACF10103A1EB03515B053A
:104B600013F5800F32D212EB535210D40B2A36DADF
:104B70009140D2F1200330FA03F319439040BCF185
:104B8000000FA8BF7047404261EB410170472032DF
:104B90000EDD01FA02F3D2F12002D140D0401843D9
:104BA000BCF1000FA8BF7047404261EB4101704764
:104BB000524282F3050231FA02F00021BCF1000FEB
:104BC000A8BF7047404261EB4101704702D000200E
:104BD0000021704750EA013118BF4FF0000C6FF010
:104BE000004101EBDC716FEAEC7070472DE9F04198
:104BF00001292DED028B08EE100A50D001EBD17582
:104C00006D10012D0C463CD00E460029B8BFCE1CBD
:104C1000B610012E4ED00F460029B8BFCF1DFF1091
:104C2000012F44D088460029B8BF01F10F084FEA90
:104C30002818B8F1010F40D0A1F120031F2B3FD954
:104C40000021FFF7D3FF07EE900A67EEA77A18F06E
:104C5000010F67EEA77A01D067EE887AF80767EE52
:104C6000A77A01D567EE887AF10767EEA77A01D5B2
:104C700067EE887AEA0767EEA77A04D567EE887A46
:104C800001E0F0EE487AE30767EEA77A01D567EE18
:104C9000887ABDEC028B17EE900ABDE8F081F0EE49
:104CA000487ABDEC028B17EE900ABDE8F081F0EE79
:104CB000487AD9E7F0EE487ADCE7F0EE487ACDE7BB
:104CC000F0EE487AC3E700BF021E38B50C4618DA8A
:104CD000C1F3C7537F3B084610D4D3F117030DD45B
:104CE0004FF0010C0CFA03FC0CF1FF3C1CEA010F25
:104CF00004D1172B24D0D840C30721D402F100429D
:104D0000104607EE904AFDEEE77A12F0FF4317EEE9
:104D1000901A1DD0B3F1FF4F1AD0C2F31603BBB9DE
:104D2000D20D7F3A01F3080101FB02F303F17F0288
:104D3000002A37DDFE2A37DCDB0503F17E5038BD63
:104D4000214602F10040FFF7BFFF00F1004038BDEF
:104D500091B101F12003402B11D8002908DA07EEA8
:104D6000100AF7EE007AC7EE877A17EE900A4942EA
:104D7000BDE83840FFF73ABF4FF07E5038BD1BF01A
:104D8000D3FCFFF720FD02460D46204614461BF0DB
:104D9000CBFC22462B46FFF7E1F8FFF796FBFFF727
:104DA00051F938BD002038BD4FF0FF4038BD00BF7D
:104DB000B7EE007A07EE900AF4EE477AF1EE10FAB9
:104DC00032D011F0FF4238B50C460B4629D0FFEE29
:104DD000006AF4EE667AF1EE10FA26D1B2F1FF4FD6
:104DE0001FD040F27F105749E20DFF2A60D040F2F9
:104DF000FF1C624558D012F0FF020BD07F3A5BD403
:104E0000C2F11702002A05DD012000FA02F2013A80
:104E10001A4251D12146BDE8384017EE900AFFF7FB
:104E200053BF17EE100A38BD704710F0FF4F014610
:104E30001AD1002C4FEAD4521DDB7F3A19D4D2F19B
:104E4000170216D4012191400139214211D1172AAC
:104E5000E9D09FED3D7A24FA02F212F0010F47FEED
:104E6000277A17EE900A38BDC00DFF283BD1002CE1
:104E70000CDA002038BDD2B27F3A07D4D2F1170243
:104E800004D4012090400138204202D04FF0FF406E
:104E900038BD172A03D024FA02F2D007F6D501F064
:104EA000004040F0FF4038BDC0B27E28EED9E0E7B8
:104EB000C0B27E28DDD9E9E70029E7DB17EE900ACA
:104EC0001BF032FCFFF77FFC02460D4620461446DD
:104ED0001BF02AFC22462B46FFF740F8FFF7F5FAB5
:104EE000FFF7B0F838BD40F2FF15A8424FEAD452A0
:104EF0007FF47BAF002C11DB7F3AC7D4D2F11702CD
:104F0000C4D40121914001392142BFD1172A03D0D5
:104F100024FA02F2D207B9D50C4838BDD2B27F3A92
:104F2000A7D4D2F11702A4D4012191400139214222
:104F30009FD1172A03D024FA02F2D30799D54FF054
:104F4000004038BD000080BF00000000000080FF6E
:104F50000022002980F2A980404261EB4101B1B3F7
:104F6000B1FA81F3083B16D4994010FA03FCC3F15F
:104F7000200320FA03F040EA0100A2EB0302C2F191
:104F800095021CEB0C0C40EBC25040F0004020D0CE
:104F9000FE2A16D2704703F1210311FA03FC5CEAE2
:104FA000000CC3F1210321FA03F0A3EB020202F18A
:104FB000B50240EBC25040F000400AD0FE2A38BF94
:104FC00070474FF00040A8BFCFF680707047114681
:104FD0000AE028BF20F00100FE2A38BF7047F0E742
:104FE000002880F233804042B0FA80F3083B0CD4B2
:104FF000984001EB0302C2F1950200EBC25040F071
:105000000040FE2A38BF704713E003F1210310FA75
:1050100003FCC3F1210320FA03F0A3EB010202F128
:10502000950240EBC25040F0004008D0FE2A38BF45
:1050300070474FF00040A8BF40F0FF40704728BFC6
:1050400020F00100FE2A38BF7047F2E720B3B0FA23
:1050500080F3083B0AD4984001EB0302C2F19502A9
:1050600000EBC250FE2A38BF704711E003F1210364
:1050700010FA03FCC3F1210320FA03F0A3EB0102B1
:1050800002F1950240EBC25007D0FE2A38BF7047AC
:10509000ACBF4FF0FF400020704728BF20F0010058
:1050A000FE2A38BF7047F3E7002289B3B1FA81F3D3
:1050B000083B14D4994010FA03FCC3F1200320FAF2
:1050C00003F040EA0100A2EB0302C2F195021CEBDF
:1050D0000C0C40EBC2501ED0FE2A14D2704703F1D4
:1050E000210311FA03FC5CEA000CC3F1210321FA4D
:1050F00003F0A3EB020202F1B50240EBC2500AD06A
:10510000FE2A38BF7047ACBF4FF0FF400020704709
:105110001146FFF79BBF28BF20F00100FE2A38BFD1
:105120007047F0E7000000000000000000000000F1
:10513000DB60BE284A059193F4D5097F70374D7D19
:1051400066A5D83610E4104FAFF224024B1102EBE3
:10515000830201F01F034FF001049C40A4FB0034C4
:10516000D568A5FB0456956805FB0466E5FB035668
:10517000556805FB03667047410201D150F00040BD
:1051800050F480007047F0B5012363F3DF50C1F1A4
:1051900009014FF07E07FFF7D7FFB30F53F100036C
:1051A0009C44B6EB8376B20028BF5242B2F1805FD6
:1051B0000BD20231FFF7C8FF96EA260242F1000245
:1051C000B2F1805F01D2023FF3D50A4CA2FB042466
:1051D000B4FA84F29440240AA7EB020244EBC250D2
:1051E000C10DD1F17F01F60F00EBC673BDE8F040B1
:1051F00073E00000A2DA0FC911F1800FBCD030EAD1
:10520000CC7248BF0CF1020C20F0004000EE100AF6
:105210000DA2F2EC032A22EE802A11F1080FB9FE4A
:10522000422AB0DDA2EE630AA2EE430A10EE103A63
:10523000FDEEC21AC3F3C752782AA4D3D2F17F017C
:1052400011EE902A944448E083F9223F7A7795B68C
:105250000010C93F07B5C0F3C751FF2925D000F0A2
:1052600032F8BDE80640CEF800000ED2C9438CEA01
:10527000D17C63EEA02AE1EE032A73EE622A12EEDD
:10528000900A80EACC70106000BD8CEAD17C21EEDF
:10529000232AA3EE602A8CEAD37133EEC22A12EEDF
:1052A000100A80EAC170106000BD4102BDE80E40E6
:1052B00001D150F0004050F4800010601860704739
:1052C0005FF0000C01E05FF0010CC0F3C751A1B327
:1052D000D1F17F0190D920EACC7323F0004000EE99
:1052E000100AC0F38440203030FA01F1834A51F1B2
:1052F0000001B2EC024A02EB810202EBC102D2ECE5
:10530000032A70EE620A20EEA01A5FEA5C0C61EEDE
:10531000201A15D221EE041A61EEA41A70EEE10AE9
:1053200021EE232AA3EE602A8CEAD37133EEC22A3F
:1053300012EE100A80EAC170704700F00040C7E723
:1053400061EEA41A70EEE10A21EE041A63EEA02ABF
:10535000E1EE032A73EE622A12EE900A80EACC7024
:10536000704700BFAFF30080C1FEFF3E25AA2A3E72
:10537000000000000000803F0000000061C9FC3C0C
:10538000CDE07F3F1CBFFC3C7605813DFE7D7F3F2D
:105390009EEF803D090CBF3D0FE37E3F22C5BE3D21
:1053A000B624FF3D14047E3FE27BFE3D13071F3E03
:1053B00048EB7C3FA0631E3E6D30403E1D817B3F2D
:1053C00015103F3EA2AD603ECFDC793F3EE15E3E30
:1053D0007B0D803EFA08783F96717D3E6E988F3E39
:1053E00065FF753F68B88D3EF4E19F3E939E733F25
:1053F000FD4B9D3EC654B03EAEF7703FB3DDAC3EB4
:10540000C589BF3E604B6E3F0A1ABB3E26C4CF3EE5
:10541000CA356B3F631CCA3EF254E03E66D1673F1B
:105420000739D93EDDF0EF3E4B66643F1641E73E5B
:10543000312B003F8894603F0FC3F53E07E4073FE0
:10544000A2C55C3F2B99013FC51F103F8F7D583F80
:1054500065A1083F8AF6173FB534543FCA310F3F64
:10546000E2FF1F3F599B4F3FD7C8153F4606283FD5
:105470006BCF4A3FC4371C3F4130303FE0B9453F16
:10548000E49A223FA71D383FCA98403F20A6283FF4
:105490002FC73F3FAC763B3F4A562E3FDB13483F7A
:1054A000CCB6353F6B52343F79C74F3F2F35303F35
:1054B000D0B4393F52DD573F70412A3F912D3F3FD5
:1054C00026CE5F3F9F3E243FC35D443FF125683FAA
:1054D00050C21D3F1C9D493FE13B703F4150173F6B
:1054E000BF7E4E3F7810783F71ED103FAF06533FBF
:1054F000D4F47F3FA75A0A3F9B64573F685300107C
:1055000038B5044609481BF033F9204614F008FB6F
:10551000054606481BF020F92DB1054B2C449C4252
:1055200001D8284638BD0348FDF7E4F8982F00203D
:1055300000000820740E021038B505460C460A48D3
:105540001BF016F92846214614F03EFE0546064893
:105550001BF002F92DB1054B2C449C4201D8284682
:1055600038BD0348FDF7C6F8982F0020000008203A
:10557000740E021010B5044605481BF0F9F82046D9
:1055800014F0D6FABDE8104001481BF0E5B800BFA2
:10559000982F0020FFF7B4BFFFF7B2BFFFF7EABFB5
:1055A000FFF7E8BFFFF7E6BF9A4238BF885470475D
:1055B000704700BF2DE9F04F83B09946DDE90DAB90
:1055C0000F9B884611469A07074616D1DA453AD20C
:1055D0000C460D46ABEB0A060E4422464B464146AE
:1055E00020200134B847B442F7D12946BAF1000F60
:1055F00008D1204603B0BDE8F08F0C46BAF1000F89
:1056000010D00E4655460C9B2E449A440191721BB5
:105610004B46013D41461AF8010D3446B847002D6E
:10562000F5D101990F9B9B07E3D5651AAB45E0D9EE
:1056300022464B46414620200135B8475D4504F1DE
:105640000104F5D3D5E70C46BAF1000FD9D1D0E764
:105650002DE9F04F0F9FDDF8248017F0020F0A9C10
:105660009DF82CA00E9DDDE90C9644D1F5BBB4420B
:1056700041D207F0010B04F1FF3C4FF0300EC4445F
:1056800004E00134A6420CF801EF01D9202CF8D136
:10569000BBF1000F00F08880A5422CD904F1FF3C3B
:1056A0004FF0300EC44404E00134AC420CF801EF7A
:1056B00021D0202CF8D117F0100F0ED017F4806FE6
:1056C00054D1A64263D0A54261D0B9F1100F50D099
:1056D000B9F1020F56D0202C29D12024CDE90B5747
:1056E000CDE90984BDE8F04FFFF764BF17F0010B67
:1056F00034D1B442BFD317F0100F1ED017F4806F0F
:10570000E3D1002CDDD1B9F1100F63D0B9F1020F54
:1057100077D0302488F800400124BAF1000F11D16D
:105720007E0748D52B2608F804600134D6E72646C4
:1057300001344FF0300C08F806C0202CCDD0BAF15F
:10574000000FEDD02D2608F804600134CDE90B5789
:10575000CDE90984BDE8F04FFFF72CBFBAF1000F87
:1057600030D0B44205F1FF3585D395E7B9F1100F7C
:10577000B3D1BE063BD5202CAFD0582608F8046024
:105780000134A8E7202CA8D02646013407E0661E85
:10579000B9D0B9F1100F36D0B9F1020FC9D14FF01D
:1057A000620C08F806C096E717F0100FC5D017F482
:1057B000806F86D089E73E0790D5202608F80460E0
:1057C00001348BE717F00C0F00D0013DB442FFF419
:1057D00052AF61E7BC0612D4782488F80040302428
:1057E00088F801400224BAF1000F99D0AAE7202CD2
:1057F0003FF473AF782608F8046001346BE758244F
:10580000EBE76224E9E717F0200FA4F1020C04D0C3
:105810004FF0580E08F80CE08BE74FF0780E08F8C0
:105820000CE086E700B9704701F0A8BC10B1D1E9DF
:1058300000311847704700BF2DE9F04F97B09DED3C
:10584000207BDDE9225B0746884651EC170B249C40
:1058500099460C920B4602468DED047B0794FEF7A9
:1058600047FC002840F0F481DDE904014FF0FF32ED
:105870006FF48013FEF760FC002840F01B81DDE927
:1058800004014FF0FF32AC4BFEF792FC002840F0D1
:10589000EE80DDE90401A4A3D3E90023FEF788FC30
:1058A000002840F0D380DDE90401A1A3D3E900235F
:1058B000FEF742FC002840F0C980DDE90401002227
:1058C0000023FEF739FC002840F0E88023460D90C5
:1058D00013F4806F08BF062530212B460EAAA5F1D0
:1058E000200605E0013BB34202F8011B00F0938162
:1058F000092BF7D81E46ED1ADDE90401FEF7D4FBAB
:105900008E4B044603EBC60393ED007B8DED087BC5
:10591000FEF7A6FB02460B46DDE90401FEF70AFB93
:10592000DDE90823FEF71AFB02460B46CDE90A2300
:10593000FEF7CCFB8246FEF7A5FB02460B46DDE9EF
:105940000A01FEF7F7FA02460B46CDE90A230022C8
:105950007B4BFEF72DFC002800F0FE800AF1010AC7
:105960005046FEF78FFB02460B46DDE90801FEF7C5
:10597000F7FB10B14FF0000A0134002E00F0FD805B
:10598000681E0EABDFF8CCC118440FE0ACFB0A2157
:10599000C90801EB8102AAEB42023032BAF1090FC9
:1059A00000F8012F40F21C818A461D46202D05F18A
:1059B000010306F1FF36E9D12025691E0EAB6148CF
:1059C000194410E080FB0462C3EBA20303EB8302E3
:1059D000A4EB420404F1300201351C4601F8012F0A
:1059E000002B00F0EB80202D4FEAE473EAD1079BF7
:1059F00003F00303012B18D1BBF1000F15D00D9B51
:105A0000002B00F00A810BF1FF3BBBF1200F0CD9FA
:105A10006B1E0EA930220B4405E001355D4503F8ED
:105A2000012F80F0D180202DF7D1079B0EACCDE95E
:105A300002B341464B4638460C9A01950094FFF755
:105A4000B9FD8246504617B0BDE8F08F079B9DED2B
:105A5000047BCDE923B341464B4638460C9A8DED85
:105A6000207B229517B0BDE8F04F00F045B96107E3
:105A700023464CBF042303234146219338464B461B
:105A8000079A48BF304CCDE922B258BF2F4C0C9A30
:105A9000209417B0BDE8F04FFFF78CBDDDE904237B
:105AA00000200021FEF746FA0123CDE904010D9301
:105AB00023460DE723469C0740F0AA80BBF1040F64
:105AC00040F2A6800C9B1D461C1F04EB0B0A2A46C5
:105AD0004B46414620200135B847AA45F7D15546E7
