:020000041000EA
:10000000002008205D0100101301001015010010F0
:100010001101001011010010110100101101001058
:100020001101001011010010110100101701001042
:100030001101001011010010190100101B01001026
:100040001D0100101D0100101D0100101D010010F8
:100050001D0100101D0100101D0100101D010010E8
:100060001D0100101D0100101D0100101D010010D8
:100070001D0100101D0100101D0100101D010010C8
:100080001D0100101D0100101D0100101D010010B8
:100090001D0100101D0100101D0100101D010010A8
:1000A0001D0100101D0100101D0100101D01001098
:1000B0001D0100101D0100101D0100101D01001088
:1000C0001D0100101D0100101D0100101D01001078
:1000D0001D0100101D0100101D0100101D01001068
:1000E0001D0100101D0100101D0100101D01001058
:1000F0001D0100101D0100101D0100101D01001048
:100100001D0100101D0100101D0100101D01001037
:1001100000BE00BE00BE00BE00BE00BEEFF3058004
:10012000103800BEF2EB887198DB0210BCDB0210C5
:10013000A801001090A31AE7D3DEFFFF42012110AF
:10014000FF010000D8F80200793512AB4FF0000033
:100150002049086006C881F3088810474FF05040D6
:10016000006810B14FF00000F2E70FA40ECC002998
:1001700002D000F015F8F9E71749184A002000E00E
:1001800001C19142FCD1002080F30A8814498847BC
:10019000144988471449884700BEFDE701C901C2D8
:1001A0009A42FBD3704700BFBCDB02101001002055
:1001B000641F002010FA0210000008200000082030
:1001C00010FA0210001008200010082000000000A3
:1001D0007047000008ED00E0641F0020402F002061
:1001E0005DAF0010294E001021AF0010F8B500BF20
:1001F000064B0749C91A891048BF0131491003D07D
:10020000044B0BB101481847704700BF641F002022
:10021000641F00200000000008B5054B1BB1054914
:100220000548AFF30080BDE80840FFF7E1BF00BF1D
:1002300000000000BC2E002094B701100020704781
:100240000048704798B701100420704703299ABFEF
:10025000024B53F821000248704700BF68C50110E7
:10026000A4BC011005EE101A4168002900F0AE8010
:1002700070B4056990ED097A06EE905AD0ED0C7ACB
:10028000F8EE666AD0ED065A9FED526A36EEC74A1E
:1002900075EEE74AA4EE067AE4EE867A90F82C3002
:1002A00080ED097AC0ED0C7A8468DBB177EE666A7E
:1002B000B6EE006AF0EEE66AF4EEC66AF1EE10FA07
:1002C00010D5D0ED0A6AFCEEE66A16EE905A012DC2
:1002D00038BF0125A5424FF0000328BF254680F80E
:1002E0002C30056190F83830002B5AD1BCEEC77A1B
:1002F00017EE106AC36990ED186A1A19921BB2FBC7
:10030000F4FCD0ED147A04FB1C2201EB820292ED86
:10031000007A90ED132A66EE277A90ED193AD0ED27
:10032000152AE7EE027AD0ED1A6AD0ED163AE2EE1F
:10033000837AD0ED1B4A90ED174AE3EEE67AD0EDD2
:10034000055A80ED187AE4EE647AB0EE457A01EB56
:1003500083010133B3FBF4F2A7EEA57A04FB123359
:1003600080ED196AC0ED1B6AC0ED1A7A81ED007A42
:10037000C3613DB370BC90ED0C6AF7EE006A9FED6F
:10038000167A76EEC66AF4EEC76AF1EE10FA67EEF8
:10039000867A58BFB0EE667AE5EE077A17EE900AD5
:1003A000704777EEE57ADFED0D6AF0EEE77AF4EE6E
:1003B000E67AF1EE10FA99D50022436B80F83820E6
:1003C000836193E715EE100A70BC704715EE100AB2
:1003D000704700BF0AD7A33B6666663F0AD7233C37
:1003E000704700BF00487047A0B701100020704759
:1003F00000487047A4BC0110704700BF0846704712
:10040000704700BF704700BF00207047704700BFB3
:1004100000487047A8B701100420704703299ABF0D
:10042000024B53F821000248704700BF58C5011025
:10043000A4BC0110704700BF704700BF70B50546EF
:10044000D0F884008CB2036821461B6AA5F890405E
:100450009847D5F88800214603681B6A9847D5F865
:100460008C002146BDE8704003681B6A184700BF36
:10047000704700BF4368B3FBF1F38381704700BF4F
:100480004B6B4360704700BF00230381704700BF80
:100490004368B3FBF1F38381704700BF4B6B43604C
:1004A000704700BF00230381704700BF0389428962
:1004B00023B98189914200D041810A4607EE903AE2
:1004C00007EE102AF8EEE77AB8EEC76A77EEA77A59
:1004D000B7EE007AC7EE866A0133B3FBF2F176EE2F
:1004E000C77A02FB1133038117EE900A704700BFF1
:1004F0004368B3FBF1F38381704700BF4B6B4360EC
:10050000704700BF00230381704700BF0389024684
:10051000418923B98089884200D05081014651B376
:1005200006EE901A07EE903AFAEEEF6AF8EEE77AE6
:10053000F4EEE67AF1EE10FA12D477EEE67A77EE80
:10054000A77AB7EE007A87EEA66A77EE467A17EEBC
:10055000900A0133B3FBF1FC01FB1C33138170479C
:1005600077EEA77AB7EE006A87EEA67A77EE467A3C
:1005700017EE900AEDE70020704700BF4368B3FB19
:10058000F1F38381704700BF4B6B4360704700BF3E
:1005900000230381704700BF10B40489418924B946
:1005A00083898B4200D043811946621CB2FBF1FC67
:1005B000BFEE007AF7EE007A01FB1C22837B0281FA
:1005C00001FB03F3064AA2FB0323B4EB531F34BF22
:1005D00017EE900A17EE100A5DF8044B704700BF43
:1005E0001F85EB514B6B90ED066A07EE903AF8EEE3
:1005F000E77A90ED057ADFED0E5A27EE866A67EE10
:10060000876A86EE257AC6EEA57ABDEEC77AFDEE3C
:10061000E77A17EE102AC36117EE903A012AB8BFA5
:100620000122012BB8BF0123C0E90832704700BF87
:1006300000007A4451B3012923D190ED057A06EEEA
:10064000902A8261D0ED077AF8EEE77A9FED126A80
:1006500027EE877A67EEA67AC7EE066A87EE867A75
:10066000FDEEE67A17EE902AFDEEC77A17EE903A85
:10067000012AB8BF0122012BB8BF0123C0E908231A
:10068000704790ED057AD0ED066ADBE7D0ED066A9B
:1006900007EE102A4261D5E700007A4480F82D1059
:1006A00059B190F92E30013303D0012380F82C305A
:1006B00070470023836280F82E30704708B590F8A9
:1006C0002C302DED028B08EE101A43B1B0F930300A
:1006D000002B04DBB5EEC08AF1EE10FA2DD4FDEE4E
:1006E000C87A17EE902A836A90F92E1001330129F7
:1006F0008362028614D0022909D059B3DFED317A22
:1007000068EE277ABDEC028B17EE900A08BD90F8D0
:100710002D30002B4FD018EE100ABDEC028B08BD17
:10072000426A9A4232DAFF22C36880F82E20002BF8
:10073000E4D0036904309847E0E70022FDEEC87A70
:10074000012180F82C2080F82E2017EE902A0B46ED
:1007500002868162026A9A4210DB07EE903A07EE47
:10076000102AF8EEE77AB8EEC77AC7EE876A66EE27
:10077000887ABDEC028B17EE900A08BD0222002396
:1007800080F82E20836218EE100AC6E707EE903A32
:1007900007EE102AF8EEE77AB8EEC77AF7EE006AAD
:1007A00087EE876A76EEC67A67EE887ABDEC028BB2
:1007B00017EE900A08BD0122836280F82E2018EE01
:1007C000100AAAE70000000090F92E00013018BFBF
:1007D0000120704700487047B4B7011004207047EB
:1007E00003299ABF024B53F821000248704700BF0B
:1007F00048C50110A4BC0110D1ED0D7AF8EE677A5E
:10080000C0ED017AC0ED107A704700BF704700BF9D
:1008100019B14FF07E534363704700234363704721
:1008200007EE902A032915D8DFE801F0251E1502EE
:10083000B7EE007A77EE677ADFED146A27EEA77AD3
:100840009FED136A27EE277AF0EE667AE7EE067AD6
:10085000C0ED0B7A7047DFED0F6A9FED0F7AA7EEC0
:10086000A67A80ED037A70479FED0C7A67EE877A5F
:10087000C0ED117A7047DFED086A9FED097AA7EEA7
:10088000A67A80ED0E7A80ED0F7A704700005C4307
:1008900000B065469A993940CDCCCC3D00401C460D
:1008A0000AD7A33B00207047704700BF07EE903A7D
:1008B0009FED167AF8EEE77A143AC7EE876A032AB4
:1008C00023D8DFE802F01A120A02D0F8540216EE1A
:1008D000902A036803215B6A1847D0F8540216EE89
:1008E000902A036802215B6A1847D0F8540216EE7A
:1008F000902A036801215B6A1847D0F8540216EE6B
:10090000902A036800215B6A184770470000FE4286
:10091000704700BF704700BF704700BF704700BFFF
:10092000704700BF704700BF704700BF704700BFEF
:10093000704700BF704700BF704700BF002070477E
:10094000024B186803689B68184700BF0C290020F9
:10095000024B014618680368DB6818470C29002021
:100960008C4610B586461346044A714610680268E4
:1009700054696246A446BDE8104060470C29002037
:100980008C4610B586461346044A714610680268C4
:1009900094696246A446BDE8104060470C290020D7
:1009A0008C4610B586461346044A714610680268A4
:1009B000D4696246A446BDE8104060470C29002077
:1009C000024B014618680368DB6A18470C290020AF
:1009D000024B0146186803685B6A18470C2900201F
:1009E000024B0146186803689B6A18470C290020CF
:1009F000024B0146186803681B6A18470C2900203F
:100A0000012A02D022B10020704701600020704707
:100A100002600020704700BF0068C3694BB100B599
:100A200083B0036A019001A91430984703B05DF8C0
:100A300004FB704703680868184700BF036808880C
:100A4000184700BF10B40468087811781A78234654
:100A50005DF8044B184700BF704700BF704700BFE8
:100A6000704700BF054AC36810B5044602601BB159
:100A7000011D032208469847204610BDB8C6011044
:100A8000704700BF704700BF704700BF704700BF8E
:100A9000C269034602FB01F110B501F50010EFF346
:100AA000108472B6D9691AF037FE84F310880020DA
:100AB00010BD00BF944608B5C0690CF1815C00FB15
:100AC00001C1029A184615F033FF002008BD00BF8F
:100AD0002DE9F047C769804638460C4691461E46C8
:100AE00001FB07FA08F0E0FD38B305463A460AF183
:100AF000815115F01DFF3146089A05EB090015F0EC
:100B000017FFEFF3108672B6D8F81C1004FB01F043
:100B100000F500101AF000FED8F81C20294604FB4E
:100B200002F000F500101AF0D3FD86F31088284675
:100B300008F0F4FD0020BDE8F0876FF00B00FAE745
:100B400001480AF0BDBB00BFC4B7011010B5044690
:100B5000482108F0F9FD204610BD00BF10B504463D
:100B6000902108F0F1FD204610BD00BF10B50446ED
:100B7000042108F0E9FD204610BD00BF10B5044671
:100B8000902108F0E1FD204610BD00BF10B50446DD
:100B9000042108F0D9FD204610BD00BF10B5044661
:100BA0004FF4CA7108F0D0FD204610BD10B50446C0
:100BB0004FF4207108F0C8FD204610BD074AC368F5
:100BC00010B5044602601BB1011D03220846984778
:100BD0002046342108F0B8FD204610BDB8C60110EB
:100BE00010B52DED088B90ED0C8AD0ED0D8AF4EE4A
:100BF000C88AF1EE10FA90ED107ACCBF90ED0E6A33
:100C000090ED0F6ADFED957AFFEE006AE6EE077A67
:100C1000C6EEA77A044617EE900A09EE901A08F07D
:100C2000CFFAB7EE004A07EE900A78EEC84A34EEE3
:100C3000674AF0EE486A94ED015AE4EE846A94ED56
:100C4000112AD4ED0B5ADFED867AE6EE825A65EE74
:100C5000277AF4EEE75AF1EE10FAF2EE042A77FE64
:100C6000A57AF4EEE27A94ED033A9FED7E7AF1EE06
:100C700010FA94ED096AB4EEC73A77FEA27ADFED76
:100C80007A3AF6EE001A77EEC67AC4ED0C6AF0EE08
:100C9000466AF1EE10FAE7EEA36A25EE215A9FEDBF
:100CA00073BA77FE037AF4EECB7A86EE857A9FEDFF
:100CB000708AF1EE10FAB4EEC87A77FE8B7AF1EE14
:100CC00010FAD4ED0A8A38FE078AB4EECB8ADFED3B
:100CD000694A77EEE87AF1EE10FAE7EEA38A9FED23
:100CE000662AF0EE647A38FE0B8AE8EE427AF7EE76
:100CF00000AA28EE278A9FED614A7AEEC87A67EE4D
:100D0000847AC4ED025AC4ED096AC4ED0A8A17EE6A
:100D1000900A08F055FA07EE900ADFED596A68EE7E
:100D2000A77AF4EEE67AF1EE10FA94ED08AAB0EEA6
:100D3000695A76FEA76AA6EECA5A94ED057AF0EED5
:100D4000C57AF0EEC75A77EEAA7A75EEAA5AC5EEC2
:100D5000276AC7EE254AF0EE477A76EEE46AD4EDCC
:100D6000068AE8EE267AB0EEE86AF0EEE7BA36EEEA
:100D70002A6A7BEEAAAAC8EE865A87EEAA7AC4ED42
:100D8000057A77EE657AE8EE278AC4ED068A18EED2
:100D9000900A08F00DF894ED079A034619EE100A30
:100DA0000AEE903A08F004F807EE900A7AEEE7AA05
:100DB000A8EE2A9A84ED079A19EE100A07F0F8FFB8
:100DC00003461AEE100A0AEE903A07F0F1FF9FED83
:100DD0002D7AF0EEE88AF4EEC7BA9FED2A7A07EE94
:100DE000900AF1EE10FAF4EEC78A7AEEE7AA9FEDC8
:100DF000257AF0EE4A7A48BF84ED05BAB0EEC99A7A
:100E0000F1EE10FAE8EE2A7A48BF0023B4EEC79A52
:100E1000B0EE67AA48BFA361C4ED087AF1EE10FAFC
:100E2000F0EEE77A9FED177A48BF0023F4EEC77A19
:100E300048BFE361F1EE10FA48BF9FED0CAA237C96
:100E400048BF84ED08AA012B1AEE100A03D179EEEF
:100E5000CA7A17EE900ABDEC088B10BDBD378635F7
:100E60006666E63E9A99993F0AD7233C0000000047
:100E7000A4707D3F6666E63FCDCC4C3F9B70B13F92
:100E8000295C7F407D1D902670B504890546468902
:100E900024B98389B34200D043811E462EB307EEA6
:100EA000904AB8EEE77A07EE906AF8EE677AB7EE06
:100EB000006AC7EE276AF4EEC66AF1EE10FA76FE13
:100EC000267A17EE900A1AF013FC09A3D3E900233F
:100ED00007F044F807F0B6F808F0C6FA0134B4FB9E
:100EE000F6F306FB13442C8170BD0020F6E700BF2B
:100EF000182D4454FB211940084608B50B22064919
:100F000015F0BAFB08B1002008BD044904480AF0F6
:100F100057FA012008BD00BFD4B70110E0B7011097
:100F2000ECB7011010B51F21044604F0DBFE0022CF
:100F30002046114604F0F4FE2046BDE81040002192
:100F400004F002BF012A06D0022A0AD0032A00D0E8
:100F500022B100207047016000207047026000202D
:100F600070470B6803600020704700BF012A06D05D
:100F7000022A0AD0032A00D022B100207047016063
:100F8000002070470260002070470B68036000205B
:100F9000704700BF012A06D0022A0AD0032A00D0D7
:100FA00022B10020704701600020704702600020DD
:100FB00070470B6803600020704700BF012A06D00D
:100FC000022A0AD0032A00D022B100207047016013
:100FD000002070470260002070470B68036000200B
:100FE000704700BF012A06D0022A0AD0032A00D087
:100FF00022B100207047016000207047026000208D
:1010000070470B6803600020704700BF07EE101A9E
:10101000DFEDD86AB8EEC77A9FEDD76AC7EE267AB9
:1010200070B567EE867A2DED028BB2EE048AF4EE8F
:10103000C87AF1EE10FAD0F8583204469868CF4DCD
:10104000036858BFB0EE678ADB68AB4240F0B681F8
:10105000D0ED077AD0ED056AF8EEE77A67EEA66A7A
:1010600067EE887A86EE867AC7EE866AFDEEC77AE4
:1010700017EE903AFDEEE67A012B17EE902AB8BFF4
:101080000123002AC0E90832D8BF012380ED068A77
:10109000D8BF4362D4F85C3298680368DB68AB421F
:1010A00040F08781D0ED077AD0ED056AF8EEE77A57
:1010B0009FEDB16A67EEA66A68EE277A86EE867AB9
:1010C000C7EE866AFDEEC77A17EE903AFDEEE67A35
:1010D000012B17EE902AB8BF0123002AC0E908327D
:1010E000D8BF012380ED068AD8BF4362D4F86032AE
:1010F00098680368DB68AB4240F05681D0ED077A10
:10110000D0ED056AF8EEE77A9FED9B6A67EEA66A76
:1011100068EE277A86EE867AC7EE866AFDEEC77A93
:1011200017EE903AFDEEE67A012B17EE902AB8BF43
:101130000123002AC0E90832D8BF012380ED068AC6
:10114000D8BF4362D4F8643298680368DB68AB4266
:1011500040F02581D0ED077AD0ED056AF8EEE77A08
:101160009FED856A67EEA66A68EE277A86EE867A34
:10117000C7EE866AFDEEC77A17EE903AFDEEE67A84
:10118000012B17EE902AB8BF0123002AC0E90832CC
:10119000D8BF012380ED068AD8BF4362D4F86832F5
:1011A00098680368DB68AB4240F0F480D0ED077AC2
:1011B000D0ED056AF8EEE77A9FED6F6A67EEA66AF2
:1011C00068EE277A86EE867AC7EE866AFDEEC77AE3
:1011D00017EE903AFDEEE67A012B17EE902AB8BF93
:1011E0000123002AC0E90832D8BF012380ED068A16
:1011F000D8BF4362D4F86C3298680368DB68AB42AE
:1012000040F0C380D0ED077AD0ED056AF8EEE77ABA
:101210009FED596A67EEA66A68EE277A86EE867AAF
:10122000C7EE866AFDEEC77A17EE903AFDEEE67AD3
:10123000012B17EE902AB8BF0123002AC0E908321B
:10124000D8BF012380ED068AD8BF4362D4F870323C
:1012500098680368DB68AB4240F09280D0ED077A73
:10126000D0ED056AF8EEE77A9FED436A67EEA66A6D
:1012700068EE277A86EE867AC7EE866AFDEEC77A32
:1012800017EE903AFDEEE67A012B17EE902AB8BFE2
:101290000123002AC0E90832D8BF012380ED068A65
:1012A000D8BF4362D4F8743298680368DB68AB42F5
:1012B0005BD1D0ED077AD0ED056AF8EEE77A9FEDC5
:1012C0002E6A67EEA66A68EE277A86EE867AC7EE01
:1012D000866AFDEEC77A17EE903AFDEEE67A012BAC
:1012E00017EE902AB8BF0123002AC0E90832D8BF00
:1012F000012380ED068AD8BF4362D4F8783298681B
:101300000368DB68AB4228D1D0ED077AD0ED056ADF
:10131000F8EEE77A9FED186A67EEA66A68EE277A1C
:1013200086EE867AC7EE866AFDEEC77A17EE903AA9
:10133000FDEEE67A012B17EE902AB8BF0123002AB2
:1013400080ED068AC0E9083202DDBDEC028B70BD7B
:101350000123BDEC028B436270BD18EE102ABDEC78
:10136000028BBDE870400121184718EE102A0121B8
:101370009847C2E700F07F4500007A443506001028
:1013800018EE102A012198478CE718EE102A012147
:1013900098475BE718EE102A012198472AE718EED4
:1013A000102A01219847F9E618EE102A01219847E2
:1013B000C8E618EE102A0121984797E618EE102A81
:1013C0000121984766E600BF07EE101A9FEDD96A23
:1013D000B8EEC77ADFEDD86AC7EE067A70B567EE69
:1013E000A67A2DED028BB7EE008AF4EEC87AF1EE04
:1013F00010FAD0F8583204469868D04D036858BFA8
:10140000B0EE678ADB68AB4240F0BA81D0ED077A74
:10141000F8EEE77A9FEDCA6A68EE276A90ED067AE1
:1014200067EE877A86EE867AC7EE866AFDEEC77A21
:1014300017EE903AFDEEE67A012B17EE902AB8BF30
:101440000123002AC0E90832D8BF012380ED058AB4
:10145000D8BF4362D4F85C3298680368DB68AB425B
:1014600040F08981D0ED077AF8EEE77A9FEDB46A13
:1014700068EE276A90ED067A67EE877A86EE867ABE
:10148000C7EE866AFDEEC77A17EE903AFDEEE67A71
:10149000012B17EE902AB8BF0123002AC0E90832B9
:1014A000D8BF012380ED058AD8BF4362D4F86032EB
:1014B00098680368DB68AB4240F05881D0ED077A4A
:1014C000F8EEE77A9FED9E6A68EE276A90ED067A5D
:1014D00067EE877A86EE867AC7EE866AFDEEC77A71
:1014E00017EE903AFDEEE67A012B17EE902AB8BF80
:1014F0000123002AC0E90832D8BF012380ED058A04
:10150000D8BF4362D4F8643298680368DB68AB42A2
:1015100040F02781D0ED077AF8EEE77A9FED886AF0
:1015200068EE276A90ED067A67EE877A86EE867A0D
:10153000C7EE866AFDEEC77A17EE903AFDEEE67AC0
:10154000012B17EE902AB8BF0123002AC0E9083208
:10155000D8BF012380ED058AD8BF4362D4F8683232
:1015600098680368DB68AB4240F0F680D0ED077AFC
:10157000F8EEE77A9FED726A68EE276A90ED067AD8
:1015800067EE877A86EE867AC7EE866AFDEEC77AC0
:1015900017EE903AFDEEE67A012B17EE902AB8BFCF
:1015A0000123002AC0E90832D8BF012380ED058A53
:1015B000D8BF4362D4F86C3298680368DB68AB42EA
:1015C00040F0C580D0ED077AF8EEE77A9FED5C6ACF
:1015D00068EE276A90ED067A67EE877A86EE867A5D
:1015E000C7EE866AFDEEC77A17EE903AFDEEE67A10
:1015F000012B17EE902AB8BF0123002AC0E9083258
:10160000D8BF012380ED058AD8BF4362D4F8703279
:1016100098680368DB68AB4240F09480D0ED077AAD
:10162000F8EEE77A9FED466A68EE276A90ED067A53
:1016300067EE877A86EE867AC7EE866AFDEEC77A0F
:1016400017EE903AFDEEE67A012B17EE902AB8BF1E
:101650000123002AC0E90832D8BF012380ED058AA2
:10166000D8BF4362D4F8743298680368DB68AB4231
:101670005BD1D0ED077AF8EEE77A9FED316A68EE3C
:10168000276A90ED067A67EE877A86EE867AC7EE4D
:10169000866AFDEEC77A17EE903AFDEEE67A012BE8
:1016A00017EE902AB8BF0123002AC0E90832D8BF3C
:1016B000012380ED058AD8BF4362D4F87832986858
:1016C0000368DB68AB4228D1D0ED077AF8EEE77A01
:1016D0009FED1B6A90ED067A80ED058A28EE278A39
:1016E00067EE877A88EE067AC7EE866AFDEEC77ADD
:1016F00017EE903AFDEEE67A012B17EE902AB8BF6E
:101700000123002AC0E9083202DDBDEC028B70BD66
:101710000123BDEC028B436270BD18EE102ABDECB4
:10172000028BBDE870400021184718EE102A0021F6
:101730009847C2E700F07F450000FA4335060010E5
:1017400000007A4418EE102A002198478AE718EE24
:10175000102A0021984759E718EE102A00219847CF
:1017600028E718EE102A00219847F7E618EE102A0D
:1017700000219847C6E618EE102A0021984795E602
:1017800018EE102A0021984764E600BF002370B5C8
:1017900086B002AD02930593C5E901338B68044618
:1017A000F3B10E46022228469847D6E90231A668D0
:1017B000A3600496E368E16095E80300CDE90001C9
:1017C00094E80300059385E80300DDE9000184E85F
:1017D00003001EB1032229462846B04706B070BD5B
:1017E0001946E4E770B5CA4A2DED028B04460D4652
:1017F0001668EFF3108372B6D6E8CF0F01210028E8
:10180000FAD1C6E8401F0028F6D1BFF35F8FD4F8A5
:101810009C10D4F898005360814280F04781D4F83E
:101820009400D4ED286A30F91100DFEDBA7A07EEA2
:10183000100ABAEEE87AE7EE267A0131C4F89C1075
:10184000D4F8AC0030B1D4F8A810D4F8B060B142EC
:10185000C0F037829FEDAF7AD4F8C00077EE877A78
:1018600030B1D4F8BC10D4F8C460B142C0F01282D8
:101870009FEDA87AD4F8D40077EE877A30B1D4F807
:10188000D010D4F8D860B142C0F0ED819FEDA17ABC
:10189000D4F8E80077EE877A30B1D4F8E410D4F8C1
:1018A000EC60B142C0F0C8819FED9A7AD4F8FC0098
:1018B00077EE877A30B1D4F8F810D4F80061B142ED
:1018C000C0F0A3819FED937AD4F8100177EE877A68
:1018D00030B1D4F80C11D4F81461B142C0F07E815B
:1018E000DFED8C6AD4F8240176EEA76A30B1D4F823
:1018F0002011D4F82861B142C0F05981DFED857A1A
:101900009FED847AD4F8380177EE877A30B1D4F835
:101910003411D4F83C61B142C0F03281D4F84C01AA
:1019200077EE877A30B1D4F84811D4F85061B142DB
:10193000C0F00F819FED777AD4F8600177EE877A57
:1019400030B1D4F85C11D4F86461B142C0F0EA80DF
:101950009FED707AD4F8740177EE877A30B1D4F8BD
:101960007011D4F87861B142C0F0BA809FED697A05
:10197000D4F8880177EE877A30B1D4F88411D4F89E
:101980008C61B142C0F095809FED628A38EE278A63
:1019900000261268C2E88F6F83F31088D4ED107AA6
:1019A00094ED0C6AD4F88400D4ED110A0368D4EDE8
:1019B0000B8A9B69C4ED117A67EE867A94ED0D0A65
:1019C000E6EEA87AD4ED125A94ED0E1AE0EE207AE3
:1019D00094ED132A94ED1D7AD4ED0F1AE1EE657A99
:1019E00094ED195AE1EEC27AD4ED1E3AD4ED182ADC
:1019F00084ED1E7A27EE057AA2EEA77A94ED1A3AC4
:101A0000C4ED127AC4ED1D7AF0EE477A94ED1F6AA8
:101A100094ED1B4AE3EE237A94ED205AE4EE467AE5
:101A2000D4ED1C4AE4EEC57AC4ED106A17EE901AA4
:101A300084ED206AC4ED1F7AC4ED135A984701461D
:101A4000D4F888000268936998470346D4F88C005C
:101A500018EE101A026808EE103A9269904707EEE5
:101A6000100A9FED2D6A38EE077ABDEC028BDFED90
:101A70002B6A27EE067AB4EEE67AF1EE10FADFED85
:101A8000287A48BFB0EE667AB4EEE77AF1EE10FA43
:101A900077FE877AFDEEE77A17EE903A32461BB270
:101AA00063F30F0263F31F422A6070BDDFED197A02
:101AB000C6E630F9110094ED647A08EE100AB8EE2B
:101AC000C88A28EE078ABDEEC88A0131C4F884119D
:101AD00018EE101A09B208EE101ABAEEE88A55E7A5
:101AE00030F9110094ED5F6A07EE100AB8EEC77A7C
:101AF00027EE067ABDEEC77A0131C4F8701117EEF1
:101B0000101A09B207EE101ABAEEE87A30E700BFF1
:101B1000102900200000000000000047000000C75E
:101B200000FEFF4630F9110094ED5A6A07EE100AE4
:101B3000B8EEC77A27EE067ABDEEC77A0131C4F84F
:101B40005C1117EE101A09B207EE101ABAEEE87A15
:101B500000E730F9110094ED556A07EE100AB8EE6F
:101B6000C77A27EE067ABDEEC77A0131C4F848116C
:101B700017EE101A09B207EE101ABAEEE87ADBE691
:101B800030F9110094ED506A07EE100AB8EEC77AEA
:101B900027EE067ABDEEC77A0131C4F8341117EE8C
:101BA000101A09B207EE101ABAEEE87AB6E630F962
:101BB000110094ED4B7A07EE900AF8EEE77A67EEA3
:101BC000877AFDEEE77A0131C4F8201117EE901AFA
:101BD00009B207EE901AFAEEE87A91E630F91100B0
:101BE00094ED467A06EE900AF8EEE66A66EE876AAB
:101BF000FDEEE66A0131C4F80C1116EE901A09B236
:101C000006EE901AFAEEE86A6CE630F91100D4EDAF
:101C1000416A07EE100AB8EEC77A27EE267ABDEEC3
:101C2000C77A0131C4F8F81017EE101A09B207EE9E
:101C3000101ABAEEE87A47E630F91100D4ED3C6AA2
:101C400007EE100AB8EEC77A27EE267ABDEEC77AFD
:101C50000131C4F8E41017EE101A09B207EE101A99
:101C6000BAEEE87A22E630F91100D4ED376A07EED1
:101C7000100AB8EEC77A27EE267ABDEEC77A013190
:101C8000C4F8D01017EE101A09B207EE101ABAEE07
:101C9000E87AFDE530F91100D4ED326A07EE100A5A
:101CA000B8EEC77A27EE267ABDEEC77A0131C4F8BE
:101CB000BC1017EE101A09B207EE101ABAEEE87A45
:101CC000D8E530F91100D4ED2D6A07EE100AB8EE10
:101CD000C77A27EE267ABDEEC77A0131C4F8A8107C
:101CE00017EE101A09B207EE101ABAEEE87AB3E549
:101CF00038B50368084ADB68044693420D4608D1AC
:101D00000420A8428ABF04EB85040020D4F8800098
:101D100038BD9847F5E700BF1904001038B50368CF
:101D2000084ADB68044693420D4608D10420A842C5
:101D30008ABF04EB85040020D4F8800038BD9847A2
:101D4000F5E700BF490200102DE9F041154690F873
:101D50007C220E46013A51B204461F4680F87C129E
:101D600039B9142241EC4020D0F854020368DB69F1
:101D700098473B462A4631469E4809F021FBD4F855
:101D800058723B7CAB422DD0D4F85C723B7CAB42AA
:101D900040D0D4F860723B7CAB4253D0D4F864722C
:101DA0003B7CAB4266D0D4F868723B7CAB4279D0C6
:101DB000D4F86C723B7CAB4200F08C80D4F870722B
:101DC0003B7CAB4200F09D80D4F874723B7CAB420C
:101DD00000F0AE80D4F87842237CAB4200F0BF80A4
:101DE000BDE8F081B868844E03681B69B34240F0D7
:101DF000D880002380F82D30F86803681B69B3424F
:101E000040F0DB800023D4F85C7280F82D303B7CFE
:101E1000AB42BED1B868784E03681B69B34240F04C
:101E2000B180002380F82D30F86803681B69B34245
:101E300040F0DC800023D4F8607280F82D303B7CC9
:101E4000AB42ABD1B8686C4E03681B69B34240F03B
:101E5000A580002380F82D30F86803681B69B34221
:101E600040F0C1800023D4F8647280F82D303B7CB0
:101E7000AB4298D1B868604E03681B69B34240F02A
:101E80008A80002380F82D30F86803681B69B3420C
:101E900040F0A6800023D4F8687280F82D303B7C97
:101EA000AB4285D1B868544E03681B69B3426FD109
:101EB000002380F82D30F86803681B69B34240F0B6
:101EC0008C800023D4F86C7280F82D303B7CAB42C0
:101ED0007FF474AFB868484E03681B69B34254D1AD
:101EE000002380F82D30F86803681B69B34271D174
:101EF0000023D4F8707280F82D303B7CAB427FF425
:101F000063AFB8683C4E03681B69B34252D10023EB
:101F100080F82D30F86803681B69B34257D100235D
:101F2000D4F8747280F82D303B7CAB427FF452AF12
:101F3000B868314E03681B69B34238D1002380F87A
:101F40002D30F86803681B69B3423DD10023D4F8F3
:101F5000784280F82D30237CAB427FF441AFA068FB
:101F6000254E03681B69B3421ED1002380F82D3033
:101F7000E06803681B69B34222D1002380F82D304A
:101F8000BDE8F081002198474EE700219847AAE775
:101F9000002198478FE70021984775E7002198476F
:101FA0005AE70021984727E700219847E0E70021FA
:101FB0009847C6E700219847ACE700219847E3E639
:101FC0000021BDE8F04118470021984702E70021B1
:101FD0009847F9E600219847F0E600219847E7E6A0
:101FE00000219847DFE600219847D7E6002198476F
:101FF000CFE600BF00B801109D0600102DE9F04F9C
:1020000085B0019390F87C32044601335BB2002B1B
:10201000164680F87C320ADDD0F8540201210368AC
:10202000DB69984714234FF0010242EC4030D4F8AA
:1020300058B2944DDBF8080003689B69AB426ED13F
:1020400090F92E30013374D0D4F85CB2DBF808007C
:1020500003689B69AB4240F0D88090F92E30013381
:1020600067D0D4F860B2DBF8080003689B69AB4224
:1020700040F0D18090F92E3001335AD0D4F864B2B8
:10208000DBF8080003689B69AB4240F0CA8090F916
:102090002E3001334DD0D4F868B2DBF80800036865
:1020A0009B69AB4240F0C38090F92E30013340D0A1
:1020B000D4F86CB2DBF8080003689B69AB4240F0CF
:1020C000BC8090F92E30013333D0D4F870B2DBF8F5
:1020D000080003689B69AB4240F0B58090F92E3050
:1020E000013326D0D4F874B2DBF8080003689B698A
:1020F000AB4240F0BB8090F92E30013319D0D4F8B8
:1021000078B2DBF8080003689B69AB4240F0B4800A
:1021100090F92E3001330CD005B0BDE8F08F984710
:102120000346002890D1963354F823B0BBF1000F3A
:10213000F2D0DDED017ADFED546AB8EEE77AC7EE52
:10214000267A67EEA77A9BF80430CBED097A8DF8F2
:102150000C608BF8106073B300244FF00008002669
:102160004FF08047DFF82C910DF10C0A1AF8010BA3
:10217000453805F075FF42464B4605F015FF02460F
:102180000B463046394605F031FDDBF800300022C1
:1021900053F824503D4B05F0E1FE05F097FF014652
:1021A0002B6828465B6889B2984701349BF8042065
:1021B000E3B29A42DAD8DBF80800354C03681B69B1
:1021C000A34246D1012390F92E2080F82D30013210
:1021D00005BF002380F82E3080F82C308362DBF8B6
:1021E0000C0003681B69A3423BD1012390F92E2008
:1021F00080F82D30013209BF002380F82C30836233
:1022000080F82E3005B0BDE8F08F984701230028F4
:102210007FF427AF87E79847022300287FF42EAF8B
:1022200081E79847032300287FF435AF7BE7984781
:10223000042300287FF43CAF75E798470523002866
:102240007FF443AF6FE79847062300287FF44AAF37
:1022500069E701219847DBF80C0003681B69A3427A
:10226000C3D0012105B0BDE8F04F184798470723B8
:1022700000287FF444AF56E7984700287FF44CAF1E
:10228000082350E7C90700100000FE4200807B4091
:102290009D060010000028402DE9F04780462DEDF6
:1022A000048B8A469FED709ADFF8CC9100F5157685
:1022B00000F51E7756F8045F002D3ED02B79002BD9
:1022C00000F0B58000249FED688A2B6853F8240045
:1022D00001340368DB68984707EE900A2B79E2B275
:1022E000934238EE278AF0D807EE903AF8EEE77A74
:1022F000C8EE278AA86803685B69C5ED0A8A4B4562
:102300005DD190F82C30002B4BD1836A90F92E10C0
:102310000133FDEEE87A17EE902A012983620286E6
:1023200078D002296DD000295BD0DFED4F7A68EEBE
:10233000A78AD5ED097AA8EEA79AB742BAD1F5EEE9
:10234000007A69EE277AD8F8540217EE901A0368DB
:102350009B699847BDEC048B06EE900A9FED436A9B
:102360009FED437A66EE866AF4EEC76AF1EE10FAE4
:10237000DFED407A58BFB0EE667AB4EEE77AF1EE60
:1023800010FA77FE877AFDEEE77A17EE903A002290
:102390001BB263F30F0263F31F42CAF80020BDE8CB
:1023A000F087B0F93030002B04DBF5EEC08AF1EE97
:1023B00010FA0AD4836A90F92E100133A9E718EEB7
:1023C000901A984708EE900AB3E7FDEEE87A0022EB
:1023D000012317EE901A80F82C20018680F82E2019
:1023E0008362026A9A4238DB07EE903A07EE102ABF
:1023F000F8EEE77AB8EEC77AC7EE876A68EEA68A83
:1024000097E790F82D30002B93D18362012380F859
:102410002E308EE7426A9A420EDAFF2380F82E3081
:10242000C368002B81D00369043098477DE7DFED56
:102430000E7AB0EE678A5BE707EE903A07EE102A55
:10244000F8EEE77AB8EEC77AF7EE006A87EE876AA9
:1024500076EEC67A68EEA78A6BE7022380F82E3004
:102460000023836265E700BF000000000000004712
:10247000000000C700FEFF46BD060010A0F8741063
:10248000002940D090ED1E7AB5EEC07AF1EE10FA38
:1024900039DDDFED1D6A07EE901A90ED086AF8EE5F
:1024A000E77A67EE266AF8EE465A86EEA77A67EE76
:1024B000257AFCEEE77A17EE903A826890ED096A89
:1024C000934228BF134607EE903AB8EE677A76EE4D
:1024D000477AB6EE005AF0EEE77AF4EEC57AF1EEFE
:1024E00010FA05DD012380ED0A7A80F82C30704760
:1024F000012B38BF012393424FF0000128BF134640
:1025000080F82C100361704700007042A0F874102E
:10251000002940D090ED1E7AB5EEC07AF1EE10FAA7
:1025200039DDDFED1D6A07EE901A90ED086AF8EECE
:10253000E77A67EE266AF8EE465A86EEA77A67EEE5
:10254000257AFCEEE77A17EE903A826890ED096AF8
:10255000934228BF134607EE903AB8EE677A76EEBC
:10256000477AB6EE005AF0EEE77AF4EEC57AF1EE6D
:1025700010FA05DD012380ED0A7A80F82C307047CF
:10258000012B38BF012393424FF0000128BF1346AF
:1025900080F82C1003617047000070422DE9F04F65
:1025A0002DED048B9FED839ADFED838ADFED839A17
:1025B0008FB000F51E73CDE902030DF1280800F578
:1025C000157A00F114092C205AF8047F07F0B6F8A8
:1025D0000546342007F0B2F8002403464AF6444189
:1025E0004FF0FF0BB2EE048A754AD9611A6083F886
:1025F0002EB083ED058AC3ED068AC3E90144DC6091
:102600001C619C629C851C863420019307F096F81F
:10261000019B4AF64441AB6001232B714FF07E537E
:10262000674A80F82EB0026080ED058AC0ED068A08
:10263000C0E902444460E860C16104618462848549
:1026400004866B62C5ED0A9A0420C5E906446C61F4
:102650002C6207F075F830235A4A2B741378CAF8A5
:1026600000506B7401331370029A2B79D2F80CB0BE
:102670002860C0F80090A3B1484602E02A6852F8EA
:102680002300036859461B6898472B68822153F83A
:102690002400013403685B6898472A79E3B29A42C0
:1026A000ECD8A868484A03689B6893427ED1DBF85F
:1026B000343090ED056A07EE903AF8EEE77A90ED47
:1026C000067A27EE866A27EE877AC6EE096AC7EE93
:1026D000097ABDEEE67AFDEEE77AC36117EE103AAD
:1026E00017EE902A012BB8BF0123002AC0E9083257
:1026F00001DC012343620021344A354B0C920B91DB
:1027000004AC0A950D93CDE908230791AB6898E8CE
:10271000030084E803001A1D92E8030088E8030020
:10272000D4E9000182E803000C9ADC680D99DA60B4
:102730001A6906950C9419610D921CB10322414649
:102740004046A047089B1BB106A9032208469847AC
:10275000C7B1B86810B103685B689847F86810B1F2
:1027600003685B689847386808B106F0EBFFFB69BF
:1027700023B107F1140103220846984738462C215B
:1027800006F0E2FF039B09F1100953457FF41BAFEC
:10279000DDF808C0DCF85402DCF80C1003685B6953
:1027A0000FB0BDEC048BBDE8F04F18475946984771
:1027B000A1E700BF00007A440000FA4300000000D7
:1027C000DCC60110342F0020E50500106D0F00104D
:1027D000190A001007EE103ADFED296AB8EEC77A41
:1027E000C7EE267A274B30B4A3FB0253DB0803EB7A
:1027F0004303254CA2EB830212F0FF0267EEA77A97
:1028000021681BD1EFF3108372B6D1E8CFCF012539
:10281000BCF1000FF9D1C1E84C5FBCF1000FF4D15D
:10282000BFF35F8FC0ED287A21686360C0F89C20F9
:10283000C1E88F2F83F3108830BC7047EFF310830B
:1028400072B6D1E8CFCF0125BCF1000FF9D1C1E8B4
:102850004C5FBCF1000FF4D1BFF35F8F162502EB84
:10286000820200EB8200C0ED2D7A002221686360B5
:10287000C0F8A850C1E88F2F83F3108830BC704790
:102880000000FE42ABAAAAAA10290020002958D1B4
:102890002DE9F04F037C83B0013303F0030303748D
:1028A000002B4FD100F114084446804600F51579FD
:1028B00000F51E7A59F8046F0194307C453805F014
:1028C000CFFB0022774B05F06FFB02460B46002042
:1028D0004FF0804105F08AF9734B002205F03EFB72
:1028E00005F0F4FB33791FFA80FB7BB1002501AFC3
:1028F00057F8040B3368594643F82500036801353F
:102900005B6898473279EBB29A42F1D8D14504F12D
:102910001004CFD10121FA2698F81030D8F80420FD
:102920000B44624D937591829661AB6A60480D24A9
:10293000A0FB03039B09D36141EC404003B0BDE819
:10294000F08F7047012B3AD0022B71D000F5E2795D
:1029500080464C4600F5157A00F51E7B5AF8046F48
:102960000194307C453805F07BFB00224D4B05F08F
:102970001BFB02460B4600204FF0804105F036F964
:10298000494B002205F0EAFA05F0A0FB33791FFA63
:1029900080F97BB1002501AF57F8040B3368494635
:1029A00043F82500036801355B6898473279EBB23C
:1029B0009A42F1D8DA4504F11004CFD1AAE700F128
:1029C000A40980464C4600F5157A00F51E7B5AF89E
:1029D000046F0194307C453805F042FB0022314BF6
:1029E00005F0E2FA02460B4600204FF0804105F068
:1029F000FDF82D4B002205F0B1FA05F067FB3379A5
:102A00001FFA80F97BB1002501AF57F8040B33683A
:102A1000494643F82500036801355B6898473279D9
:102A2000EBB29A42F1D8DA4504F11004CFD171E744
:102A300000F59A784446804600F5157900F51E7A2F
:102A400059F8046F0194307C453805F009FB0022E9
:102A5000144B05F0A9FA02460B4600204FF08041C6
:102A600005F0C4F8104B002205F078FA05F02EFBB3
:102A700033791FFA80FB7BB1002501AF57F8040BB7
:102A80003368594643F82500036801355B68984769
:102A90003279EBB29A42F1D8D14504F11004CFD18A
:102AA00038E700BF0000284000807B4000000B405A
:102AB000D34D621070B5134604468C469EB020215B
:102AC0001D4A1E6801A82378DCF8005008F0AAF916
:102AD00040F20253194801AA09A911F0DFFC98B984
:102AE00009A9334615482A1D11F00AFE011E16DBFE
:102AF000124809A911F0DEFCC8B9216810481EB0BF
:102B0000BDE8704008F05CBC01460E4808F058FC77
:102B100021680D481EB0BDE8704008F051BC0B485C
:102B200008F04EFC09A9054811F0C4FCF0E7014685
:102B3000074808F045FCEBE714B8011048210020D5
:102B400094B8011028B80110A8B8011054B80110A9
:102B500074B8011005EE101A4168002900F0AE802B
:102B600070B4056990ED097A06EE905AD0ED0C7AB2
:102B7000F8EE666AD0ED065A9FED526A36EEC74A05
:102B800075EEE74AA4EE067AE4EE867A90F82C30E9
:102B900080ED097AC0ED0C7A8468DBB177EE666A65
:102BA000B6EE006AF0EEE66AF4EEC66AF1EE10FAEE
:102BB00010D5D0ED0A6AFCEEE66A16EE905A012DA9
:102BC00038BF0125A5424FF0000328BF254680F8F5
:102BD0002C30056190F83830002B5AD1BCEEC77A02
:102BE00017EE106AC36990ED186A1A19921BB2FBAE
:102BF000F4FCD0ED147A04FB1C2201EB820292ED6E
:102C0000007A90ED132A66EE277A90ED193AD0ED0E
:102C1000152AE7EE027AD0ED1A6AD0ED163AE2EE06
:102C2000837AD0ED1B4A90ED174AE3EEE67AD0EDB9
:102C3000055A80ED187AE4EE647AB0EE457A01EB3D
:102C400083010133B3FBF4F2A7EEA57A04FB123340
:102C500080ED196AC0ED1B6AC0ED1A7A81ED007A29
:102C6000C3613DB370BC90ED0C6AF7EE006A9FED56
:102C7000167A76EEC66AF4EEC76AF1EE10FA67EEDF
:102C8000867A58BFB0EE667AE5EE077A17EE900ABC
:102C9000704777EEE57ADFED0D6AF0EEE77AF4EE55
:102CA000E67AF1EE10FA99D50022436B80F83820CD
:102CB000836193E715EE100A70BC704715EE100A99
:102CC000704700BF0AD7A33B6666663F0AD7233C1E
:102CD000F0B5274D83B02C685CB32368012501A8AB
:102CE0009847E06A019F00F11002A16A05FA02F21A
:102CF0004B681342FCD194F83D60043041F82070D9
:102D00000EB12368EBE7E3688BB1251D23692846E4
:102D10009847E3682BB10322294628469847C4E91F
:102D20000366E3691BB1236A04F11400984703B0FA
:102D3000F0BD402006F002FD002201464BF6803730
:102D40000126DFF830C041F8042B044642601346E8
:102D5000C1E901222860C0E90422C0E90622C0E9D5
:102D60000822C0E90D76C0F828C0C2628287B5E7A4
:102D7000902A00200000205030B504468BB0002976
:102D800037D00D224FF00101036941EC40200022B1
:102D90002F49CDE90622099105912E4906AC0891EB
:102DA000049194E80300CDE90001029283F83D20EC
:102DB000039203F1040C9CE8030084E80300DDE9BE
:102DC00000018CE80300089ADD680999DA601A6945
:102DD000EE460895196109921DB10322214620464D
:102DE000A847049B1BB102A90322084698470BB0D1
:102DF00030BD05696B6A03B19847012385F83D3002
:102E00000AF0E6FF14480BF059F800230D2243ECBA
:102E10004020124A1068EFF3108172B6D0E8CFCF8D
:102E20000125BCF1000FF9D1C0E84C5FBCF1000FE7
:102E3000F4D1BFF35F8F0A485160C4F89C30126828
:102E4000C4F8A000C2E88F3F81F310880BB030BDFA
:102E5000410B0010010A0010D12C00101029002095
:102E6000CDCC4C3F0000000007EE901A9FED427A57
:102E7000F8EEE77AC7EE877AF8B517EE901A2DEDDF
:102E8000028B04463D4805F0B5FFB3EE047A07EE29
:102E9000900A67EE877AC4ED157A17EE900A18F05B
:102EA00027FC33A3D3E9002305F058F80646206D2C
:102EB0000F4618F01DFC0B4602463946304605F019
:102EC00073F805F0BFF8054606F0CEFAD4ED167A91
:102ED00007EE100A77EEA77A284687EE278A06F0D3
:102EE000C6FA94F85C3007EE900A33BBF7EE005A4E
:102EF000B8EE006A75EEE76A38EE255AB6EE007A4B
:102F000067EE867A26EE877A85EE856A35EEC88A80
:102F100027EE067A66EE266A67EE867A28EE068A3D
:102F200084ED187AC4ED196A84ED1A7AC4ED1B7A1F
:102F300084ED1C8ABDEC028BF8BD012BFAD1F7EEB3
:102F4000005AB8EE006A77EEA56A38EE255AB6EE5A
:102F5000007A67EE867A26EE877A85EE856A35EE08
:102F6000C88A27EE067A66EEC66AD5E7AFF3008018
:102F7000182D4454FB21194000F07F4500007A448D
:102F800007EE101ADFED426AB8EEC77AF8B5C7EE61
:102F9000267A2DED028BF7EE008A78EEE77A67EE5F
:102FA000A77A044617EE901A3A4805F023FF9FEDE2
:102FB0003A7A07EE900A67EE877AC4ED087A17EE40
:102FC000900A18F095FB30A3D3E9002304F0C6FF64
:102FD0000646E0690F4618F08BFB0B460246394661
:102FE000304604F0E1FF05F02DF8054606F03CFA06
:102FF000D4ED097A07EE100A77EEA77A284687EE15
:10300000278A06F034FA94F8283007EE900A23BB9A
:1030100038EE285A78EEE76AB6EE007AF8EE005AF3
:1030200088EE856A26EE877A38EEC88A67EEA57A3A
:1030300066EE266A27EE067A67EE867A28EE068A1C
:10304000C4ED0C6A84ED0B7A84ED0D7AC4ED0E7A32
:1030500084ED0F8ABDEC028BF8BD012BFAD138EE5E
:10306000285A77EEA86AB6EE007AF8EE005A88EE93
:10307000856A26EE877A38EEC88A67EEA57A66EE0C
:10308000C66AD7E7AFF30080182D4454FB211940DE
:1030900000F07F450000C8430000484200000000E7
:1030A0000A46526BF8B507EE902A2DED028B90ED93
:1030B000037AB8EE678ADFED566A28EE077AC7EE24
:1030C000267AFCEEE77A026217EE902A012A38BFD0
:1030D00001220446C66F4F4B826035681B68002191
:1030E000581905EB820535609200606013F0F0F925
:1030F000D4ED047A0023F8EE677A84ED0F8A18EE97
:10310000100AC4ED097AE36118F0F2FAD4ED117AED
:10311000064694F84830206F0F4637EEA78A2064A1
:10312000002B3FD118F0E4FA37A3D3E9002304F0D1
:1031300015FF32463B4604F037FF04F083FF054697
:1031400006F092F907EE900A2846C7EE888A06F044
:103150008EF9F7EE005A07EE900A78EEA54A75EE62
:10316000E76AB6EE007AB8EE005A85EEA46A26EE5B
:10317000877A75EEE88A67EE857A66EE266A27EE2C
:10318000067A67EE867A68EE868AC4ED146AC4ED24
:10319000167AC4ED178A84ED137A84ED157ABDECA6
:1031A000028BF8BD012BFAD118F0A2FA16A3D3E9CD
:1031B000002304F0D3FE32463B4604F0F5FE04F053
:1031C00041FF054606F050F907EE900A2846C7EE83
:1031D000888A06F04CF9F7EE005A07EE900A78EE6E
:1031E000A54A77EEA56AB6EE007AB8EE005A85EEEB
:1031F000A46A26EE877A75EEE88A67EE857A66EE2F
:10320000C66ABCE7AFF30080182D4454FB21194077
:1032100000007A44EC1700200A46526BF8B507EE1E
:10322000902A2DED028B90ED037AB8EE678ADFEDE0
:10323000566A28EE077AC7EE267AFCEEE77A026233
:1032400017EE902A012A38BF01220446C66F4F4B61
:10325000826035681B680021581905EB82053560CE
:103260009200606013F034F9D4ED047A0023F8EE94
:10327000677A84ED0F8A18EE100AC4ED097AE361CB
:1032800018F036FAD4ED117A064694F84830206FDB
:103290000F4637EEA78A2064002B3FD118F028FA9A
:1032A00037A3D3E9002304F059FE32463B4604F02D
:1032B0007BFE04F0C7FE054606F0D6F807EE900A3E
:1032C0002846C7EE888A06F0D2F8F7EE005A07EED5
:1032D000900A78EEA54A75EEE76AB6EE007AB8EE87
:1032E000005A85EEA46A26EE877A75EEE88A67EEC4
:1032F000857A66EE266A27EE067A67EE867A68EEAB
:10330000868AC4ED146AC4ED167AC4ED178A84ED7A
:10331000137A84ED157ABDEC028BF8BD012BFAD13E
:1033200018F0E6F916A3D3E9002304F017FE32469D
:103330003B4604F039FE04F085FE054606F094F89D
:1033400007EE900A2846C7EE888A06F090F8F7EE56
:10335000005A07EE900A78EEA54A77EEA56AB6EE17
:10336000007AB8EE005A85EEA46A26EE877A75EEEA
:10337000E88A67EE857A66EEC66ABCE7AFF300803E
:10338000182D4454FB21194000007A44EC1700200A
:10339000F8B503688E4EDB682DED028BB342044610
:1033A0000D4608EE102A1FD10420A84219D904EBBB
:1033B000850383ED208A032D13D8DFE805F07A0218
:1033C000B617B5EEC08AF1EE10FA00F1EB80DFED32
:1033D000817AB4EEE78AF1EE10FA77FE887AC4EDCE
:1033E000057ABDEC028BF8BD9847DEE7F7EE008A60
:1033F00038EEC88A68EE087A774817EE901A05F01A
:10340000F9FC9FED767A07EE900A67EE877AC4EDB5
:103410001C7AC4ED107A17EE900A18F069F96AA3C5
:10342000D3E9002304F09AFD0646E06B0F4618F03E
:103430005FF90B4602463946304604F0B5FD04F00C
:1034400001FE054606F010F8D4ED117A07EE100AD9
:1034500077EEA77A284687EE278A06F008F894F8D0
:10346000483007EE900A002B40F0868038EE285A4C
:1034700078EEE76AB6EE007AF8EE005A88EE856AD2
:1034800026EE877A38EEC88A67EEA57A66EE266A57
:1034900027EE067A67EE867A28EE068AC4ED146A6D
:1034A00084ED137A84ED157AC4ED167A84ED178ACB
:1034B00097E7F6EE006A28EE268AB4F8743084EDB9
:1034C0001E8A002B8DD0B5EEC08AF1EE10FA88DD91
:1034D000DFED437A07EE103A94ED086AB8EEC77A4A
:1034E00028EE278AF8EE465AC8EE077A67EEA57AE4
:1034F000FCEEE77A17EE903AA26894ED096A9342DF
:1035000028BF134607EE903AB8EE677A76EE477A10
:10351000F0EEE77AF4EEE67AF1EE10FA48DD0123F8
:1035200084ED0A7A84F82C305BE7B5EEC08AF1EEC0
:1035300010FA3AD4B7EE007AB4EEC78AF1EE10FA78
:1035400037FE087A94ED066ABDEC028BD4ED0C7A56
:1035500077EEC67ADFED236AF0EEE77AF4EEE67AEC
:10356000F1EE10FACBBF0123002384ED0D7A84ED38
:10357000067A84F83830F8BD012B7FF432AF38EE8C
:10358000285A77EEA86AB6EE007AF8EE005A88EE6E
:10359000856A26EE877A38EEC88A67EEA57A66EEE7
:1035A000C66A75E7DFED107A19E79FED0F7AC9E774
:1035B000012B38BF012393424FF0000128BF13466F
:1035C00084F82C1023610CE7182D4454FB2119407A
:1035D00049020010A4707D3F000048430000C8422B
:1035E000000070420AD7233C0000000000000000E9
:1035F000F8B50368924EDB682DED028BB3420446AA
:103600000D4608EE102A23D10420A8421DD904EB50
:10361000850383ED208A032D17D8DFE805F07E02AD
:10362000BC1BF6EE007AE8EE277AF5EEC07AF1EEF2
:1036300010FA00F1ED809FED837AF4EEC77AF1EE97
:1036400010FA77FE277AC4ED057ABDEC028BF8BD3F
:103650009847DAE7F7EE008A38EEC88A68EE087A0B
:10366000794817EE901A05F0C5FB9FED787A07EEC2
:10367000900A67EE877AC4ED1C7AC4ED107A17EED3
:10368000900A18F035F86CA3D3E9002304F066FC27
:103690000646E06B0F4618F02BF80B4602463946FB
:1036A000304604F081FC04F0CDFC054605F0DCFE5C
:1036B000D4ED117A07EE100A77EEA77A284687EE46
:1036C000278A05F0D4FE94F8483007EE900A002BC4
:1036D00040F0888038EE285A78EEE76AB6EE007A35
:1036E000F8EE005A88EE856A26EE877A38EEC88AA8
:1036F00067EEA57A66EE266A27EE067A67EE867A88
:1037000028EE068AC4ED146A84ED137A84ED157AE6
:10371000C4ED167A84ED178A97E7F4EE007A28EE66
:10372000278AB4F8743084ED1E8A002B8DD0B5EE54
:10373000C08AF1EE10FA88DDDFED457A07EE103A27
:10374000D4ED086AB8EEC77A28EE278AB8EE666A22
:10375000C8EE077A67EE867AFCEEE77A17EE903AC3
:10376000A268D4ED096A934228BF134607EE903A47
:10377000B8EE677A76EEC77AF6EE005AF0EEE77AA0
:10378000F4EEE57AF1EE10FA48DD012384ED0A7AD1
:1037900084F82C3059E7B5EEC08AF1EE10FA3AD42D
:1037A000B7EE007AB4EEC78AF1EE10FA37FE087A67
:1037B00094ED066ABDEC028BD4ED0C7A77EEC67AF6
:1037C000DFED246AF0EEE77AF4EEE67AF1EE10FA35
:1037D000CBBF0123002384ED0D7A84ED067A84F8B3
:1037E0003830F8BD012B7FF430AF38EE285A77EE31
:1037F000A86AB6EE007AF8EE005A88EE856A26EEE0
:10380000877A38EEC88A67EEA57A66EEC66A73E7ED
:10381000DFED117A17E79FED107AC9E7012B38BF6A
:10382000012393424FF0000128BF134684F82C1067
:1038300023610AE7AFF30080182D4454FB2119409F
:1038400019040010A4707D3F000048430000C842E6
:10385000000070420AD7233C000000000000000076
:103860002DE9F041472A2DED028B044600F0AD8092
:103870004A2A114612D007EE903A9FEDBB7AF8EE35
:10388000E77AC7EE877AA2F1140317EE902A032B8A
:1038900000F23D81DFE803F08F857B710268B34D54
:1038A000926A5901AA4240F0138107EE901A9FEDE7
:1038B000B07AF8EEE77AC7EE877AAE4817EE901A3C
:1038C00005F098FAB3EE047A07EE900A67EE877A6D
:1038D000C4ED157A17EE900A17F00AFFA0A3D3E9FA
:1038E000002304F03BFB0646206D0F4617F000FF57
:1038F0000B4602463946304604F056FB04F0A2FB64
:10390000054605F0B1FDD4ED167A07EE100A77EE04
:10391000A77A284687EE278A05F0A9FD94F85C303F
:1039200007EE900A002B40F0D880F7EE005AB8EE70
:10393000006A75EEE76A38EE255AB6EE007A67EE51
:10394000867A26EE877A85EE856A35EEC88A27EE76
:10395000067A66EE266A67EE867A28EE068A84ED97
:10396000187AC4ED196A84ED1A7AC4ED1B7A84EDD5
:103970001C8ABDEC028BBDE8F081D4F8840003689A
:10398000BDEC028B0321BDE8F0415B6A1847D4F817
:1039900084000368BDEC028B0221BDE8F0415B6A44
:1039A0001847D4F884000368BDEC028B0121BDE800
:1039B000F0415B6A1847D4F884000368BDEC028BC1
:1039C0000021BDE8F0415B6A184702686A4D526AFF
:1039D0005901AA427CD107EE901ADFED656AF8EE34
:1039E000E77AF7EE008A87EEA67A78EEC77A67EE76
:1039F000A77A624817EE901A05F0FCF99FED607AFD
:103A000007EE900A67EE877AC4ED087A17EE900AFF
:103A100017F06EFE52A3D3E9002304F09FFA064686
:103A2000E0690F4617F064FE0B4602463946304601
:103A300004F0BAFA04F006FB054605F015FDD4EDD6
:103A4000097A07EE100A77EEA77A284687EE278ACA
:103A500005F00DFD94F8283007EE900A13BB38EE00
:103A6000285A78EEE76AB6EE007AF8EE005A88EE49
:103A7000856A26EE877A38EEC88A67EEA57A66EE02
:103A8000266A27EE067A67EE867A28EE068AC4ED65
:103A90000C6A84ED0B7A84ED0D7AC4ED0E7A84ED18
:103AA0000F8A66E7012B7FF464AF38EE285A77EE71
:103AB000A86AB6EE007AF8EE005A88EE856A26EE1D
:103AC000877A38EEC88A67EEA57A66EEC66AD8E7C6
:103AD000BDEC028BBDE8F0411047012B7FF449AFEC
:103AE000F7EE005AB8EE006A77EEA56A38EE255A6E
:103AF000B6EE007A67EE867A26EE877A85EE856ADC
:103B000035EEC88A27EE067A66EEC66A23E7A1F18B
:103B10001B03032B03D8DFE803F013100D0A5539FC
:103B200003293FF626AFDFE801F01714110ED4F891
:103B3000880024E7D4F888002BE7D4F8880032E71F
:103B4000D4F8880039E7D4F88C0018E7D4F88C0052
:103B50001FE7D4F88C0026E7D4F88C002DE700BFCF
:103B6000182D4454FB2119400000FE42692E00101C
:103B700000F07F4500007A44812F00100000C84308
:103B8000000048422DE9F0470C46064694B00B224F
:103B90002046B54912F070FD002800F095800622FD
:103BA0002046B24912F068FD60B114222046B049A7
:103BB00012F062FD0546002800F09480002014B049
:103BC000BDE8F087A379312B00F08980322B00F01B
:103BD0008380332B40F0448106F18C0708340422A3
:103BE0002046A44912F048FD002800F0318105224A
:103BF0002046A14912F040FD0546002800F06E81E4
:103C0000092220469D4912F037FD0546002840F064
:103C10001A81902005F092FD044600234FF47A7E2D
:103C20004AF6444CDFEDAA5A9FEDAA6ADFEDAA6A74
:103C30009FED937ADFED937ADFF884829248C4F89F
:103C40007080DFF880829149914AC4E90005D8F874
:103C50000000C4ED0F5A84ED116AC4ED146A84EDBE
:103C6000167AC4ED177AC4F810E0C4F820C0E160F9
:103C700021646361A361A362236363632366636654
:103C8000A366E366A367E2646265A560E56184F804
:103C90002C5084F8385084F84850A4F87450002808
:103CA00000F065817B4BE0672046316998472368C7
:103CB00020461B6AB6F89010984738683C6038B1C7
:103CC00003685B68984703E07349744807F078FB22
:103CD000012014B0BDE8F08706F188077EE706F101
:103CE00084077BE74FF0FF3705AB00936C4904ABCB
:103CF00004F1140003AACDE90377059712F00EFB37
:103D0000002800F09C80039B0B2B00F29880DDF8CC
:103D10001080B8F1000F40F39280059F002F40F310
:103D20008E80DFF8A491DFF8A4A1B7F5001FCDE9DC
:103D30000835B469CDF82C90CDF828A000F3208187
:103D4000CDE911551095139510AD022208A90CAEBE
:103D50002846FDF7F7F895E8030086E8030004F12C
:103D6000100393E8030085E8030096E8030083E866
:103D70000300A369E2691293C4F818A01392C4F86F
:103D80001C901BB103222946284698470023012294
:103D9000D4F82CC0C4F83874C4F83C34C4F83034B7
:103DA000C4F84834C4F8288084F834243D4ADCF848
:103DB0000010106801F50017D4F84C24074408449B
:103DC00001F58001C4F84404CCF8001027620C937C
:103DD000C6E901330F9382F83D301093C5E90133F2
:103DE00006AC139395E8030084E80300131D93E8E1
:103DF000030085E8030094E8030083E803001299B8
:103E0000D36810691293D1601399139011611BB19B
:103E100003222946284698470E9B1BB103223146B0
:103E2000304698470A9B1BB108A9032208469847C9
:103E3000DDE9032305991C4807F0C2FA48E71B484F
:103E400007F03EFABAE62146194807F0B9FA3FE70B
:103E5000042005F073FC174A0446174B026023E761
:103E6000164807F02DFA33E7D4B70110C4B8011093
:103E700018B9011000BA0110ECB80110F4B8011023
:103E8000565CE8BF3FBB543FE8C5011000007A44D0
:103E90005652803B1932001010BA0110ECB70110D5
:103EA00030B90110EC170020B0B901103CB9011075
:103EB00000B90110B4C50110F9030010CCB801100D
:103EC00000409C46002F0020B52A0010450F00102E
:103ED00000803B47F4FD343F5652003C902005F0F3
:103EE0002DFC044600234FF47A7E4AF6444C5FEDE5
:103EF000086A1FED087A5FED087ADFF8B880284875
:103F0000C4F87080DFF8B0802649274AC4E900056C
:103F1000DFF8A8A0DFF8A890D8F80000C4ED0F6A79
:103F200084ED117AC4ED147AC4F858A0C4F85C90FA
:103F3000C4F810E0C4F820C0E16021646361A361AB
:103F4000A3622363636323666366A366E366A36772
:103F5000E2646265A560E56184F82C5084F838500D
:103F600084F84850A4F8745008B1104B9BE6042024
:103F700005F0E4FB236805605B69C8F8000092E681
:103F80004FF4001239460A4807F01AFA0A9B002B30
:103F90003FF414AE08A90322084698470EE600BF76
:103FA00080C5011000007A445652803BA1300010B9
:103FB00088B9011000409C46002F0020565CE8BFE5
:103FC0003FBB543F2DE9F04F2DED068B0C228BB0FB
:103FD0007149044612F050FB00B30F2220466F498E
:103FE00012F04AFB00286BD0042220466C4912F0E4
:103FF00043FB002800F0AC8006222046694912F0FD
:104000003BFB002852D02146674B186803681B6BA6
:104010000BB0BDEC068BBDE8F04F1847634D02AC0A
:104020002A680290C4E90100059082F83D00CDE9BC
:104030000800CDE9060006AB93E80300CDE90001D6
:1040400002F1040C9CE8030083E80300DDE90001B1
:104050008CE803000899D66810690896D160099920
:10406000099011611EB1032219461846B047049BFE
:104070001BB103222146204698474D4C206800285A
:1040800000F083802C68484A636A106003B1984747
:10409000012384F83D3009F09BFE464809F00EFFED
:1040A00001200BB0BDEC068BBDE8F08F42494348C0
:1040B00007F086F901200BB0BDEC068BBDE8F08F50
:1040C0003A4D02AC2A680290C4E90100059082F8DA
:1040D0003D00CDE90800CDE9060006AB93E80300FA
:1040E000CDE90001161D96E8030083E80300DDE931
:1040F000000186E803000899D66810690896D16027
:104100000999099011611EB1032219461846B0475A
:10411000049B1BB10322214620469847DFF8B48058
:10412000D8F80040002C57D02D681F4A6B6A1460E5
:1041300003B19847012385F83D3009F049FE1D4839
:1041400009F0BCFE01200BB0BDEC068BBDE8F08F82
:104150004FF4407664251A4807F0B2F80121194A55
:10416000194B12681948A2F8156095619B6A0D24D5
:10417000A0FB03039B091175D36141EC4040012072
:104180000BB0BDEC068BBDE8F08F042005F0D6FA2D
:104190000F4B2060036075E7F8B9011008BA0110F1
:1041A00018BA011028BA01100C2900201829002083
:1041B000D0210020D12C001030BA0110ECB7011032
:1041C00020BA01109C2E002000000B40D34D62103D
:1041D00070C70110C82100204FF4CA7005F0AEFA74
:1041E000C94ECA4A336804460260002B00F077814A
:1041F000C74E63603068002800F03B82DFF85493BC
:10420000A060D9F80000002800F02B82C14FE060C8
:104210003868002800F00882DFF83CA32061DAF853
:104220000060002E00F0D281DFF830A36661DAF87A
:104230000060002E00F09881012300274FF0000A53
:104240009FEDB58A9FEDB5AADFEDB59A9FEDB59AC2
:10425000DFEDB58ADFEDB5AADFF8E4B2B44A84F841
:104260005C30B44BA6612266A266636684ED07AA41
:1042700084ED088AC4ED099AC4ED0CAA84ED0E9A67
:10428000C4ED0F8A84ED14AA84ED158AC4ED169A44
:1042900084ED1B9AC4ED1C8A902027646764A76490
:1042A000E764C4F82CB0C4F834B06767A767E76761
:1042B000C4F8807084F828A005F040FA4FF47A72B0
:1042C0004AF64443DFF898C29B49064680ED0FAAA0
:1042D000C0ED119AC0ED14AA80ED169AC0ED178AB0
:1042E00080ED038A80ED108AC0E901AAC0F870C091
:1042F0000160026103624761876187620763476308
:10430000076647668766C7668767C0F84CB0C0F81F
:1043100054B0C0F81CA080F82CA080F838A080F819
:1043200048A0A0F874A0D9F80000002800F0E480AC
:10433000F067C4F88460902005F000FA002300279D
:104340004FF47A7E4AF6444C9FED746ADFED746A4E
:104350009FED767ADFED737A7849794A436183611C
:10436000836203634363036643668366C36683674E
:10437000DFF8F0B1DFF8E8A1724B064680ED0F6A76
:10438000C0ED116A80ED147AC0ED167AC0E90177AC
:10439000C0F85CB0C0F870A0C0F810E0C0F820C051
:1043A000C1600164C2644265C76180F82C7080F806
:1043B000387080F84870A0F874700360D9F8000075
:1043C000002800F09280F067C4F88860042005F0AF
:1043D000B5F95D4978260160012184F8B810022101
:1043E00084F8CC10032184F8E010042100234FF05E
:1043F0007E52A4F89060C4F88C004FF0050A4FF08C
:1044000006094FF0070E4FF0080C09270A260B206B
:1044100084F8F4104D49C4E92A330968C4E92F33FC
:104420004908C4E926114A49C4E93433C4E9393397
:10443000C4E93E33C4F8A020C4F8B420C4F8C820AE
:10444000C4F8DC20C4F8F02084F8A430C4F8B030FC
:10445000C4F8C430C4F8D830C4F8EC30C4F8003123
:10446000C4F89410C4F80421C4E94333C4E94833C0
:10447000C4E94D33C4E95233C4E95733C4E95C336A
:1044800084F808A184F81C9184F830E184F844C1D0
:1044900084F8587184F86C6184F88001C4F818219C
:1044A000C4F82C21C4F84021C4F85421C4F8682170
:1044B000C4F87C21C4F81431C4F82831C4F83C3164
:1044C000C4F85031C4F86431C4F87831C4E96133B8
:1044D000C4F89021C4F88C31C8F8004024E60120CB
:1044E00005F02CF90346306082E6042005F026F939
:1044F0000760C9F8000066E7042005F01FF9C0F85E
:1045000000A0C9F8000013E7942A00201CC601107F
:10451000A02E0020902A002000007A4400803B4713
:10452000F4FD343F565CE8BF3FBB543F5652003C5D
:10453000FA5C693FFA5CE9BF80C5011000007A446B
:104540005652803BE8C50110B4C50110E8170020A1
:10455000A4C70110002F0020B42E0020D421002079
:1045600000409C463FBB543F4FF48A6005F0E6F89C
:1045700000234FF0FF313A680646C0E90033C0E936
:104580000233C0E90433C0E90733C0E9093383616A
:10459000C0F84014C0F8303480F83434C0F83834EF
:1045A000C0F83C34C0F84434C0F84834002A7CD009
:1045B000D9F80000C6F84C2400286ED00023F06221
:1045C000CAF80060C6F84434336235E6B02005F01E
:1045D000B5F800210646C0E90011C0E90211C0E9A2
:1045E0000411C0E90611C0E90811C0E90A11C0E9C7
:1045F0000C11C0E90E11C0E910114022483011F031
:1046000067FF00210023C6E92211C6E92711CAF875
:104610000060C6F89010C6F89810C6F89430C6F836
:10462000A41086F8A810FFE5402005F087F80023C5
:1046300002464BF6803C0126DFF8ACE042F8043B32
:1046400038604360C2E90133C0E90433C0E906338E
:10465000C0E90DC6C0E90833C0F828E0C36283870B
:10466000DAE5042005F06AF80023C9F800000360C9
:10467000CCE5282005F062F800234FF032114FF40A
:104680008072C0E90033C0E90233C0E9053301613B
:1046900002623060C3614362B0E5042005F04EF869
:1046A0000022C9F80000026088E7402005F046F8C3
:1046B000002301464BF6803E4FF0010CDFF828B096
:1046C00041F8043B024643603860C1E90133C0E968
:1046D0000433C0E90633C0E90DECC0E90833C0F883
:1046E00028B0C362838763E70000205070B5194E7D
:1046F00034680CB1204670BDB02005F01FF80025CD
:104700000446C0E90055C0E90255C0E90455C0E9B6
:104710000655C0E90855C0E90A55C0E90C55C0E97D
:104720000E55C0E9105540222946483011F0D0FE00
:104730000023C4E92255C4E92755C4F898502046FF
:104740003460C4F89050C4F89430C4F8A45084F88D
:10475000A85070BDB42E002038B554220021204846
:1047600011F0B6FE4FF480734FF460621C4D4FF4AD
:10477000FA746B61AB611B4B4FF480502B612A6262
:104780004FF480734FF4807217496C626960174967
:10479000174CA960E86129461648C5E90A23EC6070
:1047A0000FF0A2F860B1144806F08AFD29461148BE
:1047B0000EF0F6FF48B90A490E480FF095F850B9C7
:1047C0000E4806F07DFD012038BD01460C4806F07C
:1047D000F7FD002038BD01460A4806F0F1FDF8E774
:1047E000681F00203D020010B50A0010D10A001019
:1047F000910A00104821002038BA0110C4BA0110F3
:1048000064BA01108CBA011030B58FB00546FFF7BD
:10481000A3FFB8B101230446124A134801A92B7023
:1048200010F016FA38B10F490F4810F01DF980B991
:1048300020460FB030BD01A90B4810F057FA2046B2
:104840000FB030BD094806F03BFD002420460FB0F4
:1048500030BD0146064806F0B3FD064806F030FDBF
:10486000F3E700BF8CBB01104821002070BB011092
:1048700024BB011098BB011070B50B4604468CB0E8
:1048800058490068E36009F077F94FF48032034635
:10489000206907928602821C02F01F0C06F4F8467B
:1048A00046EA0C06504946F08046099146F48016C7
:1048B00021680A96A360DE1DDB0101F12F4143EA66
:1048C000063323F0C04301F5600112090893474DF8
:1048D0000309090D22F4F84242EA832206312A43F1
:1048E000C9B20B9201F0FEF92168206901F12F4154
:1048F00001F56001090D0631C9B2013001F0F2F98C
:104900002168206901F12F4101F56001090D06318F
:10491000C9B2023001F0E6F9012022696168009015
:104920000323206809F072F9314BE268314902FB38
:1049300003F3B1EBB31F13D22F49304B01FB02F24B
:104940009A420BD92E4D284606AB05AA04A902F0BF
:1049500049FB38B929462B4801F02AFA2A4DF2E7DB
:104960002A4DF0E70498DDE9051202F079FA0520F6
:1049700002F070FAE3689FED267A9B01B0FBF3F337
:1049800007EE903AF8EEE77A77EE877ABCEEE77AB0
:1049900017EE103A9BB213B307EE103AB8EE477A0F
:1049A000DFED1C6A77EEC77A67EEA67AFCEEE77A4F
:1049B000CDED037A9DF80C502D02D4E9011245EAA1
:1049C0000345206807AB079509F066F9D4E9002094
:1049D0000123116883400B4313600CB070BD1D466A
:1049E000EBE700BF9069021000000640E083FFFF84
:1049F000D578E92626310800F125BED3BEF10500A1
:104A0000F0490200BCBB0110B0110200803202006C
:104A10000000003B00008043F8B50F4C206800B157
:104A2000F8BD402004F08AFE002302464BF6803693
:104A3000012542F8043B4360C2E90133C0E9043375
:104A4000C0E90633054FC0E90833C0E90A73C0E97D
:104A50000D6520608387F8BD902A0020000020505B
:104A60002DE9F0412F4E346814B12046BDE8F081A5
:104A70004FF48A6004F062FE00254FF0FF312A4FA8
:104A800004463B68C0E90055C0E90255C0E9045539
:104A9000C0E90755C0E909558561C0F84014C0F860
:104AA000305480F83454C0F83854C0F83C54C0F83E
:104AB0004454C0F848546BB11C4DC4F84C342868B9
:104AC00040B30023E06234602046C4F844342362DB
:104AD000BDE8F081402004F031FE02464BF6803EF6
:104AE0004FF0010CDFF8488042F8045B0346456054
:104AF0003860C2E90155C0E90455C0E90655C0E96E
:104B00000855C0F82880C0F834E0C562C0F838C045
:104B10008587D1E7042004F011FE0023286003609C
:104B2000CFE700BFD4210020902A0020002F0020D2
:104B300000002050F0B52A4E04463568CBB0002D59
:104B400037D02021274A6846237806F06BF969465A
:104B5000254808AA0FF0B4FBB0B9099F7B08643B55
:104B6000E3606360214B6A461E682B681E481E4442
:104B70003B442B6008A90123A6600FF08FFC38B1DD
:104B80000023E3604BB0F0BD6FF063030027E7E75D
:104B90003B463246144808A90FF09CFD051E15DB64
:104BA000114808A90FF086FC58B9AF42E8D14BB0C4
:104BB000F0BD042004F0C2FD002305460360306010
:104BC000BFE701460A4806F0FBFBD9E7294609483A
:104BD00006F0F6FB08A904480FF06CFCD0E700BF14
:104BE000002F002014B8011048210020EC170020ED
:104BF00074B80110E4BA01102DE9F041D0E903388E
:104C00002DED028B98ED0D8A0022B8EE488A0546FC
:104C10001A6080ED078A18EE100A16F069FD064644
:104C20000F46286A16F064FD7DA3D3E9002303F044
:104C300095F93B46324603F0B7F903F003FA044610
:104C400004F012FCD5ED097A07EE100A77EEA77A88
:104C50002046C7EE278A04F00AFC95F8283007EEB4
:104C6000900A002B40F0B380F7EE005AB8EE006ACD
:104C700075EEE76A38EEA55AB6EE007A67EE867AE8
:104C800026EE877A85EE856A75EEE88A27EE067A43
:104C900066EE266A67EE867A68EE868A85ED0B7A7E
:104CA000C5ED0C6A85ED0D7AC5ED0E7AC5ED0F8A5E
:104CB00085ED148A686D16F01BFD59A3D3E9002316
:104CC00003F04CF93B46324603F06EF903F0BAF9B3
:104CD000044604F0C9FBD5ED167A07EE100A77EE0C
:104CE000A77A204687EE278A04F0C1FB95F85C304E
:104CF00007EE900A002B43D1F7EE005AB8EE006A97
:104D000075EEE76A38EE255AB6EE007A67EE867AD7
:104D100026EE877A85EE856A35EEC88A27EE067A12
:104D200066EE266A67EE867A28EE068A85ED187AA0
:104D3000C5ED196A85ED1A7AC5ED1B7A85ED1C8AD9
:104D4000D5F884004146036805F1A4045B699847DF
:104D5000D5F88800296903685B699847D5F88C0005
:104D60002969036805F5CA755B69984720461434BC
:104D7000FFF7E0FEA542F9D1BDEC028BBDE8F08162
:104D8000012BDDD1B7EE005AB8EE007A37EE856A16
:104D9000F6EE006A78EE054A67EE877AC5EE245A89
:104DA00066EE266A35EE487A66EEA56A26EE656AF4
:104DB00067EEA57A27EE257AC5ED186A85ED196AA2
:104DC000C5ED1A6AC5ED1B7A85ED1C7AB8E7012B93
:104DD0007FF46EAFB7EE005AB8EE007A37EE856A10
:104DE000F6EE006A78EE854A67EE877AC5EE245AB9
:104DF00066EE266A35EE687A66EEA56A26EE656A84
:104E000067EEA57A27EE257AC5ED0B6A85ED0C6A6B
:104E1000C5ED0D6AC5ED0E7A85ED0F7A48E700BF46
:104E2000182D4454FB2119402DE9F04F2DED028B34
:104E30008FB006F0BBF90921002000F053FF084AAB
:104E400008491368086843F400631360FFF7DCFC4B
:104E500050B901200FB0BDEC028BBDE8F08F00BF50
:104E600000800C408C2A00204FF03212AD4BAE492E
:104E70001B68AE489960AE495862C3E9031209F055
:104E800041F81C20FCF74EF81D20FCF74BF80D20D4
:104E900000F06AFF4FF001050D2345EC44300C2073
:104EA00000F062FF00240C2044EC44000121224663
:104EB00000F036FF142000F057FF142345EC443077
:104EC000132000F051FF132345EC443099499A4ACE
:104ED000CDE90A140D920992984A0DF128090C9215
:104EE0000892974B04AA069199E8030082E8030010
:104EF0001B68079493E8030089E8030092E8030025
:104F000083E80300D3E902450C9A0C949A600D9A49
:104F10000D95DA601CB1032249464846A047089B1C
:104F20000DF1180B1BB10322594658469847002231
:104F30004FF0FF31834B1C68814B1B6883F834248E
:104F4000C3F84014C3F83824C3F83C249A62C3F869
:104F50003024C3F848247C4B63627C4B236094F874
:104F60003C30B3B97A4801F025FA4AF6444104F1DD
:104F70002800FFF781FC012384F83C30636A03B109
:104F80009847012384F83D3008F022FF714808F06B
:104F900095FF0023CDE90B3307936F4B04AE0A93C3
:104FA00006936E4B99E803001C6886E803006C4A80
:104FB0006C4D0992089504F1980393E8030089E881
:104FC0000300D6E9000183E80300D4F8A030D4F848
:104FD000A4100C93C4F8A0500D91C4F8A4201BB1E8
:104FE0000322494648469847012384F8A830089B85
:104FF0001BB1032259465846984700230B93574B41
:10500000594D1868594C5A4B494628300A930D950A
:105010000C94FCF7BBFB0C9B1BB103224946484692
:10502000984700230B934D4B49461868514B083065
:105030000A93CDE90C45FCF7A9FB0C9B1BB103229D
:1050400049464846984700230B93444B4946186805
:10505000494B18300A93CDE90C45FCF797FB0C9BA4
:105060001BB10322494648469847444C47F6122153
:10507000204601F0A1FD002301220821204601F075
:105080001DFE236B3E4A03F4404313630121204677
:1050900001F04CFE0221052000F024FE0221042034
:1050A00000F020FE00220121052000F039FE9FEDD6
:1050B000358ADFF8E8A0344B344A9B6AA2FB03230D
:1050C000184A9B091468227DDAB1E269A1699A1A2B
:1050D0008A4216D34FF050414968627D11F4005F57
:1050E0004FF00D0100F09D814FF0000040EC4010AA
:1050F000A17DE361914204D800220D21227542EC8A
:1051000040106268934200F092800421204A63605C
:105110001368204883F4005303F4704303601E4B6C
:1051200019603DE09C2E0020D1090010C10900103B
:10513000E1090010C53F0010350A0010950F00105E
:10514000302F0020182900204109001051090010BB
:1051500010290020D12C0010F1090010B02E0020E1
:105160003D0A0010BD0F0010450A0010E50F0010A9
:10517000A10900106109001081090010008007409A
:10518000009007408845C84D00000B40D34D621089
:1051900000000A4000100A4000200A40130080006E
:1051A0001368DF05FCD5536894F8211098B239B91B
:1051B0002288131A002B228AB8BF5B42934205DD76
:1051C000A368208013B1984794F8211004209B4ACB
:1051D0009B4D136883F4405303F470432B60994B49
:1051E00018601368DE05FCD5536898B239B9628837
:1051F000131A002B628AB8BF5B42934203DDE36857
:10520000608003B198474FF050435A68D50400F1CD
:10521000BA8094F82020002A40F00B81636A0120B4
:105220009847012384F82030002384F82130864CED
:10523000864BA6691D6816F010063AD105F13808AC
:10524000A369D906FCD423682A79DFB212B1A26916
:10525000920668D5F72F54D81B0661D42B782BB350
:10526000E9784A1CD2B22944012AEA704F701DD94C
:1052700003F0F00190296878AA78EE7003F00F032C
:1052800000F0A380B02900F08E8080290ED1296A19
:1052900061B18DF810308DF818008DF828204B463C
:1052A0005A466F6A04A905F11800B847A369DF06DA
:1052B000C6D5674B1C6894F8340400283DD0002004
:1052C00005F076FF851C16D00A2800F0C9800D284D
:1052D00000F0C680D4F84834B3F5001F80F0F881A0
:1052E000D4F84424591CC4F84814D054D4F83C349D
:1052F0000133C4F83C34574B186803681B6998475E
:10530000D9E695F8A8300BB1F82F2BD02B6C002BD9
:10531000CCD08DF82870494640466B6C9847C5E75D
:105320002F70EE70C2E74C4AB2F90220BA4223D085
:10533000A2699206FCD427608CE705F039FF821C35
:10534000D9D00A28D4F8303452D00D2850D040F2A9
:10535000FE329342CFDC5A1C2344C4F8302483F835
:105360003000C8E7D5F89030172B03F1010200F0A8
:10537000BF81C5F89020C9E733498A699006FCD4FB
:105380000D220A60D4E75B68D8047FF54DAF94F82E
:105390002030002B3FF448AF636A00209847002379
:1053A00084F8203040E7296B00293FF47FAF8DF867
:1053B00010308DF818008DF828204B465A466F6B38
:1053C00004A905F12800B84770E72969002900F011
:1053D0001682002A40F005822A6A002A3FF466AF4E
:1053E0008DF8103000238DF818008DF8283056E71E
:1053F000002B80DD0022234483F83020A368C4F80A
:10540000302404F130053BB149462046E3680A9553
:10541000984700287FF46FAF2946104805F0D0FF69
:1054200069E74FF0010040EC40100132D2B26275E2
:105430005EE65B68DB04AFD4F6E600BF00000A401E
:1054400000100A4000200A4000800740B02E0020D3
:10545000302F00200C290020182F002090BC0110B4
:10546000D4F83C149C4805F0ABFFD4F84404002861
:1054700000F0AA80236A0193002B00F0A580D4F8E5
:105480004824032A40F2DD81002303211D468E4675
:105490000294CDF80CB0934280F0A7805C1E0444C7
:1054A00014F8011F0939C9B217292AFA01F600F2C6
:1054B0009C80F10740F1998001339A42F0D1114666
:1054C0000B1D9A42C0F096804418844F6478465C65
:1054D0003C5DBE5D00943C46009F01F1030C3F091A
:1054E00047EA86078E1C10F8068010F80CB014F8F6
:1054F0000880019C6755875D784C3D2F14F80B6040
:1055000005F1010B00F0D280009C019F240144EAC8
:10551000980407F80B4010F80C4002353D2C03D0DE
:1055200046EA88167E55754608318A42C0F0C38027
:1055300005F1030EBEF5001FADD99A42DDE9024B1D
:1055400000F269816562A36A043D9D4228BF1D4641
:10555000266A2F464FF0FF333168CDB18E46F51CD9
:1055600005EB070C15F8012F5D4982EA030000F0F6
:105570000F0051F82000654580EA131080EA1213ED
:1055800003F00F0351F8233083EA1013EAD1714678
:10559000DA43914240F03B81A36943B104364A4665
:1055A0005946E3690A97069604F110009847D4F823
:1055B0004C546B6A03B19847012385F83D3008F0DD
:1055C00007FC484808F07AFC00234FF0FF3284F8CB
:1055D0003434C4F84024C4F83834C4F83C34A362EA
:1055E000C4F83034C4F8483485E619460B1D9A4295
:1055F000BFF46AAF9142DDE9024B61D20B46013B39
:10560000C1180023013A86180A9311F8017F03F1AB
:1056100038020DEB020CA7F10902D2B2172A2AFABE
:1056200002FE03F1010000F202811EF0010F00F002
:10563000FE80B142E9D11846002841D0042805D0A7
:10564000C0F104023D21484410F042FF234E9DF872
:1056500029309DF82820F35CB15C1A0942EA8102E6
:1056600001999DF82A709DF82B004A5532463D2F2E
:10567000F65D125C05F1010100F0E680B1F5001F56
:1056800000F0E480019F1B0143EA96033D287B5410
:1056900005F1020300F0E180B3F5001F00F0D680B1
:1056A000019942EA8612CA54033509E008318A4258
:1056B0005D46BFF43DAF9A42DDE9024B00F2AB809C
:1056C000032D65623FF63FAF074805F0F9FD7BE724
:1056D000064805F0F5FD77E7F0BB0110A869021058
:1056E00050690210D12C00101CBC011078BC0110B4
:1056F0000023C5F89030D5F88830009301F024FAE3
:10570000009B95F88CC005EBC303C3E91201D5F8E3
:1057100088104B1C584203F007031A4600F007009C
:1057200058BF42429646BCF1000F4CD001F1090C23
:1057300002F1090155F83C0055F8312005EBCC0C7D
:1057400005EBC101DCF804C04968801A6CEB01016B
:10575000002968DB50EA010C35D0CDE900E303F005
:1057600019FC06EE100AF6EE007A95ED257AC8EEE1
:10577000066A37EE277A76EEA77AFCEEE77ABDEE78
:10578000C77A17EE903A99B217EE103A8B42C5EDF0
:10579000256ADDE900E316D0D5F8A00098B1D5F868
:1057A000A430ADF8281005F1980049469847D5F87F
:1057B00088300133594203F007031A4601F007010C
:1057C00058BF4A429646C5F888E0002B7FF49EAD4C
:1057D00095F88C30002B7FF499AD012385F88C303F
:1057E00094E58DF810308DF818008DF828204B4680
:1057F0005A466F6904A905F10800B84756E5296AB9
:1058000000293FF453AD002A7FF450ADE8E5144879
:1058100005F0D6FDD8E6B5F5001F7FF4F0AE656261
:105820004FF400158FE6404261EB410195E7B1422C
:105830000CF8107C3FF400AF04283FF407AF034698
:10584000E3E63AB962623FE70D4639E74FF40013E9
:105850006362E5E700231D46D1E61D4630E700BF41
:1058600040BC01102DE9F047C64C2068F0B1C64D90
:10587000C64A2B681060F3B1C54EC64A3068136043
:1058800070B3C54BC54F1860FFF7C6F8C44B18601E
:10589000FEF72CFFC34B1860FFF7E2F8C24B3C68E1
:1058A000186024B3C14B1C60BDE8F087012003F0F1
:1058B00045FF2060DBE7282003F040FF4FF0321463
:1058C00000224FF480710346C0E90022C0E90222A1
:1058D000C0E90442C0E90622C0E908122860CBE70B
:1058E000042003F02BFF002330600360C9E74FF46E
:1058F000207003F023FF04464FF42072002110F0C3
:10590000E7FDAB4B28682360002800F02781DFF813
:10591000C4926060D9F80050002D00F08581DFF856
:10592000B882D8F80000A560002800F05F8100254B
:105930004BF6803332229F49C4E91A35C4E91E353B
:10594000E0606161616261636164616561666167B4
:10595000C4F88410A361A362A363A364A365257440
:10596000E5612584E5622586E563A4F84050E56499
:10597000A4F85050E565A4F86050A4F87050A4F85D
:105980008050C4E92235C4E925138B49C4E92A357E
:10599000C4E92E35C4E93235C4E93635C4E93A35AF
:1059A000C4E93E35C4E94235C4F8A410C4F8B410C3
:1059B000C4F8C410C4F8D410C4F8E410C4F8F41047
:1059C000C4F80411A4F89050C4F89C50A4F8A05056
:1059D000A4F8B050A4F8C050A4F8D050A4F8E050F7
:1059E000A4F8F050A4F80051A4F81051C4F8141110
:1059F000C4F824117149C4E94635C4F83411C4F817
:105A00004411C4F85411C4F86411C4F87411C4E901
:105A10004A35C4E94E35C4E95235C4E95635C4E9BE
:105A20005A35C4E95E3584F8422184F8522184F85D
:105A3000622184F87221A4F82051A4F83051A4F80E
:105A40004051A4F85051A4F86051A4F87051A4F842
:105A5000805184F8822184F8922184F8A22184F86C
:105A6000B22184F8C221564AC4E96113C4E965131E
:105A7000C4E97123C4E97523C4E97923C4F8A411E6
:105A8000C4F8B411C4E96A35C4E96E354820C4F8D5
:105A90008C51A4F89051C4F89C51A4F8A051A4F8DA
:105AA000B051A4F8C051C4F8CC51A4F8D051C4F8F6
:105AB000DC51A4F8E051C4F8EC51A4F8F051C4E969
:105AC0007D23C4E98123C4E98523C4E98923C4E98A
:105AD0008D23C4F84422C4E99235C4F8FC51A4F8DB
