:020000041000EA
:10000000002008205D0100101301001015010010F0
:100010001101001011010010110100101101001058
:100020001101001011010010110100101701001042
:100030001101001011010010190100101B01001026
:100040001D0100101D0100101D0100101D010010F8
:100050001D0100101D0100101D0100101D010010E8
:100060001D0100101D0100101D0100101D010010D8
:100070001D0100101D0100101D0100101D010010C8
:100080001D0100101D0100101D0100101D010010B8
:100090001D0100101D0100101D0100101D010010A8
:1000A0001D0100101D0100101D0100101D01001098
:1000B0001D0100101D0100101D0100101D01001088
:1000C0001D0100101D0100101D0100101D01001078
:1000D0001D0100101D0100101D0100101D01001068
:1000E0001D0100101D0100101D0100101D01001058
:1000F0001D0100101D0100101D0100101D01001048
:100100001D0100101D0100101D0100101D01001037
:1001100000BE00BE00BE00BE00BE00BEEFF3058004
:10012000103800BEF2EB8871909C0210B49C021053
:10013000A801001090A31AE7D3DEFFFF42012110AF
:10014000FF010000D8B90200793512AB4FF0000072
:100150002049086006C881F3088810474FF05040D6
:10016000006810B14FF00000F2E70FA40ECC002998
:1001700002D000F015F8F9E71749184A002000E00E
:1001800001C19142FCD1002080F30A8814498847BC
:10019000144988471449884700BEFDE701C901C2D8
:1001A0009A42FBD3704700BFB49C0210100100209C
:1001B0006C1F002010BB0210000008200000082067
:1001C00010BB0210001008200010082000000000E2
:1001D0007047000008ED00E06C1F00201431002083
:1001E000ED730010891E0010B1730010F8B500BF48
:1001F000064B0749C91A891048BF0131491003D07D
:10020000044B0BB101481847704700BF6C1F00201A
:100210006C1F00200000000008B5054B1BB105490C
:100220000548AFF30080BDE80840FFF7E1BF00BF1D
:1002300000000000A02F0020247C01100020704747
:1002400003680888184700BF10B40468087811785C
:100250001A7823465DF8044B184700BF0368086806
:10026000184700BFC269034602FB01F110B501F552
:100270000010EFF3108472B6D96917F095FC84F37F
:100280001088002010BD00BF944608B5C0690CF16D
:10029000815C00FB01C1029A184612F091FD00201A
:1002A00008BD00BF2DE9F047C769804638460C46B7
:1002B00091461E4601FB07FA05F046FC38B3054699
:1002C0003A460AF1815112F07BFD3146089A05EB5E
:1002D000090012F075FDEFF3108672B6D8F81C1005
:1002E00004FB01F000F5001017F05EFCD8F81C20AC
:1002F000294604FB02F000F5001017F031FC86F3EC
:100300001088284605F05AFC0020BDE8F0876FF001
:100310000B00FAE7014807F01BBA00BF287C011068
:1003200010B51F21044602F0A1FC00222046114610
:1003300002F0BAFC2046BDE81040002102F0C8BC23
:10034000012A02D022B100207047016000207047CE
:1003500002600020704700BF012A06D0022A0AD09E
:10036000032A00D022B100207047016000207047AE
:100370000260002070470B6803600020704700BFD8
:10038000012A06D0022A0AD0032A00D022B1002076
:1003900070470160002070470260002070470B68C2
:1003A00003600020704700BF012A06D0022A0AD04D
:1003B000032A00D022B1002070470160002070475E
:1003C0000260002070470B6803600020704700BF88
:1003D000012A06D0022A0AD0032A00D022B1002026
:1003E00070470160002070470260002070470B6872
:1003F00003600020704700BF2DE9F047042294B04D
:100400007949044612F080FB002800F0BA800622E9
:100410002046764912F078FB002800F0D1801422A3
:100420002046734912F070FB054618B1002014B045
:10043000BDE8F0874FF0FF3605AB00936D4904AB84
:1004400003AA04F11400CDE90366059612F0AEF993
:10045000002800F0B180039B0B2B00F2AD80049FBD
:10046000002F40F3A980059E002E40F3A580624A2C
:10047000DFF8AC91DFF8ACA1B6F5001FCDE9083587
:100480001468CDF82C90CDF828A000F39D80CDE91C
:10049000105510AD022208A90DF130082846FFF7CB
:1004A0005BFF95E8030088E8030004F1100393E87C
:1004B000030085E8030098E8030083E80300A369CC
:1004C000E2691293C4F818A01392C4F81C901BB1EF
:1004D000032229462846984700230122A762E76A9B
:1004E000C4F83864C4F83C34C4F83034C4F8483430
:1004F00084F83424414A3968106801F50016D4F8AC
:100500004C240644084401F58001C4F844043960D1
:1005100026620C93C8E901330F9382F83D301093A3
:10052000C5E9013306AC139395E8030084E80300A2
:10053000131D93E8030085E8030094E8030083E8B3
:1005400003001299D36810691293D1601399139024
:1005500011611BB103222946284698470E9B1BB107
:1005600003224146404698470A9B1BB108A9032233
:1005700008469847DDE903230599214807F068F903
:1005800016E04FF4407664251E4807F0E1F801219B
:100590001D4A1E4B12681E48A2F8156095619B6AA1
:1005A0000D24A0FB03039B091175D36141EC40406E
:1005B000012014B0BDE8F087164807F0C9F835E708
:1005C000154807F0C5F8F3E74FF400123146134819
:1005D00007F03EF90A9B002B3FF428AF08A903223D
:1005E0000846984722E700BF387C0110487C01107C
:1005F000587C0110707C011004310020F417002099
:10060000F07C0110407C01104C2F002000000B40BA
:10061000D34D62107C7C0110507C0110C87C01100D
:10062000A50F001059030010002370B586B002AD6D
:1006300002930593C5E901338B680446F3B10E4676
:10064000022228469847D6E90231A668A36004969C
:10065000E368E16095E80300CDE9000194E8030058
:10066000059385E80300DDE9000184E803001EB17D
:10067000032229462846B04706B070BD1946E4E774
:10068000F0B4A94A2DED028B1368EFF3108172B616
:10069000D3E8CF5F0124002DFAD1C3E8454F002DE8
:1006A000F6D1BFF35F8FA14CA14D23682D68DFED1C
:1006B000A17AAB4251600ED29F4D2D6835F913508F
:1006C000013307EE105A23609C4BBAEEE87AD3ED63
:1006D000006AE7EE267A9A4B9D6825B15C68DE6871
:1006E000B442C0F0C9829FED937ADD6977EE877AD4
:1006F00025B19C691E6AB442C0F0A8829FED8D7A34
:100700001D6B77EE877A25B1DC6A5E6BB442C0F070
:1007100087829FED887A5D6C77EE877A25B11C6CB5
:100720009E6CB442C0F066829FED827A9D6D77EE3A
:10073000877A25B15C6DDE6DB442C0F045829FEDD5
:100740007D7ADD6E77EE877A25B19C6E1E6FB4429E
:10075000C0F02482DFED775AD3F8805075EEA75AA7
:100760002DB1DC6FD3F88460B442C0F001829FEDFC
:10077000717ADFED707AD3F8945037EE277A35B17D
:10078000D3F89040D3F89860A64200F2DA81D3F80B
:10079000A85077EE877A35B1D3F8A440D3F8AC608F
:1007A000B442C0F0B7819FED637AD3F8BC5077EEC6
:1007B000877A35B1D3F8B840D3F8C060B442C0F0FE
:1007C00092819FED5C7AD3F8D05077EE877A35B17D
:1007D000D3F8CC40D3F8D460B442C0F06D819FED23
:1007E000557AD3F8E45077EE877A35B1D3F8E04004
:1007F000D3F8E860B442C0F048819FED4E7A37EEFE
:10080000276A4FF0000C1368C3E88FCF81F310887C
:100810004C494D4AD1ED097A91ED057A91ED048A62
:1008200027EE877A91ED0A0AA5EE887AC1ED095A7A
:10083000D1ED065AD1ED0B4AD1ED070AA5EE807A2B
:10084000D2ED096AD1ED0C1A92ED054A91ED081A24
:10085000A0EEE47A92ED042AA1EE617AC1ED0A7A63
:1008600066EE847A92ED0A3AD2ED062AE2EE077A33
:1008700092ED0B5AD2ED073AE2EE837AC2ED0A6AA4
:1008800092ED084AD2ED0C6AE3EEC57AE4EE667AA0
:100890002E4BC1ED0C4A1C6882ED0C5A81ED0B7A8F
:1008A00082ED097AC2ED0B7A002C00F0B680DE688A
:1008B000D3ED086A05EE906A93ED0B7AF8EE655A6F
:1008C000D3ED054A9FED225A75EEE63A34EEC74A5B
:1008D000E3EE856AA4EE057A93F82820C3ED086A52
:1008E00083ED0B7A5D68CAB176EEE55AB6EE005A32
:1008F000F0EEE55AF4EEC55AF1EE10FA0ED5D3ED4E
:10090000095AFCEEE55A15EE906A012E38BF012611
:10091000AE4228BF2E4683F828C0DE6093F834200C
:10092000002A40F0A0801FE008290020502A002063
:100930004C2A002000000000EC170020E8170020DF
:10094000C02F0020602F0020182B0020542A0020E8
:100950000AD7A33B6666663F00000047000000C759
:1009600000FEFF460AD7233CFCEEE66A16EE907ABC
:100970009A6993ED175A5119C91BB1FBF5FC93ED18
:10098000137A05FB1C1104EB8101D1ED006AD3ED54
:10099000121A25EE077AD3ED182A93ED142AA6EE43
:1009A000A17AD3ED195A93ED153AA2EE227A93ED7E
:1009B0001A4AD3ED163AA3EE657AD3ED044AC3ED95
:1009C000176AA3EEC47AF0EE676A04EB8204013280
:1009D000B2FBF5F1E7EE246A05FB112283ED185A0C
:1009E000C3ED1A5A83ED197AC4ED006A9A61A6B173
:1009F00093ED0B5AF7EE005A5FED2A6A75EEC55A71
:100A0000F4EEE65AF1EE10FA27EE057A58BFF0EE52
:100A1000656AA7EEA67AF0EE477ABDEC028BF0BCD1
:100A200036EE277A1FED346A5FED346A27EE067AD8
:100A3000B4EEE67AF1EE10FA5FED377A48BFB0EE29
:100A4000667AB4EEE77AF1EE10FA77FE877AFDEE79
:100A5000E77A17EE903A00221BB263F30F0263F3BA
:100A60001F420260704737EE647A5FED425AB0EE83
:100A7000C77AB4EEE57AF1EE10FA7FF575AF1A6B2E
:100A80005A61002283F834206EE735F91450D3ED13
:100A90003B6A07EE105AB8EEC77A27EE267ABDEE0B
:100AA000C77A0134C3F8E04017EE103A1BB207EEE4
:100AB000103ABAEEE87AA2E635F91450D3ED366A68
:100AC00007EE105AB8EEC77A27EE267ABDEEC77A3F
:100AD0000134C3F8CC4017EE104A24B207EE104A96
:100AE000BAEEE87A7DE635F91450D3ED316A07EEB7
:100AF000105AB8EEC77A27EE267ABDEEC77A0134CF
:100B0000C3F8B84017EE104A24B207EE104ABAEE06
:100B1000E87A58E635F91450D3ED2C6A07EE105AEE
:100B2000B8EEC77A27EE267ABDEEC77A0134C3F84D
:100B3000A44017EE104A24B207EE104ABAEEE87A43
:100B400033E635F91450D3ED276A07EE905AF8EEE4
:100B5000E77A67EEA67AFDEEE77A0134C3F89040B3
:100B600017EE904A24B207EE904AFAEEE87A0EE6C3
:100B700035F91450D3ED227A07EE105AB8EEC77A41
:100B800027EE277ABDEEC77A0134DC6717EE104AEC
:100B900024B207EE104ABAEEE87AEAE535F91450C5
:100BA00093ED1D7A05EE905AF8EEE55A65EE875AF8
:100BB000FDEEE55A01349C6615EE904A24B205EE2E
:100BC000904AFAEEE85AC7E535F91450D3ED186AA1
:100BD00007EE105AB8EEC77A27EE267ABDEEC77A2E
:100BE00001345C6517EE104A24B207EE104ABAEEE3
:100BF000E87AA6E535F91450D3ED136A07EE105ADA
:100C0000B8EEC77A27EE267ABDEEC77A01341C64A7
:100C100017EE104A24B207EE104ABAEEE87A85E5DC
:100C200035F91450D3ED0E6A07EE105AB8EEC77AB4
:100C300027EE267ABDEEC77A0134DC6217EE104A41
:100C400024B207EE104ABAEEE87A64E535F914509A
:100C5000D3ED096A07EE105AB8EEC77A27EE267A66
:100C6000BDEEC77A01349C6117EE104A24B207EE3C
:100C7000104ABAEEE87A43E535F91450D3ED046A28
:100C800007EE105AB8EEC77A27EE267ABDEEC77A7D
:100C900001345C6017EE104A24B207EE104ABAEE37
:100CA000E87A22E5234B82B2A3F87020002A40D0D4
:100CB00093ED1D7AB5EEC07AF1EE10FA39DD07EE4C
:100CC000902ADFED1D6AF8EEE77A93ED076A67EE8A
:100CD000266AF8EE465A86EEA77A67EE257AFCEE8B
:100CE000E77A17EE902A596893ED086A8A4228BF7E
:100CF0000A4607EE902AB8EE677A76EE477AB6EEA5
:100D0000005AF0EEE77AF4EEC57AF1EE10FA05DD5E
:100D1000012283ED097A83F828207047012A38BF21
:100D200001228A424FF0000028BF0A4683F82800BB
:100D3000DA607047542A00200000704207EE102A43
:100D4000DFED2B6AB8EEC77AC7EE267A294B10B4CE
:100D5000A3FB0143DB0803EB4303274AA1EB830119
:100D600011F0FF0167EEA77A10681DD1EFF3108331
:100D700072B6D0E8CFCF0124BCF1000FF9D1C0E8A2
:100D80004C4FBCF1000FF4D1BFF35F8F1B481C4CDC
:100D90005360C4ED007A12680160C2E88F1F83F3CC
:100DA00010885DF8044B7047EFF3108472B6D0E8FA
:100DB000CFCF0123BCF1000FF9D1C0E84C3FBCF10B
:100DC000000FF4D1BFF35F8F16200E4B01EB8101B2
:100DD00003EB81035460C3ED047A0021126858606C
:100DE000C2E88F1F84F310885DF8044B704700BF82
:100DF0000000FE42ABAAAAAA08290020502A00201F
:100E0000E8170020C02F002030B5344B8BB01C6891
:100E1000002836D00D234FF0010242EC4030002272
:100E20002F49CDE90622099105912E4906AB08917B
:100E3000049193E80300CDE90001029284F83D207B
:100E4000039204F1040C9CE8030083E80300DDE94D
:100E500000018CE80300089AE5680999E2602269BC
:100E6000EE460895216109921DB1032219461846E4
:100E7000A847049B1BB102A90322084698470BB060
:100E800030BD636A03B19847012384F83D3009F00F
:100E9000E7F9154809F05AFA00230D2243EC4020E7
:100EA000124A1068EFF3108172B6D0E8CF5F0124C8
:100EB000002DFAD1C0E8454F002DF6D1BFF35F8F6A
:100EC0000B480C4C03600C48516004601268C2E887
:100ED0008F3F81F310880BB030BD00BF1029002078
:100EE0001503001041030010FD0E0010082900201A
:100EF000502A0020CDCC4C3FE8170020F0B5274DFC
:100F000083B02C685CB32368012501A89847E06A88
:100F1000019F00F11002A16A05FA02F24B68134228
:100F2000FCD194F83D60043041F820700EB1236884
:100F3000EBE7E3688BB1251D236928469847E368F2
:100F40002BB10322294628469847C4E90366E36982
:100F50001BB1236A04F11400984703B0F0BD402090
:100F600004F03CFE002201464BF680370126DFF8F4
:100F700030C041F8042B044642601346C1E9012207
:100F80002860C0E90422C0E90622C0E90822C0E9BD
:100F90000D76C0F828C0C2628287B5E70C2B00200E
:100FA0000000205070B5134604468C469EB02021A8
:100FB0001D4A1E6801A82378DCF8005006F07AF973
:100FC00040F20253194801AA09A90FF0AFFC98B9E1
:100FD00009A9334615482A1D0FF0DAFD011E16DB5C
:100FE000124809A90FF0AEFCC8B9216810481EB01C
:100FF000BDE8704006F02CBC01460E4806F028FC07
:1010000021680D481EB0BDE8704006F021BC0B48B9
:1010100006F01EFC09A905480FF094FCF0E7014614
:10102000074806F015FCEBE7387D01105021002041
:10103000B87D01104C7D0110CC7D0110787D011030
:10104000987D01100000000007EE900A9FED427AA3
:10105000F8EEE77AC7EE877AF8B517EE901A2DED1D
:10106000028B3E4804F0C8F9B3EE047A07EE900A0A
:1010700067EE877A3A4C17EE900AC4ED017A16F0C3
:101080007FFD33A3D3E9002303F08CFA06462068E2
:101090000F4616F075FD0B4602463946304603F002
:1010A000A7FA03F0F3FA054604F02EFCD4ED027A19
:1010B00007EE100A77EEA77A284687EE278A04F013
:1010C00026FC237B07EE900A33BBF7EE005AB8EEFE
:1010D000006A75EEE76A38EE255AB6EE007A67EEDA
:1010E000867A26EE877A85EE856A35EEC88A27EEFF
:1010F000067A66EE266A67EE867A28EE068A84ED20
:10110000047AC4ED056A84ED067AC4ED077A84EDAD
:10111000088ABDEC028BF8BD012BFAD1F7EE005A1C
:10112000B8EE006A77EEA56A38EE255AB6EE007A78
:1011300067EE867A26EE877A85EE856A35EEC88A6E
:1011400027EE067A66EEC66AD5E700BFAFF30080E9
:10115000182D4454FB21194000F07F4500007A44CB
:10116000182B00200000000007EE100ADFED426A95
:10117000B8EEC77AF8B5C7EE267A2DED028BF7EEFA
:10118000008A78EEE77A67EEA77A3C4817EE901A65
:1011900004F032F99FED3A7A07EE900A67EE877A0B
:1011A000384C17EE900AC4ED017A16F0E9FC30A332
:1011B000D3E9002303F0F6F9064620680F4616F03F
:1011C000DFFC0B4602463946304603F011FA03F0C5
:1011D0005DFA054604F098FBD4ED027A07EE100A9A
:1011E00077EEA77A284687EE278A04F090FB237BC8
:1011F00007EE900A23BB38EE285A78EEE76AB6EE7F
:10120000007AF8EE005A88EE856A26EE877A38EE84
:10121000C88A67EEA57A66EE266A27EE067A67EE3A
:10122000867A28EE068AC4ED056A84ED047A84ED98
:10123000067AC4ED077A84ED088ABDEC028BF8BD0E
:10124000012BFAD138EE285A77EEA86AB6EE007A6A
:10125000F8EE005A88EE856A26EE877A38EEC88A5C
:1012600067EEA57A66EEC66AD7E700BFAFF30080E7
:10127000182D4454FB21194000F07F450000C8435D
:1012800000004842602F0020F8B547292DED028B61
:1012900000F001814A2900F0B181143903292BD8CB
:1012A000DFE801F0B19B022D07EE902AC84BF8EE63
:1012B000E77A93ED055ADFEDC74A93ED0B7A87EE97
:1012C000A46AF7EE006A77EE457AB4EEE66ADFEDDF
:1012D000C25AF0EEE77AF1EE10FAF4EEE57A76FE15
:1012E000866AF1EE10FACBBF01220022C3ED0C6A30
:1012F000C3ED056A83F83420BDEC028BF8BD07EE20
:10130000902ADFEDB46AF8EEE77AF7EE008A87EE0E
:10131000A67A78EEC77A67EEA77AB04817EE901AE9
:1013200004F06AF89FEDAE7A07EE900A67EE877ACE
:10133000A74C17EE900AC4ED1B7AC4ED0F7A16F095
:101340001FFCA1A3D3E9002303F02CF90646A06BF0
:101350000F4616F015FC0B4602463946304603F0A0
:1013600047F903F093F9054604F0CEFAD4ED107A6C
:1013700007EE100A77EEA77A284687EE278A04F050
:10138000C6FA94F8443007EE900A002B40F003812F
:1013900038EE285A78EEE76AB6EE007AF8EE005A90
:1013A00088EE856A26EE877A38EEC88A67EEA57AD7
:1013B00066EE266A27EE067A28EE068A67EE867AB9
:1013C00084ED168ABDEC028BC4ED136A84ED127AAB
:1013D00084ED147AC4ED157AF8BD07EE902ABDECC1
:1013E000028BF8EEE77A9FED7B6A9FED7E7AC7EE7F
:1013F000866AF4EEC76AF1EE10FA754B37FE267A6C
:1014000083ED047AF8BD07EE902ADFED726AF8EEFC
:10141000E77AB6EE006A87EEA67A67EE067A6C4B3C
:10142000B3F87020C3ED1D7A002A3FF465AFF5EEE6
:10143000C07AF1EE10FA7FF75FAF9FED6B7A06EEA0
:10144000902AD3ED075A67EE877AF8EEE66AB8EE8F
:10145000655A87EEA67A67EE057AFCEEE77A17EE14
:10146000902A5968D3ED085A8A4228BF0A4607EEE7
:10147000902AB8EE677A75EEC77AF0EEE77AF4EE66
:10148000C67AF1EE10FA40F33981012283ED097A30
:1014900083F8282030E7520107EE902ADFED566AE4
:1014A000F8EEE77AF7EE008A87EEA67A78EEC77A4A
:1014B00067EEA77A4D4817EE901A03F09DFF9FED57
:1014C0004C7A07EE900A67EE877A4A4C17EE900A3C
:1014D000C4ED017A16F054FB3BA3D3E9002303F0DB
:1014E00061F8064620680F4616F04AFB0B46024696
:1014F0003946304603F07CF803F0C8F8054604F09E
:1015000003FAD4ED027A07EE100A77EEA77A28469E
:1015100087EE278A04F0FBF9237B07EE900A23BBB2
:1015200038EE285A78EEE76AB6EE007AF8EE005AFE
:1015300088EE856A26EE877A38EEC88A67EEA57A45
:1015400066EE266A27EE067A28EE068A67EE867A27
:1015500084ED088ABDEC028BC4ED056A84ED047A43
:1015600084ED067AC4ED077AF8BD012B7FF4C4AE92
:1015700038EE285A77EEA86AB6EE007AF8EE005AEE
:1015800088EE856A26EE877A38EEC88A67EEA57AF5
:1015900066EEC66AD6E7012B7FF4AEAE38EE285A67
:1015A00077EEA86AB6EE007AF8EE005A88EE856A01
:1015B00026EE877A38EEC88A67EEA57A66EEC66AA6
:1015C000F8E600BFAFF30080182D4454FB2119400A
:1015D000542A00200000FE420AD7233C0000484362
:1015E0000000C842A4707D3F000070420000C84364
:1015F00000004842602F002000F07F45520107EEB6
:10160000902A1FED037AF8EEE77AC7EE877A44480E
:1016100017EE901A03F0F0FEB3EE047A07EE900A8C
:1016200067EE877A3F4C17EE900AC4ED017A16F008
:10163000A7FA39A3D3E9002302F0B4FF06462068D5
:101640000F4616F09DFA0B4602463946304602F028
:10165000CFFF03F01BF8054604F056F9D4ED027AEB
:1016600007EE100A77EEA77A284687EE278A04F05D
:101670004EF9237B07EE900A33BBF7EE005AB8EE23
:10168000006A75EEE76A38EE255AB6EE007A67EE24
:10169000867A26EE877A85EE856A35EEC88A27EE49
:1016A000067A66EE266A28EE068A67EE867A84ED6A
:1016B000088ABDEC028B84ED047AC4ED056A84EDE2
:1016C000067AC4ED077AF8BD012B7FF415AEF7EE6C
:1016D000005AB8EE006A77EEA56A38EE255AB6EEE3
:1016E000007A67EE867A26EE877A85EE856A35EE91
:1016F000C88A27EE067A66EEC66AD4E7012A38BFA2
:1017000001228A424FF0000028BF0A4683F82800D1
:10171000DA60F1E5AFF30080182D4454FB21194045
:1017200000007A44182B002038B5542200212048AC
:1017300011F016F94FF480734FF460621C4D4FF4B2
:10174000FA746B61AB611B4B4FF480502B612A62C2
:101750004FF480734FF4807217496C6269601749C7
:10176000174CA960E86129461648C5E90A23EC60D0
:101770000EF002FB60B1144805F0EAFF294611485B
:101780000EF056FA48B90A490E480EF0F5FA50B96B
:101790000E4805F0DDFF012038BD01460C4806F07B
:1017A00057F8002038BD01460A4806F051F8F8E71E
:1017B000701F00203D02001089020010A5020010D9
:1017C0006502001050210020E87D0110747E011098
:1017D000147E01103C7E011030B58FB00546FFF736
:1017E000A3FFB8B101230446124A134801A92B7084
:1017F0000FF076FC38B10F490F480FF07DFB80B930
:1018000020460FB030BD01A90B480FF0B7FC2046B1
:101810000FB030BD094805F09BFF002420460FB0F3
:1018200030BD0146064806F013F8064805F090FF63
:10183000F3E700BF3C7F011050210020207F011002
:10184000D47E0110487F011070B50B4604468CB061
:1018500058490068E36008F0D7FB4FF48032034634
:10186000206907928602821C02F01F0C06F4F846DB
:1018700046EA0C06504946F08046099146F4801627
:1018800021680A96A360DE1DDB0101F12F4143EAC6
:10189000063323F0C04301F5600112090893474D58
:1018A0000309090D22F4F84242EA832206312A4351
:1018B000C9B20B9201F0DAF92168206901F12F41D8
:1018C00001F56001090D0631C9B2013001F0CEF910
:1018D0002168206901F12F4101F56001090D0631F0
:1018E000C9B2023001F0C2F901202269616800909A
:1018F0000323206808F0D2FB314BE268314902FB38
:1019000003F3B1EBB31F13D22F49304B01FB02F2AB
:101910009A420BD92E4D284606AB05AA04A902F01F
:1019200025FB38B929462B4801F006FA2A4DF2E783
:101930002A4DF0E70498DDE9051202F055FA05207A
:1019400002F04CFAE3689FED267A9B01B0FBF3F3BB
:1019500007EE903AF8EEE77A77EE877ABCEEE77A10
:1019600017EE103A9BB213B307EE103AB8EE477A6F
:10197000DFED1C6A77EEC77A67EEA67AFCEEE77AAF
:10198000CDED037A9DF80C502D02D4E9011245EA01
:101990000345206807AB079508F0C6FBD4E9002093
:1019A0000123116883400B4313600CB070BD1D46CA
:1019B000EBE700BF842A021000000640E083FFFF2F
:1019C000D578E92626310800F125BED3BEF1050001
:1019D000F04902006C7F0110B01102008032020059
:1019E0000000003B00008043F8B50F4C206800B1B8
:1019F000F8BD402004F0F2F8002302464BF6803692
:101A0000012542F8043B4360C2E90133C0E90433D5
:101A1000C0E90633054FC0E90833C0E90A73C0E9DD
:101A20000D6520608387F8BD0C2B0020000020503E
:101A3000F0B52A4E04463568CBB0002D37D02021B2
:101A4000274A6846237805F035FC6946254808AAE8
:101A50000EF07EFEB0B9099F7B08643BE3606360D3
:101A6000214B6A461E682B681E481E443B442B606F
:101A700008A90123A6600EF059FF38B10023E360E6
:101A80004BB0F0BD6FF063030027E7E73B463246FB
:101A9000144808A90FF066F8051E15DB114808A9BF
:101AA0000EF050FF58B9AF42E8D14BB0F0BD042062
:101AB00004F094F80023054603603060BFE7014658
:101AC0000A4805F0C5FED9E72946094805F0C0FED9
:101AD00008A904480EF036FFD0E700BFD43000203C
:101AE000387D011050210020F4170020987D01104E
:101AF000947E011000000000DB4B2DE9F0411968D5
:101B00002DED028B4D6B002207EE905AB8EE678ADE
:101B1000D64BD74C1B6818EE100A1A6084ED008A69
:101B200016F02EF806460F46606816F029F8CCA38A
:101B3000D3E9002302F036FD3B46324602F058FD61
:101B400002F0A4FD804603F0DFFED4ED027A07EE3A
:101B5000100A77EEA77A4046C7EE278A03F0D7FE31
:101B6000237B07EE900A002B40F05281F7EE005ADB
:101B7000B8EE006A75EEE76A38EEA55AB6EE007A5E
:101B800067EE867A26EE877A85EE856A75EEE88AB4
:101B900027EE067A66EE266A67EE867A68EE868A11
:101BA00084ED047AC4ED056A84ED067AC4ED077A03
:101BB000C4ED088AAF4C84ED008A606815F0E0FF40
:101BC000A7A3D3E9002302F0EDFC3B46324602F026
:101BD0000FFD02F05BFD804603F096FED4ED027A25
:101BE00007EE100A77EEA77A4046C7EE278A03F081
:101BF0008EFE237B07EE900A002B40F0E180F7EE8B
:101C0000005AB8EE006A75EEE76A38EEA55AB6EEED
:101C1000007A67EE867A26EE877A85EE856A75EE1B
:101C2000E88A27EE067A66EE266A67EE867A68EE1E
:101C3000868A84ED047AC4ED056A84ED067AC4EDE3
:101C4000077AC4ED088A8C4CDFED8C6A94ED027A39
:101C500028EE077AC7EE267AFCEEE77A17EE902A8E
:101C6000012A38BF0122E561854BA56F62601868C3
:101C70002B680021184403EB82032B609200206044
:101C800010F06EFE94ED037A0022D4ED107AB8EED7
:101C9000477AE06E94F8443084ED0E8A84ED087A39
:101CA00037EEA78AA261E063002B49D115F068FFE7
:101CB0006BA3D3E9002302F075FC32463B4602F0E9
:101CC00097FC02F0E3FC054603F01EFE07EE900AC7
:101CD0002846C7EE888A03F01AFEF7EE005A07EE90
:101CE000900A78EEA54A75EEE76AB6EE007AB8EE8D
:101CF000005A85EEA46A26EE877A75EEE88A67EECA
:101D0000857A27EE067A66EE266A67EE867A68EEB0
:101D1000868AC4ED136AC4ED157AC4ED168A84ED83
:101D2000127A84ED147A574C04F1F00520461434ED
:101D3000FFF77EFEAC42F9D1BDEC028BBDE8F0812D
:101D4000012BF0D115F01CFF45A3D3E9002302F0CD
:101D500029FC32463B4602F04BFC02F097FC05465C
:101D600003F0D2FD07EE900A2846C7EE888A03F0FA
:101D7000CEFDB7EE005A07EE900AB6EE007A37EEC7
:101D8000856AF8EE004A38EE854A26EE077AC5EEF7
:101D9000045A75EE686A67EEA47A27EE257A26EE75
:101DA000656A67EEA57A66EEA56A84ED136AC4EDEE
:101DB000157AC4ED166A84ED127A84ED147AB2E7CE
:101DC000012B7FF440AFB7EE005AB8EE007A37EE41
:101DD000856AF6EE006A78EE854A67EE877AC5EE88
:101DE000245A66EE266A35EE687A66EEA56A26EE15
:101DF000656A67EEA57A27EE257AC4ED046A84ED5C
:101E0000056AC4ED066AC4ED077A84ED087A1AE71C
:101E1000012B7FF4CFAEB7EE005AB8EE007A37EE62
:101E2000856AF6EE006A78EE854A67EE877AC5EE37
:101E3000245A66EE266A35EE687A66EEA56A26EEC4
:101E4000656A67EEA57A27EE257AC4ED046A84ED0B
:101E5000056AC4ED066AC4ED077A84ED087AA9E63E
:101E6000182D4454FB21194010290020D0300020A7
:101E7000602F0020182B0020542A002000007A44F4
:101E8000F4170020C02F00202DE9F04F2DED028B1C
:101E90008FB005F0D3FB0921002000F0E7FE084ACF
:101EA00008491368086843F400631360FFF794FC63
:101EB00050B901200FB0BDEC028BBDE8F08F00BF20
:101EC00000800C40082B00204FF03212AD4BAE4981
:101ED0001B68AE489960AE495862C3E9031208F026
:101EE00059FA1C20FEF71CFA1D20FEF719FA0D20E6
:101EF00000F0FEFE01250D2345EC44300C2000F0DF
:101F0000F7FE0C204FF0000343EC4400002229466A
:101F100000F0CAFE142000F0EBFE142345EC443020
:101F2000132000F0E5FE132345EC4430994B9A4A08
:101F30001C689A4B6262236094F83C30ABB99848B5
:101F400001F0FCF94AF6444104F12800FFF77CFC5B
:101F5000636A84F83C5003B19847012384F83D300C
:101F600008F07EF98F4808F0F1F900238E4ACDE998
:101F70000B338E490A920DF1280904AE0C680692C3
:101F800099E803008A4A86E803008A4D079309927C
:101F9000089504F1980393E8030089E80300D6E963
:101FA000000183E80300D4F8A030D4F8A4100C9307
:101FB000C4F8A0500D91C4F8A4201BB103224946D7
:101FC00048469847012384F8A830089B0DF1180B68
:101FD0001BB1032259465846984700230B93734B75
:101FE000754D1868754C764B494628300A930D9507
:101FF0000C94FEF719FB0C9B1BB103224946484683
:10200000984700230B93694B494618686D4B08307D
:102010000A93CDE90C45FEF707FB0C9B1BB103228D
:10202000494648469847684C47F61221204601F039
:1020300087FD204600230122082101F003FE236BC7
:10204000624A03F4404313632046012101F032FE4B
:102050000221052000F00AFE0221042000F006FE05
:1020600000220121052000F01FFE0020584C594994
:10207000594A0D910C920A940B900892574B04AA5E
:102080000790099199E8030082E803001B68069411
:1020900093E8030089E8030092E8030083E8030063
:1020A000D3E902450C9A0C949A600D9A0D95DA606A
:1020B0001CB1032249464846A047089B1BB1032296
:1020C00059465846984700224FF0FF319FED448A09
:1020D000424BDFF824A11B68C3F8401483F8342472
:1020E000C3F83824C3F83C249A62C3F83024C3F8F8
:1020F0004824244B3B4A1C683B4B9B6AA2FB0323AE
:10210000227D9B09DAB1E269A1699A1A8A4216D343
:102110004FF050414968627D11F4005F4FF00D01AE
:1021200000F09B814FF0000040EC4010A17DE36186
:10213000914204D800220D21227542EC40106268C1
:10214000934200F092800421284A63601368284873
:1021500083F4005303F470430360264B1960136843
:10216000DF05FCD5536894F8211098B2002945D1B9
:102170002288131A002B228AB8BF5B42934243DDA8
:102180003CE000BF4C2F002069110010090E001028
:102190004910001010290020F91A001081060010C3
:1021A00008290020FD0E0010A50C0010942F00201F
:1021B000410200108103001049020010A903001021
:1021C000891200103D0D001000800740009007406C
:1021D000F90300105D020010D1030010043100204B
:1021E0008845C84DD34D621000000B4000000A40E6
:1021F00000100A4000200A4013008000A3682080DD
:1022000013B1984794F8211004209A4A9A4D136804
:1022100083F4405303F470432B60984B18601368A9
:10222000DE05FCD5536898B239B96288131A002BC1
:10223000628AB8BF5B42934203DDE368608003B10A
:1022400098474FF050435A68D50400F1B88094F88D
:102250002020002A40F00981636A01209847012369
:1022600084F82030002384F82130854C854BA66902
:102270001D6816F010063AD105F13808A369D90691
:10228000FCD423682A79DFB212B1A269920664D520
:10229000F72F50D81B065DD42B782BB3E9784A1C56
:1022A000D2B22944012AEA704F701DD903F0F0011F
:1022B00090296878AA78EE7003F00F0300F0A080F0
:1022C000B02900F08C8080290ED1296A61B18DF887
:1022D00010308DF818008DF828204B465A466F6A4A
:1022E00004A905F11800B847A369DF06C6D5664BF7
:1022F0001C6894F83404002839D0002005F0A0F9B7
:10230000851C3FF4F6AE0A2800F0C4800D2800F0CA
:10231000C180D4F84834B3F5001F80F07682D4F839
:102320004424591CC4F84814D054D4F83C34013324
:10233000C4F83C34DDE695F8A8300BB1F82F2DD069
:102340002B6C002BD0D08DF82870494640466B6C22
:102350009847C9E72F70EE70C6E74C4AB2F90220E1
:10236000BA4225D0A2699206FCD4276090E705F016
:1023700067F9821C3FF4BDAE0A28D4F8303452D03D
:102380000D2850D040F2FE3293423FF7B2AE5A1CB5
:102390002344C4F8302483F83000AAE6D5F89030FE
:1023A000172B03F1010200F0B781C5F89020C7E7B1
:1023B00033498A699006FCD40D220A60D2E75B6833
:1023C000D8047FF54FAF94F82030002B3FF44AAF8C
:1023D000636A00209847002384F8203042E7296B85
:1023E000002981D08DF810308DF818008DF8282044
:1023F0004B465A466F6B04A905F12800B84773E7AE
:102400002969002900F01382002A40F002822A6A1A
:10241000002A3FF469AF8DF8103000238DF81800C2
:102420008DF8283059E7002B7FF763AE0022234454
:1024300083F83020A368C4F8302404F130053BB1A0
:1024400049462046E3680A95984700287FF451AE34
:1024500029460F4805F0FCF94BE64FF0010040EC2F
:1024600040100132D2B2627560E65B68DB04AFD423
:10247000F8E600BF00000A4000100A4000200A40B1
:1024800000800740942F002004310020EC30002011
:1024900040800110D4F83C149A4805F0D9F9D4F8DA
:1024A0004404002800F0AA80236A0193002B00F066
:1024B000A580D4F84824032A40F2DB8100230321BD
:1024C0001D468E460294CDF80CB0934280F0A78052
:1024D0005C1E044414F8011F0939C9B217292AFAED
:1024E00001F600F29C80F10740F1998001339A4295
:1024F000F0D111460B1D9A42C0F096804418824FCD
:102500006478465C3C5DBE5D00943C46009F01F1F2
:10251000030C3F0947EA86078E1C10F8068010F866
:102520000CB014F80880019C6755875D764C3D2FF0
:1025300014F80B6005F1010B00F0D280009C019FA4
:10254000240144EA980407F80B4010F80C400235C7
:102550003D2C03D046EA88167E55754608318A42DE
:10256000C0F0C38005F1030EBEF5001FADD99A423D
:10257000DDE9024B00F267816562A36A043D9D427A
:1025800028BF1D46266A2F464FF0FF333168CDB174
:102590008E46F51C05EB070C15F8012F5B4982EA06
:1025A000030000F00F0051F82000654580EA131089
:1025B00080EA121303F00F0351F8233083EA10135B
:1025C000EAD17146DA43914240F03981A36943B1BF
:1025D00004364A465946E3690A97069604F1100004
:1025E0009847D4F84C546B6A03B19847012385F897
:1025F0003D3007F035FE464807F0A8FE00234FF0B7
:10260000FF3284F83434C4F84024C4F83834C4F8B1
:102610003C34A362C4F83034C4F8483469E5194640
:102620000B1D9A42BFF46AAF9142DDE9024B61D2C1
:102630000B46013BC1180023013A86180A9311F892
:10264000017F03F138020DEB020CA7F10902D2B2AF
:10265000172A2AFA02FE03F1010000F200811EF09F
:10266000010F00F0FC80B142E9D11846002841D0AA
:10267000042805D0C0F104023D21484410F070F94F
:10268000214E9DF829309DF82820F35CB15C1A0991
:1026900042EA810201999DF82A709DF82B004A5563
:1026A00032463D2FF65D125C05F1010100F0E48039
:1026B000B1F5001F00F0E280019F1B0143EA960381
:1026C0003D287B5405F1020300F0DF80B3F5001FC5
:1026D00000F0D480019942EA8612CA54033509E019
:1026E00008318A425D46BFF43DAF9A42DDE9024BB4
:1026F00000F2A980032D65623FF63FAF054805F063
:1027000027F87BE7A07F01109C2A0210988801100F
:10271000FD0E0010CC7F01100023C5F89030D5F8D5
:102720008830009301F0D4F9009B95F88CC005EB3C
:10273000C303C3E91201D5F888104B1C584203F0BB
:1027400007031A4600F0070058BF42429646BCF104
:10275000000F4CD001F1090C02F1090155F83C00C1
:1027600055F8312005EBCC0C05EBC101DCF804C0B9
:102770004968801A6CEB010100296CDB50EA010CFE
:1027800035D0CDE900E302F007FF06EE100AF6EEC1
:10279000007A95ED257AC8EE066A37EE277A76EE4E
:1027A000A77AFCEEE77ABDEEC77A17EE903A99B2B7
:1027B00017EE103A8B42C5ED256ADDE900E316D02D
:1027C000D5F8A00098B1D5F8A430ADF8281005F1DF
:1027D000980049469847D5F888300133594203F0AC
:1027E00007031A4601F0070158BF4A429646C5F84A
:1027F00088E0002B7FF4A4AD95F88C30002B7FF49B
:102800009FAD012385F88C309AE5214804F0A0FFA4
:10281000F4E68DF810308DF818008DF828204B461E
:102820005A466F6904A905F10800B8475CE5296AB2
:1028300000293FF459AD002A7FF456ADEBE5154869
:1028400005F006F8DAE6B5F5001F7FF4F2AE656232
:102850004FF4001591E6404261EB410191E7B1422E
:102860000CF8107C3FF402AF04283FF409AF034694
:10287000E5E63AB9626241E70D463BE74FF40013E3
:102880006362E5E700231D46D3E61D4632E700BF3D
:1028900028800110F07F01102DE9F843C34C206817
:1028A000002800F0FB80C24CC24A23681060002B55
:1028B00000F0F980C04FC14A38681360002800F06A
:1028C0000781BF4BBF4E1860FFF78EF8BE4B3468D0
:1028D0001860002C00F00381BC4DBD4B2E681C60BD
:1028E000002E00F02981BB4B0025DFEDBB7A1E6076
:1028F0009FEDBA7A0023BA4ABA48BB49DFF814E31D
:10290000DFF814C3B94E5060C2ED007A82ED057A4B
:10291000D560116191615362C2F808E0C2F81CC031
:1029200016629362D36213634FF47A72DFEDB06A7A
:102930004FF00109DFEDAF5A4AF644489FEDAE6A09
:10294000AE4CE260AE4AA0605060C2ED055AC2EDE6
:10295000007AC2ED046AC2ED066AC4E9005523613B
:10296000C2F80C90C2F808E0C2F81CC016625362AC
:102970009362D36213636361E0633868C4ED0E7AD7
:1029800084ED137A84ED1B6AC4F840E0C4F854C0A7
:10299000A665C4F81C806362E3622363E365236673
:1029A0006366A3666367A1642165A56184F8285006
:1029B00084F8345084F84450A4F87050002800F093
:1029C000EE8001258F4BA0671B688F48EB400360AA
:1029D0008E480324036002208D4B002283F82800D8
:1029E00004204FF07E511D7583F83C4083F8500061
:1029F0004FF0050E4FF0060C0727082609250A247C
:102A00000B20C3E90122C3E90622C3E90B22C3E973
:102A10001022C3E91522C3E91A2219615962996388
:102A2000D96419661A70DA601A625A639A64DA65B0
:102A300083F864E01A6783F878C083F88C7083F8B1
:102A4000A06083F8B45083F8C84083F8DC00C3E981
:102A50001F22C3E92422C3E92922C3E92E22C3E9A4
:102A60003322C3E938225967C3F88810C3F89C1091
:102A7000C3F8B010C3F8C410C3F8D810C3F8EC10F2
:102A8000C3F88420C3F89820C3F8AC20C3F8C02052
:102A9000C3F8D420C3F8E820BDE8F883012003F090
:102AA0009DF82060FFE6282003F098F84FF03215DB
:102AB00000224FF480710346C0E90022C0E90222DF
:102AC000C0E90452C0E90622C0E908122060F1E61C
:102AD000042003F083F8002338600360F1E6B0209F
:102AE00003F07CF800250446C0E90055C0E9025512
:102AF000C0E90455C0E90655C0E90855C0E90A55C2
:102B0000C0E90C55C0E90E55C0E9105540222946D0
:102B100048300FF025FF0023C4E92255C4E92755AA
:102B20003460C4F89050C4F89850C4F89430C4F895
:102B3000A45084F8A850CFE64FF48A6003F04EF812
:102B400000244FF0FF31DFF8D4800646D8F800307B
:102B5000C0E90044C0E90244C0E90444C0E90744B4
:102B6000C0E909448461C0F84014C0F8304480F8DA
:102B70003444C0F83844C0F83C44C0F84444C0F879
:102B80004844002B4CD03868C6F84C34002864D038
:102B90000023F0622E60C6F844343362A3E60420BA
:102BA00003F01CF8056038600BE700BF102B002015
:102BB000502F0020082B0020D43000204C2F002064
:102BC000D0300020982F002010290020D021002094
:102BD000942F00200431002000803B475652003CD7
:102BE000602F002000007A445652803B3FBB543F88
:102BF000FA5C693FFA5CE9BF00409C46542A002019
:102C0000182B0020F01700204C2A0020502A00200A
:102C1000C02F0020F4FD343F565CE8BF0C2B002091
:102C2000402002F0DBFF03461A464BF6803E4FF091
:102C3000010C0D4842F8044BC8F800305C60C2E952
:102C40000144C3E90444C3E90644C3E90DECC3E904
:102C500008449862DC629C8795E7042002F0BEFF7E
:102C600000233860036093E70000205010B44FF455
:102C700080740C4B53F8202003EB8003C00082F0DB
:102C8000400200F1804003F5805C02F0C00200F5D4
:102C9000203003F54053CCF8002041601C605DF803
:102CA000044B70470480034010B4084CC90041EA4B
:102CB000820154F8202004EB8003514003F5805337
:102CC00001F00C015DF8044B19607047048003406B
:102CD000064B402203EB800319B103F500531A6041
:102CE000704703F540531A60704700BF04800340EB
:102CF00030B44FF0000343EC440043EC40000525A2
:102D00004FF480740B4BC20053F8201003EB80008B
:102D100081F0400102F1804303F5203301F0C0024D
:102D200000F5805100F540500A605D60046030BCE1
:102D3000704700BF048003400FB400B583B0049C0B
:102D4000074804F005FD3CB105A92046019104F0B7
:102D5000FFFA044804F0FCFC012004F011FB00BF62
:102D600058800110347D0110EFF3108072B6064BCD
:102D7000D3E8CF1F01220029FAD1C3E8412F00294F
:102D8000F6D1BFF35F8F7047F32400200023034A7E
:102D9000C2E88F3F80F31088704700BFF324002003
:102DA00070B58646EFF3108572B6124CD4E8CF6F3B
:102DB0000120002EFAD1C4E8460F002EF6D1BFF351
:102DC0005F8F4FF0010CC80801F007030CFA03F302
:102DD0001EF800C01CEA030608D14CEA030C0EF8EA
:102DE00000C0C4E88F6F85F3108870BD1046FFF7F0
:102DF000A3FF00BFF3240020F8B5EFF3108772B6ED
:102E00001C4ED6E8CF5F0124002DFAD1C6E8454F0D
:102E1000002DF6D1BFF35F8F9A421BD8012502E047
:102E20000132934222D3D40810F804E002F0070CD8
:102E300005FA0CFC1EEA0C0FF2D14EEA0C0E00F85B
:102E400004E010460023C6E88F3F87F310889842BD
:102E500007DBF8BD0023C6E88F3F87F310884FF0EB
:102E6000FF300029F5D00698FFF766FF4FF0FF30DE
:102E7000E8E700BFF3240020044A1078431CDBB2CB
:102E8000182B28BF10231370704700BFF8170020BD
:102E900010B5054C82B001461F2318220094034848
:102EA000FFF7AAFF02B010BD688001101C2A0020A5
:102EB0004FF0E022936843F000539360704700BFE7
:102EC0000021044B03F12002C3E88F1F013393421A
:102ED000FAD17047E82400204FF0E0234FF0803211
:102EE000C3F80024C3F80424C3F80824C3F80C244E
:102EF000C3F81024C3F81424C3F81824C3F81C24FE
:102F0000C3F82024C3F82424C3F82824C3F82C24AD
:102F1000C3F83024704700BF012300F01F02934024
:102F2000400941B1800000F1604000F56140C0F807
:102F3000803103607047024A203042F820307047E9
:102F400000E100E00123064A410952F8212000F087
:102F50001F0003FA00F01040003818BF012070472E
:102F600000E100E001224309034900F01F00824014
:102F7000403341F82320704700E100E0054A10305B
:102F80009268054B52F82000C01A2F288CBF0020F1
:102F90000120704700ED00E0FC170020F8B50D4659
:102FA000EFF3108772B6124ED6E8CF2F0123002A16
:102FB000FAD1C6E8423F002AF6D1BFF35F8F0D4B2E
:102FC00000F110049B680C4A53F82430934203D05C
:102FD000994201D001F09CF9064B9B6843F82450BC
:102FE000BFF35F8F0023C6E88F3F87F31088F8BDDB
:102FF000F124002000ED00E01D0100102DE9F04F4C
:1030000081468B46164683B0EFF3108372B6DFF825
:10301000D0A10093DAE8CF1F01230029FAD1CAE832
:10302000413F0029F6D1BFF35F8F664B93F9004013
:10303000002CC0F2A080644D04EB440705EB870828
:1030400098F8061009F110091970604BBF009B68D1
:1030500053F829006300411B2F292FD95C4988426E
:1030600040F0A4801C445B4B02372F44043BDB1B25
:10307000C3F34A036FEAC3434FF421416FEAD343DA
:1030800025F8241005EB840463804BF60153A380DC
:10309000FF2348F00100E671C4F808B0A3714B4B60
:1030A0009B6843F82900BFF35F8F0023CAE88F3F76
:1030B000009B83F3108803B0BDE8F08F20F0010E71
:1030C0009EF80710B1422ED84FF42143EB53414BE9
:1030D000B91C2944043B04375B1A2F44AEF10401A8
:1030E000C91BC1F34A043C49C3F34A030B432143C0
:1030F000A8F804103949A8F802304AF6AA20734605
:103100005B1B5B415843000D88F8076088F8060098
:10311000C8F808B048F00100CEF80010BFE7D17938
:10312000B1422ED996469EF906C00CEB4C02BCF17A
:10313000000F05EB8202F2DA4BF601510EF10402A8
:10314000A8F10407BF1AC7F34A076FEAC7476FEA37
:10315000D7478EF8064003EB0408204C05EB8803A4
:10316000AEF8047045F82840998083F806C0DE71F7
:10317000C3F808B093E701F0CBF8124B93F9004085
:1031800059E7724632F8041F490514D44915023133
:1031900002EB410101916FF00701C91B019F491B1F
:1031A0003944C1F34A0141F46041C9E7019301F098
:1031B000AFF8019B56E701F5FF1101F5FF511F31F3
:1031C000E4E700BF0C310020FC17002000ED00E018
:1031D0001D0100102C18002000E0FFFF014880476F
:1031E000F1240020F0B5EFF30585EDB2EFF3108C7C
:1031F00072B62649D1E8CF2F0123002AFAD1C1E8BF
:10320000423F002AF6D1BFF35F8F214E40F0010EFE
:10321000B4684AF6AA2354F825701E4A0446A41A34
:10322000644163431B0D77455BB21BD092F90640A6
:103230009C421CD092F912409C4223D092F91E402D
:103240009C4221D092F92A409C4208BF03240FD00F
:10325000114A0024157813708571C1E88F4F8CF3E3
:103260001088F0BDB2680D4C42F82540F0E700240C
:1032700004EB440402EB8402FF2494714BF60154E6
:103280009480E5E70124F3E70224F1E7F12400202C
:1032900000ED00E0FC1700200C3100201D010010A3
:1032A00010B5074C82B00146052300220094054862
:1032B000FFF7A2FD0028A8BFC0F1330002B010BD87
:1032C0008480011010310020014B0B4403607047D3
:1032D000E824002070B5104C104DAC420ED2FF26F1
:1032E000236863B1FFF7C8FD01462046FFF7ECFFF6
:1032F000A680BFF35F8F0834AC42F1D370BDFFF7F7
:10330000BBFD01462046FFF7DFFF2671BFF35F8F4D
:103310000834AC42E4D370BD5C1F00206C1F002059
:1033200010B50446FFF7A8FD01462046FFF7CCFF85
:10333000FF232371BFF35F8F10BD00BF10B504469C
:103340000120FFF7A5FD034B03442360BFF35F8F0C
:1033500010BD00BFE8240020024B0B440360BFF304
:103360005F8F7047E82400200D4B1A68EFF310813F
:1033700072B6D2E8CFCF0120BCF1000FF9D1C2E87C
:103380004C0FBCF1000FF4D1BFF35F8F00221B681C
:10339000C3E88F2F81F3108840BF002000217047C1
:1033A000E0300020000000002DE9F04F2DED028BF1
:1033B00085B0EFF30583DBB2103B9A0818BF0122FA
:1033C0004FF0010103F0030B18BFAF4DAF4B08BF27
:1033D000AF4D0BEB820253F8226001FA0BF205F5B8
:1033E00041539FEDA78B01925A602FE0B3881C04D4
:1033F00040F19380B379002B40F0DD80B6F90820CE
:10340000002AC0F21E81736902EB420203EBC20381
:10341000D3E90247B7F1FF3F08BFB4F1FF3F0ED039
:1034200005EB8B01AB6A0A69D21AE31A934205D302
:1034300001232A6A03FA0BF3134200D10C612846D8
:1034400000F03EFBA042B941C0F2FB80B6F9083063
:10345000019A002B0093EA63C8DBD6F8148003EBD3
:103460004309284608EBC907D7E9024A00F028FBC0
:10347000A04271EB0A01B9DBBAF1000FC0F2C380C0
:10348000D7E90431834A934200F0ED807A88B6F997
:10349000080092B242EA0040984702460B4652EAC0
:1034A000030100F0B080002B80F2D180B4EB020E5B
:1034B0006AEB030A38F93930C7E902EA002B95DBD9
:1034C000716903EB430201EBC202D2E90270BE450F
:1034D0007AEB000C4FEA430288DBB4462CF8083F35
:1034E00006E003EB430001EBC0005A00D0E9027094
:1034F000BE451A447AEB000001EBC20404DB31F94B
:103500003230A446002BECDA28F83930009BACF8B6
:103510000030B3881C043FF56DAF3369EFF31082C0
:1035200072B6D3E8CF0F01210028FAD1C3E8401FBB
:103530000028F6D1BFF35F8F4FF6FF74B0880023E9
:10354000316900B2B480C1E88F3F82F3108898429D
:10355000FFF650AF0746A946746906F1080807EB65
:10356000470E04EBCE03D3E90250B6F90830C44647
:10357000002B13DBB246009704E034F93630944652
:10358000002B09DB03EB430604EBC602D2E9027110
:10359000BD4270EB0101F0DA5646009FACF80070B6
:1035A00034F93E7024F83E30002FD8DAB3794D4616
:1035B000002B3FF423AF0023B371B6F9083006F1B6
:1035C0000808581C3DD01A46776903E08046591C0C
:1035D0003FF416AF03EB430107EBC100B0F802C0A4
:1035E0001C461CF4004F9E4637F93130EED0944211
:1035F00080ED028B05D0A8F80030328927F8312001
:1036000034817246E3E738F8393033813369EFF3B8
:10361000108272B6D3E8CF0F01210028FAD1C3E897
:10362000401F0028F6D1BFF35F8F7388316928F8F7
:103630003930009B73800023C1E88F3F82F31088EC
:10364000D4E640BF05B0BDEC028BBDE8F08F284644
:10365000CDE9022300F034FA029A039B10EB020E2C
:1036600043EB010A26E708460B69029198470028B8
:10367000C9D00299D1E9002311E700BFAFF3008060
:10368000FFFFFFFFFFFFFFFF00800B40B030002077
:1036900000000B40A93300102DE9F84F364C256986
:1036A0002DB1BDE8F84F0A213448FFF70DBEDFF811
:1036B000E4800321404600F0F1F90326C4F80C80B1
:1036C000FFF7DAFB4FF0504C2D4B2670034423617B
:1036D000DCF800300F216370636961801D834FF057
:1036E0000405A3F878504FF00505A3F890504FF06B
:1036F0000605A3F8A8504FF007050E214FF6FF72FC
:1037000008274FF00A0EA3F8C0504FF001094FF000
:103710000C0C4FF0020B4FF0090A0D204FF00B0577
:10372000A3F868111749A280A3F808E1A160A3F8E3
:1037300048B0A3F8F0A0A3F82051A3F838C1A3F82B
:103740005001A3F83090A3F86060A3F8D8701A80F5
:103750000D4B3046C8F820700C49DC60FFF71EFCAA
:1037600049463046FFF7D8FB094B0A211F6403483E
:10377000BDE8F84FFFF7A8BD44180020E030002056
:10378000E8240020FFFF1000B0300020A933001013
:1037900000200B4000000B400048704744180020F8
:1037A000F8B59DF82050044617461E4635B900F07E
:1037B0008FF9874266EB010100295CDB2169EFF399
:1037C000108372B6D1E8CF0F01220028FAD1C1E8E8
:1037D000402F0028F6D1BFF35F8FB4F9022065694E
:1037E00002EB4201002A4FEAC10C206905EBC1013E
:1037F00039DB35F80CE0A4F802E04FF0000EC0E829
:103800008FEF83F310884888069B0130C0F30E00C9
:10381000012838BF01200B61079B48804B61C1E93B
:10382000027640EA02402369EFF3108172B6D3E8D2
:10383000CF7F0126002FFAD1C3E8476F002FF6D1C2
:10384000BFF35F8FA38825F80C30A2802369C3E8FB
:103850008FEF81F310880122E368217803F501538B
:103860008A405A60F8BD0022C0E88F2F83F3108889
:103870004FF0FF30F8BD2846F8BD00BF0146F0B557
:103880000069EFF3108772B6D0E8CF5F0124002DF6
:10389000FAD1C0E8454F002DF6D1BFF35F8FB1F9E3
:1038A00002E04C690EEB4E0CBEF1000F4FEACC0566
:1038B000086904EBCC0C3CDB665B4E800026C0E85C
:1038C0008F6F87F31088BCF80200CCE90223013027
:1038D000C0F30E00012838BF0120059BACF80200A0
:1038E000CCF81030069B40EA0E40CCF814300B693F
:1038F000EFF3108272B6D3E8CFCF0127BCF1000FEF
:10390000F9D1C3E84C7FBCF1000FF4D1BFF35F8F56
:103910008B886353A1F804E00B69C3E88F6F82F3CF
:1039200010880122CB68097803F501538A405A6058
:10393000F0BD0023C0E88F3F87F310884FF0FF30C1
:10394000F0BD00BF03464089B0EB214F37DD586919
:103950000A1402EB420210B500EBC2001C69EFF33F
:10396000108C72B6D4E8CFEF0122BEF1000FF9D16E
:10397000C4E84E2FBEF1000FF4D1BFF35F8F428831
:1039800089B292B28A4207D000221B69C3E88F2F06
:103990008CF31088002010BD42F4004242800121C7
:1039A000002218699971C0E88F2F8CF310881C7859
:1039B000DA68084602F50153A140596010BD0020A5
:1039C000704700BF407870472DE9F04306460D462A
:1039D00083B0EFF30584E4B23CB12D4B5A6AAA429E
:1039E0001CD2002003B0BDE8F0832A4FD7F80C901A
:1039F00097F80080484600F063F808F1040859F889
:103A000028301B1A301A65EB0101984271F1000150
:103A100010DB20BF1E4B5A6AAA42E2D314BF012416
:103A200000249B6AB34234BF204644F0010003B037
:103A3000BDE8F08300F04CF8864265EB01010029F7
:103A400014DB154B3846CDE9003432462B46FFF7E0
:103A500015FF011E0ADD0E4B5A6AAA4216D39B6A55
:103A6000B34211D30B48FFF76DFFB6E7084B5C6A12
:103A7000AC42B6D3641B18BF01249B6AB34234BF67
:103A8000204644F00100ADE7AA42EBD120BFE9E7B0
:103A900000000B40441800206933001010B4054B9F
:103AA000054C064AA04214BF1846581C5DF8044B4A
:103AB000FFF776B9202A002000800B40A08001107B
:103AC0000346416A0A46986A596A8A42FAD170479F
:103AD000034B596A0A46986A596A9142FAD170476B
:103AE00000000B4030B4154A536A9C46946A536AEE
:103AF0006345FAD1021959414FF0000528BF01254D
:103B00000E4B5B6AB5B15A1C08BF1A4608D04FF07D
:103B1000FF310A460948436A8B42FCD38B4207D1E6
:103B2000064902E0486A984202D1886A9042F9D375
:103B300030BC70479942EDD8F0E700BF00000B4061
:103B4000F8B5054606200E4600F048F9002842D098
:103B5000354A3648954214BF4FF080624FF00062FC
:103B6000334B344902601A608C6832EA0404FBD19A
:103B70002D4B4FF48071EB1AB3FA83F32E4A5B0995
:103B8000062022F8131000F029F9C300B3FBF6F366
:103B90000133DA0920D1402601216962AA622F6B24
:103BA000FB0722D42B46002253F82C1F062003F5D6
:103BB000805422602F6300F011F940F2013103229A
:103BC0008000B0FBF6F0EB6A83F0700303F07E0335
:103BD00023602963AA64F8BD4FF6FE718A421BD99F
:103BE00022464FF6FF71154ED7E740F2013205F538
:103BF00040531A636B6AAC6A062004EB831400F02E
:103C0000EDF80F4BA402A3FB0023DB0A0021B4FB59
:103C1000F3F0FFF767FFC5E7C3F34503114603EB76
:103C200082161A46B9E700BF008007400020024014
:103C30000030024000000240EC300020C0FF3F0096
:103C4000757B2B8F013A0539D200F8B5054642EA5B
:103C5000411443B1A3F10103B3FA83F35B0944EACE
:103C6000830343F002042E6BF3070AD42B4653F868
:103C70002C2F624002F06E0203F580531A602E630F
:103C8000F8BD40F2013205F540531A636B6AAF6A22
:103C9000062007EB831700F0A1F8054BBF02A3FB3A
:103CA0000030C00A0021B7FBF0F0FFF71BFFDDE793
:103CB000757B2B8FF8B5066B0546F3074FEA0114A9
:103CC0000AD42B4653F82C2F544004F0100403F56B
:103CD00080531C602E63F8BD40F2013200F5405362
:103CE0001A636B6AAF6A062007EB831700F076F859
:103CF000054BBF02A3FB0030C00A0021B7FBF0F068
:103D0000FFF7F0FEDDE700BF757B2B8F00EB400C6B
:103D10004FEA8C0C0CF1804C0CF5803CF0B516464B
:103D2000DCF80420051FB2F5803F38BF4FF4803225
:103D3000EDB238BFCCF80420012D2AD94FF400672A
:103D4000254C0CF54052176054F82020B2B9DCF82D
:103D50000020012D82EA461202F0E0020CF58056A6
:103D600032602AD94FF4006144F820304FF4803398
:103D70000CF500521160CCF80430F0BD6769B7FB58
:103D8000F2FE0EF1010E0EEB4E0EBEF1030EFCD252
:103D9000DDE70129D2D103240CF540521460DCF890
:103DA0000820D207FBD5DCF800200B4C82EA461233
:103DB00002F0E0020CF5805632600122DCF800507F
:103DC0004D4005F00305356002FA01F1DCF80820EA
:103DD0000A42FBD0C6E700BF242A0020014B53F85B
:103DE00020007047242A0020584B2DE9F0431C6C1A
:103DF0001746B4F5803F38BF4FF4803283B038BFE8
:103E00001A64032280460E46514B504DDA636C6CA7
:103E1000E307FCD5EB6B4F4A83F0200303F0E0038C
:103E2000D363EB6B494D83F0010303F00303D363CA
:103E30006C6CA407FCD54FF400624FF48039464BFC
:103E4000464CDA63464B4246636101213346C5F86E
:103E500040904448009700F057F94FF400616B6BB5
:103E600007FB06F64B4538BFC5F83490384B22693E
:103E7000B8FBF6F619633AB16369B3FBF2F30133A9
:103E800003EB4303033BFDD23049324A0B6B03F093
:103E9000E00313630B6B83F0020303F0030313636C
:103EA0008B6B5807FCD54FF400654FF480332A4ADA
:103EB00015632D4A4B6322610A6C9A424FF003024C
:103EC00038BF0B64224B2149DA634B6CDA07FCD50F
:103ED000CB6B204A03F0E003D363CB6B1B4983F029
:103EE000010303F00303D3634B6C9B07FCD54FF432
:103EF00080334FF40065184A6661D5630B64CA6C61
:103F00009A4238BFCB644FF40061114BA2699964A7
:103F10003AB16369B3FBF2F3013303EB4303033BB1
:103F2000FDD24FF400604FF48031084A094D936C84
:103F300083F0400303F0E003AB64074B084DA56139
:103F40009864D16403B0BDE8F08300BF0000014075
:103F5000003001400010014000200140242A0020D0
:103F6000006CDC0200000540001BB7002DE9F04F9B
:103F70004FF4A078994685B0CDE902125F4CDFF886
:103F800084A154450AD908F1FF38A4F53B54B8F18F
:103F90000F0FA4F12004F4D1002069E0072304F5F9
:103FA0003722019403FB03F402F5D872B2FBF4FE4E
:103FB00070454FF0010C4FF002074FF003064FF031
:103FC00004054FF005013FD0B3F1010E00F09480DD
:103FD0000EFB03F4B2FBF4FB58454CD019B301FBC4
:103FE00003F4B2FBF4FB58454FD0E5B105FB03F4F5
:103FF000B2FBF4FB584553D0AEB106FB03F4B2FB61
:10400000F4FB584557D077B107FB03F4B2FBF4FB40
:1040100058455BD0BCF1000F05D00CFB03F4B2FB9C
:10402000F4FB83455DD0734603FB03F4B2FBF4FE5F
:10403000704501F1FF3105F1FF3506F1FF3607F15B
:10404000FF370CF1FF3CBFD104FB1024002CBBD187
:104050009E464A46DDF808B0DDF80C90012028495C
:1040600001FB08F1CBF80010C9F80030C2F800E0FD
:1040700005B0BDE8F08F04FB1024002CAED14A46F9
:10408000DDF808B0DDF80C90E8E704FB1024002C04
:10409000ABD14A468E46DDF808B0DDF80C90DDE77E
:1040A00004FB1024002CA7D14A46AE46DDF808B028
:1040B000DDF80C90D2E704FB1024002CA3D14A4673
:1040C000B646DDF808B0DDF80C90C7E704FB102415
:1040D000002C9FD14A46BE46DDF808B0DDF80C90B2
:1040E000BCE704FB1024002C9DD14A46E646DDF8CF
:1040F00008B0DDF80C90B1E7019C44E750262F0092
:10410000001BB70050F80C0070B4039D04682D0329
:1041100045EA03451B4B002CB3FBF1F3B2FBF3F66E
:104120001FDB194A194B904214BF4FF480424FF4E1
:104130000042174C1A6003F580531A60A36832EAF4
:104140000303FBD1212200F5405304330160866054
:104150001A600268002AFCDA0822C5601A6070BC86
:104160007047036803F03F038B42DAD18368C3F3DF
:104170000B03B342D5D1C36803F4EE23AB42D0D1D5
:10418000EDE700BF001BB7000080054000200240A3
:104190000000024030B44FF080441C4B1C60E0B182
:1041A0001B4CA3F54053DC611A4C40F00100444025
:1041B0001C62596298624FF080454FF0E061134BEA
:1041C0001548164C1D60846019604AB930BC4FF028
:1041D0000042A3F580531A607047114BD861EAE79B
:1041E0004FF47A7303FB02F2B2F1807F2ABF6FF0C3
:1041F0007F4313461A464FF080410A4C084823601B
:10420000094B426030BC1960704700BF00B00D40E0
:10421000D3C007B02D3FF84F00A00140F3FFFF01CE
:1042200000800D40582F002000A00D40012300EB1E
:104230004000800000F1804000F584104160036080
:10424000704700BF002370B5DB8A04460D4600228C
:1042500042E800F2520254BF1021042144F25220DD
:10426000984786462B462246F446BDE870400A2110
:104270004FF48170604700BF0023DB8A002242E8D0
:1042800000F2520201D4102118470421184700BF40
:1042900008B503460846191E02DB1AB140F030008B
:1042A000FFF7D0FF40F02000FAE700BF034AD2F842
:1042B0002838002BFBD0BFF35F8F704700000E4003
:1042C0000021044B044ABFF35F8F43F8041B934261
:1042D000F9D170470C080E402C080E4010B44FF472
:1042E0008D704FF42A64064A064B07491460D0606B
:1042F00019605368002BFCDA5DF8044B704700BF6F
:104300000080044000A0044000B0FA00704700BFE5
:1043100008B50148FEF710FDC480011038B5054C02
:10432000054DAC4204D254F8043B9847AC42FAD352
:1043300038BD00BFD87B0110187C011038B5054C82
:10434000054DAC4204D254F8043B9847AC42FAD332
:1043500038BD00BF047C0110187C011010B4074860
:10436000074C084B084A094904601A608B6832EA16
:104370000303FBD15DF8044B704700BF00200240EF
:104380007F3BEFEF00300240F6FFF30300000240F6
:10439000044BDB6CB3F5004F03D14FF48022024B8A
:1043A000DA64704700001150002011504FF0E022F5
:1043B000044BD2F8881D0B43C2F8883D10EE300440
:1043C000704700BF030330006FF06041044B054AA3
:1043D00019609368DB4333F06043FAD1704700BF44
:1043E000003002400000024010B545F25320FFF7B4
:1043F00043FFBDE8104003460420184710B545F2BE
:104400005320FFF739FFBDE810400346012018474D
:10441000FEF756BD10B5054B054C4FF48872184693
:10442000A1680EF0CDFCA06010BD00BF0000002010
:1044300000ED00E0002370B52B4C82B0C4F884304E
:10444000FFF74CFF0122294BDA63636C012BFCD18F
:104450000321264A244B11639C6B012CFCD10226BC
:10446000052521460523224A22480096FFF74CFEE7
:1044700021462B46204A21480095FFF745FE0022A1
:10448000042031461E4BFFF741FC214628460022FE
:104490001C4BFFF73BFC0022082011461A4BFFF78C
:1044A00035FC002209201146174BFFF72FFC002294
:1044B00006201146134BFFF729FC0022114B072061
:1044C0001146FFF723FC0420FFF788FC00240F4B64
:1044D000A3FB0035AD0CE0B229460134FFF7A6FE80
:1044E000062CF8D102B070BD000001400030014040
:1044F000002F685900000540008C86470080054069
:10450000001BB70080D1F008006CDC0283DE1B4387
:1045100086B003B451FC0804CDE9020151FC090442
:10452000CDE9040151EC0A04CDE9060103BCF047D2
:10453000BDE800504EEC00C4BDE800504EEC01C494
:10454000BDE800504EEC02C400BD000000B5FFF70E
:10455000DFFF02E010FE30F4F8D441EC100443EC2D
:10456000112400EE010410EE010480EE200451EC51
:104570001004704700B5FFF7CBFF02E010FE30F4E7
:10458000F8D441EC100443EC112400EE010410EEC9
:10459000210480EE200451EC3004704700B5FFF791
:1045A000B7FF02E010FE30F4F8D410B541EC10046F
:1045B00043EC112451EC040453EC0524A0FB024C01
:1045C0005FF0000EE0FB03CEE1FB02CE4CEC20449A
:1045D0000024E1FB03E444EC30E480EE200451ECE1
:1045E0005004BDE81040704700B5FFF791FF02E0AE
:1045F00010FE30F4F8D441EC100443EC112451ECDB
:104600002104A0FB01126FEA820252FB100052FB50
:1046100012F252FB1000A0EBD07C53EC04245CFBA4
:1046200013F153EC1524A1FB022001FB030053EC12
:104630004424A2EB000050FB1CF24FEA111312EBD2
:10464000017043EBE27140EA515020EA915020F0B2
:10465000070053EC7524A0FB023C53EC752400FBCF
:1046600003CC01FB02CC53EC0424ACEB824C40EABB
:104670005C70A0F1010041EC400480EE200451EC9C
:104680007004704700B5FFF743FF02E010FE30F4FE
:10469000F8D441EC100480EE220410EEB20470470E
:1046A00000B5FFF735FF02E010FE30F4F8D440EC1F
:1046B000700400EE010410EE210480EE200451ECA1
:1046C0003004704700B5FFF723FF02E010FE30F41E
:1046D000F8D440EC600400EE010410EE210480EEFA
:1046E000200451EC3004704700B5FFF711FF02E0E1
:1046F00010FE30F4F8D441EC800400EE010410EE1A
:10470000010480EE400410EE1304704700B5FFF77B
:10471000FFFE02E010FE30F4F8D441EC800400EE1D
:10472000010410EE010480EE400410EE33047047E3
:1047300000B5FFF7EDFE02E010FE30F4F8D441ECD6
:10474000100443EC112400EE010410EE3004C0F319
:104750000070704700B5FFF7DBFE02E010FE30F49A
:10476000F8D441EC100443EC112400EE010410EEE7
:104770003004C0F38070704700B5FFF7C9FE02E057
:1047800010FE30F4F8D443EC102441EC110400EE98
:10479000010410EE30F48CBF01200020704700BFF0
:1047A00000B5FFF7B5FE02E010FE30F4F8D443EC9C
:1047B000102441EC110400EE010410EE30F42CBF83
:1047C00001200020704700BF00B5FFF7A1FE02E006
:1047D00010FE30F4F8D441EC100443EC112400EE48
:1047E000010410EE30F42CBF01200020704700BF00
:1047F00000B5FFF78DFE02E010FE30F4F8D441EC76
:10480000100443EC112400EE010410EE30F48CBFD0
:1048100001200020704700BF404261EB410140F29F
:10482000F334B1FA81F20C2A0CD2153211FA02F3E8
:10483000C2F12002D04021FA02F12244584141EB5A
:104840000251704769B1C2F12B0230FA02F3C2F192
:104850002002914090401943A4EB020201EB025167
:10486000704701004FF00000A4F12004D9D1704737
:10487000012767F31F5117FA03F817D0A0FB0807A9
:1048800001FB0871A1FB06785FEAD8469219A6FBE6
:10489000047806FB0588090351EA1051D7EB003074
:1048A00061EB0801A94238BF70470BE00C330127C8
:1048B00017FA03F80FD0A0FB080701FB0871A94203
:1048C00038BF704708BFA04238BF7047001B61EB7C
:1048D00005010132704703F1200311FA03F6D3F109
:1048E0002003D840D940304370470000000000004A
:1048F000000000000453B1086018850FC8E5F22AD3
:104900006E07271E0D12B2210412572F12557CBCC0
:10491000DA30723F17A717A55531994E9D0DBF0A82
:10492000EEE0AB5FE3EF6D9C7636AD6F697BCCE379
:104930003D62BD7EF0810682F3FA428F37D5B78A99
:104940005313C89E7FABB320491570AF0000000021
:1049500000000000025E88155580FF00907806B1C7
:10496000A602FE01DC4E21F0EB88FB027A7C801F60
:104970001615F8033C5DA9D110A9F304AA466CF5FD
:10498000C146EE05FF65E4EB09F0E70613C00C9E97
:10499000C3A6E007E1BFEC91C46CD808D5AF5EFFB9
:1049A000DC43CF09466A72E4D72DC50A237E6E190F
:1049B0007B2CBA0BBFF571648741AE0C61DFB88CFC
:1049C000B86EA10D09A9856DC5B5930E3153B10817
:1049D0006018850F3071E498359875105915550594
:1049E00080FF0F0009C3EB8F80FB2F00B1910E9A5F
:1049F00082F34F001FE7FD2287E76F00C3A09A29CB
:104A00008FD78F004F4366AC9BC3AF00412A83A969
:104A1000ADABCF004FB7B41EC68FEF00B6815F09B4
:104A2000E66F0F01678589660E4C2F011A52DA3244
:104A300040244F01483A9B6A7CF86E01FF81B70918
:104A4000C4C88E019C8DBC0B1895AE017010DA6B3A
:104A5000795DCE013A3BE224E921EE0138739533CA
:104A6000427FECA03114FAF5BD8689916B02FAE61B
:104A7000E0F29183E682120713A85177212621687C
:104A80006AB2736A9D0DBF0AEEE0AB5F19B4E0B77E
:104A90001CB66A549596E53DEF07A548D1CBE55580
:104AA000DC0E4E3CCE68ADE839B5A432CB3CFA966C
:104AB000D9569A28C9B21CA1F9FCAE21864B6BE5E8
:104AC0008AD2F0160453B1086018850F02C00C9EFC
:104AD000C3A6E0070000000000000000AC79CFD1C1
:104AE000F71772B1293BAAB84FEAC12040F0004045
:104AF000490043F1200340F20001C3F6F071C3F115
:104B00000B0320FA03F038BF7047404261F1000107
:104B100070475FEAD17CC1F30A53A3F2FF330C2B39
:104B200062DA13F1200FDFDD2DE9F0413C4C70CC4F
:104B30004FF00002FFF79CFE1CF0010F04D06FEA5B
:104B40000202201A65EB010102F2FE3C40F2FE7304
:104B50009C455CD20A0F334B03EBC2030CCB02F033
:104B60003F0545F04005801A99410A0E2E4B03EB94
:104B7000C20318CB02F580725543C01AA1414A0DF9
:104B80002A4B03EBC20318CB124402F5805205FBFB
:104B90000255C01AA1418A0252EA905242F1000223
:104BA00082FB02345B0D53EAC423C01841EB54511D
:104BB00084FB02344FF0553383FB043454FB11F370
:104BC00004EB930410EB440241EBE473E900A1FB16
:104BD0000240C1FB0301400A50EBC1504FEA512192
:104BE00051EB0C51BDE8F081B3F5806F07D150EA6D
:104BF00001320CBF21EAE17141F40021704700202D
:104C000000211CF0010F08BFC7F6F07170474FF08C
:104C100000004FF00001A8BFC7F6F071BDE8F081B9
:104C2000DC4A0010EC4800104C490010DC49001030
:104C300040F20001CFF6F0710020704750EA0132D7
:104C400018BF41F4002170477FEAA65540F0198152
:104C50004FF4805420E18CEA11331B0640F0EE80C3
:104C6000BCF1000F67D1C90451EA5031C004B1FA58
:104C700081F4202C4BD20125A540A0FB052301FB8C
:104C80000533A0FB03C5A1FB02C6E1FB6356B2EBF3
:104C9000152263F10003B2EB066273EB1623A0FB4F
:104CA00006C7A1FB05C8E1FB66784FF05535A7FBA9
:104CB00005C65FF0000CE8FB056C16EB0C064CF12A
:104CC000000C12EB963243F1000312EB8C4243EBE3
:104CD0009C3358FB11F55FF0333755FB11F656FB4B
:104CE00017F8A5EB581756FB11F5C2F6802656FBB0
:104CF00015F507EB1537B2EB472063EBD751C4F539
:104D00008064A4F11504FFF78CFDBDE8F081B0FAD2
:104D100080F410FA04F1A0FB01234FF00000B0EB87
:104D2000132061F10001C4F58064A4F13504FFF79C
:104D300078FDBDE8F081890451EA90318004404259
:104D400061EB4101B1FA81F4202C4ED2013C0125E6
:104D5000A540A0FB052301FB0533A0FB03C5A1FB78
:104D600002C6E1FB635612EB152243F1000312EB7E
:104D7000066253EB1623A0FB06C7A1FB05C8E1FBA7
:104D800066784FF05535A7FB05C65FF0000CE8FBD1
:104D9000056C16EB0C064CF1000C12EB963243F14D
:104DA000000312EB8C4243EB9C3358FB11F55FF090
:104DB000333755FB11F656FB17F805EB581756FB22
:104DC00011F5C2F6802656FB15F507EB153712EBE9
:104DD000472043EBD751C4F58064A4F11504FFF7D5
:104DE00020FD41F00041BDE8F081B0FA80F410FAF6
:104DF00004F1A0FB01234FEA1320C4F58064A4F161
:104E00003504FFF70EFD91F00041BDE8F0815FEA47
:104E1000410CBFF40DAF5FEA5C5C3FF409AFACF24C
:104E2000FF3CBCF5806F3FF409AF012262F31F51D4
:104E30002DE9F041BCEBEC7F3FF40DAF0C0C4E4D77
:104E400005EBC40595E80C0002F03F0505F14005AF
:104E5000A5FB000605FB01616FEAE14404F01F04B5
:104E6000464D05EBC40560CD521943EB060304F52E
:104E70008074A4FB000604FB01667FEA26643FF40D
:104E8000E3AE3F4D05EBC40522CD521843EB0503BD
:104E900041F2010505EB44046404A4FB0050C4EB9B
:104EA000C401E4FB060180EAE17481EAE175A5FB37
:104EB0000567A4FB05487F084FEA360616EB08068F
:104EC00047F100078C0254EA905444F10004801B1F
:104ED00061EB070154FB14F555FB14F655FB15F770
:104EE0004FF0553456FB14F6B6EB173610EB860030
:104EF00041EBA671101A63EB0101224A24CA1CF18E
:104F0000010C0BDDA2FB0C230024E5FB0C34121A70
:104F10008B4164F100045FF080410CE0DCF1000C97
:104F2000A2FB0C230024E5FB0C3482184B4144F116
:104F300000045FF040414CB91C0013000022B1F1A5
:104F400000711CB91C000023B1F10071B4FA84F5A2
:104F5000A5F11D06A1EB0651AC4013FA05F0C5F111
:104F60002005EB401C43EA401043C00A50EB44507C
:104F700041EBD421BDE8F081DC4900104C49001020
:104F8000DC490010DC4A00100022002950DA4042BF
:104F900061EB4101C9B1B1FA81F30B3B17D4D3F1F5
:104FA000200C30FA0CFC9840994051EA0C011A444C
:104FB000524202F2324201EB025141F0004140F212
:104FC000FE739A4238BF704721E011467EE003F13C
:104FD000210310FA03FCA3F1010301FA03FCC3F15E
:104FE000200320FA03F021FA03F140EA0C00A3EBBE
:104FF000020202F2324214D050F1000041EB0251A1
:1050000041F0004140F2FE739A4238BF70474FF0C2
:105010000001A8BFC7F6F0714FF0000070470021F3
:105020007047EBD350F1000020F00100E6E70022CA
:10503000B9B1B1FA81F30B3B16D4D3F1200C30FA9D
:105040000CFC9840994051EA0C011A44524202F279
:10505000324201EB025140F2FE739A4238BF704770
:1050600020E0114600F066B803F1210310FA03FCBA
:10507000A3F1010301FA03FCC3F1200320FA03F0BA
:1050800021FA03F140EA0C00A3EB020202F23242E1
:1050900012D050F1000041EB025140F2FE739A42EF
:1050A00038BF70474FF00001A8BFC7F6F0714FF04E
:1050B0000000704700217047EDD350F1000020F050
:1050C0000100E8E7002880F235804042B0FA80F322
:1050D0000B3B11D4984001EB0302524202F2124200
:1050E00000EB025141F000414FF0000040F2FE732E
:1050F0009A4238BF704713E0C3F1000330FA03FC53
:10510000C3F120029040A3EB010202F212420CEB29
:10511000025141F0004140F2FE739A4238BF70479D
:105120004FF00041A8BFCFF6F0714FF0000070477C
:105130000021704760B3B0FA80F30B3B0FD4984066
:1051400001EB0302524202F2124200EB02514FF015
:10515000000040F2FE739A4238BF704710E05B4295
:1051600030FA03FCC3F120029040A3EB010202F2EB
:1051700012420CEB025140F2FE739A4238BF704764
:105180004FF00001A8BFC7F6F0714FF00000704764
:10519000002170470022A2F232425FEA215CACF1AA
:1051A0000103A1EB03515B0513F5800F32D212EB23
:1051B000535210D40B2A36DA9140D2F1200330FA40
:1051C00003F319439040BCF1000FA8BF7047404261
:1051D00061EB4101704720320EDD01FA02F3D2F19A
:1051E0002002D140D0401843BCF1000FA8BF704747
:1051F000404261EB41017047524282F3050231FAAD
:1052000002F00021BCF1000FA8BF7047404261EBE3
:105210004101704702D000200021704750EA01315F
:1052200018BF4FF0000C6FF0004101EBDC716FEA2A
:10523000EC7070472DE9F04101292DED028B08EE4D
:10524000100A50D001EBD1756D10012D0C463CD0E9
:105250000E460029B8BFCE1CB610012E4ED00F4608
:105260000029B8BFCF1DFF10012F44D08846002968
:10527000B8BF01F10F084FEA2818B8F1010F40D06C
:10528000A1F120031F2B3FD90021FFF7D3FF07EE29
:10529000900A67EEA77A18F0010F67EEA77A01D09F
:1052A00067EE887AF80767EEA77A01D567EE887A05
:1052B000F10767EEA77A01D567EE887AEA0767EE0D
:1052C000A77A04D567EE887A01E0F0EE487AE30722
:1052D00067EEA77A01D567EE887ABDEC028B17EEF0
:1052E000900ABDE8F081F0EE487ABDEC028B17EE33
:1052F000900ABDE8F081F0EE487AD9E7F0EE487AFE
:10530000DCE7F0EE487ACDE7F0EE487AC3E700BF7D
:10531000021E38B50C4618DAC1F3C7537F3B084666
:1053200010D4D3F117030DD44FF0010C0CFA03FC89
:105330000CF1FF3C1CEA010F04D1172B24D0D840FC
:10534000C30721D402F10042104607EE904AFDEE59
:10535000E77A12F0FF4317EE901A1DD0B3F1FF4F1A
:105360001AD0C2F31603BBB9D20D7F3A01F308017C
:1053700001FB02F303F17F02002A37DDFE2A37DC4E
:10538000DB0503F17E5038BD214602F10040FFF7F6
:10539000BFFF00F1004038BD91B101F12003402B67
:1053A00011D8002908DA07EE100AF7EE007AC7EEE6
:1053B000877A17EE900A4942BDE83840FFF73ABFB6
:1053C0004FF07E5038BD12F0DBFBFFF720FD0246A8
:1053D0000D462046144612F0D3FB22462B46FFF71B
:1053E000E1F8FFF796FBFFF751F938BD002038BD13
:1053F0004FF0FF4038BD00BFB7EE007A07EE900ACD
:10540000F4EE477AF1EE10FA32D011F0FF4238B5DF
:105410000C460B4629D0FFEE006AF4EE667AF1EEF8
:1054200010FA26D1B2F1FF4F1FD040F27F1057493A
:10543000E20DFF2A60D040F2FF1C624558D012F006
:10544000FF020BD07F3A5BD4C2F11702002A05DDC0
:10545000012000FA02F2013A1A4251D12146BDE878
:10546000384017EE900AFFF753BF17EE100A38BD09
:10547000704710F0FF4F01461AD1002C4FEAD4526A
:105480001DDB7F3A19D4D2F1170216D401219140C5
:105490000139214211D1172AE9D09FED3D7A24FA32
:1054A00002F212F0010F47FE277A17EE900A38BD7C
:1054B000C00DFF283BD1002C0CDA002038BDD2B241
:1054C0007F3A07D4D2F1170204D40120904001386A
:1054D000204202D04FF0FF4038BD172A03D024FAF3
:1054E00002F2D007F6D501F0004040F0FF4038BD91
:1054F000C0B27E28EED9E0E7C0B27E28DDD9E9E768
:105500000029E7DB17EE900A12F03AFBFFF77FFC69
:1055100002460D462046144612F032FB22462B4628
:10552000FFF740F8FFF7F5FAFFF7B0F838BD40F2A3
:10553000FF15A8424FEAD4527FF47BAF002C11DB59
:105540007F3AC7D4D2F11702C4D401219140013966
:105550002142BFD1172A03D024FA02F2D207B9D5CB
:105560000C4838BDD2B27F3AA7D4D2F11702A4D4E6
:1055700001219140013921429FD1172A03D024FAF9
:1055800002F2D30799D54FF0004038BD000080BF2C
:1055900000000000000080FF0022002980F2A980A6
:1055A000404261EB4101B1B3B1FA81F3083B16D43B
:1055B000994010FA03FCC3F1200320FA03F040EAFB
:1055C0000100A2EB0302C2F195021CEB0C0C40EBB4
:1055D000C25040F0004020D0FE2A16D2704703F19E
:1055E000210311FA03FC5CEA000CC3F1210321FA48
:1055F00003F0A3EB020202F1B50240EBC25040F00F
:1056000000400AD0FE2A38BF70474FF00040A8BFC4
:10561000CFF68070704711460AE028BF20F00100E5
:10562000FE2A38BF7047F0E7002880F233804042FE
:10563000B0FA80F3083B0CD4984001EB0302C2F1AE
:10564000950200EBC25040F00040FE2A38BF704780
:1056500013E003F1210310FA03FCC3F1210320FA44
:1056600003F0A3EB010202F1950240EBC25040F0BF
:10567000004008D0FE2A38BF70474FF00040A8BF56
:1056800040F0FF40704728BF20F00100FE2A38BFDD
:105690007047F2E720B3B0FA80F3083B0AD4984091
:1056A00001EB0302C2F1950200EBC250FE2A38BFA3
:1056B000704711E003F1210310FA03FCC3F1210349
:1056C00020FA03F0A3EB010202F1950240EBC25075
:1056D00007D0FE2A38BF7047ACBF4FF0FF40002014
:1056E000704728BF20F00100FE2A38BF7047F3E75B
:1056F000002289B3B1FA81F3083B14D4994010FA1F
:1057000003FCC3F1200320FA03F040EA0100A2EBFE
:105710000302C2F195021CEB0C0C40EBC2501ED0F0
:10572000FE2A14D2704703F1210311FA03FC5CEA4C
:10573000000CC3F1210321FA03F0A3EB020202F1F2
:10574000B50240EBC2500AD0FE2A38BF7047ACBF4A
:105750004FF0FF40002070471146FFF79BBF28BF66
:1057600020F00100FE2A38BF7047F0E7000000007B
:105770000000000000000000DB60BE284A05919395
:10578000F4D5097F70374D7D66A5D83610E4104FEB
:10579000AFF224024B1102EB830201F01F034FF022
:1057A00001049C40A4FB0034D568A5FB0456956811
:1057B00005FB0466E5FB0356556805FB0366704769
:1057C000410201D150F0004050F480007047F0B524
:1057D000012363F3DF50C1F109014FF07E07FFF7AA
:1057E000D7FFB30F53F100039C44B6EB8376B200AE
:1057F00028BF5242B2F1805F0BD20231FFF7C8FFDF
:1058000096EA260242F10002B2F1805F01D2023F25
:10581000F3D50A4CA2FB0424B4FA84F29440240A7F
:10582000A7EB020244EBC250C10DD1F17F01F60F8C
:1058300000EBC673BDE8F04073E00000A2DA0FC9C8
:1058400011F1800FBCD030EACC7248BF0CF1020CD1
:1058500020F0004000EE100A0DA2F2EC032A22EE26
:10586000802A11F1080FB9FE422AB0DDA2EE630AC8
:10587000A2EE430A10EE103AFDEEC21AC3F3C7526D
:10588000782AA4D3D2F17F0111EE902A944448E003
:1058900083F9223F7A7795B60010C93F07B5C0F368
:1058A000C751FF2925D000F032F8BDE80640CEF8F8
:1058B00000000ED2C9438CEAD17C63EEA02AE1EE4F
:1058C000032A73EE622A12EE900A80EACC7010600E
:1058D00000BD8CEAD17C21EE232AA3EE602A8CEA5B
:1058E000D37133EEC22A12EE100A80EAC170106042
:1058F00000BD4102BDE80E4001D150F0004050F41F
:1059000080001060186070475FF0000C01E05FF0ED
:10591000010CC0F3C751A1B3D1F17F0190D920EAA6
:10592000CC7323F0004000EE100AC0F38440203016
:1059300030FA01F1834A51F10001B2EC024A02EB64
:10594000810202EBC102D2EC032A70EE620A20EE61
:10595000A01A5FEA5C0C61EE201A15D221EE041A3F
:1059600061EEA41A70EEE10A21EE232AA3EE602A6A
:105970008CEAD37133EEC22A12EE100A80EAC170AB
:10598000704700F00040C7E761EEA41A70EEE10A2C
:1059900021EE041A63EEA02AE1EE032A73EE622AD6
:1059A00012EE900A80EACC70704700BFAFF300801F
:1059B000C1FEFF3E25AA2A3E000000000000803FF5
:1059C0000000000061C9FC3CCDE07F3F1CBFFC3CF7
:1059D0007605813DFE7D7F3F9EEF803D090CBF3DFA
:1059E0000FE37E3F22C5BE3DB624FF3D14047E3F3B
:1059F000E27BFE3D13071F3E48EB7C3FA0631E3E4B
:105A00006D30403E1D817B3F15103F3EA2AD603E94
:105A1000CFDC793F3EE15E3E7B0D803EFA08783F69
:105A200096717D3E6E988F3E65FF753F68B88D3EDE
:105A3000F4E19F3E939E733FFD4B9D3EC654B03EA6
:105A4000AEF7703FB3DDAC3EC589BF3E604B6E3FE5
:105A50000A1ABB3E26C4CF3ECA356B3F631CCA3E02
:105A6000F254E03E66D1673F0739D93EDDF0EF3EA4
:105A70004B66643F1641E73E312B003F8894603F00
:105A80000FC3F53E07E4073FA2C55C3F2B99013FDA
:105A9000C51F103F8F7D583F65A1083F8AF6173F0D
:105AA000B534543FCA310F3FE2FF1F3F599B4F3F70
:105AB000D7C8153F4606283F6BCF4A3FC4371C3F27
:105AC0004130303FE0B9453FE49A223FA71D383FBF
:105AD000CA98403F20A6283F2FC73F3FAC763B3FA8
