:100000000C9440000C9474000C9474000C94240420
:100010000C9420040C941C040C9474000C94740034
:100020000C9474000C9474000C9474000C94740080
:100030000C9474000C94F8040C9474000C94E20377
:100040000C9474000C9474000C9474000C94740060
:100050000C9474000C9474000C9474000C94740050
:100060000C9474000C9474000C9474000C9476043A
:100070000C946F040C947D040C9474000705C40860
:1000800011241FBECFEFCDBFDFE3DEBF8091400064
:1000900080934000811105C098ED21E094BF20932A
:1000A00041008CBB29E3ACE0B8E301C01D92A5354B
:1000B000B207E1F718E3A0E0B8E3E3EAF7E102C032
:1000C00005900D92AC30B107D9F710E0CFE3D0E046
:1000D00004C02197FE010E947D09CE33D107C9F7E4
:1000E0000E9476050C94750B0C9400009FB7F89451
:1000F00088E08093840A80918E0A81FFFCCF8091F2
:100100008D0AE091A20AF091A30A209188383091DB
:10011000893840918A3850918B389FBF80FF07C043
:10012000E730F10520F42F5F3F4F4F4F5F4FBF0186
:1001300076956795CF01860F911DE62FE695E6959A
:10014000762F72957F70E71BFF0B67FD3196E80FE6
:10015000F91FA0E3B3E00E940A096E0F7F1F811D03
:10016000911D0895CF92DF92EF92FF92CF93DF938C
:100170006B017C010E947600EB01C114D104E10403
:10018000F10441F413C081E0C81AD108E108F10874
:10019000C851DC4F0E9476006C1B7D0B683E73409B
:1001A00060F3C114D104E104F10469F7DF91CF9148
:1001B000FF90EF90DF90CF900895E0917238F0912A
:1001C0007338309709F44DC0A285B3858185928D2F
:1001D00091FF04C09C91892329F408959C9189235F
:1001E00009F03FC0A785B0899C91818980958923BA
:1001F0008C93828993890197F1F764897589A28527
:10020000B385518538E020E0CB010197F1F7822FCB
:1002100090E095958795282F4C91452309F020680B
:10022000315091F7828D81FD20958091713890E059
:1002300001968F73992730917038381799F0A091F3
:100240007138B0E0A05DB74C2C93809371388689EB
:1002500097890197F1F7A785B0898C919189892BAE
:100260008C930895828D8160828FF1CFAF92BF927F
:10027000CF92DF92EF92FF920F931F93CF93DF9372
:100280006C017B018B01040F151FEB015E01AE18A1
:10029000BF08C017D10759F06991D601ED91FC91C3
:1002A0000190F081E02DC6010995892B79F7C501F0
:1002B000DF91CF911F910F91FF90EF90DF90CF9042
:1002C000BF90AF900895FC0157854089252F30E0FD
:1002D000842F90E0821B930B541710F0CF96089553
:1002E00001970895FC0195858685981761F0A6858C
:1002F000AE0FBF2FB11D51968C9196859F5F9F7356
:10030000968790E008958FEF9FEF0895FC01958503
:100310008685981731F08685E80FF11D818990E078
:1003200008958FEF9FEF0895FC0195852685892F0D
:1003300090E0805C9F4F821B91098F7399270895ED
:10034000DC010FB607FE04C0809111018823B9F0CB
:100350001896ED91FC911997848185FF10C01F9626
:100360009C911F9750968C91981304C085818F7D26
:1003700085830895ECE8F8E3E8940C948B040895E1
:100380000F931F93CF93DF93EC018C8581608C8753
:100390009F85888998130BC0E885F985848185FF3E
:1003A00006C08C8581FD0EC080E4848313C0062FB7
:1003B0001F851F5F1F738889811316C0CE010E949D
:1003C000A001F9CF85818F77806490E49483E885DC
:1003D000F9858583E885F985628381E090E0DF9186
:1003E000CF911F910F910895EF85EC0FFD2FF11D17
:1003F000EF5AFF4F00831F878C85E885F98581FFC1
:1004000009C085818F77806690E49483E885F985BB
:100410008583E3CF85818062FBCFCF93DF93EC01AF
:100420008C85882361F0E885F985858185FD03C089
:10043000848186FD04C0CE010E94A001F4CFDF912B
:10044000CF91089520917238309173382817390769
:1004500071F49091703880917138981741F0E09163
:100460007038F0E0E05DF74C808190E008958FEF08
:100470009FEF08950895EF92FF920F931F93CF93EC
:10048000DF93DC015896ED90FC905997E114F1044C
:1004900079F481E090E012968D939C93139790E00D
:1004A00080E0DF91CF911F910F91FF90EF90089521
:1004B0001D96ED91FC911E971C968C911C97982F80
:1004C00090950FB75A962C915A97122F127021FDC2
:1004D0006095F8942081112319F1282B2083E701DE
:1004E0002197F1F728E0462F50E0308160FF1AC0D5
:1004F000382B3083E7012197F1F7BA01759567959D
:10050000215089F7112381F08081892380830FBFD7
:1005100058968D919C910197F1F781E090E0C1CFC1
:100520002923DCCF3923E5CF9081892BEFCF209190
:100530007238309173382817390741F48091713837
:1005400090917038891B8F7390E0089590E080E05F
:100550000895209172383091733828173907A1F423
:100560009091703880917138981771F0E0917038DF
:10057000F0E0E05DF74C8081909170389F5F9F7351
:100580009093703890E008958FEF9FEF089590E07A
:1005900080E008958231F0F490E0FC01EC5AF846D6
:1005A00020812F3FB9F0FC01EE5BF846E08130E29C
:1005B000E39FF0011124FC5F60FF0DC02183805D8B
:1005C0009846DC018C91E80FF11D808961FF05C020
:1005D0008860808B08952283F2CF877FFACFCF93F4
:1005E000DF938231A8F590E0EC01CC5AD8462881FF
:1005F0002F3F71F1AC014E5B5846DA01EC91B0E24D
:10060000EB9FF0011124FC5F611125C0268330812E
:100610002323A1F49C01205D3846D9012C91309709
:1006200019F1283008F57096E20FF11D3FB7F894E4
:10063000208161111CC0277F20833FBF845F9846C3
:10064000FC018081882321F0803199F0803819F1F4
:10065000DF91CF910895643029F434812783648138
:100660006223D5CF2583D3CFF0E0E0E0DFCF286051
:10067000E3CF8881DA019C91913059F4853010F0F4
:10068000880F82959091010A809589238093010AB1
:10069000DFCF880FF7CF1092A006DACFEF92FF924C
:1006A0000F931F93CF9390912A39992389F1C82FE3
:1006B00010E000E08150990B7C0161E080911D39D0
:1006C0000E94EF0260911E3970911F39809120398C
:1006D000909121390E94B20060E080911D390E9402
:1006E000EF020E151F0554F460911E3970911F39E9
:1006F00080912039909121390E94B2000F5F1F4FE5
:100700000C17D8F2CF911F910F91FF90EF900895A1
:10071000909129399111F6CF80932639880F8093D3
:10072000273981E080932939109228392FB7F8941E
:100730008091843890918538A0918638B09187381F
:100740002FBF8093223990932339A0932439B093FB
:100750002539D8CF61E083E00C94EF0260E083E0BC
:100760000C94EF0242E050E068E777E986E399E312
:100770000C9436010F931F93CF93DF93EC01888184
:100780009981009759F02A813B812617370730F06D
:1007900081E0DF91CF911F910F9108958B016F5FE1
:1007A0007F4F0E94A80A009759F0888399830A8393
:1007B0001B832C813D81232B59F7FC011082E8CF4C
:1007C00080E0E7CFEF93FF93E2E8F8E38F938FB7F2
:1007D0008F939F937F9370E080819181805D9C4F88
:1007E00080839183885E934018F0808391837F5F3C
:1007F0009281970F928380E09381981F93839481D5
:10080000981F94839581981F958396819F5F968307
:1008100097819F4F978390859F4F908791859F4F9A
:10082000918781E080938D0A7F919F918F918FBFF7
:100830008F91FF91EF9118950F9304E00C94280489
:100840000F9302E00C9428040F9300E00C9428040A
:100850000F920FB60F921F921124FF921F932F93A6
:100860003F934F935F936F937F938F939F93AF9338
:10087000BF93CF93DF93EF93FF93A0E0B8E3A00F74
:10088000B11DCD91DC91000F0D5FA02FB0E0FC9069
:10089000109761F01F2D169518F041F02296FBCFAE
:1008A000E991F9913097B9F30995F5CFA02FB0E010
:1008B000FC92FF91EF91DF91CF91BF91AF919F910A
:1008C0008F917F916F915F914F913F912F911F91E8
:1008D000FF901F900F900FBE0F900F911895EF9300
:1008E000FF93F898ECE8F8E30C948304EF93FF93FC
:1008F000F898ECE8F8E30C94B204EF93FF93ECE87B
:10090000F8E30C94DF042F932FB72F938F939F93CB
:10091000AF93BF936894CF93DF9320E0C085D8E076
:100920009089DF01A90FB21FAF5ABF4F8C9120E40D
:100930002C838A839F5F9F738D812785291302C033
:100940008F7D8D83908BDF91CF9116F00C94BF013A
:10095000BF91AF919F918F912F912FBF2F91FF91B9
:10096000EF9118952F932FB72F933F938F939F93CA
:10097000CF93DF93C085D8E0898198818674880FF2
:100980003485382B82FD0DC0C58581E08C0F8F73B7
:100990002685281791F0CE0FDF2F20E0D21F998BEC
:1009A00085873487DF91CF919F918F913F912F91D0
:1009B0002FBF2F91FF91EF9118953064F2CF8F9355
:1009C0008FB78F939F93CF93DF93C085D8E09D819E
:1009D00088818C8187FDFCCF9F7B90689D83DF9110
:1009E000CF919F918F918FBF8F91FF91EF9118952C
:1009F0001F920F920FB60F9211248F9381E0809374
:100A0000460A8F910F900FBE0F901F9018951F935D
:100A1000CF93DF93ECE8F8E31282138288EE93E041
:100A2000A0E0B0E084839583A683B78322E237E910
:100A30002083318320E038E02087318712861386B7
:100A4000C6E3D9E31A821B828C839D83AE83BF8366
:100A50008AE697E9888399831A8A1B8A1C8A1D8AE9
:100A60001E8A1F8A188E198EE0E5F9E360816E7F79
:100A70006D7F608311E066956170612785E00E945B
:100A8000EF0261E085E00E94CA0280E18C8784E287
:100A900094E08D879E878FEF8887898788E090E034
:100AA0008A879B87EBE2F9E3108283E081838CE203
:100AB00091E0A0E0B0E087839087A187B287209182
:100AC00000142283CDE1D9E3188389839A83AB8311
:100AD000BC831C861D8661E081E00E94CA0260E042
:100AE0008881DF91CF911F910C94EF02CF93DF9318
:100AF000CDB7DEB72F97CDBFDEBF88ED90E084BFC6
:100B000090936100E0E0F6E083E582838DE08583E9
:100B100080E2838381E08083109202028093030A43
:100B20009EEF9093260A9093270A9BE09093000AE9
:100B3000E0E8FAE02DEF31E026A737A7118290E830
:100B40009283848781E18083789461E083E00E94CE
:100B5000CA0260E083E00E94EF0261E085E00E944B
:100B6000CA0285E092E080934E3990934F3981EF2D
:100B700090E0809348399093493983E092E08093E4
:100B80004A3990934B398AE791E080934C3990939E
:100B90004D3920913E39223198F530E0F901E05D80
:100BA000F84680818F3F61F12E5B3846D901EC9188
:100BB000F0E0DF01AA0FBB1FA050B84C2D913C9173
:100BC00021153105E9F0482F50E0440F551F240F3F
:100BD000351F4DED50E0D9014D935C939FB7F894CC
:100BE0009F0175E0220F331F7A95E1F7E0E1E80FEE
:100BF000E20FF0E0FC5F8081887F816080839FBF8F
:100C000080914E3990914F390197F1F780914C398D
:100C100090914D39892B49F1E0917238F0917338F8
:100C2000B9E3E633FB0709F1309739F0A785B089BE
:100C30009C918189809589238C93809150398E7FF6
:100C400080935039109271381092703886E399E38E
:100C50008093723890937338E0914539F09146391A
:100C6000808190914739892B80838091A1008D7F6D
:100C70008093A100809102068F7C8065809302069C
:100C800060E08EE00E94CA0260E08FE00E94CA022B
:100C90008091A00083608093A0008091A10081607A
:100CA0008093A10081E48093A0061092A106809118
:100CB000983880FF12C08CE898E30E940D02E09102
:100CC0009438F09195381682158280EC8483809157
:100CD0009A388093993810929838FFB6F894E0913A
:100CE0009438F0919538168283E0878380E09AE00B
:100CF00080879187148680E8858380EC8683909135
:100D000097380091963880910102992309F4FAC02E
:100D1000816080930102090F1127111F000F111F1D
:100D2000000F111F0C5F184661E0F80180810E94DE
:100D3000CA0262E0D80111968C910E94CA02FFBEDD
:100D40008091400A81608093400A8091400A8260CD
:100D50008093400A80E492E480934C0A90934D0A79
:100D60008091410A8093410A81E08093450A7894FA
:100D700062E080912B390E94CA0210922E391092A3
:100D80002F39109230391092313961E081E00E94A0
:100D9000CA028AEA93E080937C3890937D388EEA89
:100DA00093E080937E3890937F3848E150E06BE782
:100DB00077E986E399E30E9436010E94B203BB24DF
:100DC000B394C12C94E1D92E8E010F5F1F4F8CE894
:100DD00098E30E9494011816190654F48CE898E3DD
:100DE0000E94720187FF90C0809374381092773808
:100DF00080912A3981114AC080912939882309F4C8
:100E000045C08FB7F89440908438509085386090F2
:100E10008638709087388FBF80912239909123391E
:100E2000A0912439B0912539B301A201481B590B77
:100E30006A0B7B0B80911E3990911F39A09120394C
:100E4000B0912139481759076A077B07F8F060917C
:100E500028396B256093283980911D390E94EF0253
:100E60004092223950922339609224397092253968
:100E700080912739815080932739811107C01092C2
:100E8000293960E080911D390E94EF0280912B3951
:100E9000282F30E040912E3950912F396091303910
:100EA00070913139823108F07AC0F901EC5AF84674
:100EB00080818F3F09F473C02E5B3846D901EC91D5
:100EC000B0E2EB9FF0011124FC5F9085892309F0CB
:100ED00066C0452B462B472B09F079CF2FB7F894E6
:100EE0008091843890918538A0918638B091873868
:100EF0002FBF80932E3990932F39A0933039B09320
:100F0000313965CF8E7F05CF90917438992309F4DC
:100F10006FCFE091773821E02E0F20937738F0E003
:100F2000EC58F74C8183223008F462CF1092773866
:100F3000292F207F20937838892F8F7080937938DC
:100F40006091753860937A384091763840937B3859
:100F5000203961F0203BF1F0203809F049CFE091D1
:100F60007E38F0917F38309749F442CFE0917C3859
:100F7000F0917D38309721F0442311F0099538CF56
:100F8000E0917E38F0917F38309709F431CF4423D7
:100F9000A9F32ECFE0918038F0918138E4CF452B32
:100FA000462B472B09F413CF2FB7F8948091843840
:100FB00090918538A0918638B09187382FBF4091A5
:100FC0002E3950912F396091303970913139841B0D
:100FD000950BA60BB70B4091323950913339609184
:100FE00034397091353984179507A607B70748F447
:100FF00010922E3910922F391092303910923139C7
:10100000E6CE80912D3990E0019660912C3970E008
:101010000E945509A82E80932D39382FD601E0E083
:10102000F0E10FB622812370E9F7F8943C933DE993
:1010300034BF33E030830FBE10922E3910922F3917
:1010400010923039109231391A861B861C861D8603
:101050001E861F864AE0B8010E94E008F801019050
:101060000020E9F731977F01E01AF10AB701CE01BC
:101070000A960E94BA032A853B85811167C0211513
:10108000310519F0C9010E941F0A1A861B861E86A7
:101090001F861C861D8619821A821B821C821D8255
:1010A0001E826EE070E0C8010E94BA0329813A8175
:1010B000811153C02115310519F0C9010E941F0A81
:1010C00019821A821D821E821B821C828A849B8442
:1010D0008114910409F44BC0EE84FF84E114F104FF
:1010E000A9F08D819E81E80EF91EB701C8010E940A
:1010F000BA038823E1F129813A818D819E81B4016F
:10110000820F931F0E946E0BED82FE824D815E81E5
:1011100069817A8186E399E30E9436010E94B203D5
:1011200089819A810E941F0A8A859B850E941F0AD5
:1011300081E0AA2041F0B1E082E0AB1621F0E2E0CC
:10114000AE1245CE83E00E944E0341CEEE86FF866E
:10115000B801C9010E946E0B9ECF8EE090E08D8396
:101160009E8364E977E9C9010E946E0BAFCF898144
:101170009A81009711F00E941F0A19821A821D821B
:101180001E821B821C82C2CF8AE697E98093363981
:101190009093373980917238909173388653994380
:1011A00071F4E0914539F091463990818091473949
:1011B0008095892380831092723810927338089535
:1011C000BB27FB015527AA27880F991FAA1FA41721
:1011D00010F0A41B83955051B9F7A05DAA3308F015
:1011E000A95DA193009779F7B111B1931192CB0149
:1011F0000C94FA08DC01FC01672F71917723E1F769
:10120000329704C07C916D9370836291AE17BF07D3
:10121000C8F308950E944609A59F900DB49F900DB4
:10122000A49F800D911D112408952F923F924F92FB
:101230005F926F927F928F929F92AF92BF92CF9266
:10124000DF92EF92FF920F931F93CF93DF93CDB76F
:10125000DEB7CA1BDB0BCDBFDEBF09942A883988F5
:1012600048885F846E847D848C849B84AA84B9843E
:10127000C884DF80EE80FD800C811B81AA81B9814A
:10128000CE0FD11DCDBFDEBFED010895A29FB001ED
:10129000B39FC001A39F700D811D1124911DB29FAA
:1012A000700D811D1124911D089597FB072E16F4D2
:1012B000009407D077FD09D00E94690907FC05D08A
:1012C0003EF4909581959F4F0895709561957F4F5D
:1012D0000895AA1BBB1B51E107C0AA1FBB1FA6177D
:1012E000B70710F0A61BB70B881F991F5A95A9F7CF
:1012F00080959095BC01CD010895EE0FFF1F0590DC
:10130000F491E02D09940F931F93CF93DF938230D4
:10131000910510F482E090E0E0915339F091543956
:1013200030E020E0B0E0A0E0309799F421153105DD
:1013300009F44AC0281B390B24303105D8F58A81BD
:101340009B816115710589F1FB0182839383FE0105
:1013500011C0408151810281138148175907E0F083
:101360004817590799F4109761F012960C93129749
:1013700013961C933296CF01DF91CF911F910F915D
:1013800008950093533910935439F4CF2115310542
:1013900051F04217530738F0A901DB019A01BD0152
:1013A000DF01F801C1CFEF01F9CF8093533990935A
:1013B0005439CDCFFE01E20FF31F81939193225058
:1013C000310928833983D7CF20915139309152394F
:1013D000232B41F42091083830910938209351395A
:1013E0003093523920910638309107382115310554
:1013F00041F42DB73EB740910A3850910B38241B69
:10140000350BE0915139F0915239E217F307A0F40E
:101410002E1B3F0B2817390778F0AC014E5F5F4F4A
:101420002417350748F04E0F5F1F409351395093F2
:101430005239819391939FCFF0E0E0E09CCFCF931E
:10144000DF930097E9F0FC01329712821382A0919A
:101450005339B0915439ED0130E020E01097A1F4F8
:1014600020813181820F931F20915139309152395F
:101470002817390709F061C0E0935139F0935239C8
:10148000DF91CF910895EA01CE17DF07E8F54A8191
:101490005B819E0141155105B1F7E901EA83FB83A8
:1014A00049915991C40FD51FEC17FD0761F4808154
:1014B00091810296840F951FE90188839983828127
:1014C00093818A839B83F0E0E0E012968D919C915A
:1014D00013970097B9F52D913C911197CD01029684
:1014E000820F931F209151393091523928173907B3
:1014F00039F6309751F51092533910925439A09320
:101500005139B0935239BCCFC283D38340815181CA
:10151000840F951FC817D90761F44E5F5F4F88810C
:101520009981480F591F408351838A819B8182830F
:1015300093832115310509F0B0CFE0935339F0932F
:1015400054399ECFFD01DC01C0CF12821382D7CF68
:10155000B0E0A0E0EEEAFAE00C9417098C010097E5
:1015600051F4CB010E9483098C01C801CDB7DEB7CD
:10157000E0E10C943009FC01E60FF71F9C012250BA
:101580003109E217F30708F49DC0D901CD91DC9130
:101590001197C617D70798F0C530D10530F3CE01A3
:1015A00004978617970708F3C61BD70B2297C1939A
:1015B000D1936D937C93CF010E941F0AD6CF5B011C
:1015C000AC1ABD0A4C018C0E9D1EA0915339B091EE
:1015D0005439512C412CF12CE12C109731F580918C
:1015E0005139909152398815990509F05CC0461619
:1015F000570608F058C08091063890910738009738
:1016000041F48DB79EB740910A3850910B38841B36
:10161000950BE817F90708F055C0E0935139F0939E
:101620005239F90160837183A0CF8D919C911197FC
:1016300012966C90129713967C901397A815B90583
:1016400059F56C0142E0C40ED11CCA14DB0420F130
:10165000AC014A195B09DA011296159780F0628293
:10166000738240835183D9016D937C93E114F1041B
:1016700071F0D7011296ED93FC93139776CF2296D3
:101680008C0F9D1FF90180839183F301EFCFE093CD
:101690005339F093543969CF4816590608F42C0190
:1016A0007D01D3019ACFCB010E9483097C01009771
:1016B00049F0AE01B8010E94650BC8010E941F0AE3
:1016C000870153CF10E000E050CFFB01DC0102C0E6
:1016D00001900D9241505040D8F70895FB01DC0174
:1016E00001900D920020E1F7089510E0CFE3D0E0E3
:1016F00004C0FE010E947D092196C034D107C9F7BC
:04170000F894FFCF8B
:10170400070608090E0F10001010800000000010DA
:101714001010000000000000100000000000C001D4
:10172400360163010D029401720186010405060766
:10173400050403020100000102030102030000008A
:101744000000010101010101020202020000000087
:101754001020408020100804020101020408020441
:101764000801000000003B023601C7023A0297025A
:10177400A90222020D0A00384269742048656C6C83
:101784006F576F726C6420537461727465642100C6
:0F1794006D6F6465206368616E6765643A20005D
:0C17A300203814380C3800005539800044
:00000001FF
